{
	"data": {
		"bytecode": {
			"linkReferences": {},
			"object": "608060405234801561001057600080fd5b50615983806100206000396000f3fe60806040523480156200001157600080fd5b5060043610620000465760003560e01c8063474da79a146200004b5780635a9f67e314620000815780636ebc8c8614620000a1575b600080fd5b62000069600480360381019062000063919062000457565b620000da565b60405162000078919062000514565b60405180910390f35b6200009f6004803603810190620000999190620006d0565b6200011a565b005b620000bf6004803603810190620000b9919062000457565b620001c7565b604051620000d1949392919062000857565b60405180910390f35b60008181548110620000eb57600080fd5b906000526020600020016000915054906101000a900473ffffffffffffffffffffffffffffffffffffffff1681565b6000848484846040516200012e90620003fa565b6200013d9493929190620008ca565b604051809103906000f0801580156200015a573d6000803e3d6000fd5b5090506000819080600181540180825580915050600190039060005260206000200160009091909190916101000a81548173ffffffffffffffffffffffffffffffffffffffff021916908373ffffffffffffffffffffffffffffffffffffffff1602179055505050505050565b600060608060606000808681548110620001e657620001e56200092c565b5b9060005260206000200160009054906101000a900473ffffffffffffffffffffffffffffffffffffffff1690508073ffffffffffffffffffffffffffffffffffffffff1663f6b4dfb46040518163ffffffff1660e01b8152600401602060405180830381865afa1580156200025f573d6000803e3d6000fd5b505050506040513d601f19601f820116820180604052508101906200028591906200098c565b8173ffffffffffffffffffffffffffffffffffffffff166306fdde036040518163ffffffff1660e01b8152600401600060405180830381865afa158015620002d1573d6000803e3d6000fd5b505050506040513d6000823e3d601f19601f82011682018060405250810190620002fc919062000a3c565b8273ffffffffffffffffffffffffffffffffffffffff166395d89b416040518163ffffffff1660e01b8152600401600060405180830381865afa15801562000348573d6000803e3d6000fd5b505050506040513d6000823e3d601f19601f8201168201806040525081019062000373919062000a3c565b8373ffffffffffffffffffffffffffffffffffffffff16636c0360eb6040518163ffffffff1660e01b8152600401600060405180830381865afa158015620003bf573d6000803e3d6000fd5b505050506040513d6000823e3d601f19601f82011682018060405250810190620003ea919062000a3c565b9450945094509450509193509193565b614ec08062000a8e83390190565b6000604051905090565b600080fd5b600080fd5b6000819050919050565b62000431816200041c565b81146200043d57600080fd5b50565b600081359050620004518162000426565b92915050565b60006020828403121562000470576200046f62000412565b5b6000620004808482850162000440565b91505092915050565b600073ffffffffffffffffffffffffffffffffffffffff82169050919050565b6000819050919050565b6000620004d4620004ce620004c88462000489565b620004a9565b62000489565b9050919050565b6000620004e882620004b3565b9050919050565b6000620004fc82620004db565b9050919050565b6200050e81620004ef565b82525050565b60006020820190506200052b600083018462000503565b92915050565b600080fd5b600080fd5b6000601f19601f8301169050919050565b7f4e487b7100000000000000000000000000000000000000000000000000000000600052604160045260246000fd5b62000586826200053b565b810181811067ffffffffffffffff82111715620005a857620005a76200054c565b5b80604052505050565b6000620005bd62000408565b9050620005cb82826200057b565b919050565b600067ffffffffffffffff821115620005ee57620005ed6200054c565b5b620005f9826200053b565b9050602081019050919050565b82818337600083830152505050565b60006200062c6200062684620005d0565b620005b1565b9050828152602081018484840111156200064b576200064a62000536565b5b6200065884828562000606565b509392505050565b600082601f83011262000678576200067762000531565b5b81356200068a84826020860162000615565b91505092915050565b60008115159050919050565b620006aa8162000693565b8114620006b657600080fd5b50565b600081359050620006ca816200069f565b92915050565b60008060008060808587031215620006ed57620006ec62000412565b5b600085013567ffffffffffffffff8111156200070e576200070d62000417565b5b6200071c8782880162000660565b945050602085013567ffffffffffffffff81111562000740576200073f62000417565b5b6200074e8782880162000660565b935050604085013567ffffffffffffffff81111562000772576200077162000417565b5b620007808782880162000660565b92505060606200079387828801620006b9565b91505092959194509250565b6000620007ac8262000489565b9050919050565b620007be816200079f565b82525050565b600081519050919050565b600082825260208201905092915050565b60005b8381101562000800578082015181840152602081019050620007e3565b8381111562000810576000848401525b50505050565b60006200082382620007c4565b6200082f8185620007cf565b935062000841818560208601620007e0565b6200084c816200053b565b840191505092915050565b60006080820190506200086e6000830187620007b3565b818103602083015262000882818662000816565b9050818103604083015262000898818562000816565b90508181036060830152620008ae818462000816565b905095945050505050565b620008c48162000693565b82525050565b60006080820190508181036000830152620008e6818762000816565b90508181036020830152620008fc818662000816565b9050818103604083015262000912818562000816565b9050620009236060830184620008b9565b95945050505050565b7f4e487b7100000000000000000000000000000000000000000000000000000000600052603260045260246000fd5b62000966816200079f565b81146200097257600080fd5b50565b60008151905062000986816200095b565b92915050565b600060208284031215620009a557620009a462000412565b5b6000620009b58482850162000975565b91505092915050565b6000620009d5620009cf84620005d0565b620005b1565b905082815260208101848484011115620009f457620009f362000536565b5b62000a01848285620007e0565b509392505050565b600082601f83011262000a215762000a2062000531565b5b815162000a33848260208601620009be565b91505092915050565b60006020828403121562000a555762000a5462000412565b5b600082015167ffffffffffffffff81111562000a765762000a7562000417565b5b62000a848482850162000a09565b9150509291505056fe60806040526040518060400160405280600581526020017f2e6a736f6e000000000000000000000000000000000000000000000000000000815250600890816200004a9190620004d3565b506000600960006101000a81548160ff0219169083151502179055503480156200007357600080fd5b5060405162004ec038038062004ec0833981810160405281019062000099919062000765565b60405180602001604052806000815250620000ba816200017660201b60201c565b50620000db620000cf6200018b60201b60201c565b6200019360201b60201c565b8360049081620000ec9190620004d3565b508260059081620000fe9190620004d3565b5030600760006101000a81548173ffffffffffffffffffffffffffffffffffffffff021916908373ffffffffffffffffffffffffffffffffffffffff1602179055508160069081620001519190620004d3565b5080600960006101000a81548160ff0219169083151502179055505050505062000834565b8060029081620001879190620004d3565b5050565b600033905090565b6000600360009054906101000a900473ffffffffffffffffffffffffffffffffffffffff16905081600360006101000a81548173ffffffffffffffffffffffffffffffffffffffff021916908373ffffffffffffffffffffffffffffffffffffffff1602179055508173ffffffffffffffffffffffffffffffffffffffff168173ffffffffffffffffffffffffffffffffffffffff167f8be0079c531659141344cd1fd0a4f28419497f9722a3daafe3b4186f6b6457e060405160405180910390a35050565b600081519050919050565b7f4e487b7100000000000000000000000000000000000000000000000000000000600052604160045260246000fd5b7f4e487b7100000000000000000000000000000000000000000000000000000000600052602260045260246000fd5b60006002820490506001821680620002db57607f821691505b602082108103620002f157620002f062000293565b5b50919050565b60008190508160005260206000209050919050565b60006020601f8301049050919050565b600082821b905092915050565b6000600883026200035b7fffffffffffffffffffffffffffffffffffffffffffffffffffffffffffffffff826200031c565b6200036786836200031c565b95508019841693508086168417925050509392505050565b6000819050919050565b6000819050919050565b6000620003b4620003ae620003a8846200037f565b62000389565b6200037f565b9050919050565b6000819050919050565b620003d08362000393565b620003e8620003df82620003bb565b84845462000329565b825550505050565b600090565b620003ff620003f0565b6200040c818484620003c5565b505050565b5b81811015620004345762000428600082620003f5565b60018101905062000412565b5050565b601f82111562000483576200044d81620002f7565b62000458846200030c565b8101602085101562000468578190505b6200048062000477856200030c565b83018262000411565b50505b505050565b600082821c905092915050565b6000620004a86000198460080262000488565b1980831691505092915050565b6000620004c3838362000495565b9150826002028217905092915050565b620004de8262000259565b67ffffffffffffffff811115620004fa57620004f962000264565b5b620005068254620002c2565b6200051382828562000438565b600060209050601f8311600181146200054b576000841562000536578287015190505b620005428582620004b5565b865550620005b2565b601f1984166200055b86620002f7565b60005b8281101562000585578489015182556001820191506020850194506020810190506200055e565b86831015620005a55784890151620005a1601f89168262000495565b8355505b6001600288020188555050505b505050505050565b6000604051905090565b600080fd5b600080fd5b600080fd5b600080fd5b6000601f19601f8301169050919050565b620005f482620005d8565b810181811067ffffffffffffffff8211171562000616576200061562000264565b5b80604052505050565b60006200062b620005ba565b9050620006398282620005e9565b919050565b600067ffffffffffffffff8211156200065c576200065b62000264565b5b6200066782620005d8565b9050602081019050919050565b60005b838110156200069457808201518184015260208101905062000677565b83811115620006a4576000848401525b50505050565b6000620006c1620006bb846200063e565b6200061f565b905082815260208101848484011115620006e057620006df620005d3565b5b620006ed84828562000674565b509392505050565b600082601f8301126200070d576200070c620005ce565b5b81516200071f848260208601620006aa565b91505092915050565b60008115159050919050565b6200073f8162000728565b81146200074b57600080fd5b50565b6000815190506200075f8162000734565b92915050565b60008060008060808587031215620007825762000781620005c4565b5b600085015167ffffffffffffffff811115620007a357620007a2620005c9565b5b620007b187828801620006f5565b945050602085015167ffffffffffffffff811115620007d557620007d4620005c9565b5b620007e387828801620006f5565b935050604085015167ffffffffffffffff811115620008075762000806620005c9565b5b6200081587828801620006f5565b925050606062000828878288016200074e565b91505092959194509250565b61467c80620008446000396000f3fe608060405234801561001057600080fd5b506004361061018d5760003560e01c8063a0bcfc7f116100de578063e725f87711610097578063f2fde38b11610071578063f2fde38b14610492578063f33f39e3146104ae578063f6b4dfb4146104ca578063ff4078d3146104e85761018d565b8063e725f87714610416578063e985e9c514610446578063f242432a146104765761018d565b8063a0bcfc7f14610358578063a22cb46514610374578063b09c5fa614610390578063c6682862146103ac578063cb5abcce146103ca578063e0208aa8146103fa5761018d565b80632eb2c2d61161014b5780636c0360eb116101255780636c0360eb146102f4578063715018a6146103125780638da5cb5b1461031c57806395d89b411461033a5761018d565b80632eb2c2d614610278578063397311ec146102945780634e1273f4146102c45761018d565b8062fdd58e1461019257806301ffc9a7146101c257806306fdde03146101f25780630e89341c146102105780632833bc5914610240578063292fec0a1461025c575b600080fd5b6101ac60048036038101906101a79190612951565b610518565b6040516101b991906129a0565b60405180910390f35b6101dc60048036038101906101d79190612a13565b6105e0565b6040516101e99190612a5b565b60405180910390f35b6101fa6106c2565b6040516102079190612b0f565b60405180910390f35b61022a60048036038101906102259190612b31565b610750565b6040516102379190612b0f565b60405180910390f35b61025a60048036038101906102559190612951565b610787565b005b61027660048036038101906102719190612b5e565b610991565b005b610292600480360381019061028d9190612d9b565b610b2a565b005b6102ae60048036038101906102a99190612b31565b610bcb565b6040516102bb9190612a5b565b60405180910390f35b6102de60048036038101906102d99190612f2d565b610bf8565b6040516102eb9190613063565b60405180910390f35b6102fc610d11565b6040516103099190612b0f565b60405180910390f35b61031a610d9f565b005b610324610e27565b6040516103319190613094565b60405180910390f35b610342610e51565b60405161034f9190612b0f565b60405180910390f35b610372600480360381019061036d9190613150565b610edf565b005b61038e600480360381019061038991906131c5565b610f6e565b005b6103aa60048036038101906103a59190613205565b610f84565b005b6103b461104e565b6040516103c19190612b0f565b60405180910390f35b6103e460048036038101906103df9190612b31565b6110dc565b6040516103f1919061328c565b60405180910390f35b610414600480360381019061040f91906132d3565b611118565b005b610430600480360381019061042b9190612b31565b6112c3565b60405161043d9190612b0f565b60405180910390f35b610460600480360381019061045b9190613342565b61136b565b60405161046d9190612a5b565b60405180910390f35b610490600480360381019061048b9190613382565b6113ff565b005b6104ac60048036038101906104a79190613419565b6114a0565b005b6104c860048036038101906104c39190613446565b611597565b005b6104d2611858565b6040516104df9190613094565b60405180910390f35b61050260048036038101906104fd9190612b31565b61187e565b60405161050f919061328c565b60405180910390f35b60008073ffffffffffffffffffffffffffffffffffffffff168373ffffffffffffffffffffffffffffffffffffffff1603610588576040517f08c379a000000000000000000000000000000000000000000000000000000000815260040161057f9061350b565b60405180910390fd5b60008083815260200190815260200160002060008473ffffffffffffffffffffffffffffffffffffffff1673ffffffffffffffffffffffffffffffffffffffff16815260200190815260200160002054905092915050565b60007fd9b67a26000000000000000000000000000000000000000000000000000000007bffffffffffffffffffffffffffffffffffffffffffffffffffffffff1916827bffffffffffffffffffffffffffffffffffffffffffffffffffffffff191614806106ab57507f0e89341c000000000000000000000000000000000000000000000000000000007bffffffffffffffffffffffffffffffffffffffffffffffffffffffff1916827bffffffffffffffffffffffffffffffffffffffffffffffffffffffff1916145b806106bb57506106ba826118ba565b5b9050919050565b600480546106cf9061355a565b80601f01602080910402602001604051908101604052809291908181526020018280546106fb9061355a565b80156107485780601f1061071d57610100808354040283529160200191610748565b820191906000526020600020905b81548152906001019060200180831161072b57829003601f168201915b505050505081565b6060600661075d83611924565b60086040516020016107719392919061365f565b6040516020818303038152906040529050919050565b61078f611a84565b73ffffffffffffffffffffffffffffffffffffffff166107ad610e27565b73ffffffffffffffffffffffffffffffffffffffff1614610803576040517f08c379a00000000000000000000000000000000000000000000000000000000081526004016107fa906136dc565b60405180910390fd5b80600f600082815260200190815260200160002060020160009054906101000a900460ff16156108f857600f600082815260200190815260200160002060020160019054906101000a90046fffffffffffffffffffffffffffffffff166fffffffffffffffffffffffffffffffff16600f600083815260200190815260200160002060030160009054906101000a90046fffffffffffffffffffffffffffffffff166fffffffffffffffffffffffffffffffff16106108f7576040517f08c379a00000000000000000000000000000000000000000000000000000000081526004016108ee90613748565b60405180910390fd5b5b6109148383600160405180602001604052806000815250611a8c565b6001600f600084815260200190815260200160002060030160008282829054906101000a90046fffffffffffffffffffffffffffffffff166109569190613797565b92506101000a8154816fffffffffffffffffffffffffffffffff02191690836fffffffffffffffffffffffffffffffff160217905550505050565b610999611a84565b73ffffffffffffffffffffffffffffffffffffffff166109b7610e27565b73ffffffffffffffffffffffffffffffffffffffff1614610a0d576040517f08c379a0000000000000000000000000000000000000000000000000000000008152600401610a04906136dc565b60405180910390fd5b60011515600f600084815260200190815260200160002060040160008373ffffffffffffffffffffffffffffffffffffffff1673ffffffffffffffffffffffffffffffffffffffff16815260200190815260200160002060009054906101000a900460ff16151503610ab4576040517f08c379a0000000000000000000000000000000000000000000000000000000008152600401610aab90613829565b60405180910390fd5b6000600f6000848152602001908152602001600020905060018160040160008473ffffffffffffffffffffffffffffffffffffffff1673ffffffffffffffffffffffffffffffffffffffff16815260200190815260200160002060006101000a81548160ff021916908315150217905550505050565b610b32611a84565b73ffffffffffffffffffffffffffffffffffffffff168573ffffffffffffffffffffffffffffffffffffffff161480610b785750610b7785610b72611a84565b61136b565b5b610bb7576040517f08c379a0000000000000000000000000000000000000000000000000000000008152600401610bae906138bb565b60405180910390fd5b610bc48585858585611c3c565b5050505050565b6000600f600083815260200190815260200160002060020160009054906101000a900460ff169050919050565b60608151835114610c3e576040517f08c379a0000000000000000000000000000000000000000000000000000000008152600401610c359061394d565b60405180910390fd5b6000835167ffffffffffffffff811115610c5b57610c5a612ba3565b5b604051908082528060200260200182016040528015610c895781602001602082028036833780820191505090505b50905060005b8451811015610d0657610cd6858281518110610cae57610cad61396d565b5b6020026020010151858381518110610cc957610cc861396d565b5b6020026020010151610518565b828281518110610ce957610ce861396d565b5b60200260200101818152505080610cff9061399c565b9050610c8f565b508091505092915050565b60068054610d1e9061355a565b80601f0160208091040260200160405190810160405280929190818152602001828054610d4a9061355a565b8015610d975780601f10610d6c57610100808354040283529160200191610d97565b820191906000526020600020905b815481529060010190602001808311610d7a57829003601f168201915b505050505081565b610da7611a84565b73ffffffffffffffffffffffffffffffffffffffff16610dc5610e27565b73ffffffffffffffffffffffffffffffffffffffff1614610e1b576040517f08c379a0000000000000000000000000000000000000000000000000000000008152600401610e12906136dc565b60405180910390fd5b610e256000611f5d565b565b6000600360009054906101000a900473ffffffffffffffffffffffffffffffffffffffff16905090565b60058054610e5e9061355a565b80601f0160208091040260200160405190810160405280929190818152602001828054610e8a9061355a565b8015610ed75780601f10610eac57610100808354040283529160200191610ed7565b820191906000526020600020905b815481529060010190602001808311610eba57829003601f168201915b505050505081565b610ee7611a84565b73ffffffffffffffffffffffffffffffffffffffff16610f05610e27565b73ffffffffffffffffffffffffffffffffffffffff1614610f5b576040517f08c379a0000000000000000000000000000000000000000000000000000000008152600401610f52906136dc565b60405180910390fd5b8060069081610f6a9190613b7b565b5050565b610f80610f79611a84565b8383612023565b5050565b610f8c611a84565b73ffffffffffffffffffffffffffffffffffffffff16610faa610e27565b73ffffffffffffffffffffffffffffffffffffffff1614611000576040517f08c379a0000000000000000000000000000000000000000000000000000000008152600401610ff7906136dc565b60405180910390fd5b60008251905060005b81811015611048576110358482815181106110275761102661396d565b5b602002602001015184610787565b80806110409061399c565b915050611009565b50505050565b6008805461105b9061355a565b80601f01602080910402602001604051908101604052809291908181526020018280546110879061355a565b80156110d45780601f106110a9576101008083540402835291602001916110d4565b820191906000526020600020905b8154815290600101906020018083116110b757829003601f168201915b505050505081565b6000600f600083815260200190815260200160002060020160019054906101000a90046fffffffffffffffffffffffffffffffff169050919050565b611120611a84565b73ffffffffffffffffffffffffffffffffffffffff1661113e610e27565b73ffffffffffffffffffffffffffffffffffffffff1614611194576040517f08c379a000000000000000000000000000000000000000000000000000000000815260040161118b906136dc565b60405180910390fd5b60006111a0601061218f565b90506000600f600083815260200190815260200160002060020160019054906101000a90046fffffffffffffffffffffffffffffffff166fffffffffffffffffffffffffffffffff1614611229576040517f08c379a000000000000000000000000000000000000000000000000000000000815260040161122090613c99565b60405180910390fd5b6000600f600083815260200190815260200160002090508181600001819055508481600101908161125a9190613b7b565b50838160020160006101000a81548160ff021916908315150217905550828160020160016101000a8154816fffffffffffffffffffffffffffffffff02191690836fffffffffffffffffffffffffffffffff1602179055506112bc601061219d565b5050505050565b6060600f600083815260200190815260200160002060010180546112e69061355a565b80601f01602080910402602001604051908101604052809291908181526020018280546113129061355a565b801561135f5780601f106113345761010080835404028352916020019161135f565b820191906000526020600020905b81548152906001019060200180831161134257829003601f168201915b50505050509050919050565b6000600160008473ffffffffffffffffffffffffffffffffffffffff1673ffffffffffffffffffffffffffffffffffffffff16815260200190815260200160002060008373ffffffffffffffffffffffffffffffffffffffff1673ffffffffffffffffffffffffffffffffffffffff16815260200190815260200160002060009054906101000a900460ff16905092915050565b611407611a84565b73ffffffffffffffffffffffffffffffffffffffff168573ffffffffffffffffffffffffffffffffffffffff16148061144d575061144c85611447611a84565b61136b565b5b61148c576040517f08c379a000000000000000000000000000000000000000000000000000000000815260040161148390613d2b565b60405180910390fd5b61149985858585856121b3565b5050505050565b6114a8611a84565b73ffffffffffffffffffffffffffffffffffffffff166114c6610e27565b73ffffffffffffffffffffffffffffffffffffffff161461151c576040517f08c379a0000000000000000000000000000000000000000000000000000000008152600401611513906136dc565b60405180910390fd5b600073ffffffffffffffffffffffffffffffffffffffff168173ffffffffffffffffffffffffffffffffffffffff160361158b576040517f08c379a000000000000000000000000000000000000000000000000000000000815260040161158290613dbd565b60405180910390fd5b61159481611f5d565b50565b80600f600082815260200190815260200160002060020160009054906101000a900460ff161561168c57600f600082815260200190815260200160002060020160019054906101000a90046fffffffffffffffffffffffffffffffff166fffffffffffffffffffffffffffffffff16600f600083815260200190815260200160002060030160009054906101000a90046fffffffffffffffffffffffffffffffff166fffffffffffffffffffffffffffffffff161061168b576040517f08c379a000000000000000000000000000000000000000000000000000000000815260040161168290613748565b60405180910390fd5b5b600f600083815260200190815260200160002060030160109054906101000a900460ff166116ef576040517f08c379a00000000000000000000000000000000000000000000000000000000081526004016116e690613e29565b60405180910390fd5b600f600083815260200190815260200160002060040160008573ffffffffffffffffffffffffffffffffffffffff1673ffffffffffffffffffffffffffffffffffffffff16815260200190815260200160002060009054906101000a900460ff1661178f576040517f08c379a000000000000000000000000000000000000000000000000000000000815260040161178690613e95565b60405180910390fd5b6117ab8383600160405180602001604052806000815250611a8c565b6001600f600084815260200190815260200160002060030160008282829054906101000a90046fffffffffffffffffffffffffffffffff166117ed9190613797565b92506101000a8154816fffffffffffffffffffffffffffffffff02191690836fffffffffffffffffffffffffffffffff1602179055506000600f600084815260200190815260200160002060030160106101000a81548160ff02191690831515021790555050505050565b600760009054906101000a900473ffffffffffffffffffffffffffffffffffffffff1681565b6000600f600083815260200190815260200160002060030160009054906101000a90046fffffffffffffffffffffffffffffffff169050919050565b60007f01ffc9a7000000000000000000000000000000000000000000000000000000007bffffffffffffffffffffffffffffffffffffffffffffffffffffffff1916827bffffffffffffffffffffffffffffffffffffffffffffffffffffffff1916149050919050565b60606000820361196b576040518060400160405280600181526020017f30000000000000000000000000000000000000000000000000000000000000008152509050611a7f565b600082905060005b6000821461199d5780806119869061399c565b915050600a826119969190613ee4565b9150611973565b60008167ffffffffffffffff8111156119b9576119b8612ba3565b5b6040519080825280601f01601f1916602001820160405280156119eb5781602001600182028036833780820191505090505b5090505b60008514611a7857600182611a049190613f15565b9150600a85611a139190613f49565b6030611a1f9190613f7a565b60f81b818381518110611a3557611a3461396d565b5b60200101907effffffffffffffffffffffffffffffffffffffffffffffffffffffffffffff1916908160001a905350600a85611a719190613ee4565b94506119ef565b8093505050505b919050565b600033905090565b600073ffffffffffffffffffffffffffffffffffffffff168473ffffffffffffffffffffffffffffffffffffffff1603611afb576040517f08c379a0000000000000000000000000000000000000000000000000000000008152600401611af290614042565b60405180910390fd5b6000611b05611a84565b90506000611b128561244e565b90506000611b1f8561244e565b9050611b30836000898585896124c8565b8460008088815260200190815260200160002060008973ffffffffffffffffffffffffffffffffffffffff1673ffffffffffffffffffffffffffffffffffffffff1681526020019081526020016000206000828254611b8f9190613f7a565b925050819055508673ffffffffffffffffffffffffffffffffffffffff16600073ffffffffffffffffffffffffffffffffffffffff168473ffffffffffffffffffffffffffffffffffffffff167fc3d58168c5ae7397731d063d5bbf3d657854427343f4c083240f7aacaa2d0f628989604051611c0d929190614062565b60405180910390a4611c24836000898585896124d0565b611c33836000898989896124d8565b50505050505050565b8151835114611c80576040517f08c379a0000000000000000000000000000000000000000000000000000000008152600401611c77906140fd565b60405180910390fd5b600073ffffffffffffffffffffffffffffffffffffffff168473ffffffffffffffffffffffffffffffffffffffff1603611cef576040517f08c379a0000000000000000000000000000000000000000000000000000000008152600401611ce69061418f565b60405180910390fd5b6000611cf9611a84565b9050611d098187878787876124c8565b60005b8451811015611eba576000858281518110611d2a57611d2961396d565b5b602002602001015190506000858381518110611d4957611d4861396d565b5b60200260200101519050600080600084815260200190815260200160002060008b73ffffffffffffffffffffffffffffffffffffffff1673ffffffffffffffffffffffffffffffffffffffff16815260200190815260200160002054905081811015611dea576040517f08c379a0000000000000000000000000000000000000000000000000000000008152600401611de190614221565b60405180910390fd5b81810360008085815260200190815260200160002060008c73ffffffffffffffffffffffffffffffffffffffff1673ffffffffffffffffffffffffffffffffffffffff168152602001908152602001600020819055508160008085815260200190815260200160002060008b73ffffffffffffffffffffffffffffffffffffffff1673ffffffffffffffffffffffffffffffffffffffff1681526020019081526020016000206000828254611e9f9190613f7a565b9250508190555050505080611eb39061399c565b9050611d0c565b508473ffffffffffffffffffffffffffffffffffffffff168673ffffffffffffffffffffffffffffffffffffffff168273ffffffffffffffffffffffffffffffffffffffff167f4a39dc06d4c0dbc64b70af90fd698a233a518aa5d07e595d983b8c0526c8f7fb8787604051611f31929190614241565b60405180910390a4611f478187878787876124d0565b611f558187878787876126af565b505050505050565b6000600360009054906101000a900473ffffffffffffffffffffffffffffffffffffffff16905081600360006101000a81548173ffffffffffffffffffffffffffffffffffffffff021916908373ffffffffffffffffffffffffffffffffffffffff1602179055508173ffffffffffffffffffffffffffffffffffffffff168173ffffffffffffffffffffffffffffffffffffffff167f8be0079c531659141344cd1fd0a4f28419497f9722a3daafe3b4186f6b6457e060405160405180910390a35050565b8173ffffffffffffffffffffffffffffffffffffffff168373ffffffffffffffffffffffffffffffffffffffff1603612091576040517f08c379a0000000000000000000000000000000000000000000000000000000008152600401612088906142ea565b60405180910390fd5b80600160008573ffffffffffffffffffffffffffffffffffffffff1673ffffffffffffffffffffffffffffffffffffffff16815260200190815260200160002060008473ffffffffffffffffffffffffffffffffffffffff1673ffffffffffffffffffffffffffffffffffffffff16815260200190815260200160002060006101000a81548160ff0219169083151502179055508173ffffffffffffffffffffffffffffffffffffffff168373ffffffffffffffffffffffffffffffffffffffff167f17307eab39ab6107e8899845ad3d59bd9653f200f220920489ca2b5937696c31836040516121829190612a5b565b60405180910390a3505050565b600081600001549050919050565b6001816000016000828254019250508190555050565b600073ffffffffffffffffffffffffffffffffffffffff168473ffffffffffffffffffffffffffffffffffffffff1603612222576040517f08c379a00000000000000000000000000000000000000000000000000000000081526004016122199061418f565b60405180910390fd5b600061222c611a84565b905060006122398561244e565b905060006122468561244e565b90506122568389898585896124c8565b600080600088815260200190815260200160002060008a73ffffffffffffffffffffffffffffffffffffffff1673ffffffffffffffffffffffffffffffffffffffff168152602001908152602001600020549050858110156122ed576040517f08c379a00000000000000000000000000000000000000000000000000000000081526004016122e490614221565b60405180910390fd5b85810360008089815260200190815260200160002060008b73ffffffffffffffffffffffffffffffffffffffff1673ffffffffffffffffffffffffffffffffffffffff168152602001908152602001600020819055508560008089815260200190815260200160002060008a73ffffffffffffffffffffffffffffffffffffffff1673ffffffffffffffffffffffffffffffffffffffff16815260200190815260200160002060008282546123a29190613f7a565b925050819055508773ffffffffffffffffffffffffffffffffffffffff168973ffffffffffffffffffffffffffffffffffffffff168573ffffffffffffffffffffffffffffffffffffffff167fc3d58168c5ae7397731d063d5bbf3d657854427343f4c083240f7aacaa2d0f628a8a60405161241f929190614062565b60405180910390a4612435848a8a86868a6124d0565b612443848a8a8a8a8a6124d8565b505050505050505050565b60606000600167ffffffffffffffff81111561246d5761246c612ba3565b5b60405190808252806020026020018201604052801561249b5781602001602082028036833780820191505090505b50905082816000815181106124b3576124b261396d565b5b60200260200101818152505080915050919050565b505050505050565b505050505050565b6124f78473ffffffffffffffffffffffffffffffffffffffff16612886565b156126a7578373ffffffffffffffffffffffffffffffffffffffff1663f23a6e6187878686866040518663ffffffff1660e01b815260040161253d95949392919061435f565b6020604051808303816000875af192505050801561257957506040513d601f19601f8201168201806040525081019061257691906143ce565b60015b61261e57612585614408565b806308c379a0036125e1575061259961442a565b806125a457506125e3565b806040517f08c379a00000000000000000000000000000000000000000000000000000000081526004016125d89190612b0f565b60405180910390fd5b505b6040517f08c379a00000000000000000000000000000000000000000000000000000000081526004016126159061452c565b60405180910390fd5b63f23a6e6160e01b7bffffffffffffffffffffffffffffffffffffffffffffffffffffffff1916817bffffffffffffffffffffffffffffffffffffffffffffffffffffffff1916146126a5576040517f08c379a000000000000000000000000000000000000000000000000000000000815260040161269c906145be565b60405180910390fd5b505b505050505050565b6126ce8473ffffffffffffffffffffffffffffffffffffffff16612886565b1561287e578373ffffffffffffffffffffffffffffffffffffffff1663bc197c8187878686866040518663ffffffff1660e01b81526004016127149594939291906145de565b6020604051808303816000875af192505050801561275057506040513d601f19601f8201168201806040525081019061274d91906143ce565b60015b6127f55761275c614408565b806308c379a0036127b8575061277061442a565b8061277b57506127ba565b806040517f08c379a00000000000000000000000000000000000000000000000000000000081526004016127af9190612b0f565b60405180910390fd5b505b6040517f08c379a00000000000000000000000000000000000000000000000000000000081526004016127ec9061452c565b60405180910390fd5b63bc197c8160e01b7bffffffffffffffffffffffffffffffffffffffffffffffffffffffff1916817bffffffffffffffffffffffffffffffffffffffffffffffffffffffff19161461287c576040517f08c379a0000000000000000000000000000000000000000000000000000000008152600401612873906145be565b60405180910390fd5b505b505050505050565b6000808273ffffffffffffffffffffffffffffffffffffffff163b119050919050565b6000604051905090565b600080fd5b600080fd5b600073ffffffffffffffffffffffffffffffffffffffff82169050919050565b60006128e8826128bd565b9050919050565b6128f8816128dd565b811461290357600080fd5b50565b600081359050612915816128ef565b92915050565b6000819050919050565b61292e8161291b565b811461293957600080fd5b50565b60008135905061294b81612925565b92915050565b60008060408385031215612968576129676128b3565b5b600061297685828601612906565b92505060206129878582860161293c565b9150509250929050565b61299a8161291b565b82525050565b60006020820190506129b56000830184612991565b92915050565b60007fffffffff0000000000000000000000000000000000000000000000000000000082169050919050565b6129f0816129bb565b81146129fb57600080fd5b50565b600081359050612a0d816129e7565b92915050565b600060208284031215612a2957612a286128b3565b5b6000612a37848285016129fe565b91505092915050565b60008115159050919050565b612a5581612a40565b82525050565b6000602082019050612a706000830184612a4c565b92915050565b600081519050919050565b600082825260208201905092915050565b60005b83811015612ab0578082015181840152602081019050612a95565b83811115612abf576000848401525b50505050565b6000601f19601f8301169050919050565b6000612ae182612a76565b612aeb8185612a81565b9350612afb818560208601612a92565b612b0481612ac5565b840191505092915050565b60006020820190508181036000830152612b298184612ad6565b905092915050565b600060208284031215612b4757612b466128b3565b5b6000612b558482850161293c565b91505092915050565b60008060408385031215612b7557612b746128b3565b5b6000612b838582860161293c565b9250506020612b9485828601612906565b9150509250929050565b600080fd5b7f4e487b7100000000000000000000000000000000000000000000000000000000600052604160045260246000fd5b612bdb82612ac5565b810181811067ffffffffffffffff82111715612bfa57612bf9612ba3565b5b80604052505050565b6000612c0d6128a9565b9050612c198282612bd2565b919050565b600067ffffffffffffffff821115612c3957612c38612ba3565b5b602082029050602081019050919050565b600080fd5b6000612c62612c5d84612c1e565b612c03565b90508083825260208201905060208402830185811115612c8557612c84612c4a565b5b835b81811015612cae5780612c9a888261293c565b845260208401935050602081019050612c87565b5050509392505050565b600082601f830112612ccd57612ccc612b9e565b5b8135612cdd848260208601612c4f565b91505092915050565b600080fd5b600067ffffffffffffffff821115612d0657612d05612ba3565b5b612d0f82612ac5565b9050602081019050919050565b82818337600083830152505050565b6000612d3e612d3984612ceb565b612c03565b905082815260208101848484011115612d5a57612d59612ce6565b5b612d65848285612d1c565b509392505050565b600082601f830112612d8257612d81612b9e565b5b8135612d92848260208601612d2b565b91505092915050565b600080600080600060a08688031215612db757612db66128b3565b5b6000612dc588828901612906565b9550506020612dd688828901612906565b945050604086013567ffffffffffffffff811115612df757612df66128b8565b5b612e0388828901612cb8565b935050606086013567ffffffffffffffff811115612e2457612e236128b8565b5b612e3088828901612cb8565b925050608086013567ffffffffffffffff811115612e5157612e506128b8565b5b612e5d88828901612d6d565b9150509295509295909350565b600067ffffffffffffffff821115612e8557612e84612ba3565b5b602082029050602081019050919050565b6000612ea9612ea484612e6a565b612c03565b90508083825260208201905060208402830185811115612ecc57612ecb612c4a565b5b835b81811015612ef55780612ee18882612906565b845260208401935050602081019050612ece565b5050509392505050565b600082601f830112612f1457612f13612b9e565b5b8135612f24848260208601612e96565b91505092915050565b60008060408385031215612f4457612f436128b3565b5b600083013567ffffffffffffffff811115612f6257612f616128b8565b5b612f6e85828601612eff565b925050602083013567ffffffffffffffff811115612f8f57612f8e6128b8565b5b612f9b85828601612cb8565b9150509250929050565b600081519050919050565b600082825260208201905092915050565b6000819050602082019050919050565b612fda8161291b565b82525050565b6000612fec8383612fd1565b60208301905092915050565b6000602082019050919050565b600061301082612fa5565b61301a8185612fb0565b935061302583612fc1565b8060005b8381101561305657815161303d8882612fe0565b975061304883612ff8565b925050600181019050613029565b5085935050505092915050565b6000602082019050818103600083015261307d8184613005565b905092915050565b61308e816128dd565b82525050565b60006020820190506130a96000830184613085565b92915050565b600067ffffffffffffffff8211156130ca576130c9612ba3565b5b6130d382612ac5565b9050602081019050919050565b60006130f36130ee846130af565b612c03565b90508281526020810184848401111561310f5761310e612ce6565b5b61311a848285612d1c565b509392505050565b600082601f83011261313757613136612b9e565b5b81356131478482602086016130e0565b91505092915050565b600060208284031215613166576131656128b3565b5b600082013567ffffffffffffffff811115613184576131836128b8565b5b61319084828501613122565b91505092915050565b6131a281612a40565b81146131ad57600080fd5b50565b6000813590506131bf81613199565b92915050565b600080604083850312156131dc576131db6128b3565b5b60006131ea85828601612906565b92505060206131fb858286016131b0565b9150509250929050565b6000806040838503121561321c5761321b6128b3565b5b600083013567ffffffffffffffff81111561323a576132396128b8565b5b61324685828601612eff565b92505060206132578582860161293c565b9150509250929050565b60006fffffffffffffffffffffffffffffffff82169050919050565b61328681613261565b82525050565b60006020820190506132a1600083018461327d565b92915050565b6132b081613261565b81146132bb57600080fd5b50565b6000813590506132cd816132a7565b92915050565b6000806000606084860312156132ec576132eb6128b3565b5b600084013567ffffffffffffffff81111561330a576133096128b8565b5b61331686828701613122565b9350506020613327868287016131b0565b9250506040613338868287016132be565b9150509250925092565b60008060408385031215613359576133586128b3565b5b600061336785828601612906565b925050602061337885828601612906565b9150509250929050565b600080600080600060a0868803121561339e5761339d6128b3565b5b60006133ac88828901612906565b95505060206133bd88828901612906565b94505060406133ce8882890161293c565b93505060606133df8882890161293c565b925050608086013567ffffffffffffffff811115613400576133ff6128b8565b5b61340c88828901612d6d565b9150509295509295909350565b60006020828403121561342f5761342e6128b3565b5b600061343d84828501612906565b91505092915050565b60008060006060848603121561345f5761345e6128b3565b5b600061346d86828701612906565b935050602061347e86828701612906565b925050604061348f8682870161293c565b9150509250925092565b7f455243313135353a2062616c616e636520717565727920666f7220746865207a60008201527f65726f2061646472657373000000000000000000000000000000000000000000602082015250565b60006134f5602b83612a81565b915061350082613499565b604082019050919050565b60006020820190508181036000830152613524816134e8565b9050919050565b7f4e487b7100000000000000000000000000000000000000000000000000000000600052602260045260246000fd5b6000600282049050600182168061357257607f821691505b6020821081036135855761358461352b565b5b50919050565b600081905092915050565b60008190508160005260206000209050919050565b600081546135b88161355a565b6135c2818661358b565b945060018216600081146135dd57600181146135f257613625565b60ff1983168652811515820286019350613625565b6135fb85613596565b60005b8381101561361d578154818901526001820191506020810190506135fe565b838801955050505b50505092915050565b600061363982612a76565b613643818561358b565b9350613653818560208601612a92565b80840191505092915050565b600061366b82866135ab565b9150613677828561362e565b915061368382846135ab565b9150819050949350505050565b7f4f776e61626c653a2063616c6c6572206973206e6f7420746865206f776e6572600082015250565b60006136c6602083612a81565b91506136d182613690565b602082019050919050565b600060208201905081810360008301526136f5816136b9565b9050919050565b7f4d617820746f6b656e7320697373756564000000000000000000000000000000600082015250565b6000613732601183612a81565b915061373d826136fc565b602082019050919050565b6000602082019050818103600083015261376181613725565b9050919050565b7f4e487b7100000000000000000000000000000000000000000000000000000000600052601160045260246000fd5b60006137a282613261565b91506137ad83613261565b9250826fffffffffffffffffffffffffffffffff038211156137d2576137d1613768565b5b828201905092915050565b7f6f776e657220616c726561647920657869737473210000000000000000000000600082015250565b6000613813601583612a81565b915061381e826137dd565b602082019050919050565b6000602082019050818103600083015261384281613806565b9050919050565b7f455243313135353a207472616e736665722063616c6c6572206973206e6f742060008201527f6f776e6572206e6f7220617070726f7665640000000000000000000000000000602082015250565b60006138a5603283612a81565b91506138b082613849565b604082019050919050565b600060208201905081810360008301526138d481613898565b9050919050565b7f455243313135353a206163636f756e747320616e6420696473206c656e67746860008201527f206d69736d617463680000000000000000000000000000000000000000000000602082015250565b6000613937602983612a81565b9150613942826138db565b604082019050919050565b600060208201905081810360008301526139668161392a565b9050919050565b7f4e487b7100000000000000000000000000000000000000000000000000000000600052603260045260246000fd5b60006139a78261291b565b91507fffffffffffffffffffffffffffffffffffffffffffffffffffffffffffffffff82036139d9576139d8613768565b5b600182019050919050565b60006020601f8301049050919050565b600082821b905092915050565b600060088302613a317fffffffffffffffffffffffffffffffffffffffffffffffffffffffffffffffff826139f4565b613a3b86836139f4565b95508019841693508086168417925050509392505050565b6000819050919050565b6000613a78613a73613a6e8461291b565b613a53565b61291b565b9050919050565b6000819050919050565b613a9283613a5d565b613aa6613a9e82613a7f565b848454613a01565b825550505050565b600090565b613abb613aae565b613ac6818484613a89565b505050565b5b81811015613aea57613adf600082613ab3565b600181019050613acc565b5050565b601f821115613b2f57613b0081613596565b613b09846139e4565b81016020851015613b18578190505b613b2c613b24856139e4565b830182613acb565b50505b505050565b600082821c905092915050565b6000613b5260001984600802613b34565b1980831691505092915050565b6000613b6b8383613b41565b9150826002028217905092915050565b613b8482612a76565b67ffffffffffffffff811115613b9d57613b9c612ba3565b5b613ba7825461355a565b613bb2828285613aee565b600060209050601f831160018114613be55760008415613bd3578287015190505b613bdd8582613b5f565b865550613c45565b601f198416613bf386613596565b60005b82811015613c1b57848901518255600182019150602085019450602081019050613bf6565b86831015613c385784890151613c34601f891682613b41565b8355505b6001600288020188555050505b505050505050565b7f546f6b656e20616c726561647920657869737473000000000000000000000000600082015250565b6000613c83601483612a81565b9150613c8e82613c4d565b602082019050919050565b60006020820190508181036000830152613cb281613c76565b9050919050565b7f455243313135353a2063616c6c6572206973206e6f74206f776e6572206e6f7260008201527f20617070726f7665640000000000000000000000000000000000000000000000602082015250565b6000613d15602983612a81565b9150613d2082613cb9565b604082019050919050565b60006020820190508181036000830152613d4481613d08565b9050919050565b7f4f776e61626c653a206e6577206f776e657220697320746865207a65726f206160008201527f6464726573730000000000000000000000000000000000000000000000000000602082015250565b6000613da7602683612a81565b9150613db282613d4b565b604082019050919050565b60006020820190508181036000830152613dd681613d9a565b9050919050565b7f6e6f7420616c6c6f77656420746f206d696e20746f6b656e2100000000000000600082015250565b6000613e13601983612a81565b9150613e1e82613ddd565b602082019050919050565b60006020820190508181036000830152613e4281613e06565b9050919050565b7f7065726d697373696f6e2064656e696564210000000000000000000000000000600082015250565b6000613e7f601283612a81565b9150613e8a82613e49565b602082019050919050565b60006020820190508181036000830152613eae81613e72565b9050919050565b7f4e487b7100000000000000000000000000000000000000000000000000000000600052601260045260246000fd5b6000613eef8261291b565b9150613efa8361291b565b925082613f0a57613f09613eb5565b5b828204905092915050565b6000613f208261291b565b9150613f2b8361291b565b925082821015613f3e57613f3d613768565b5b828203905092915050565b6000613f548261291b565b9150613f5f8361291b565b925082613f6f57613f6e613eb5565b5b828206905092915050565b6000613f858261291b565b9150613f908361291b565b9250827fffffffffffffffffffffffffffffffffffffffffffffffffffffffffffffffff03821115613fc557613fc4613768565b5b828201905092915050565b7f455243313135353a206d696e7420746f20746865207a65726f2061646472657360008201527f7300000000000000000000000000000000000000000000000000000000000000602082015250565b600061402c602183612a81565b915061403782613fd0565b604082019050919050565b6000602082019050818103600083015261405b8161401f565b9050919050565b60006040820190506140776000830185612991565b6140846020830184612991565b9392505050565b7f455243313135353a2069647320616e6420616d6f756e7473206c656e6774682060008201527f6d69736d61746368000000000000000000000000000000000000000000000000602082015250565b60006140e7602883612a81565b91506140f28261408b565b604082019050919050565b60006020820190508181036000830152614116816140da565b9050919050565b7f455243313135353a207472616e7366657220746f20746865207a65726f20616460008201527f6472657373000000000000000000000000000000000000000000000000000000602082015250565b6000614179602583612a81565b91506141848261411d565b604082019050919050565b600060208201905081810360008301526141a88161416c565b9050919050565b7f455243313135353a20696e73756666696369656e742062616c616e636520666f60008201527f72207472616e7366657200000000000000000000000000000000000000000000602082015250565b600061420b602a83612a81565b9150614216826141af565b604082019050919050565b6000602082019050818103600083015261423a816141fe565b9050919050565b6000604082019050818103600083015261425b8185613005565b9050818103602083015261426f8184613005565b90509392505050565b7f455243313135353a2073657474696e6720617070726f76616c2073746174757360008201527f20666f722073656c660000000000000000000000000000000000000000000000602082015250565b60006142d4602983612a81565b91506142df82614278565b604082019050919050565b60006020820190508181036000830152614303816142c7565b9050919050565b600081519050919050565b600082825260208201905092915050565b60006143318261430a565b61433b8185614315565b935061434b818560208601612a92565b61435481612ac5565b840191505092915050565b600060a0820190506143746000830188613085565b6143816020830187613085565b61438e6040830186612991565b61439b6060830185612991565b81810360808301526143ad8184614326565b90509695505050505050565b6000815190506143c8816129e7565b92915050565b6000602082840312156143e4576143e36128b3565b5b60006143f2848285016143b9565b91505092915050565b60008160e01c9050919050565b600060033d11156144275760046000803e6144246000516143fb565b90505b90565b600060443d106144b75761443c6128a9565b60043d036004823e80513d602482011167ffffffffffffffff821117156144645750506144b7565b808201805167ffffffffffffffff81111561448257505050506144b7565b80602083010160043d03850181111561449f5750505050506144b7565b6144ae82602001850186612bd2565b82955050505050505b90565b7f455243313135353a207472616e7366657220746f206e6f6e204552433131353560008201527f526563656976657220696d706c656d656e746572000000000000000000000000602082015250565b6000614516603483612a81565b9150614521826144ba565b604082019050919050565b6000602082019050818103600083015261454581614509565b9050919050565b7f455243313135353a204552433131353552656365697665722072656a6563746560008201527f6420746f6b656e73000000000000000000000000000000000000000000000000602082015250565b60006145a8602883612a81565b91506145b38261454c565b604082019050919050565b600060208201905081810360008301526145d78161459b565b9050919050565b600060a0820190506145f36000830188613085565b6146006020830187613085565b81810360408301526146128186613005565b905081810360608301526146268185613005565b9050818103608083015261463a8184614326565b9050969550505050505056fea26469706673582212207ff088ea8402f7a6c3ecdb52eecb5a0abafe99e4367b936aa700f21e3fa0589b64736f6c634300080f0033a264697066735822122021ab49c9aba03d34a1431ad965ae370e7d0ce0a3eb6b654afa59320af906e58864736f6c634300080f0033",
			"opcodes": "PUSH1 0x80 PUSH1 0x40 MSTORE CALLVALUE DUP1 ISZERO PUSH2 0x10 JUMPI PUSH1 0x0 DUP1 REVERT JUMPDEST POP PUSH2 0x5983 DUP1 PUSH2 0x20 PUSH1 0x0 CODECOPY PUSH1 0x0 RETURN INVALID PUSH1 0x80 PUSH1 0x40 MSTORE CALLVALUE DUP1 ISZERO PUSH3 0x11 JUMPI PUSH1 0x0 DUP1 REVERT JUMPDEST POP PUSH1 0x4 CALLDATASIZE LT PUSH3 0x46 JUMPI PUSH1 0x0 CALLDATALOAD PUSH1 0xE0 SHR DUP1 PUSH4 0x474DA79A EQ PUSH3 0x4B JUMPI DUP1 PUSH4 0x5A9F67E3 EQ PUSH3 0x81 JUMPI DUP1 PUSH4 0x6EBC8C86 EQ PUSH3 0xA1 JUMPI JUMPDEST PUSH1 0x0 DUP1 REVERT JUMPDEST PUSH3 0x69 PUSH1 0x4 DUP1 CALLDATASIZE SUB DUP2 ADD SWAP1 PUSH3 0x63 SWAP2 SWAP1 PUSH3 0x457 JUMP JUMPDEST PUSH3 0xDA JUMP JUMPDEST PUSH1 0x40 MLOAD PUSH3 0x78 SWAP2 SWAP1 PUSH3 0x514 JUMP JUMPDEST PUSH1 0x40 MLOAD DUP1 SWAP2 SUB SWAP1 RETURN JUMPDEST PUSH3 0x9F PUSH1 0x4 DUP1 CALLDATASIZE SUB DUP2 ADD SWAP1 PUSH3 0x99 SWAP2 SWAP1 PUSH3 0x6D0 JUMP JUMPDEST PUSH3 0x11A JUMP JUMPDEST STOP JUMPDEST PUSH3 0xBF PUSH1 0x4 DUP1 CALLDATASIZE SUB DUP2 ADD SWAP1 PUSH3 0xB9 SWAP2 SWAP1 PUSH3 0x457 JUMP JUMPDEST PUSH3 0x1C7 JUMP JUMPDEST PUSH1 0x40 MLOAD PUSH3 0xD1 SWAP5 SWAP4 SWAP3 SWAP2 SWAP1 PUSH3 0x857 JUMP JUMPDEST PUSH1 0x40 MLOAD DUP1 SWAP2 SUB SWAP1 RETURN JUMPDEST PUSH1 0x0 DUP2 DUP2 SLOAD DUP2 LT PUSH3 0xEB JUMPI PUSH1 0x0 DUP1 REVERT JUMPDEST SWAP1 PUSH1 0x0 MSTORE PUSH1 0x20 PUSH1 0x0 KECCAK256 ADD PUSH1 0x0 SWAP2 POP SLOAD SWAP1 PUSH2 0x100 EXP SWAP1 DIV PUSH20 0xFFFFFFFFFFFFFFFFFFFFFFFFFFFFFFFFFFFFFFFF AND DUP2 JUMP JUMPDEST PUSH1 0x0 DUP5 DUP5 DUP5 DUP5 PUSH1 0x40 MLOAD PUSH3 0x12E SWAP1 PUSH3 0x3FA JUMP JUMPDEST PUSH3 0x13D SWAP5 SWAP4 SWAP3 SWAP2 SWAP1 PUSH3 0x8CA JUMP JUMPDEST PUSH1 0x40 MLOAD DUP1 SWAP2 SUB SWAP1 PUSH1 0x0 CREATE DUP1 ISZERO DUP1 ISZERO PUSH3 0x15A JUMPI RETURNDATASIZE PUSH1 0x0 DUP1 RETURNDATACOPY RETURNDATASIZE PUSH1 0x0 REVERT JUMPDEST POP SWAP1 POP PUSH1 0x0 DUP2 SWAP1 DUP1 PUSH1 0x1 DUP2 SLOAD ADD DUP1 DUP3 SSTORE DUP1 SWAP2 POP POP PUSH1 0x1 SWAP1 SUB SWAP1 PUSH1 0x0 MSTORE PUSH1 0x20 PUSH1 0x0 KECCAK256 ADD PUSH1 0x0 SWAP1 SWAP2 SWAP1 SWAP2 SWAP1 SWAP2 PUSH2 0x100 EXP DUP2 SLOAD DUP2 PUSH20 0xFFFFFFFFFFFFFFFFFFFFFFFFFFFFFFFFFFFFFFFF MUL NOT AND SWAP1 DUP4 PUSH20 0xFFFFFFFFFFFFFFFFFFFFFFFFFFFFFFFFFFFFFFFF AND MUL OR SWAP1 SSTORE POP POP POP POP POP POP JUMP JUMPDEST PUSH1 0x0 PUSH1 0x60 DUP1 PUSH1 0x60 PUSH1 0x0 DUP1 DUP7 DUP2 SLOAD DUP2 LT PUSH3 0x1E6 JUMPI PUSH3 0x1E5 PUSH3 0x92C JUMP JUMPDEST JUMPDEST SWAP1 PUSH1 0x0 MSTORE PUSH1 0x20 PUSH1 0x0 KECCAK256 ADD PUSH1 0x0 SWAP1 SLOAD SWAP1 PUSH2 0x100 EXP SWAP1 DIV PUSH20 0xFFFFFFFFFFFFFFFFFFFFFFFFFFFFFFFFFFFFFFFF AND SWAP1 POP DUP1 PUSH20 0xFFFFFFFFFFFFFFFFFFFFFFFFFFFFFFFFFFFFFFFF AND PUSH4 0xF6B4DFB4 PUSH1 0x40 MLOAD DUP2 PUSH4 0xFFFFFFFF AND PUSH1 0xE0 SHL DUP2 MSTORE PUSH1 0x4 ADD PUSH1 0x20 PUSH1 0x40 MLOAD DUP1 DUP4 SUB DUP2 DUP7 GAS STATICCALL ISZERO DUP1 ISZERO PUSH3 0x25F JUMPI RETURNDATASIZE PUSH1 0x0 DUP1 RETURNDATACOPY RETURNDATASIZE PUSH1 0x0 REVERT JUMPDEST POP POP POP POP PUSH1 0x40 MLOAD RETURNDATASIZE PUSH1 0x1F NOT PUSH1 0x1F DUP3 ADD AND DUP3 ADD DUP1 PUSH1 0x40 MSTORE POP DUP2 ADD SWAP1 PUSH3 0x285 SWAP2 SWAP1 PUSH3 0x98C JUMP JUMPDEST DUP2 PUSH20 0xFFFFFFFFFFFFFFFFFFFFFFFFFFFFFFFFFFFFFFFF AND PUSH4 0x6FDDE03 PUSH1 0x40 MLOAD DUP2 PUSH4 0xFFFFFFFF AND PUSH1 0xE0 SHL DUP2 MSTORE PUSH1 0x4 ADD PUSH1 0x0 PUSH1 0x40 MLOAD DUP1 DUP4 SUB DUP2 DUP7 GAS STATICCALL ISZERO DUP1 ISZERO PUSH3 0x2D1 JUMPI RETURNDATASIZE PUSH1 0x0 DUP1 RETURNDATACOPY RETURNDATASIZE PUSH1 0x0 REVERT JUMPDEST POP POP POP POP PUSH1 0x40 MLOAD RETURNDATASIZE PUSH1 0x0 DUP3 RETURNDATACOPY RETURNDATASIZE PUSH1 0x1F NOT PUSH1 0x1F DUP3 ADD AND DUP3 ADD DUP1 PUSH1 0x40 MSTORE POP DUP2 ADD SWAP1 PUSH3 0x2FC SWAP2 SWAP1 PUSH3 0xA3C JUMP JUMPDEST DUP3 PUSH20 0xFFFFFFFFFFFFFFFFFFFFFFFFFFFFFFFFFFFFFFFF AND PUSH4 0x95D89B41 PUSH1 0x40 MLOAD DUP2 PUSH4 0xFFFFFFFF AND PUSH1 0xE0 SHL DUP2 MSTORE PUSH1 0x4 ADD PUSH1 0x0 PUSH1 0x40 MLOAD DUP1 DUP4 SUB DUP2 DUP7 GAS STATICCALL ISZERO DUP1 ISZERO PUSH3 0x348 JUMPI RETURNDATASIZE PUSH1 0x0 DUP1 RETURNDATACOPY RETURNDATASIZE PUSH1 0x0 REVERT JUMPDEST POP POP POP POP PUSH1 0x40 MLOAD RETURNDATASIZE PUSH1 0x0 DUP3 RETURNDATACOPY RETURNDATASIZE PUSH1 0x1F NOT PUSH1 0x1F DUP3 ADD AND DUP3 ADD DUP1 PUSH1 0x40 MSTORE POP DUP2 ADD SWAP1 PUSH3 0x373 SWAP2 SWAP1 PUSH3 0xA3C JUMP JUMPDEST DUP4 PUSH20 0xFFFFFFFFFFFFFFFFFFFFFFFFFFFFFFFFFFFFFFFF AND PUSH4 0x6C0360EB PUSH1 0x40 MLOAD DUP2 PUSH4 0xFFFFFFFF AND PUSH1 0xE0 SHL DUP2 MSTORE PUSH1 0x4 ADD PUSH1 0x0 PUSH1 0x40 MLOAD DUP1 DUP4 SUB DUP2 DUP7 GAS STATICCALL ISZERO DUP1 ISZERO PUSH3 0x3BF JUMPI RETURNDATASIZE PUSH1 0x0 DUP1 RETURNDATACOPY RETURNDATASIZE PUSH1 0x0 REVERT JUMPDEST POP POP POP POP PUSH1 0x40 MLOAD RETURNDATASIZE PUSH1 0x0 DUP3 RETURNDATACOPY RETURNDATASIZE PUSH1 0x1F NOT PUSH1 0x1F DUP3 ADD AND DUP3 ADD DUP1 PUSH1 0x40 MSTORE POP DUP2 ADD SWAP1 PUSH3 0x3EA SWAP2 SWAP1 PUSH3 0xA3C JUMP JUMPDEST SWAP5 POP SWAP5 POP SWAP5 POP SWAP5 POP POP SWAP2 SWAP4 POP SWAP2 SWAP4 JUMP JUMPDEST PUSH2 0x4EC0 DUP1 PUSH3 0xA8E DUP4 CODECOPY ADD SWAP1 JUMP JUMPDEST PUSH1 0x0 PUSH1 0x40 MLOAD SWAP1 POP SWAP1 JUMP JUMPDEST PUSH1 0x0 DUP1 REVERT JUMPDEST PUSH1 0x0 DUP1 REVERT JUMPDEST PUSH1 0x0 DUP2 SWAP1 POP SWAP2 SWAP1 POP JUMP JUMPDEST PUSH3 0x431 DUP2 PUSH3 0x41C JUMP JUMPDEST DUP2 EQ PUSH3 0x43D JUMPI PUSH1 0x0 DUP1 REVERT JUMPDEST POP JUMP JUMPDEST PUSH1 0x0 DUP2 CALLDATALOAD SWAP1 POP PUSH3 0x451 DUP2 PUSH3 0x426 JUMP JUMPDEST SWAP3 SWAP2 POP POP JUMP JUMPDEST PUSH1 0x0 PUSH1 0x20 DUP3 DUP5 SUB SLT ISZERO PUSH3 0x470 JUMPI PUSH3 0x46F PUSH3 0x412 JUMP JUMPDEST JUMPDEST PUSH1 0x0 PUSH3 0x480 DUP5 DUP3 DUP6 ADD PUSH3 0x440 JUMP JUMPDEST SWAP2 POP POP SWAP3 SWAP2 POP POP JUMP JUMPDEST PUSH1 0x0 PUSH20 0xFFFFFFFFFFFFFFFFFFFFFFFFFFFFFFFFFFFFFFFF DUP3 AND SWAP1 POP SWAP2 SWAP1 POP JUMP JUMPDEST PUSH1 0x0 DUP2 SWAP1 POP SWAP2 SWAP1 POP JUMP JUMPDEST PUSH1 0x0 PUSH3 0x4D4 PUSH3 0x4CE PUSH3 0x4C8 DUP5 PUSH3 0x489 JUMP JUMPDEST PUSH3 0x4A9 JUMP JUMPDEST PUSH3 0x489 JUMP JUMPDEST SWAP1 POP SWAP2 SWAP1 POP JUMP JUMPDEST PUSH1 0x0 PUSH3 0x4E8 DUP3 PUSH3 0x4B3 JUMP JUMPDEST SWAP1 POP SWAP2 SWAP1 POP JUMP JUMPDEST PUSH1 0x0 PUSH3 0x4FC DUP3 PUSH3 0x4DB JUMP JUMPDEST SWAP1 POP SWAP2 SWAP1 POP JUMP JUMPDEST PUSH3 0x50E DUP2 PUSH3 0x4EF JUMP JUMPDEST DUP3 MSTORE POP POP JUMP JUMPDEST PUSH1 0x0 PUSH1 0x20 DUP3 ADD SWAP1 POP PUSH3 0x52B PUSH1 0x0 DUP4 ADD DUP5 PUSH3 0x503 JUMP JUMPDEST SWAP3 SWAP2 POP POP JUMP JUMPDEST PUSH1 0x0 DUP1 REVERT JUMPDEST PUSH1 0x0 DUP1 REVERT JUMPDEST PUSH1 0x0 PUSH1 0x1F NOT PUSH1 0x1F DUP4 ADD AND SWAP1 POP SWAP2 SWAP1 POP JUMP JUMPDEST PUSH32 0x4E487B7100000000000000000000000000000000000000000000000000000000 PUSH1 0x0 MSTORE PUSH1 0x41 PUSH1 0x4 MSTORE PUSH1 0x24 PUSH1 0x0 REVERT JUMPDEST PUSH3 0x586 DUP3 PUSH3 0x53B JUMP JUMPDEST DUP2 ADD DUP2 DUP2 LT PUSH8 0xFFFFFFFFFFFFFFFF DUP3 GT OR ISZERO PUSH3 0x5A8 JUMPI PUSH3 0x5A7 PUSH3 0x54C JUMP JUMPDEST JUMPDEST DUP1 PUSH1 0x40 MSTORE POP POP POP JUMP JUMPDEST PUSH1 0x0 PUSH3 0x5BD PUSH3 0x408 JUMP JUMPDEST SWAP1 POP PUSH3 0x5CB DUP3 DUP3 PUSH3 0x57B JUMP JUMPDEST SWAP2 SWAP1 POP JUMP JUMPDEST PUSH1 0x0 PUSH8 0xFFFFFFFFFFFFFFFF DUP3 GT ISZERO PUSH3 0x5EE JUMPI PUSH3 0x5ED PUSH3 0x54C JUMP JUMPDEST JUMPDEST PUSH3 0x5F9 DUP3 PUSH3 0x53B JUMP JUMPDEST SWAP1 POP PUSH1 0x20 DUP2 ADD SWAP1 POP SWAP2 SWAP1 POP JUMP JUMPDEST DUP3 DUP2 DUP4 CALLDATACOPY PUSH1 0x0 DUP4 DUP4 ADD MSTORE POP POP POP JUMP JUMPDEST PUSH1 0x0 PUSH3 0x62C PUSH3 0x626 DUP5 PUSH3 0x5D0 JUMP JUMPDEST PUSH3 0x5B1 JUMP JUMPDEST SWAP1 POP DUP3 DUP2 MSTORE PUSH1 0x20 DUP2 ADD DUP5 DUP5 DUP5 ADD GT ISZERO PUSH3 0x64B JUMPI PUSH3 0x64A PUSH3 0x536 JUMP JUMPDEST JUMPDEST PUSH3 0x658 DUP5 DUP3 DUP6 PUSH3 0x606 JUMP JUMPDEST POP SWAP4 SWAP3 POP POP POP JUMP JUMPDEST PUSH1 0x0 DUP3 PUSH1 0x1F DUP4 ADD SLT PUSH3 0x678 JUMPI PUSH3 0x677 PUSH3 0x531 JUMP JUMPDEST JUMPDEST DUP2 CALLDATALOAD PUSH3 0x68A DUP5 DUP3 PUSH1 0x20 DUP7 ADD PUSH3 0x615 JUMP JUMPDEST SWAP2 POP POP SWAP3 SWAP2 POP POP JUMP JUMPDEST PUSH1 0x0 DUP2 ISZERO ISZERO SWAP1 POP SWAP2 SWAP1 POP JUMP JUMPDEST PUSH3 0x6AA DUP2 PUSH3 0x693 JUMP JUMPDEST DUP2 EQ PUSH3 0x6B6 JUMPI PUSH1 0x0 DUP1 REVERT JUMPDEST POP JUMP JUMPDEST PUSH1 0x0 DUP2 CALLDATALOAD SWAP1 POP PUSH3 0x6CA DUP2 PUSH3 0x69F JUMP JUMPDEST SWAP3 SWAP2 POP POP JUMP JUMPDEST PUSH1 0x0 DUP1 PUSH1 0x0 DUP1 PUSH1 0x80 DUP6 DUP8 SUB SLT ISZERO PUSH3 0x6ED JUMPI PUSH3 0x6EC PUSH3 0x412 JUMP JUMPDEST JUMPDEST PUSH1 0x0 DUP6 ADD CALLDATALOAD PUSH8 0xFFFFFFFFFFFFFFFF DUP2 GT ISZERO PUSH3 0x70E JUMPI PUSH3 0x70D PUSH3 0x417 JUMP JUMPDEST JUMPDEST PUSH3 0x71C DUP8 DUP3 DUP9 ADD PUSH3 0x660 JUMP JUMPDEST SWAP5 POP POP PUSH1 0x20 DUP6 ADD CALLDATALOAD PUSH8 0xFFFFFFFFFFFFFFFF DUP2 GT ISZERO PUSH3 0x740 JUMPI PUSH3 0x73F PUSH3 0x417 JUMP JUMPDEST JUMPDEST PUSH3 0x74E DUP8 DUP3 DUP9 ADD PUSH3 0x660 JUMP JUMPDEST SWAP4 POP POP PUSH1 0x40 DUP6 ADD CALLDATALOAD PUSH8 0xFFFFFFFFFFFFFFFF DUP2 GT ISZERO PUSH3 0x772 JUMPI PUSH3 0x771 PUSH3 0x417 JUMP JUMPDEST JUMPDEST PUSH3 0x780 DUP8 DUP3 DUP9 ADD PUSH3 0x660 JUMP JUMPDEST SWAP3 POP POP PUSH1 0x60 PUSH3 0x793 DUP8 DUP3 DUP9 ADD PUSH3 0x6B9 JUMP JUMPDEST SWAP2 POP POP SWAP3 SWAP6 SWAP2 SWAP5 POP SWAP3 POP JUMP JUMPDEST PUSH1 0x0 PUSH3 0x7AC DUP3 PUSH3 0x489 JUMP JUMPDEST SWAP1 POP SWAP2 SWAP1 POP JUMP JUMPDEST PUSH3 0x7BE DUP2 PUSH3 0x79F JUMP JUMPDEST DUP3 MSTORE POP POP JUMP JUMPDEST PUSH1 0x0 DUP2 MLOAD SWAP1 POP SWAP2 SWAP1 POP JUMP JUMPDEST PUSH1 0x0 DUP3 DUP3 MSTORE PUSH1 0x20 DUP3 ADD SWAP1 POP SWAP3 SWAP2 POP POP JUMP JUMPDEST PUSH1 0x0 JUMPDEST DUP4 DUP2 LT ISZERO PUSH3 0x800 JUMPI DUP1 DUP3 ADD MLOAD DUP2 DUP5 ADD MSTORE PUSH1 0x20 DUP2 ADD SWAP1 POP PUSH3 0x7E3 JUMP JUMPDEST DUP4 DUP2 GT ISZERO PUSH3 0x810 JUMPI PUSH1 0x0 DUP5 DUP5 ADD MSTORE JUMPDEST POP POP POP POP JUMP JUMPDEST PUSH1 0x0 PUSH3 0x823 DUP3 PUSH3 0x7C4 JUMP JUMPDEST PUSH3 0x82F DUP2 DUP6 PUSH3 0x7CF JUMP JUMPDEST SWAP4 POP PUSH3 0x841 DUP2 DUP6 PUSH1 0x20 DUP7 ADD PUSH3 0x7E0 JUMP JUMPDEST PUSH3 0x84C DUP2 PUSH3 0x53B JUMP JUMPDEST DUP5 ADD SWAP2 POP POP SWAP3 SWAP2 POP POP JUMP JUMPDEST PUSH1 0x0 PUSH1 0x80 DUP3 ADD SWAP1 POP PUSH3 0x86E PUSH1 0x0 DUP4 ADD DUP8 PUSH3 0x7B3 JUMP JUMPDEST DUP2 DUP2 SUB PUSH1 0x20 DUP4 ADD MSTORE PUSH3 0x882 DUP2 DUP7 PUSH3 0x816 JUMP JUMPDEST SWAP1 POP DUP2 DUP2 SUB PUSH1 0x40 DUP4 ADD MSTORE PUSH3 0x898 DUP2 DUP6 PUSH3 0x816 JUMP JUMPDEST SWAP1 POP DUP2 DUP2 SUB PUSH1 0x60 DUP4 ADD MSTORE PUSH3 0x8AE DUP2 DUP5 PUSH3 0x816 JUMP JUMPDEST SWAP1 POP SWAP6 SWAP5 POP POP POP POP POP JUMP JUMPDEST PUSH3 0x8C4 DUP2 PUSH3 0x693 JUMP JUMPDEST DUP3 MSTORE POP POP JUMP JUMPDEST PUSH1 0x0 PUSH1 0x80 DUP3 ADD SWAP1 POP DUP2 DUP2 SUB PUSH1 0x0 DUP4 ADD MSTORE PUSH3 0x8E6 DUP2 DUP8 PUSH3 0x816 JUMP JUMPDEST SWAP1 POP DUP2 DUP2 SUB PUSH1 0x20 DUP4 ADD MSTORE PUSH3 0x8FC DUP2 DUP7 PUSH3 0x816 JUMP JUMPDEST SWAP1 POP DUP2 DUP2 SUB PUSH1 0x40 DUP4 ADD MSTORE PUSH3 0x912 DUP2 DUP6 PUSH3 0x816 JUMP JUMPDEST SWAP1 POP PUSH3 0x923 PUSH1 0x60 DUP4 ADD DUP5 PUSH3 0x8B9 JUMP JUMPDEST SWAP6 SWAP5 POP POP POP POP POP JUMP JUMPDEST PUSH32 0x4E487B7100000000000000000000000000000000000000000000000000000000 PUSH1 0x0 MSTORE PUSH1 0x32 PUSH1 0x4 MSTORE PUSH1 0x24 PUSH1 0x0 REVERT JUMPDEST PUSH3 0x966 DUP2 PUSH3 0x79F JUMP JUMPDEST DUP2 EQ PUSH3 0x972 JUMPI PUSH1 0x0 DUP1 REVERT JUMPDEST POP JUMP JUMPDEST PUSH1 0x0 DUP2 MLOAD SWAP1 POP PUSH3 0x986 DUP2 PUSH3 0x95B JUMP JUMPDEST SWAP3 SWAP2 POP POP JUMP JUMPDEST PUSH1 0x0 PUSH1 0x20 DUP3 DUP5 SUB SLT ISZERO PUSH3 0x9A5 JUMPI PUSH3 0x9A4 PUSH3 0x412 JUMP JUMPDEST JUMPDEST PUSH1 0x0 PUSH3 0x9B5 DUP5 DUP3 DUP6 ADD PUSH3 0x975 JUMP JUMPDEST SWAP2 POP POP SWAP3 SWAP2 POP POP JUMP JUMPDEST PUSH1 0x0 PUSH3 0x9D5 PUSH3 0x9CF DUP5 PUSH3 0x5D0 JUMP JUMPDEST PUSH3 0x5B1 JUMP JUMPDEST SWAP1 POP DUP3 DUP2 MSTORE PUSH1 0x20 DUP2 ADD DUP5 DUP5 DUP5 ADD GT ISZERO PUSH3 0x9F4 JUMPI PUSH3 0x9F3 PUSH3 0x536 JUMP JUMPDEST JUMPDEST PUSH3 0xA01 DUP5 DUP3 DUP6 PUSH3 0x7E0 JUMP JUMPDEST POP SWAP4 SWAP3 POP POP POP JUMP JUMPDEST PUSH1 0x0 DUP3 PUSH1 0x1F DUP4 ADD SLT PUSH3 0xA21 JUMPI PUSH3 0xA20 PUSH3 0x531 JUMP JUMPDEST JUMPDEST DUP2 MLOAD PUSH3 0xA33 DUP5 DUP3 PUSH1 0x20 DUP7 ADD PUSH3 0x9BE JUMP JUMPDEST SWAP2 POP POP SWAP3 SWAP2 POP POP JUMP JUMPDEST PUSH1 0x0 PUSH1 0x20 DUP3 DUP5 SUB SLT ISZERO PUSH3 0xA55 JUMPI PUSH3 0xA54 PUSH3 0x412 JUMP JUMPDEST JUMPDEST PUSH1 0x0 DUP3 ADD MLOAD PUSH8 0xFFFFFFFFFFFFFFFF DUP2 GT ISZERO PUSH3 0xA76 JUMPI PUSH3 0xA75 PUSH3 0x417 JUMP JUMPDEST JUMPDEST PUSH3 0xA84 DUP5 DUP3 DUP6 ADD PUSH3 0xA09 JUMP JUMPDEST SWAP2 POP POP SWAP3 SWAP2 POP POP JUMP INVALID PUSH1 0x80 PUSH1 0x40 MSTORE PUSH1 0x40 MLOAD DUP1 PUSH1 0x40 ADD PUSH1 0x40 MSTORE DUP1 PUSH1 0x5 DUP2 MSTORE PUSH1 0x20 ADD PUSH32 0x2E6A736F6E000000000000000000000000000000000000000000000000000000 DUP2 MSTORE POP PUSH1 0x8 SWAP1 DUP2 PUSH3 0x4A SWAP2 SWAP1 PUSH3 0x4D3 JUMP JUMPDEST POP PUSH1 0x0 PUSH1 0x9 PUSH1 0x0 PUSH2 0x100 EXP DUP2 SLOAD DUP2 PUSH1 0xFF MUL NOT AND SWAP1 DUP4 ISZERO ISZERO MUL OR SWAP1 SSTORE POP CALLVALUE DUP1 ISZERO PUSH3 0x73 JUMPI PUSH1 0x0 DUP1 REVERT JUMPDEST POP PUSH1 0x40 MLOAD PUSH3 0x4EC0 CODESIZE SUB DUP1 PUSH3 0x4EC0 DUP4 CODECOPY DUP2 DUP2 ADD PUSH1 0x40 MSTORE DUP2 ADD SWAP1 PUSH3 0x99 SWAP2 SWAP1 PUSH3 0x765 JUMP JUMPDEST PUSH1 0x40 MLOAD DUP1 PUSH1 0x20 ADD PUSH1 0x40 MSTORE DUP1 PUSH1 0x0 DUP2 MSTORE POP PUSH3 0xBA DUP2 PUSH3 0x176 PUSH1 0x20 SHL PUSH1 0x20 SHR JUMP JUMPDEST POP PUSH3 0xDB PUSH3 0xCF PUSH3 0x18B PUSH1 0x20 SHL PUSH1 0x20 SHR JUMP JUMPDEST PUSH3 0x193 PUSH1 0x20 SHL PUSH1 0x20 SHR JUMP JUMPDEST DUP4 PUSH1 0x4 SWAP1 DUP2 PUSH3 0xEC SWAP2 SWAP1 PUSH3 0x4D3 JUMP JUMPDEST POP DUP3 PUSH1 0x5 SWAP1 DUP2 PUSH3 0xFE SWAP2 SWAP1 PUSH3 0x4D3 JUMP JUMPDEST POP ADDRESS PUSH1 0x7 PUSH1 0x0 PUSH2 0x100 EXP DUP2 SLOAD DUP2 PUSH20 0xFFFFFFFFFFFFFFFFFFFFFFFFFFFFFFFFFFFFFFFF MUL NOT AND SWAP1 DUP4 PUSH20 0xFFFFFFFFFFFFFFFFFFFFFFFFFFFFFFFFFFFFFFFF AND MUL OR SWAP1 SSTORE POP DUP2 PUSH1 0x6 SWAP1 DUP2 PUSH3 0x151 SWAP2 SWAP1 PUSH3 0x4D3 JUMP JUMPDEST POP DUP1 PUSH1 0x9 PUSH1 0x0 PUSH2 0x100 EXP DUP2 SLOAD DUP2 PUSH1 0xFF MUL NOT AND SWAP1 DUP4 ISZERO ISZERO MUL OR SWAP1 SSTORE POP POP POP POP POP PUSH3 0x834 JUMP JUMPDEST DUP1 PUSH1 0x2 SWAP1 DUP2 PUSH3 0x187 SWAP2 SWAP1 PUSH3 0x4D3 JUMP JUMPDEST POP POP JUMP JUMPDEST PUSH1 0x0 CALLER SWAP1 POP SWAP1 JUMP JUMPDEST PUSH1 0x0 PUSH1 0x3 PUSH1 0x0 SWAP1 SLOAD SWAP1 PUSH2 0x100 EXP SWAP1 DIV PUSH20 0xFFFFFFFFFFFFFFFFFFFFFFFFFFFFFFFFFFFFFFFF AND SWAP1 POP DUP2 PUSH1 0x3 PUSH1 0x0 PUSH2 0x100 EXP DUP2 SLOAD DUP2 PUSH20 0xFFFFFFFFFFFFFFFFFFFFFFFFFFFFFFFFFFFFFFFF MUL NOT AND SWAP1 DUP4 PUSH20 0xFFFFFFFFFFFFFFFFFFFFFFFFFFFFFFFFFFFFFFFF AND MUL OR SWAP1 SSTORE POP DUP2 PUSH20 0xFFFFFFFFFFFFFFFFFFFFFFFFFFFFFFFFFFFFFFFF AND DUP2 PUSH20 0xFFFFFFFFFFFFFFFFFFFFFFFFFFFFFFFFFFFFFFFF AND PUSH32 0x8BE0079C531659141344CD1FD0A4F28419497F9722A3DAAFE3B4186F6B6457E0 PUSH1 0x40 MLOAD PUSH1 0x40 MLOAD DUP1 SWAP2 SUB SWAP1 LOG3 POP POP JUMP JUMPDEST PUSH1 0x0 DUP2 MLOAD SWAP1 POP SWAP2 SWAP1 POP JUMP JUMPDEST PUSH32 0x4E487B7100000000000000000000000000000000000000000000000000000000 PUSH1 0x0 MSTORE PUSH1 0x41 PUSH1 0x4 MSTORE PUSH1 0x24 PUSH1 0x0 REVERT JUMPDEST PUSH32 0x4E487B7100000000000000000000000000000000000000000000000000000000 PUSH1 0x0 MSTORE PUSH1 0x22 PUSH1 0x4 MSTORE PUSH1 0x24 PUSH1 0x0 REVERT JUMPDEST PUSH1 0x0 PUSH1 0x2 DUP3 DIV SWAP1 POP PUSH1 0x1 DUP3 AND DUP1 PUSH3 0x2DB JUMPI PUSH1 0x7F DUP3 AND SWAP2 POP JUMPDEST PUSH1 0x20 DUP3 LT DUP2 SUB PUSH3 0x2F1 JUMPI PUSH3 0x2F0 PUSH3 0x293 JUMP JUMPDEST JUMPDEST POP SWAP2 SWAP1 POP JUMP JUMPDEST PUSH1 0x0 DUP2 SWAP1 POP DUP2 PUSH1 0x0 MSTORE PUSH1 0x20 PUSH1 0x0 KECCAK256 SWAP1 POP SWAP2 SWAP1 POP JUMP JUMPDEST PUSH1 0x0 PUSH1 0x20 PUSH1 0x1F DUP4 ADD DIV SWAP1 POP SWAP2 SWAP1 POP JUMP JUMPDEST PUSH1 0x0 DUP3 DUP3 SHL SWAP1 POP SWAP3 SWAP2 POP POP JUMP JUMPDEST PUSH1 0x0 PUSH1 0x8 DUP4 MUL PUSH3 0x35B PUSH32 0xFFFFFFFFFFFFFFFFFFFFFFFFFFFFFFFFFFFFFFFFFFFFFFFFFFFFFFFFFFFFFFFF DUP3 PUSH3 0x31C JUMP JUMPDEST PUSH3 0x367 DUP7 DUP4 PUSH3 0x31C JUMP JUMPDEST SWAP6 POP DUP1 NOT DUP5 AND SWAP4 POP DUP1 DUP7 AND DUP5 OR SWAP3 POP POP POP SWAP4 SWAP3 POP POP POP JUMP JUMPDEST PUSH1 0x0 DUP2 SWAP1 POP SWAP2 SWAP1 POP JUMP JUMPDEST PUSH1 0x0 DUP2 SWAP1 POP SWAP2 SWAP1 POP JUMP JUMPDEST PUSH1 0x0 PUSH3 0x3B4 PUSH3 0x3AE PUSH3 0x3A8 DUP5 PUSH3 0x37F JUMP JUMPDEST PUSH3 0x389 JUMP JUMPDEST PUSH3 0x37F JUMP JUMPDEST SWAP1 POP SWAP2 SWAP1 POP JUMP JUMPDEST PUSH1 0x0 DUP2 SWAP1 POP SWAP2 SWAP1 POP JUMP JUMPDEST PUSH3 0x3D0 DUP4 PUSH3 0x393 JUMP JUMPDEST PUSH3 0x3E8 PUSH3 0x3DF DUP3 PUSH3 0x3BB JUMP JUMPDEST DUP5 DUP5 SLOAD PUSH3 0x329 JUMP JUMPDEST DUP3 SSTORE POP POP POP POP JUMP JUMPDEST PUSH1 0x0 SWAP1 JUMP JUMPDEST PUSH3 0x3FF PUSH3 0x3F0 JUMP JUMPDEST PUSH3 0x40C DUP2 DUP5 DUP5 PUSH3 0x3C5 JUMP JUMPDEST POP POP POP JUMP JUMPDEST JUMPDEST DUP2 DUP2 LT ISZERO PUSH3 0x434 JUMPI PUSH3 0x428 PUSH1 0x0 DUP3 PUSH3 0x3F5 JUMP JUMPDEST PUSH1 0x1 DUP2 ADD SWAP1 POP PUSH3 0x412 JUMP JUMPDEST POP POP JUMP JUMPDEST PUSH1 0x1F DUP3 GT ISZERO PUSH3 0x483 JUMPI PUSH3 0x44D DUP2 PUSH3 0x2F7 JUMP JUMPDEST PUSH3 0x458 DUP5 PUSH3 0x30C JUMP JUMPDEST DUP2 ADD PUSH1 0x20 DUP6 LT ISZERO PUSH3 0x468 JUMPI DUP2 SWAP1 POP JUMPDEST PUSH3 0x480 PUSH3 0x477 DUP6 PUSH3 0x30C JUMP JUMPDEST DUP4 ADD DUP3 PUSH3 0x411 JUMP JUMPDEST POP POP JUMPDEST POP POP POP JUMP JUMPDEST PUSH1 0x0 DUP3 DUP3 SHR SWAP1 POP SWAP3 SWAP2 POP POP JUMP JUMPDEST PUSH1 0x0 PUSH3 0x4A8 PUSH1 0x0 NOT DUP5 PUSH1 0x8 MUL PUSH3 0x488 JUMP JUMPDEST NOT DUP1 DUP4 AND SWAP2 POP POP SWAP3 SWAP2 POP POP JUMP JUMPDEST PUSH1 0x0 PUSH3 0x4C3 DUP4 DUP4 PUSH3 0x495 JUMP JUMPDEST SWAP2 POP DUP3 PUSH1 0x2 MUL DUP3 OR SWAP1 POP SWAP3 SWAP2 POP POP JUMP JUMPDEST PUSH3 0x4DE DUP3 PUSH3 0x259 JUMP JUMPDEST PUSH8 0xFFFFFFFFFFFFFFFF DUP2 GT ISZERO PUSH3 0x4FA JUMPI PUSH3 0x4F9 PUSH3 0x264 JUMP JUMPDEST JUMPDEST PUSH3 0x506 DUP3 SLOAD PUSH3 0x2C2 JUMP JUMPDEST PUSH3 0x513 DUP3 DUP3 DUP6 PUSH3 0x438 JUMP JUMPDEST PUSH1 0x0 PUSH1 0x20 SWAP1 POP PUSH1 0x1F DUP4 GT PUSH1 0x1 DUP2 EQ PUSH3 0x54B JUMPI PUSH1 0x0 DUP5 ISZERO PUSH3 0x536 JUMPI DUP3 DUP8 ADD MLOAD SWAP1 POP JUMPDEST PUSH3 0x542 DUP6 DUP3 PUSH3 0x4B5 JUMP JUMPDEST DUP7 SSTORE POP PUSH3 0x5B2 JUMP JUMPDEST PUSH1 0x1F NOT DUP5 AND PUSH3 0x55B DUP7 PUSH3 0x2F7 JUMP JUMPDEST PUSH1 0x0 JUMPDEST DUP3 DUP2 LT ISZERO PUSH3 0x585 JUMPI DUP5 DUP10 ADD MLOAD DUP3 SSTORE PUSH1 0x1 DUP3 ADD SWAP2 POP PUSH1 0x20 DUP6 ADD SWAP5 POP PUSH1 0x20 DUP2 ADD SWAP1 POP PUSH3 0x55E JUMP JUMPDEST DUP7 DUP4 LT ISZERO PUSH3 0x5A5 JUMPI DUP5 DUP10 ADD MLOAD PUSH3 0x5A1 PUSH1 0x1F DUP10 AND DUP3 PUSH3 0x495 JUMP JUMPDEST DUP4 SSTORE POP JUMPDEST PUSH1 0x1 PUSH1 0x2 DUP9 MUL ADD DUP9 SSTORE POP POP POP JUMPDEST POP POP POP POP POP POP JUMP JUMPDEST PUSH1 0x0 PUSH1 0x40 MLOAD SWAP1 POP SWAP1 JUMP JUMPDEST PUSH1 0x0 DUP1 REVERT JUMPDEST PUSH1 0x0 DUP1 REVERT JUMPDEST PUSH1 0x0 DUP1 REVERT JUMPDEST PUSH1 0x0 DUP1 REVERT JUMPDEST PUSH1 0x0 PUSH1 0x1F NOT PUSH1 0x1F DUP4 ADD AND SWAP1 POP SWAP2 SWAP1 POP JUMP JUMPDEST PUSH3 0x5F4 DUP3 PUSH3 0x5D8 JUMP JUMPDEST DUP2 ADD DUP2 DUP2 LT PUSH8 0xFFFFFFFFFFFFFFFF DUP3 GT OR ISZERO PUSH3 0x616 JUMPI PUSH3 0x615 PUSH3 0x264 JUMP JUMPDEST JUMPDEST DUP1 PUSH1 0x40 MSTORE POP POP POP JUMP JUMPDEST PUSH1 0x0 PUSH3 0x62B PUSH3 0x5BA JUMP JUMPDEST SWAP1 POP PUSH3 0x639 DUP3 DUP3 PUSH3 0x5E9 JUMP JUMPDEST SWAP2 SWAP1 POP JUMP JUMPDEST PUSH1 0x0 PUSH8 0xFFFFFFFFFFFFFFFF DUP3 GT ISZERO PUSH3 0x65C JUMPI PUSH3 0x65B PUSH3 0x264 JUMP JUMPDEST JUMPDEST PUSH3 0x667 DUP3 PUSH3 0x5D8 JUMP JUMPDEST SWAP1 POP PUSH1 0x20 DUP2 ADD SWAP1 POP SWAP2 SWAP1 POP JUMP JUMPDEST PUSH1 0x0 JUMPDEST DUP4 DUP2 LT ISZERO PUSH3 0x694 JUMPI DUP1 DUP3 ADD MLOAD DUP2 DUP5 ADD MSTORE PUSH1 0x20 DUP2 ADD SWAP1 POP PUSH3 0x677 JUMP JUMPDEST DUP4 DUP2 GT ISZERO PUSH3 0x6A4 JUMPI PUSH1 0x0 DUP5 DUP5 ADD MSTORE JUMPDEST POP POP POP POP JUMP JUMPDEST PUSH1 0x0 PUSH3 0x6C1 PUSH3 0x6BB DUP5 PUSH3 0x63E JUMP JUMPDEST PUSH3 0x61F JUMP JUMPDEST SWAP1 POP DUP3 DUP2 MSTORE PUSH1 0x20 DUP2 ADD DUP5 DUP5 DUP5 ADD GT ISZERO PUSH3 0x6E0 JUMPI PUSH3 0x6DF PUSH3 0x5D3 JUMP JUMPDEST JUMPDEST PUSH3 0x6ED DUP5 DUP3 DUP6 PUSH3 0x674 JUMP JUMPDEST POP SWAP4 SWAP3 POP POP POP JUMP JUMPDEST PUSH1 0x0 DUP3 PUSH1 0x1F DUP4 ADD SLT PUSH3 0x70D JUMPI PUSH3 0x70C PUSH3 0x5CE JUMP JUMPDEST JUMPDEST DUP2 MLOAD PUSH3 0x71F DUP5 DUP3 PUSH1 0x20 DUP7 ADD PUSH3 0x6AA JUMP JUMPDEST SWAP2 POP POP SWAP3 SWAP2 POP POP JUMP JUMPDEST PUSH1 0x0 DUP2 ISZERO ISZERO SWAP1 POP SWAP2 SWAP1 POP JUMP JUMPDEST PUSH3 0x73F DUP2 PUSH3 0x728 JUMP JUMPDEST DUP2 EQ PUSH3 0x74B JUMPI PUSH1 0x0 DUP1 REVERT JUMPDEST POP JUMP JUMPDEST PUSH1 0x0 DUP2 MLOAD SWAP1 POP PUSH3 0x75F DUP2 PUSH3 0x734 JUMP JUMPDEST SWAP3 SWAP2 POP POP JUMP JUMPDEST PUSH1 0x0 DUP1 PUSH1 0x0 DUP1 PUSH1 0x80 DUP6 DUP8 SUB SLT ISZERO PUSH3 0x782 JUMPI PUSH3 0x781 PUSH3 0x5C4 JUMP JUMPDEST JUMPDEST PUSH1 0x0 DUP6 ADD MLOAD PUSH8 0xFFFFFFFFFFFFFFFF DUP2 GT ISZERO PUSH3 0x7A3 JUMPI PUSH3 0x7A2 PUSH3 0x5C9 JUMP JUMPDEST JUMPDEST PUSH3 0x7B1 DUP8 DUP3 DUP9 ADD PUSH3 0x6F5 JUMP JUMPDEST SWAP5 POP POP PUSH1 0x20 DUP6 ADD MLOAD PUSH8 0xFFFFFFFFFFFFFFFF DUP2 GT ISZERO PUSH3 0x7D5 JUMPI PUSH3 0x7D4 PUSH3 0x5C9 JUMP JUMPDEST JUMPDEST PUSH3 0x7E3 DUP8 DUP3 DUP9 ADD PUSH3 0x6F5 JUMP JUMPDEST SWAP4 POP POP PUSH1 0x40 DUP6 ADD MLOAD PUSH8 0xFFFFFFFFFFFFFFFF DUP2 GT ISZERO PUSH3 0x807 JUMPI PUSH3 0x806 PUSH3 0x5C9 JUMP JUMPDEST JUMPDEST PUSH3 0x815 DUP8 DUP3 DUP9 ADD PUSH3 0x6F5 JUMP JUMPDEST SWAP3 POP POP PUSH1 0x60 PUSH3 0x828 DUP8 DUP3 DUP9 ADD PUSH3 0x74E JUMP JUMPDEST SWAP2 POP POP SWAP3 SWAP6 SWAP2 SWAP5 POP SWAP3 POP JUMP JUMPDEST PUSH2 0x467C DUP1 PUSH3 0x844 PUSH1 0x0 CODECOPY PUSH1 0x0 RETURN INVALID PUSH1 0x80 PUSH1 0x40 MSTORE CALLVALUE DUP1 ISZERO PUSH2 0x10 JUMPI PUSH1 0x0 DUP1 REVERT JUMPDEST POP PUSH1 0x4 CALLDATASIZE LT PUSH2 0x18D JUMPI PUSH1 0x0 CALLDATALOAD PUSH1 0xE0 SHR DUP1 PUSH4 0xA0BCFC7F GT PUSH2 0xDE JUMPI DUP1 PUSH4 0xE725F877 GT PUSH2 0x97 JUMPI DUP1 PUSH4 0xF2FDE38B GT PUSH2 0x71 JUMPI DUP1 PUSH4 0xF2FDE38B EQ PUSH2 0x492 JUMPI DUP1 PUSH4 0xF33F39E3 EQ PUSH2 0x4AE JUMPI DUP1 PUSH4 0xF6B4DFB4 EQ PUSH2 0x4CA JUMPI DUP1 PUSH4 0xFF4078D3 EQ PUSH2 0x4E8 JUMPI PUSH2 0x18D JUMP JUMPDEST DUP1 PUSH4 0xE725F877 EQ PUSH2 0x416 JUMPI DUP1 PUSH4 0xE985E9C5 EQ PUSH2 0x446 JUMPI DUP1 PUSH4 0xF242432A EQ PUSH2 0x476 JUMPI PUSH2 0x18D JUMP JUMPDEST DUP1 PUSH4 0xA0BCFC7F EQ PUSH2 0x358 JUMPI DUP1 PUSH4 0xA22CB465 EQ PUSH2 0x374 JUMPI DUP1 PUSH4 0xB09C5FA6 EQ PUSH2 0x390 JUMPI DUP1 PUSH4 0xC6682862 EQ PUSH2 0x3AC JUMPI DUP1 PUSH4 0xCB5ABCCE EQ PUSH2 0x3CA JUMPI DUP1 PUSH4 0xE0208AA8 EQ PUSH2 0x3FA JUMPI PUSH2 0x18D JUMP JUMPDEST DUP1 PUSH4 0x2EB2C2D6 GT PUSH2 0x14B JUMPI DUP1 PUSH4 0x6C0360EB GT PUSH2 0x125 JUMPI DUP1 PUSH4 0x6C0360EB EQ PUSH2 0x2F4 JUMPI DUP1 PUSH4 0x715018A6 EQ PUSH2 0x312 JUMPI DUP1 PUSH4 0x8DA5CB5B EQ PUSH2 0x31C JUMPI DUP1 PUSH4 0x95D89B41 EQ PUSH2 0x33A JUMPI PUSH2 0x18D JUMP JUMPDEST DUP1 PUSH4 0x2EB2C2D6 EQ PUSH2 0x278 JUMPI DUP1 PUSH4 0x397311EC EQ PUSH2 0x294 JUMPI DUP1 PUSH4 0x4E1273F4 EQ PUSH2 0x2C4 JUMPI PUSH2 0x18D JUMP JUMPDEST DUP1 PUSH3 0xFDD58E EQ PUSH2 0x192 JUMPI DUP1 PUSH4 0x1FFC9A7 EQ PUSH2 0x1C2 JUMPI DUP1 PUSH4 0x6FDDE03 EQ PUSH2 0x1F2 JUMPI DUP1 PUSH4 0xE89341C EQ PUSH2 0x210 JUMPI DUP1 PUSH4 0x2833BC59 EQ PUSH2 0x240 JUMPI DUP1 PUSH4 0x292FEC0A EQ PUSH2 0x25C JUMPI JUMPDEST PUSH1 0x0 DUP1 REVERT JUMPDEST PUSH2 0x1AC PUSH1 0x4 DUP1 CALLDATASIZE SUB DUP2 ADD SWAP1 PUSH2 0x1A7 SWAP2 SWAP1 PUSH2 0x2951 JUMP JUMPDEST PUSH2 0x518 JUMP JUMPDEST PUSH1 0x40 MLOAD PUSH2 0x1B9 SWAP2 SWAP1 PUSH2 0x29A0 JUMP JUMPDEST PUSH1 0x40 MLOAD DUP1 SWAP2 SUB SWAP1 RETURN JUMPDEST PUSH2 0x1DC PUSH1 0x4 DUP1 CALLDATASIZE SUB DUP2 ADD SWAP1 PUSH2 0x1D7 SWAP2 SWAP1 PUSH2 0x2A13 JUMP JUMPDEST PUSH2 0x5E0 JUMP JUMPDEST PUSH1 0x40 MLOAD PUSH2 0x1E9 SWAP2 SWAP1 PUSH2 0x2A5B JUMP JUMPDEST PUSH1 0x40 MLOAD DUP1 SWAP2 SUB SWAP1 RETURN JUMPDEST PUSH2 0x1FA PUSH2 0x6C2 JUMP JUMPDEST PUSH1 0x40 MLOAD PUSH2 0x207 SWAP2 SWAP1 PUSH2 0x2B0F JUMP JUMPDEST PUSH1 0x40 MLOAD DUP1 SWAP2 SUB SWAP1 RETURN JUMPDEST PUSH2 0x22A PUSH1 0x4 DUP1 CALLDATASIZE SUB DUP2 ADD SWAP1 PUSH2 0x225 SWAP2 SWAP1 PUSH2 0x2B31 JUMP JUMPDEST PUSH2 0x750 JUMP JUMPDEST PUSH1 0x40 MLOAD PUSH2 0x237 SWAP2 SWAP1 PUSH2 0x2B0F JUMP JUMPDEST PUSH1 0x40 MLOAD DUP1 SWAP2 SUB SWAP1 RETURN JUMPDEST PUSH2 0x25A PUSH1 0x4 DUP1 CALLDATASIZE SUB DUP2 ADD SWAP1 PUSH2 0x255 SWAP2 SWAP1 PUSH2 0x2951 JUMP JUMPDEST PUSH2 0x787 JUMP JUMPDEST STOP JUMPDEST PUSH2 0x276 PUSH1 0x4 DUP1 CALLDATASIZE SUB DUP2 ADD SWAP1 PUSH2 0x271 SWAP2 SWAP1 PUSH2 0x2B5E JUMP JUMPDEST PUSH2 0x991 JUMP JUMPDEST STOP JUMPDEST PUSH2 0x292 PUSH1 0x4 DUP1 CALLDATASIZE SUB DUP2 ADD SWAP1 PUSH2 0x28D SWAP2 SWAP1 PUSH2 0x2D9B JUMP JUMPDEST PUSH2 0xB2A JUMP JUMPDEST STOP JUMPDEST PUSH2 0x2AE PUSH1 0x4 DUP1 CALLDATASIZE SUB DUP2 ADD SWAP1 PUSH2 0x2A9 SWAP2 SWAP1 PUSH2 0x2B31 JUMP JUMPDEST PUSH2 0xBCB JUMP JUMPDEST PUSH1 0x40 MLOAD PUSH2 0x2BB SWAP2 SWAP1 PUSH2 0x2A5B JUMP JUMPDEST PUSH1 0x40 MLOAD DUP1 SWAP2 SUB SWAP1 RETURN JUMPDEST PUSH2 0x2DE PUSH1 0x4 DUP1 CALLDATASIZE SUB DUP2 ADD SWAP1 PUSH2 0x2D9 SWAP2 SWAP1 PUSH2 0x2F2D JUMP JUMPDEST PUSH2 0xBF8 JUMP JUMPDEST PUSH1 0x40 MLOAD PUSH2 0x2EB SWAP2 SWAP1 PUSH2 0x3063 JUMP JUMPDEST PUSH1 0x40 MLOAD DUP1 SWAP2 SUB SWAP1 RETURN JUMPDEST PUSH2 0x2FC PUSH2 0xD11 JUMP JUMPDEST PUSH1 0x40 MLOAD PUSH2 0x309 SWAP2 SWAP1 PUSH2 0x2B0F JUMP JUMPDEST PUSH1 0x40 MLOAD DUP1 SWAP2 SUB SWAP1 RETURN JUMPDEST PUSH2 0x31A PUSH2 0xD9F JUMP JUMPDEST STOP JUMPDEST PUSH2 0x324 PUSH2 0xE27 JUMP JUMPDEST PUSH1 0x40 MLOAD PUSH2 0x331 SWAP2 SWAP1 PUSH2 0x3094 JUMP JUMPDEST PUSH1 0x40 MLOAD DUP1 SWAP2 SUB SWAP1 RETURN JUMPDEST PUSH2 0x342 PUSH2 0xE51 JUMP JUMPDEST PUSH1 0x40 MLOAD PUSH2 0x34F SWAP2 SWAP1 PUSH2 0x2B0F JUMP JUMPDEST PUSH1 0x40 MLOAD DUP1 SWAP2 SUB SWAP1 RETURN JUMPDEST PUSH2 0x372 PUSH1 0x4 DUP1 CALLDATASIZE SUB DUP2 ADD SWAP1 PUSH2 0x36D SWAP2 SWAP1 PUSH2 0x3150 JUMP JUMPDEST PUSH2 0xEDF JUMP JUMPDEST STOP JUMPDEST PUSH2 0x38E PUSH1 0x4 DUP1 CALLDATASIZE SUB DUP2 ADD SWAP1 PUSH2 0x389 SWAP2 SWAP1 PUSH2 0x31C5 JUMP JUMPDEST PUSH2 0xF6E JUMP JUMPDEST STOP JUMPDEST PUSH2 0x3AA PUSH1 0x4 DUP1 CALLDATASIZE SUB DUP2 ADD SWAP1 PUSH2 0x3A5 SWAP2 SWAP1 PUSH2 0x3205 JUMP JUMPDEST PUSH2 0xF84 JUMP JUMPDEST STOP JUMPDEST PUSH2 0x3B4 PUSH2 0x104E JUMP JUMPDEST PUSH1 0x40 MLOAD PUSH2 0x3C1 SWAP2 SWAP1 PUSH2 0x2B0F JUMP JUMPDEST PUSH1 0x40 MLOAD DUP1 SWAP2 SUB SWAP1 RETURN JUMPDEST PUSH2 0x3E4 PUSH1 0x4 DUP1 CALLDATASIZE SUB DUP2 ADD SWAP1 PUSH2 0x3DF SWAP2 SWAP1 PUSH2 0x2B31 JUMP JUMPDEST PUSH2 0x10DC JUMP JUMPDEST PUSH1 0x40 MLOAD PUSH2 0x3F1 SWAP2 SWAP1 PUSH2 0x328C JUMP JUMPDEST PUSH1 0x40 MLOAD DUP1 SWAP2 SUB SWAP1 RETURN JUMPDEST PUSH2 0x414 PUSH1 0x4 DUP1 CALLDATASIZE SUB DUP2 ADD SWAP1 PUSH2 0x40F SWAP2 SWAP1 PUSH2 0x32D3 JUMP JUMPDEST PUSH2 0x1118 JUMP JUMPDEST STOP JUMPDEST PUSH2 0x430 PUSH1 0x4 DUP1 CALLDATASIZE SUB DUP2 ADD SWAP1 PUSH2 0x42B SWAP2 SWAP1 PUSH2 0x2B31 JUMP JUMPDEST PUSH2 0x12C3 JUMP JUMPDEST PUSH1 0x40 MLOAD PUSH2 0x43D SWAP2 SWAP1 PUSH2 0x2B0F JUMP JUMPDEST PUSH1 0x40 MLOAD DUP1 SWAP2 SUB SWAP1 RETURN JUMPDEST PUSH2 0x460 PUSH1 0x4 DUP1 CALLDATASIZE SUB DUP2 ADD SWAP1 PUSH2 0x45B SWAP2 SWAP1 PUSH2 0x3342 JUMP JUMPDEST PUSH2 0x136B JUMP JUMPDEST PUSH1 0x40 MLOAD PUSH2 0x46D SWAP2 SWAP1 PUSH2 0x2A5B JUMP JUMPDEST PUSH1 0x40 MLOAD DUP1 SWAP2 SUB SWAP1 RETURN JUMPDEST PUSH2 0x490 PUSH1 0x4 DUP1 CALLDATASIZE SUB DUP2 ADD SWAP1 PUSH2 0x48B SWAP2 SWAP1 PUSH2 0x3382 JUMP JUMPDEST PUSH2 0x13FF JUMP JUMPDEST STOP JUMPDEST PUSH2 0x4AC PUSH1 0x4 DUP1 CALLDATASIZE SUB DUP2 ADD SWAP1 PUSH2 0x4A7 SWAP2 SWAP1 PUSH2 0x3419 JUMP JUMPDEST PUSH2 0x14A0 JUMP JUMPDEST STOP JUMPDEST PUSH2 0x4C8 PUSH1 0x4 DUP1 CALLDATASIZE SUB DUP2 ADD SWAP1 PUSH2 0x4C3 SWAP2 SWAP1 PUSH2 0x3446 JUMP JUMPDEST PUSH2 0x1597 JUMP JUMPDEST STOP JUMPDEST PUSH2 0x4D2 PUSH2 0x1858 JUMP JUMPDEST PUSH1 0x40 MLOAD PUSH2 0x4DF SWAP2 SWAP1 PUSH2 0x3094 JUMP JUMPDEST PUSH1 0x40 MLOAD DUP1 SWAP2 SUB SWAP1 RETURN JUMPDEST PUSH2 0x502 PUSH1 0x4 DUP1 CALLDATASIZE SUB DUP2 ADD SWAP1 PUSH2 0x4FD SWAP2 SWAP1 PUSH2 0x2B31 JUMP JUMPDEST PUSH2 0x187E JUMP JUMPDEST PUSH1 0x40 MLOAD PUSH2 0x50F SWAP2 SWAP1 PUSH2 0x328C JUMP JUMPDEST PUSH1 0x40 MLOAD DUP1 SWAP2 SUB SWAP1 RETURN JUMPDEST PUSH1 0x0 DUP1 PUSH20 0xFFFFFFFFFFFFFFFFFFFFFFFFFFFFFFFFFFFFFFFF AND DUP4 PUSH20 0xFFFFFFFFFFFFFFFFFFFFFFFFFFFFFFFFFFFFFFFF AND SUB PUSH2 0x588 JUMPI PUSH1 0x40 MLOAD PUSH32 0x8C379A000000000000000000000000000000000000000000000000000000000 DUP2 MSTORE PUSH1 0x4 ADD PUSH2 0x57F SWAP1 PUSH2 0x350B JUMP JUMPDEST PUSH1 0x40 MLOAD DUP1 SWAP2 SUB SWAP1 REVERT JUMPDEST PUSH1 0x0 DUP1 DUP4 DUP2 MSTORE PUSH1 0x20 ADD SWAP1 DUP2 MSTORE PUSH1 0x20 ADD PUSH1 0x0 KECCAK256 PUSH1 0x0 DUP5 PUSH20 0xFFFFFFFFFFFFFFFFFFFFFFFFFFFFFFFFFFFFFFFF AND PUSH20 0xFFFFFFFFFFFFFFFFFFFFFFFFFFFFFFFFFFFFFFFF AND DUP2 MSTORE PUSH1 0x20 ADD SWAP1 DUP2 MSTORE PUSH1 0x20 ADD PUSH1 0x0 KECCAK256 SLOAD SWAP1 POP SWAP3 SWAP2 POP POP JUMP JUMPDEST PUSH1 0x0 PUSH32 0xD9B67A2600000000000000000000000000000000000000000000000000000000 PUSH28 0xFFFFFFFFFFFFFFFFFFFFFFFFFFFFFFFFFFFFFFFFFFFFFFFFFFFFFFFF NOT AND DUP3 PUSH28 0xFFFFFFFFFFFFFFFFFFFFFFFFFFFFFFFFFFFFFFFFFFFFFFFFFFFFFFFF NOT AND EQ DUP1 PUSH2 0x6AB JUMPI POP PUSH32 0xE89341C00000000000000000000000000000000000000000000000000000000 PUSH28 0xFFFFFFFFFFFFFFFFFFFFFFFFFFFFFFFFFFFFFFFFFFFFFFFFFFFFFFFF NOT AND DUP3 PUSH28 0xFFFFFFFFFFFFFFFFFFFFFFFFFFFFFFFFFFFFFFFFFFFFFFFFFFFFFFFF NOT AND EQ JUMPDEST DUP1 PUSH2 0x6BB JUMPI POP PUSH2 0x6BA DUP3 PUSH2 0x18BA JUMP JUMPDEST JUMPDEST SWAP1 POP SWAP2 SWAP1 POP JUMP JUMPDEST PUSH1 0x4 DUP1 SLOAD PUSH2 0x6CF SWAP1 PUSH2 0x355A JUMP JUMPDEST DUP1 PUSH1 0x1F ADD PUSH1 0x20 DUP1 SWAP2 DIV MUL PUSH1 0x20 ADD PUSH1 0x40 MLOAD SWAP1 DUP2 ADD PUSH1 0x40 MSTORE DUP1 SWAP3 SWAP2 SWAP1 DUP2 DUP2 MSTORE PUSH1 0x20 ADD DUP3 DUP1 SLOAD PUSH2 0x6FB SWAP1 PUSH2 0x355A JUMP JUMPDEST DUP1 ISZERO PUSH2 0x748 JUMPI DUP1 PUSH1 0x1F LT PUSH2 0x71D JUMPI PUSH2 0x100 DUP1 DUP4 SLOAD DIV MUL DUP4 MSTORE SWAP2 PUSH1 0x20 ADD SWAP2 PUSH2 0x748 JUMP JUMPDEST DUP3 ADD SWAP2 SWAP1 PUSH1 0x0 MSTORE PUSH1 0x20 PUSH1 0x0 KECCAK256 SWAP1 JUMPDEST DUP2 SLOAD DUP2 MSTORE SWAP1 PUSH1 0x1 ADD SWAP1 PUSH1 0x20 ADD DUP1 DUP4 GT PUSH2 0x72B JUMPI DUP3 SWAP1 SUB PUSH1 0x1F AND DUP3 ADD SWAP2 JUMPDEST POP POP POP POP POP DUP2 JUMP JUMPDEST PUSH1 0x60 PUSH1 0x6 PUSH2 0x75D DUP4 PUSH2 0x1924 JUMP JUMPDEST PUSH1 0x8 PUSH1 0x40 MLOAD PUSH1 0x20 ADD PUSH2 0x771 SWAP4 SWAP3 SWAP2 SWAP1 PUSH2 0x365F JUMP JUMPDEST PUSH1 0x40 MLOAD PUSH1 0x20 DUP2 DUP4 SUB SUB DUP2 MSTORE SWAP1 PUSH1 0x40 MSTORE SWAP1 POP SWAP2 SWAP1 POP JUMP JUMPDEST PUSH2 0x78F PUSH2 0x1A84 JUMP JUMPDEST PUSH20 0xFFFFFFFFFFFFFFFFFFFFFFFFFFFFFFFFFFFFFFFF AND PUSH2 0x7AD PUSH2 0xE27 JUMP JUMPDEST PUSH20 0xFFFFFFFFFFFFFFFFFFFFFFFFFFFFFFFFFFFFFFFF AND EQ PUSH2 0x803 JUMPI PUSH1 0x40 MLOAD PUSH32 0x8C379A000000000000000000000000000000000000000000000000000000000 DUP2 MSTORE PUSH1 0x4 ADD PUSH2 0x7FA SWAP1 PUSH2 0x36DC JUMP JUMPDEST PUSH1 0x40 MLOAD DUP1 SWAP2 SUB SWAP1 REVERT JUMPDEST DUP1 PUSH1 0xF PUSH1 0x0 DUP3 DUP2 MSTORE PUSH1 0x20 ADD SWAP1 DUP2 MSTORE PUSH1 0x20 ADD PUSH1 0x0 KECCAK256 PUSH1 0x2 ADD PUSH1 0x0 SWAP1 SLOAD SWAP1 PUSH2 0x100 EXP SWAP1 DIV PUSH1 0xFF AND ISZERO PUSH2 0x8F8 JUMPI PUSH1 0xF PUSH1 0x0 DUP3 DUP2 MSTORE PUSH1 0x20 ADD SWAP1 DUP2 MSTORE PUSH1 0x20 ADD PUSH1 0x0 KECCAK256 PUSH1 0x2 ADD PUSH1 0x1 SWAP1 SLOAD SWAP1 PUSH2 0x100 EXP SWAP1 DIV PUSH16 0xFFFFFFFFFFFFFFFFFFFFFFFFFFFFFFFF AND PUSH16 0xFFFFFFFFFFFFFFFFFFFFFFFFFFFFFFFF AND PUSH1 0xF PUSH1 0x0 DUP4 DUP2 MSTORE PUSH1 0x20 ADD SWAP1 DUP2 MSTORE PUSH1 0x20 ADD PUSH1 0x0 KECCAK256 PUSH1 0x3 ADD PUSH1 0x0 SWAP1 SLOAD SWAP1 PUSH2 0x100 EXP SWAP1 DIV PUSH16 0xFFFFFFFFFFFFFFFFFFFFFFFFFFFFFFFF AND PUSH16 0xFFFFFFFFFFFFFFFFFFFFFFFFFFFFFFFF AND LT PUSH2 0x8F7 JUMPI PUSH1 0x40 MLOAD PUSH32 0x8C379A000000000000000000000000000000000000000000000000000000000 DUP2 MSTORE PUSH1 0x4 ADD PUSH2 0x8EE SWAP1 PUSH2 0x3748 JUMP JUMPDEST PUSH1 0x40 MLOAD DUP1 SWAP2 SUB SWAP1 REVERT JUMPDEST JUMPDEST PUSH2 0x914 DUP4 DUP4 PUSH1 0x1 PUSH1 0x40 MLOAD DUP1 PUSH1 0x20 ADD PUSH1 0x40 MSTORE DUP1 PUSH1 0x0 DUP2 MSTORE POP PUSH2 0x1A8C JUMP JUMPDEST PUSH1 0x1 PUSH1 0xF PUSH1 0x0 DUP5 DUP2 MSTORE PUSH1 0x20 ADD SWAP1 DUP2 MSTORE PUSH1 0x20 ADD PUSH1 0x0 KECCAK256 PUSH1 0x3 ADD PUSH1 0x0 DUP3 DUP3 DUP3 SWAP1 SLOAD SWAP1 PUSH2 0x100 EXP SWAP1 DIV PUSH16 0xFFFFFFFFFFFFFFFFFFFFFFFFFFFFFFFF AND PUSH2 0x956 SWAP2 SWAP1 PUSH2 0x3797 JUMP JUMPDEST SWAP3 POP PUSH2 0x100 EXP DUP2 SLOAD DUP2 PUSH16 0xFFFFFFFFFFFFFFFFFFFFFFFFFFFFFFFF MUL NOT AND SWAP1 DUP4 PUSH16 0xFFFFFFFFFFFFFFFFFFFFFFFFFFFFFFFF AND MUL OR SWAP1 SSTORE POP POP POP POP JUMP JUMPDEST PUSH2 0x999 PUSH2 0x1A84 JUMP JUMPDEST PUSH20 0xFFFFFFFFFFFFFFFFFFFFFFFFFFFFFFFFFFFFFFFF AND PUSH2 0x9B7 PUSH2 0xE27 JUMP JUMPDEST PUSH20 0xFFFFFFFFFFFFFFFFFFFFFFFFFFFFFFFFFFFFFFFF AND EQ PUSH2 0xA0D JUMPI PUSH1 0x40 MLOAD PUSH32 0x8C379A000000000000000000000000000000000000000000000000000000000 DUP2 MSTORE PUSH1 0x4 ADD PUSH2 0xA04 SWAP1 PUSH2 0x36DC JUMP JUMPDEST PUSH1 0x40 MLOAD DUP1 SWAP2 SUB SWAP1 REVERT JUMPDEST PUSH1 0x1 ISZERO ISZERO PUSH1 0xF PUSH1 0x0 DUP5 DUP2 MSTORE PUSH1 0x20 ADD SWAP1 DUP2 MSTORE PUSH1 0x20 ADD PUSH1 0x0 KECCAK256 PUSH1 0x4 ADD PUSH1 0x0 DUP4 PUSH20 0xFFFFFFFFFFFFFFFFFFFFFFFFFFFFFFFFFFFFFFFF AND PUSH20 0xFFFFFFFFFFFFFFFFFFFFFFFFFFFFFFFFFFFFFFFF AND DUP2 MSTORE PUSH1 0x20 ADD SWAP1 DUP2 MSTORE PUSH1 0x20 ADD PUSH1 0x0 KECCAK256 PUSH1 0x0 SWAP1 SLOAD SWAP1 PUSH2 0x100 EXP SWAP1 DIV PUSH1 0xFF AND ISZERO ISZERO SUB PUSH2 0xAB4 JUMPI PUSH1 0x40 MLOAD PUSH32 0x8C379A000000000000000000000000000000000000000000000000000000000 DUP2 MSTORE PUSH1 0x4 ADD PUSH2 0xAAB SWAP1 PUSH2 0x3829 JUMP JUMPDEST PUSH1 0x40 MLOAD DUP1 SWAP2 SUB SWAP1 REVERT JUMPDEST PUSH1 0x0 PUSH1 0xF PUSH1 0x0 DUP5 DUP2 MSTORE PUSH1 0x20 ADD SWAP1 DUP2 MSTORE PUSH1 0x20 ADD PUSH1 0x0 KECCAK256 SWAP1 POP PUSH1 0x1 DUP2 PUSH1 0x4 ADD PUSH1 0x0 DUP5 PUSH20 0xFFFFFFFFFFFFFFFFFFFFFFFFFFFFFFFFFFFFFFFF AND PUSH20 0xFFFFFFFFFFFFFFFFFFFFFFFFFFFFFFFFFFFFFFFF AND DUP2 MSTORE PUSH1 0x20 ADD SWAP1 DUP2 MSTORE PUSH1 0x20 ADD PUSH1 0x0 KECCAK256 PUSH1 0x0 PUSH2 0x100 EXP DUP2 SLOAD DUP2 PUSH1 0xFF MUL NOT AND SWAP1 DUP4 ISZERO ISZERO MUL OR SWAP1 SSTORE POP POP POP POP JUMP JUMPDEST PUSH2 0xB32 PUSH2 0x1A84 JUMP JUMPDEST PUSH20 0xFFFFFFFFFFFFFFFFFFFFFFFFFFFFFFFFFFFFFFFF AND DUP6 PUSH20 0xFFFFFFFFFFFFFFFFFFFFFFFFFFFFFFFFFFFFFFFF AND EQ DUP1 PUSH2 0xB78 JUMPI POP PUSH2 0xB77 DUP6 PUSH2 0xB72 PUSH2 0x1A84 JUMP JUMPDEST PUSH2 0x136B JUMP JUMPDEST JUMPDEST PUSH2 0xBB7 JUMPI PUSH1 0x40 MLOAD PUSH32 0x8C379A000000000000000000000000000000000000000000000000000000000 DUP2 MSTORE PUSH1 0x4 ADD PUSH2 0xBAE SWAP1 PUSH2 0x38BB JUMP JUMPDEST PUSH1 0x40 MLOAD DUP1 SWAP2 SUB SWAP1 REVERT JUMPDEST PUSH2 0xBC4 DUP6 DUP6 DUP6 DUP6 DUP6 PUSH2 0x1C3C JUMP JUMPDEST POP POP POP POP POP JUMP JUMPDEST PUSH1 0x0 PUSH1 0xF PUSH1 0x0 DUP4 DUP2 MSTORE PUSH1 0x20 ADD SWAP1 DUP2 MSTORE PUSH1 0x20 ADD PUSH1 0x0 KECCAK256 PUSH1 0x2 ADD PUSH1 0x0 SWAP1 SLOAD SWAP1 PUSH2 0x100 EXP SWAP1 DIV PUSH1 0xFF AND SWAP1 POP SWAP2 SWAP1 POP JUMP JUMPDEST PUSH1 0x60 DUP2 MLOAD DUP4 MLOAD EQ PUSH2 0xC3E JUMPI PUSH1 0x40 MLOAD PUSH32 0x8C379A000000000000000000000000000000000000000000000000000000000 DUP2 MSTORE PUSH1 0x4 ADD PUSH2 0xC35 SWAP1 PUSH2 0x394D JUMP JUMPDEST PUSH1 0x40 MLOAD DUP1 SWAP2 SUB SWAP1 REVERT JUMPDEST PUSH1 0x0 DUP4 MLOAD PUSH8 0xFFFFFFFFFFFFFFFF DUP2 GT ISZERO PUSH2 0xC5B JUMPI PUSH2 0xC5A PUSH2 0x2BA3 JUMP JUMPDEST JUMPDEST PUSH1 0x40 MLOAD SWAP1 DUP1 DUP3 MSTORE DUP1 PUSH1 0x20 MUL PUSH1 0x20 ADD DUP3 ADD PUSH1 0x40 MSTORE DUP1 ISZERO PUSH2 0xC89 JUMPI DUP2 PUSH1 0x20 ADD PUSH1 0x20 DUP3 MUL DUP1 CALLDATASIZE DUP4 CALLDATACOPY DUP1 DUP3 ADD SWAP2 POP POP SWAP1 POP JUMPDEST POP SWAP1 POP PUSH1 0x0 JUMPDEST DUP5 MLOAD DUP2 LT ISZERO PUSH2 0xD06 JUMPI PUSH2 0xCD6 DUP6 DUP3 DUP2 MLOAD DUP2 LT PUSH2 0xCAE JUMPI PUSH2 0xCAD PUSH2 0x396D JUMP JUMPDEST JUMPDEST PUSH1 0x20 MUL PUSH1 0x20 ADD ADD MLOAD DUP6 DUP4 DUP2 MLOAD DUP2 LT PUSH2 0xCC9 JUMPI PUSH2 0xCC8 PUSH2 0x396D JUMP JUMPDEST JUMPDEST PUSH1 0x20 MUL PUSH1 0x20 ADD ADD MLOAD PUSH2 0x518 JUMP JUMPDEST DUP3 DUP3 DUP2 MLOAD DUP2 LT PUSH2 0xCE9 JUMPI PUSH2 0xCE8 PUSH2 0x396D JUMP JUMPDEST JUMPDEST PUSH1 0x20 MUL PUSH1 0x20 ADD ADD DUP2 DUP2 MSTORE POP POP DUP1 PUSH2 0xCFF SWAP1 PUSH2 0x399C JUMP JUMPDEST SWAP1 POP PUSH2 0xC8F JUMP JUMPDEST POP DUP1 SWAP2 POP POP SWAP3 SWAP2 POP POP JUMP JUMPDEST PUSH1 0x6 DUP1 SLOAD PUSH2 0xD1E SWAP1 PUSH2 0x355A JUMP JUMPDEST DUP1 PUSH1 0x1F ADD PUSH1 0x20 DUP1 SWAP2 DIV MUL PUSH1 0x20 ADD PUSH1 0x40 MLOAD SWAP1 DUP2 ADD PUSH1 0x40 MSTORE DUP1 SWAP3 SWAP2 SWAP1 DUP2 DUP2 MSTORE PUSH1 0x20 ADD DUP3 DUP1 SLOAD PUSH2 0xD4A SWAP1 PUSH2 0x355A JUMP JUMPDEST DUP1 ISZERO PUSH2 0xD97 JUMPI DUP1 PUSH1 0x1F LT PUSH2 0xD6C JUMPI PUSH2 0x100 DUP1 DUP4 SLOAD DIV MUL DUP4 MSTORE SWAP2 PUSH1 0x20 ADD SWAP2 PUSH2 0xD97 JUMP JUMPDEST DUP3 ADD SWAP2 SWAP1 PUSH1 0x0 MSTORE PUSH1 0x20 PUSH1 0x0 KECCAK256 SWAP1 JUMPDEST DUP2 SLOAD DUP2 MSTORE SWAP1 PUSH1 0x1 ADD SWAP1 PUSH1 0x20 ADD DUP1 DUP4 GT PUSH2 0xD7A JUMPI DUP3 SWAP1 SUB PUSH1 0x1F AND DUP3 ADD SWAP2 JUMPDEST POP POP POP POP POP DUP2 JUMP JUMPDEST PUSH2 0xDA7 PUSH2 0x1A84 JUMP JUMPDEST PUSH20 0xFFFFFFFFFFFFFFFFFFFFFFFFFFFFFFFFFFFFFFFF AND PUSH2 0xDC5 PUSH2 0xE27 JUMP JUMPDEST PUSH20 0xFFFFFFFFFFFFFFFFFFFFFFFFFFFFFFFFFFFFFFFF AND EQ PUSH2 0xE1B JUMPI PUSH1 0x40 MLOAD PUSH32 0x8C379A000000000000000000000000000000000000000000000000000000000 DUP2 MSTORE PUSH1 0x4 ADD PUSH2 0xE12 SWAP1 PUSH2 0x36DC JUMP JUMPDEST PUSH1 0x40 MLOAD DUP1 SWAP2 SUB SWAP1 REVERT JUMPDEST PUSH2 0xE25 PUSH1 0x0 PUSH2 0x1F5D JUMP JUMPDEST JUMP JUMPDEST PUSH1 0x0 PUSH1 0x3 PUSH1 0x0 SWAP1 SLOAD SWAP1 PUSH2 0x100 EXP SWAP1 DIV PUSH20 0xFFFFFFFFFFFFFFFFFFFFFFFFFFFFFFFFFFFFFFFF AND SWAP1 POP SWAP1 JUMP JUMPDEST PUSH1 0x5 DUP1 SLOAD PUSH2 0xE5E SWAP1 PUSH2 0x355A JUMP JUMPDEST DUP1 PUSH1 0x1F ADD PUSH1 0x20 DUP1 SWAP2 DIV MUL PUSH1 0x20 ADD PUSH1 0x40 MLOAD SWAP1 DUP2 ADD PUSH1 0x40 MSTORE DUP1 SWAP3 SWAP2 SWAP1 DUP2 DUP2 MSTORE PUSH1 0x20 ADD DUP3 DUP1 SLOAD PUSH2 0xE8A SWAP1 PUSH2 0x355A JUMP JUMPDEST DUP1 ISZERO PUSH2 0xED7 JUMPI DUP1 PUSH1 0x1F LT PUSH2 0xEAC JUMPI PUSH2 0x100 DUP1 DUP4 SLOAD DIV MUL DUP4 MSTORE SWAP2 PUSH1 0x20 ADD SWAP2 PUSH2 0xED7 JUMP JUMPDEST DUP3 ADD SWAP2 SWAP1 PUSH1 0x0 MSTORE PUSH1 0x20 PUSH1 0x0 KECCAK256 SWAP1 JUMPDEST DUP2 SLOAD DUP2 MSTORE SWAP1 PUSH1 0x1 ADD SWAP1 PUSH1 0x20 ADD DUP1 DUP4 GT PUSH2 0xEBA JUMPI DUP3 SWAP1 SUB PUSH1 0x1F AND DUP3 ADD SWAP2 JUMPDEST POP POP POP POP POP DUP2 JUMP JUMPDEST PUSH2 0xEE7 PUSH2 0x1A84 JUMP JUMPDEST PUSH20 0xFFFFFFFFFFFFFFFFFFFFFFFFFFFFFFFFFFFFFFFF AND PUSH2 0xF05 PUSH2 0xE27 JUMP JUMPDEST PUSH20 0xFFFFFFFFFFFFFFFFFFFFFFFFFFFFFFFFFFFFFFFF AND EQ PUSH2 0xF5B JUMPI PUSH1 0x40 MLOAD PUSH32 0x8C379A000000000000000000000000000000000000000000000000000000000 DUP2 MSTORE PUSH1 0x4 ADD PUSH2 0xF52 SWAP1 PUSH2 0x36DC JUMP JUMPDEST PUSH1 0x40 MLOAD DUP1 SWAP2 SUB SWAP1 REVERT JUMPDEST DUP1 PUSH1 0x6 SWAP1 DUP2 PUSH2 0xF6A SWAP2 SWAP1 PUSH2 0x3B7B JUMP JUMPDEST POP POP JUMP JUMPDEST PUSH2 0xF80 PUSH2 0xF79 PUSH2 0x1A84 JUMP JUMPDEST DUP4 DUP4 PUSH2 0x2023 JUMP JUMPDEST POP POP JUMP JUMPDEST PUSH2 0xF8C PUSH2 0x1A84 JUMP JUMPDEST PUSH20 0xFFFFFFFFFFFFFFFFFFFFFFFFFFFFFFFFFFFFFFFF AND PUSH2 0xFAA PUSH2 0xE27 JUMP JUMPDEST PUSH20 0xFFFFFFFFFFFFFFFFFFFFFFFFFFFFFFFFFFFFFFFF AND EQ PUSH2 0x1000 JUMPI PUSH1 0x40 MLOAD PUSH32 0x8C379A000000000000000000000000000000000000000000000000000000000 DUP2 MSTORE PUSH1 0x4 ADD PUSH2 0xFF7 SWAP1 PUSH2 0x36DC JUMP JUMPDEST PUSH1 0x40 MLOAD DUP1 SWAP2 SUB SWAP1 REVERT JUMPDEST PUSH1 0x0 DUP3 MLOAD SWAP1 POP PUSH1 0x0 JUMPDEST DUP2 DUP2 LT ISZERO PUSH2 0x1048 JUMPI PUSH2 0x1035 DUP5 DUP3 DUP2 MLOAD DUP2 LT PUSH2 0x1027 JUMPI PUSH2 0x1026 PUSH2 0x396D JUMP JUMPDEST JUMPDEST PUSH1 0x20 MUL PUSH1 0x20 ADD ADD MLOAD DUP5 PUSH2 0x787 JUMP JUMPDEST DUP1 DUP1 PUSH2 0x1040 SWAP1 PUSH2 0x399C JUMP JUMPDEST SWAP2 POP POP PUSH2 0x1009 JUMP JUMPDEST POP POP POP POP JUMP JUMPDEST PUSH1 0x8 DUP1 SLOAD PUSH2 0x105B SWAP1 PUSH2 0x355A JUMP JUMPDEST DUP1 PUSH1 0x1F ADD PUSH1 0x20 DUP1 SWAP2 DIV MUL PUSH1 0x20 ADD PUSH1 0x40 MLOAD SWAP1 DUP2 ADD PUSH1 0x40 MSTORE DUP1 SWAP3 SWAP2 SWAP1 DUP2 DUP2 MSTORE PUSH1 0x20 ADD DUP3 DUP1 SLOAD PUSH2 0x1087 SWAP1 PUSH2 0x355A JUMP JUMPDEST DUP1 ISZERO PUSH2 0x10D4 JUMPI DUP1 PUSH1 0x1F LT PUSH2 0x10A9 JUMPI PUSH2 0x100 DUP1 DUP4 SLOAD DIV MUL DUP4 MSTORE SWAP2 PUSH1 0x20 ADD SWAP2 PUSH2 0x10D4 JUMP JUMPDEST DUP3 ADD SWAP2 SWAP1 PUSH1 0x0 MSTORE PUSH1 0x20 PUSH1 0x0 KECCAK256 SWAP1 JUMPDEST DUP2 SLOAD DUP2 MSTORE SWAP1 PUSH1 0x1 ADD SWAP1 PUSH1 0x20 ADD DUP1 DUP4 GT PUSH2 0x10B7 JUMPI DUP3 SWAP1 SUB PUSH1 0x1F AND DUP3 ADD SWAP2 JUMPDEST POP POP POP POP POP DUP2 JUMP JUMPDEST PUSH1 0x0 PUSH1 0xF PUSH1 0x0 DUP4 DUP2 MSTORE PUSH1 0x20 ADD SWAP1 DUP2 MSTORE PUSH1 0x20 ADD PUSH1 0x0 KECCAK256 PUSH1 0x2 ADD PUSH1 0x1 SWAP1 SLOAD SWAP1 PUSH2 0x100 EXP SWAP1 DIV PUSH16 0xFFFFFFFFFFFFFFFFFFFFFFFFFFFFFFFF AND SWAP1 POP SWAP2 SWAP1 POP JUMP JUMPDEST PUSH2 0x1120 PUSH2 0x1A84 JUMP JUMPDEST PUSH20 0xFFFFFFFFFFFFFFFFFFFFFFFFFFFFFFFFFFFFFFFF AND PUSH2 0x113E PUSH2 0xE27 JUMP JUMPDEST PUSH20 0xFFFFFFFFFFFFFFFFFFFFFFFFFFFFFFFFFFFFFFFF AND EQ PUSH2 0x1194 JUMPI PUSH1 0x40 MLOAD PUSH32 0x8C379A000000000000000000000000000000000000000000000000000000000 DUP2 MSTORE PUSH1 0x4 ADD PUSH2 0x118B SWAP1 PUSH2 0x36DC JUMP JUMPDEST PUSH1 0x40 MLOAD DUP1 SWAP2 SUB SWAP1 REVERT JUMPDEST PUSH1 0x0 PUSH2 0x11A0 PUSH1 0x10 PUSH2 0x218F JUMP JUMPDEST SWAP1 POP PUSH1 0x0 PUSH1 0xF PUSH1 0x0 DUP4 DUP2 MSTORE PUSH1 0x20 ADD SWAP1 DUP2 MSTORE PUSH1 0x20 ADD PUSH1 0x0 KECCAK256 PUSH1 0x2 ADD PUSH1 0x1 SWAP1 SLOAD SWAP1 PUSH2 0x100 EXP SWAP1 DIV PUSH16 0xFFFFFFFFFFFFFFFFFFFFFFFFFFFFFFFF AND PUSH16 0xFFFFFFFFFFFFFFFFFFFFFFFFFFFFFFFF AND EQ PUSH2 0x1229 JUMPI PUSH1 0x40 MLOAD PUSH32 0x8C379A000000000000000000000000000000000000000000000000000000000 DUP2 MSTORE PUSH1 0x4 ADD PUSH2 0x1220 SWAP1 PUSH2 0x3C99 JUMP JUMPDEST PUSH1 0x40 MLOAD DUP1 SWAP2 SUB SWAP1 REVERT JUMPDEST PUSH1 0x0 PUSH1 0xF PUSH1 0x0 DUP4 DUP2 MSTORE PUSH1 0x20 ADD SWAP1 DUP2 MSTORE PUSH1 0x20 ADD PUSH1 0x0 KECCAK256 SWAP1 POP DUP2 DUP2 PUSH1 0x0 ADD DUP2 SWAP1 SSTORE POP DUP5 DUP2 PUSH1 0x1 ADD SWAP1 DUP2 PUSH2 0x125A SWAP2 SWAP1 PUSH2 0x3B7B JUMP JUMPDEST POP DUP4 DUP2 PUSH1 0x2 ADD PUSH1 0x0 PUSH2 0x100 EXP DUP2 SLOAD DUP2 PUSH1 0xFF MUL NOT AND SWAP1 DUP4 ISZERO ISZERO MUL OR SWAP1 SSTORE POP DUP3 DUP2 PUSH1 0x2 ADD PUSH1 0x1 PUSH2 0x100 EXP DUP2 SLOAD DUP2 PUSH16 0xFFFFFFFFFFFFFFFFFFFFFFFFFFFFFFFF MUL NOT AND SWAP1 DUP4 PUSH16 0xFFFFFFFFFFFFFFFFFFFFFFFFFFFFFFFF AND MUL OR SWAP1 SSTORE POP PUSH2 0x12BC PUSH1 0x10 PUSH2 0x219D JUMP JUMPDEST POP POP POP POP POP JUMP JUMPDEST PUSH1 0x60 PUSH1 0xF PUSH1 0x0 DUP4 DUP2 MSTORE PUSH1 0x20 ADD SWAP1 DUP2 MSTORE PUSH1 0x20 ADD PUSH1 0x0 KECCAK256 PUSH1 0x1 ADD DUP1 SLOAD PUSH2 0x12E6 SWAP1 PUSH2 0x355A JUMP JUMPDEST DUP1 PUSH1 0x1F ADD PUSH1 0x20 DUP1 SWAP2 DIV MUL PUSH1 0x20 ADD PUSH1 0x40 MLOAD SWAP1 DUP2 ADD PUSH1 0x40 MSTORE DUP1 SWAP3 SWAP2 SWAP1 DUP2 DUP2 MSTORE PUSH1 0x20 ADD DUP3 DUP1 SLOAD PUSH2 0x1312 SWAP1 PUSH2 0x355A JUMP JUMPDEST DUP1 ISZERO PUSH2 0x135F JUMPI DUP1 PUSH1 0x1F LT PUSH2 0x1334 JUMPI PUSH2 0x100 DUP1 DUP4 SLOAD DIV MUL DUP4 MSTORE SWAP2 PUSH1 0x20 ADD SWAP2 PUSH2 0x135F JUMP JUMPDEST DUP3 ADD SWAP2 SWAP1 PUSH1 0x0 MSTORE PUSH1 0x20 PUSH1 0x0 KECCAK256 SWAP1 JUMPDEST DUP2 SLOAD DUP2 MSTORE SWAP1 PUSH1 0x1 ADD SWAP1 PUSH1 0x20 ADD DUP1 DUP4 GT PUSH2 0x1342 JUMPI DUP3 SWAP1 SUB PUSH1 0x1F AND DUP3 ADD SWAP2 JUMPDEST POP POP POP POP POP SWAP1 POP SWAP2 SWAP1 POP JUMP JUMPDEST PUSH1 0x0 PUSH1 0x1 PUSH1 0x0 DUP5 PUSH20 0xFFFFFFFFFFFFFFFFFFFFFFFFFFFFFFFFFFFFFFFF AND PUSH20 0xFFFFFFFFFFFFFFFFFFFFFFFFFFFFFFFFFFFFFFFF AND DUP2 MSTORE PUSH1 0x20 ADD SWAP1 DUP2 MSTORE PUSH1 0x20 ADD PUSH1 0x0 KECCAK256 PUSH1 0x0 DUP4 PUSH20 0xFFFFFFFFFFFFFFFFFFFFFFFFFFFFFFFFFFFFFFFF AND PUSH20 0xFFFFFFFFFFFFFFFFFFFFFFFFFFFFFFFFFFFFFFFF AND DUP2 MSTORE PUSH1 0x20 ADD SWAP1 DUP2 MSTORE PUSH1 0x20 ADD PUSH1 0x0 KECCAK256 PUSH1 0x0 SWAP1 SLOAD SWAP1 PUSH2 0x100 EXP SWAP1 DIV PUSH1 0xFF AND SWAP1 POP SWAP3 SWAP2 POP POP JUMP JUMPDEST PUSH2 0x1407 PUSH2 0x1A84 JUMP JUMPDEST PUSH20 0xFFFFFFFFFFFFFFFFFFFFFFFFFFFFFFFFFFFFFFFF AND DUP6 PUSH20 0xFFFFFFFFFFFFFFFFFFFFFFFFFFFFFFFFFFFFFFFF AND EQ DUP1 PUSH2 0x144D JUMPI POP PUSH2 0x144C DUP6 PUSH2 0x1447 PUSH2 0x1A84 JUMP JUMPDEST PUSH2 0x136B JUMP JUMPDEST JUMPDEST PUSH2 0x148C JUMPI PUSH1 0x40 MLOAD PUSH32 0x8C379A000000000000000000000000000000000000000000000000000000000 DUP2 MSTORE PUSH1 0x4 ADD PUSH2 0x1483 SWAP1 PUSH2 0x3D2B JUMP JUMPDEST PUSH1 0x40 MLOAD DUP1 SWAP2 SUB SWAP1 REVERT JUMPDEST PUSH2 0x1499 DUP6 DUP6 DUP6 DUP6 DUP6 PUSH2 0x21B3 JUMP JUMPDEST POP POP POP POP POP JUMP JUMPDEST PUSH2 0x14A8 PUSH2 0x1A84 JUMP JUMPDEST PUSH20 0xFFFFFFFFFFFFFFFFFFFFFFFFFFFFFFFFFFFFFFFF AND PUSH2 0x14C6 PUSH2 0xE27 JUMP JUMPDEST PUSH20 0xFFFFFFFFFFFFFFFFFFFFFFFFFFFFFFFFFFFFFFFF AND EQ PUSH2 0x151C JUMPI PUSH1 0x40 MLOAD PUSH32 0x8C379A000000000000000000000000000000000000000000000000000000000 DUP2 MSTORE PUSH1 0x4 ADD PUSH2 0x1513 SWAP1 PUSH2 0x36DC JUMP JUMPDEST PUSH1 0x40 MLOAD DUP1 SWAP2 SUB SWAP1 REVERT JUMPDEST PUSH1 0x0 PUSH20 0xFFFFFFFFFFFFFFFFFFFFFFFFFFFFFFFFFFFFFFFF AND DUP2 PUSH20 0xFFFFFFFFFFFFFFFFFFFFFFFFFFFFFFFFFFFFFFFF AND SUB PUSH2 0x158B JUMPI PUSH1 0x40 MLOAD PUSH32 0x8C379A000000000000000000000000000000000000000000000000000000000 DUP2 MSTORE PUSH1 0x4 ADD PUSH2 0x1582 SWAP1 PUSH2 0x3DBD JUMP JUMPDEST PUSH1 0x40 MLOAD DUP1 SWAP2 SUB SWAP1 REVERT JUMPDEST PUSH2 0x1594 DUP2 PUSH2 0x1F5D JUMP JUMPDEST POP JUMP JUMPDEST DUP1 PUSH1 0xF PUSH1 0x0 DUP3 DUP2 MSTORE PUSH1 0x20 ADD SWAP1 DUP2 MSTORE PUSH1 0x20 ADD PUSH1 0x0 KECCAK256 PUSH1 0x2 ADD PUSH1 0x0 SWAP1 SLOAD SWAP1 PUSH2 0x100 EXP SWAP1 DIV PUSH1 0xFF AND ISZERO PUSH2 0x168C JUMPI PUSH1 0xF PUSH1 0x0 DUP3 DUP2 MSTORE PUSH1 0x20 ADD SWAP1 DUP2 MSTORE PUSH1 0x20 ADD PUSH1 0x0 KECCAK256 PUSH1 0x2 ADD PUSH1 0x1 SWAP1 SLOAD SWAP1 PUSH2 0x100 EXP SWAP1 DIV PUSH16 0xFFFFFFFFFFFFFFFFFFFFFFFFFFFFFFFF AND PUSH16 0xFFFFFFFFFFFFFFFFFFFFFFFFFFFFFFFF AND PUSH1 0xF PUSH1 0x0 DUP4 DUP2 MSTORE PUSH1 0x20 ADD SWAP1 DUP2 MSTORE PUSH1 0x20 ADD PUSH1 0x0 KECCAK256 PUSH1 0x3 ADD PUSH1 0x0 SWAP1 SLOAD SWAP1 PUSH2 0x100 EXP SWAP1 DIV PUSH16 0xFFFFFFFFFFFFFFFFFFFFFFFFFFFFFFFF AND PUSH16 0xFFFFFFFFFFFFFFFFFFFFFFFFFFFFFFFF AND LT PUSH2 0x168B JUMPI PUSH1 0x40 MLOAD PUSH32 0x8C379A000000000000000000000000000000000000000000000000000000000 DUP2 MSTORE PUSH1 0x4 ADD PUSH2 0x1682 SWAP1 PUSH2 0x3748 JUMP JUMPDEST PUSH1 0x40 MLOAD DUP1 SWAP2 SUB SWAP1 REVERT JUMPDEST JUMPDEST PUSH1 0xF PUSH1 0x0 DUP4 DUP2 MSTORE PUSH1 0x20 ADD SWAP1 DUP2 MSTORE PUSH1 0x20 ADD PUSH1 0x0 KECCAK256 PUSH1 0x3 ADD PUSH1 0x10 SWAP1 SLOAD SWAP1 PUSH2 0x100 EXP SWAP1 DIV PUSH1 0xFF AND PUSH2 0x16EF JUMPI PUSH1 0x40 MLOAD PUSH32 0x8C379A000000000000000000000000000000000000000000000000000000000 DUP2 MSTORE PUSH1 0x4 ADD PUSH2 0x16E6 SWAP1 PUSH2 0x3E29 JUMP JUMPDEST PUSH1 0x40 MLOAD DUP1 SWAP2 SUB SWAP1 REVERT JUMPDEST PUSH1 0xF PUSH1 0x0 DUP4 DUP2 MSTORE PUSH1 0x20 ADD SWAP1 DUP2 MSTORE PUSH1 0x20 ADD PUSH1 0x0 KECCAK256 PUSH1 0x4 ADD PUSH1 0x0 DUP6 PUSH20 0xFFFFFFFFFFFFFFFFFFFFFFFFFFFFFFFFFFFFFFFF AND PUSH20 0xFFFFFFFFFFFFFFFFFFFFFFFFFFFFFFFFFFFFFFFF AND DUP2 MSTORE PUSH1 0x20 ADD SWAP1 DUP2 MSTORE PUSH1 0x20 ADD PUSH1 0x0 KECCAK256 PUSH1 0x0 SWAP1 SLOAD SWAP1 PUSH2 0x100 EXP SWAP1 DIV PUSH1 0xFF AND PUSH2 0x178F JUMPI PUSH1 0x40 MLOAD PUSH32 0x8C379A000000000000000000000000000000000000000000000000000000000 DUP2 MSTORE PUSH1 0x4 ADD PUSH2 0x1786 SWAP1 PUSH2 0x3E95 JUMP JUMPDEST PUSH1 0x40 MLOAD DUP1 SWAP2 SUB SWAP1 REVERT JUMPDEST PUSH2 0x17AB DUP4 DUP4 PUSH1 0x1 PUSH1 0x40 MLOAD DUP1 PUSH1 0x20 ADD PUSH1 0x40 MSTORE DUP1 PUSH1 0x0 DUP2 MSTORE POP PUSH2 0x1A8C JUMP JUMPDEST PUSH1 0x1 PUSH1 0xF PUSH1 0x0 DUP5 DUP2 MSTORE PUSH1 0x20 ADD SWAP1 DUP2 MSTORE PUSH1 0x20 ADD PUSH1 0x0 KECCAK256 PUSH1 0x3 ADD PUSH1 0x0 DUP3 DUP3 DUP3 SWAP1 SLOAD SWAP1 PUSH2 0x100 EXP SWAP1 DIV PUSH16 0xFFFFFFFFFFFFFFFFFFFFFFFFFFFFFFFF AND PUSH2 0x17ED SWAP2 SWAP1 PUSH2 0x3797 JUMP JUMPDEST SWAP3 POP PUSH2 0x100 EXP DUP2 SLOAD DUP2 PUSH16 0xFFFFFFFFFFFFFFFFFFFFFFFFFFFFFFFF MUL NOT AND SWAP1 DUP4 PUSH16 0xFFFFFFFFFFFFFFFFFFFFFFFFFFFFFFFF AND MUL OR SWAP1 SSTORE POP PUSH1 0x0 PUSH1 0xF PUSH1 0x0 DUP5 DUP2 MSTORE PUSH1 0x20 ADD SWAP1 DUP2 MSTORE PUSH1 0x20 ADD PUSH1 0x0 KECCAK256 PUSH1 0x3 ADD PUSH1 0x10 PUSH2 0x100 EXP DUP2 SLOAD DUP2 PUSH1 0xFF MUL NOT AND SWAP1 DUP4 ISZERO ISZERO MUL OR SWAP1 SSTORE POP POP POP POP POP JUMP JUMPDEST PUSH1 0x7 PUSH1 0x0 SWAP1 SLOAD SWAP1 PUSH2 0x100 EXP SWAP1 DIV PUSH20 0xFFFFFFFFFFFFFFFFFFFFFFFFFFFFFFFFFFFFFFFF AND DUP2 JUMP JUMPDEST PUSH1 0x0 PUSH1 0xF PUSH1 0x0 DUP4 DUP2 MSTORE PUSH1 0x20 ADD SWAP1 DUP2 MSTORE PUSH1 0x20 ADD PUSH1 0x0 KECCAK256 PUSH1 0x3 ADD PUSH1 0x0 SWAP1 SLOAD SWAP1 PUSH2 0x100 EXP SWAP1 DIV PUSH16 0xFFFFFFFFFFFFFFFFFFFFFFFFFFFFFFFF AND SWAP1 POP SWAP2 SWAP1 POP JUMP JUMPDEST PUSH1 0x0 PUSH32 0x1FFC9A700000000000000000000000000000000000000000000000000000000 PUSH28 0xFFFFFFFFFFFFFFFFFFFFFFFFFFFFFFFFFFFFFFFFFFFFFFFFFFFFFFFF NOT AND DUP3 PUSH28 0xFFFFFFFFFFFFFFFFFFFFFFFFFFFFFFFFFFFFFFFFFFFFFFFFFFFFFFFF NOT AND EQ SWAP1 POP SWAP2 SWAP1 POP JUMP JUMPDEST PUSH1 0x60 PUSH1 0x0 DUP3 SUB PUSH2 0x196B JUMPI PUSH1 0x40 MLOAD DUP1 PUSH1 0x40 ADD PUSH1 0x40 MSTORE DUP1 PUSH1 0x1 DUP2 MSTORE PUSH1 0x20 ADD PUSH32 0x3000000000000000000000000000000000000000000000000000000000000000 DUP2 MSTORE POP SWAP1 POP PUSH2 0x1A7F JUMP JUMPDEST PUSH1 0x0 DUP3 SWAP1 POP PUSH1 0x0 JUMPDEST PUSH1 0x0 DUP3 EQ PUSH2 0x199D JUMPI DUP1 DUP1 PUSH2 0x1986 SWAP1 PUSH2 0x399C JUMP JUMPDEST SWAP2 POP POP PUSH1 0xA DUP3 PUSH2 0x1996 SWAP2 SWAP1 PUSH2 0x3EE4 JUMP JUMPDEST SWAP2 POP PUSH2 0x1973 JUMP JUMPDEST PUSH1 0x0 DUP2 PUSH8 0xFFFFFFFFFFFFFFFF DUP2 GT ISZERO PUSH2 0x19B9 JUMPI PUSH2 0x19B8 PUSH2 0x2BA3 JUMP JUMPDEST JUMPDEST PUSH1 0x40 MLOAD SWAP1 DUP1 DUP3 MSTORE DUP1 PUSH1 0x1F ADD PUSH1 0x1F NOT AND PUSH1 0x20 ADD DUP3 ADD PUSH1 0x40 MSTORE DUP1 ISZERO PUSH2 0x19EB JUMPI DUP2 PUSH1 0x20 ADD PUSH1 0x1 DUP3 MUL DUP1 CALLDATASIZE DUP4 CALLDATACOPY DUP1 DUP3 ADD SWAP2 POP POP SWAP1 POP JUMPDEST POP SWAP1 POP JUMPDEST PUSH1 0x0 DUP6 EQ PUSH2 0x1A78 JUMPI PUSH1 0x1 DUP3 PUSH2 0x1A04 SWAP2 SWAP1 PUSH2 0x3F15 JUMP JUMPDEST SWAP2 POP PUSH1 0xA DUP6 PUSH2 0x1A13 SWAP2 SWAP1 PUSH2 0x3F49 JUMP JUMPDEST PUSH1 0x30 PUSH2 0x1A1F SWAP2 SWAP1 PUSH2 0x3F7A JUMP JUMPDEST PUSH1 0xF8 SHL DUP2 DUP4 DUP2 MLOAD DUP2 LT PUSH2 0x1A35 JUMPI PUSH2 0x1A34 PUSH2 0x396D JUMP JUMPDEST JUMPDEST PUSH1 0x20 ADD ADD SWAP1 PUSH31 0xFFFFFFFFFFFFFFFFFFFFFFFFFFFFFFFFFFFFFFFFFFFFFFFFFFFFFFFFFFFFFF NOT AND SWAP1 DUP2 PUSH1 0x0 BYTE SWAP1 MSTORE8 POP PUSH1 0xA DUP6 PUSH2 0x1A71 SWAP2 SWAP1 PUSH2 0x3EE4 JUMP JUMPDEST SWAP5 POP PUSH2 0x19EF JUMP JUMPDEST DUP1 SWAP4 POP POP POP POP JUMPDEST SWAP2 SWAP1 POP JUMP JUMPDEST PUSH1 0x0 CALLER SWAP1 POP SWAP1 JUMP JUMPDEST PUSH1 0x0 PUSH20 0xFFFFFFFFFFFFFFFFFFFFFFFFFFFFFFFFFFFFFFFF AND DUP5 PUSH20 0xFFFFFFFFFFFFFFFFFFFFFFFFFFFFFFFFFFFFFFFF AND SUB PUSH2 0x1AFB JUMPI PUSH1 0x40 MLOAD PUSH32 0x8C379A000000000000000000000000000000000000000000000000000000000 DUP2 MSTORE PUSH1 0x4 ADD PUSH2 0x1AF2 SWAP1 PUSH2 0x4042 JUMP JUMPDEST PUSH1 0x40 MLOAD DUP1 SWAP2 SUB SWAP1 REVERT JUMPDEST PUSH1 0x0 PUSH2 0x1B05 PUSH2 0x1A84 JUMP JUMPDEST SWAP1 POP PUSH1 0x0 PUSH2 0x1B12 DUP6 PUSH2 0x244E JUMP JUMPDEST SWAP1 POP PUSH1 0x0 PUSH2 0x1B1F DUP6 PUSH2 0x244E JUMP JUMPDEST SWAP1 POP PUSH2 0x1B30 DUP4 PUSH1 0x0 DUP10 DUP6 DUP6 DUP10 PUSH2 0x24C8 JUMP JUMPDEST DUP5 PUSH1 0x0 DUP1 DUP9 DUP2 MSTORE PUSH1 0x20 ADD SWAP1 DUP2 MSTORE PUSH1 0x20 ADD PUSH1 0x0 KECCAK256 PUSH1 0x0 DUP10 PUSH20 0xFFFFFFFFFFFFFFFFFFFFFFFFFFFFFFFFFFFFFFFF AND PUSH20 0xFFFFFFFFFFFFFFFFFFFFFFFFFFFFFFFFFFFFFFFF AND DUP2 MSTORE PUSH1 0x20 ADD SWAP1 DUP2 MSTORE PUSH1 0x20 ADD PUSH1 0x0 KECCAK256 PUSH1 0x0 DUP3 DUP3 SLOAD PUSH2 0x1B8F SWAP2 SWAP1 PUSH2 0x3F7A JUMP JUMPDEST SWAP3 POP POP DUP2 SWAP1 SSTORE POP DUP7 PUSH20 0xFFFFFFFFFFFFFFFFFFFFFFFFFFFFFFFFFFFFFFFF AND PUSH1 0x0 PUSH20 0xFFFFFFFFFFFFFFFFFFFFFFFFFFFFFFFFFFFFFFFF AND DUP5 PUSH20 0xFFFFFFFFFFFFFFFFFFFFFFFFFFFFFFFFFFFFFFFF AND PUSH32 0xC3D58168C5AE7397731D063D5BBF3D657854427343F4C083240F7AACAA2D0F62 DUP10 DUP10 PUSH1 0x40 MLOAD PUSH2 0x1C0D SWAP3 SWAP2 SWAP1 PUSH2 0x4062 JUMP JUMPDEST PUSH1 0x40 MLOAD DUP1 SWAP2 SUB SWAP1 LOG4 PUSH2 0x1C24 DUP4 PUSH1 0x0 DUP10 DUP6 DUP6 DUP10 PUSH2 0x24D0 JUMP JUMPDEST PUSH2 0x1C33 DUP4 PUSH1 0x0 DUP10 DUP10 DUP10 DUP10 PUSH2 0x24D8 JUMP JUMPDEST POP POP POP POP POP POP POP JUMP JUMPDEST DUP2 MLOAD DUP4 MLOAD EQ PUSH2 0x1C80 JUMPI PUSH1 0x40 MLOAD PUSH32 0x8C379A000000000000000000000000000000000000000000000000000000000 DUP2 MSTORE PUSH1 0x4 ADD PUSH2 0x1C77 SWAP1 PUSH2 0x40FD JUMP JUMPDEST PUSH1 0x40 MLOAD DUP1 SWAP2 SUB SWAP1 REVERT JUMPDEST PUSH1 0x0 PUSH20 0xFFFFFFFFFFFFFFFFFFFFFFFFFFFFFFFFFFFFFFFF AND DUP5 PUSH20 0xFFFFFFFFFFFFFFFFFFFFFFFFFFFFFFFFFFFFFFFF AND SUB PUSH2 0x1CEF JUMPI PUSH1 0x40 MLOAD PUSH32 0x8C379A000000000000000000000000000000000000000000000000000000000 DUP2 MSTORE PUSH1 0x4 ADD PUSH2 0x1CE6 SWAP1 PUSH2 0x418F JUMP JUMPDEST PUSH1 0x40 MLOAD DUP1 SWAP2 SUB SWAP1 REVERT JUMPDEST PUSH1 0x0 PUSH2 0x1CF9 PUSH2 0x1A84 JUMP JUMPDEST SWAP1 POP PUSH2 0x1D09 DUP2 DUP8 DUP8 DUP8 DUP8 DUP8 PUSH2 0x24C8 JUMP JUMPDEST PUSH1 0x0 JUMPDEST DUP5 MLOAD DUP2 LT ISZERO PUSH2 0x1EBA JUMPI PUSH1 0x0 DUP6 DUP3 DUP2 MLOAD DUP2 LT PUSH2 0x1D2A JUMPI PUSH2 0x1D29 PUSH2 0x396D JUMP JUMPDEST JUMPDEST PUSH1 0x20 MUL PUSH1 0x20 ADD ADD MLOAD SWAP1 POP PUSH1 0x0 DUP6 DUP4 DUP2 MLOAD DUP2 LT PUSH2 0x1D49 JUMPI PUSH2 0x1D48 PUSH2 0x396D JUMP JUMPDEST JUMPDEST PUSH1 0x20 MUL PUSH1 0x20 ADD ADD MLOAD SWAP1 POP PUSH1 0x0 DUP1 PUSH1 0x0 DUP5 DUP2 MSTORE PUSH1 0x20 ADD SWAP1 DUP2 MSTORE PUSH1 0x20 ADD PUSH1 0x0 KECCAK256 PUSH1 0x0 DUP12 PUSH20 0xFFFFFFFFFFFFFFFFFFFFFFFFFFFFFFFFFFFFFFFF AND PUSH20 0xFFFFFFFFFFFFFFFFFFFFFFFFFFFFFFFFFFFFFFFF AND DUP2 MSTORE PUSH1 0x20 ADD SWAP1 DUP2 MSTORE PUSH1 0x20 ADD PUSH1 0x0 KECCAK256 SLOAD SWAP1 POP DUP2 DUP2 LT ISZERO PUSH2 0x1DEA JUMPI PUSH1 0x40 MLOAD PUSH32 0x8C379A000000000000000000000000000000000000000000000000000000000 DUP2 MSTORE PUSH1 0x4 ADD PUSH2 0x1DE1 SWAP1 PUSH2 0x4221 JUMP JUMPDEST PUSH1 0x40 MLOAD DUP1 SWAP2 SUB SWAP1 REVERT JUMPDEST DUP2 DUP2 SUB PUSH1 0x0 DUP1 DUP6 DUP2 MSTORE PUSH1 0x20 ADD SWAP1 DUP2 MSTORE PUSH1 0x20 ADD PUSH1 0x0 KECCAK256 PUSH1 0x0 DUP13 PUSH20 0xFFFFFFFFFFFFFFFFFFFFFFFFFFFFFFFFFFFFFFFF AND PUSH20 0xFFFFFFFFFFFFFFFFFFFFFFFFFFFFFFFFFFFFFFFF AND DUP2 MSTORE PUSH1 0x20 ADD SWAP1 DUP2 MSTORE PUSH1 0x20 ADD PUSH1 0x0 KECCAK256 DUP2 SWAP1 SSTORE POP DUP2 PUSH1 0x0 DUP1 DUP6 DUP2 MSTORE PUSH1 0x20 ADD SWAP1 DUP2 MSTORE PUSH1 0x20 ADD PUSH1 0x0 KECCAK256 PUSH1 0x0 DUP12 PUSH20 0xFFFFFFFFFFFFFFFFFFFFFFFFFFFFFFFFFFFFFFFF AND PUSH20 0xFFFFFFFFFFFFFFFFFFFFFFFFFFFFFFFFFFFFFFFF AND DUP2 MSTORE PUSH1 0x20 ADD SWAP1 DUP2 MSTORE PUSH1 0x20 ADD PUSH1 0x0 KECCAK256 PUSH1 0x0 DUP3 DUP3 SLOAD PUSH2 0x1E9F SWAP2 SWAP1 PUSH2 0x3F7A JUMP JUMPDEST SWAP3 POP POP DUP2 SWAP1 SSTORE POP POP POP POP DUP1 PUSH2 0x1EB3 SWAP1 PUSH2 0x399C JUMP JUMPDEST SWAP1 POP PUSH2 0x1D0C JUMP JUMPDEST POP DUP5 PUSH20 0xFFFFFFFFFFFFFFFFFFFFFFFFFFFFFFFFFFFFFFFF AND DUP7 PUSH20 0xFFFFFFFFFFFFFFFFFFFFFFFFFFFFFFFFFFFFFFFF AND DUP3 PUSH20 0xFFFFFFFFFFFFFFFFFFFFFFFFFFFFFFFFFFFFFFFF AND PUSH32 0x4A39DC06D4C0DBC64B70AF90FD698A233A518AA5D07E595D983B8C0526C8F7FB DUP8 DUP8 PUSH1 0x40 MLOAD PUSH2 0x1F31 SWAP3 SWAP2 SWAP1 PUSH2 0x4241 JUMP JUMPDEST PUSH1 0x40 MLOAD DUP1 SWAP2 SUB SWAP1 LOG4 PUSH2 0x1F47 DUP2 DUP8 DUP8 DUP8 DUP8 DUP8 PUSH2 0x24D0 JUMP JUMPDEST PUSH2 0x1F55 DUP2 DUP8 DUP8 DUP8 DUP8 DUP8 PUSH2 0x26AF JUMP JUMPDEST POP POP POP POP POP POP JUMP JUMPDEST PUSH1 0x0 PUSH1 0x3 PUSH1 0x0 SWAP1 SLOAD SWAP1 PUSH2 0x100 EXP SWAP1 DIV PUSH20 0xFFFFFFFFFFFFFFFFFFFFFFFFFFFFFFFFFFFFFFFF AND SWAP1 POP DUP2 PUSH1 0x3 PUSH1 0x0 PUSH2 0x100 EXP DUP2 SLOAD DUP2 PUSH20 0xFFFFFFFFFFFFFFFFFFFFFFFFFFFFFFFFFFFFFFFF MUL NOT AND SWAP1 DUP4 PUSH20 0xFFFFFFFFFFFFFFFFFFFFFFFFFFFFFFFFFFFFFFFF AND MUL OR SWAP1 SSTORE POP DUP2 PUSH20 0xFFFFFFFFFFFFFFFFFFFFFFFFFFFFFFFFFFFFFFFF AND DUP2 PUSH20 0xFFFFFFFFFFFFFFFFFFFFFFFFFFFFFFFFFFFFFFFF AND PUSH32 0x8BE0079C531659141344CD1FD0A4F28419497F9722A3DAAFE3B4186F6B6457E0 PUSH1 0x40 MLOAD PUSH1 0x40 MLOAD DUP1 SWAP2 SUB SWAP1 LOG3 POP POP JUMP JUMPDEST DUP2 PUSH20 0xFFFFFFFFFFFFFFFFFFFFFFFFFFFFFFFFFFFFFFFF AND DUP4 PUSH20 0xFFFFFFFFFFFFFFFFFFFFFFFFFFFFFFFFFFFFFFFF AND SUB PUSH2 0x2091 JUMPI PUSH1 0x40 MLOAD PUSH32 0x8C379A000000000000000000000000000000000000000000000000000000000 DUP2 MSTORE PUSH1 0x4 ADD PUSH2 0x2088 SWAP1 PUSH2 0x42EA JUMP JUMPDEST PUSH1 0x40 MLOAD DUP1 SWAP2 SUB SWAP1 REVERT JUMPDEST DUP1 PUSH1 0x1 PUSH1 0x0 DUP6 PUSH20 0xFFFFFFFFFFFFFFFFFFFFFFFFFFFFFFFFFFFFFFFF AND PUSH20 0xFFFFFFFFFFFFFFFFFFFFFFFFFFFFFFFFFFFFFFFF AND DUP2 MSTORE PUSH1 0x20 ADD SWAP1 DUP2 MSTORE PUSH1 0x20 ADD PUSH1 0x0 KECCAK256 PUSH1 0x0 DUP5 PUSH20 0xFFFFFFFFFFFFFFFFFFFFFFFFFFFFFFFFFFFFFFFF AND PUSH20 0xFFFFFFFFFFFFFFFFFFFFFFFFFFFFFFFFFFFFFFFF AND DUP2 MSTORE PUSH1 0x20 ADD SWAP1 DUP2 MSTORE PUSH1 0x20 ADD PUSH1 0x0 KECCAK256 PUSH1 0x0 PUSH2 0x100 EXP DUP2 SLOAD DUP2 PUSH1 0xFF MUL NOT AND SWAP1 DUP4 ISZERO ISZERO MUL OR SWAP1 SSTORE POP DUP2 PUSH20 0xFFFFFFFFFFFFFFFFFFFFFFFFFFFFFFFFFFFFFFFF AND DUP4 PUSH20 0xFFFFFFFFFFFFFFFFFFFFFFFFFFFFFFFFFFFFFFFF AND PUSH32 0x17307EAB39AB6107E8899845AD3D59BD9653F200F220920489CA2B5937696C31 DUP4 PUSH1 0x40 MLOAD PUSH2 0x2182 SWAP2 SWAP1 PUSH2 0x2A5B JUMP JUMPDEST PUSH1 0x40 MLOAD DUP1 SWAP2 SUB SWAP1 LOG3 POP POP POP JUMP JUMPDEST PUSH1 0x0 DUP2 PUSH1 0x0 ADD SLOAD SWAP1 POP SWAP2 SWAP1 POP JUMP JUMPDEST PUSH1 0x1 DUP2 PUSH1 0x0 ADD PUSH1 0x0 DUP3 DUP3 SLOAD ADD SWAP3 POP POP DUP2 SWAP1 SSTORE POP POP JUMP JUMPDEST PUSH1 0x0 PUSH20 0xFFFFFFFFFFFFFFFFFFFFFFFFFFFFFFFFFFFFFFFF AND DUP5 PUSH20 0xFFFFFFFFFFFFFFFFFFFFFFFFFFFFFFFFFFFFFFFF AND SUB PUSH2 0x2222 JUMPI PUSH1 0x40 MLOAD PUSH32 0x8C379A000000000000000000000000000000000000000000000000000000000 DUP2 MSTORE PUSH1 0x4 ADD PUSH2 0x2219 SWAP1 PUSH2 0x418F JUMP JUMPDEST PUSH1 0x40 MLOAD DUP1 SWAP2 SUB SWAP1 REVERT JUMPDEST PUSH1 0x0 PUSH2 0x222C PUSH2 0x1A84 JUMP JUMPDEST SWAP1 POP PUSH1 0x0 PUSH2 0x2239 DUP6 PUSH2 0x244E JUMP JUMPDEST SWAP1 POP PUSH1 0x0 PUSH2 0x2246 DUP6 PUSH2 0x244E JUMP JUMPDEST SWAP1 POP PUSH2 0x2256 DUP4 DUP10 DUP10 DUP6 DUP6 DUP10 PUSH2 0x24C8 JUMP JUMPDEST PUSH1 0x0 DUP1 PUSH1 0x0 DUP9 DUP2 MSTORE PUSH1 0x20 ADD SWAP1 DUP2 MSTORE PUSH1 0x20 ADD PUSH1 0x0 KECCAK256 PUSH1 0x0 DUP11 PUSH20 0xFFFFFFFFFFFFFFFFFFFFFFFFFFFFFFFFFFFFFFFF AND PUSH20 0xFFFFFFFFFFFFFFFFFFFFFFFFFFFFFFFFFFFFFFFF AND DUP2 MSTORE PUSH1 0x20 ADD SWAP1 DUP2 MSTORE PUSH1 0x20 ADD PUSH1 0x0 KECCAK256 SLOAD SWAP1 POP DUP6 DUP2 LT ISZERO PUSH2 0x22ED JUMPI PUSH1 0x40 MLOAD PUSH32 0x8C379A000000000000000000000000000000000000000000000000000000000 DUP2 MSTORE PUSH1 0x4 ADD PUSH2 0x22E4 SWAP1 PUSH2 0x4221 JUMP JUMPDEST PUSH1 0x40 MLOAD DUP1 SWAP2 SUB SWAP1 REVERT JUMPDEST DUP6 DUP2 SUB PUSH1 0x0 DUP1 DUP10 DUP2 MSTORE PUSH1 0x20 ADD SWAP1 DUP2 MSTORE PUSH1 0x20 ADD PUSH1 0x0 KECCAK256 PUSH1 0x0 DUP12 PUSH20 0xFFFFFFFFFFFFFFFFFFFFFFFFFFFFFFFFFFFFFFFF AND PUSH20 0xFFFFFFFFFFFFFFFFFFFFFFFFFFFFFFFFFFFFFFFF AND DUP2 MSTORE PUSH1 0x20 ADD SWAP1 DUP2 MSTORE PUSH1 0x20 ADD PUSH1 0x0 KECCAK256 DUP2 SWAP1 SSTORE POP DUP6 PUSH1 0x0 DUP1 DUP10 DUP2 MSTORE PUSH1 0x20 ADD SWAP1 DUP2 MSTORE PUSH1 0x20 ADD PUSH1 0x0 KECCAK256 PUSH1 0x0 DUP11 PUSH20 0xFFFFFFFFFFFFFFFFFFFFFFFFFFFFFFFFFFFFFFFF AND PUSH20 0xFFFFFFFFFFFFFFFFFFFFFFFFFFFFFFFFFFFFFFFF AND DUP2 MSTORE PUSH1 0x20 ADD SWAP1 DUP2 MSTORE PUSH1 0x20 ADD PUSH1 0x0 KECCAK256 PUSH1 0x0 DUP3 DUP3 SLOAD PUSH2 0x23A2 SWAP2 SWAP1 PUSH2 0x3F7A JUMP JUMPDEST SWAP3 POP POP DUP2 SWAP1 SSTORE POP DUP8 PUSH20 0xFFFFFFFFFFFFFFFFFFFFFFFFFFFFFFFFFFFFFFFF AND DUP10 PUSH20 0xFFFFFFFFFFFFFFFFFFFFFFFFFFFFFFFFFFFFFFFF AND DUP6 PUSH20 0xFFFFFFFFFFFFFFFFFFFFFFFFFFFFFFFFFFFFFFFF AND PUSH32 0xC3D58168C5AE7397731D063D5BBF3D657854427343F4C083240F7AACAA2D0F62 DUP11 DUP11 PUSH1 0x40 MLOAD PUSH2 0x241F SWAP3 SWAP2 SWAP1 PUSH2 0x4062 JUMP JUMPDEST PUSH1 0x40 MLOAD DUP1 SWAP2 SUB SWAP1 LOG4 PUSH2 0x2435 DUP5 DUP11 DUP11 DUP7 DUP7 DUP11 PUSH2 0x24D0 JUMP JUMPDEST PUSH2 0x2443 DUP5 DUP11 DUP11 DUP11 DUP11 DUP11 PUSH2 0x24D8 JUMP JUMPDEST POP POP POP POP POP POP POP POP POP JUMP JUMPDEST PUSH1 0x60 PUSH1 0x0 PUSH1 0x1 PUSH8 0xFFFFFFFFFFFFFFFF DUP2 GT ISZERO PUSH2 0x246D JUMPI PUSH2 0x246C PUSH2 0x2BA3 JUMP JUMPDEST JUMPDEST PUSH1 0x40 MLOAD SWAP1 DUP1 DUP3 MSTORE DUP1 PUSH1 0x20 MUL PUSH1 0x20 ADD DUP3 ADD PUSH1 0x40 MSTORE DUP1 ISZERO PUSH2 0x249B JUMPI DUP2 PUSH1 0x20 ADD PUSH1 0x20 DUP3 MUL DUP1 CALLDATASIZE DUP4 CALLDATACOPY DUP1 DUP3 ADD SWAP2 POP POP SWAP1 POP JUMPDEST POP SWAP1 POP DUP3 DUP2 PUSH1 0x0 DUP2 MLOAD DUP2 LT PUSH2 0x24B3 JUMPI PUSH2 0x24B2 PUSH2 0x396D JUMP JUMPDEST JUMPDEST PUSH1 0x20 MUL PUSH1 0x20 ADD ADD DUP2 DUP2 MSTORE POP POP DUP1 SWAP2 POP POP SWAP2 SWAP1 POP JUMP JUMPDEST POP POP POP POP POP POP JUMP JUMPDEST POP POP POP POP POP POP JUMP JUMPDEST PUSH2 0x24F7 DUP5 PUSH20 0xFFFFFFFFFFFFFFFFFFFFFFFFFFFFFFFFFFFFFFFF AND PUSH2 0x2886 JUMP JUMPDEST ISZERO PUSH2 0x26A7 JUMPI DUP4 PUSH20 0xFFFFFFFFFFFFFFFFFFFFFFFFFFFFFFFFFFFFFFFF AND PUSH4 0xF23A6E61 DUP8 DUP8 DUP7 DUP7 DUP7 PUSH1 0x40 MLOAD DUP7 PUSH4 0xFFFFFFFF AND PUSH1 0xE0 SHL DUP2 MSTORE PUSH1 0x4 ADD PUSH2 0x253D SWAP6 SWAP5 SWAP4 SWAP3 SWAP2 SWAP1 PUSH2 0x435F JUMP JUMPDEST PUSH1 0x20 PUSH1 0x40 MLOAD DUP1 DUP4 SUB DUP2 PUSH1 0x0 DUP8 GAS CALL SWAP3 POP POP POP DUP1 ISZERO PUSH2 0x2579 JUMPI POP PUSH1 0x40 MLOAD RETURNDATASIZE PUSH1 0x1F NOT PUSH1 0x1F DUP3 ADD AND DUP3 ADD DUP1 PUSH1 0x40 MSTORE POP DUP2 ADD SWAP1 PUSH2 0x2576 SWAP2 SWAP1 PUSH2 0x43CE JUMP JUMPDEST PUSH1 0x1 JUMPDEST PUSH2 0x261E JUMPI PUSH2 0x2585 PUSH2 0x4408 JUMP JUMPDEST DUP1 PUSH4 0x8C379A0 SUB PUSH2 0x25E1 JUMPI POP PUSH2 0x2599 PUSH2 0x442A JUMP JUMPDEST DUP1 PUSH2 0x25A4 JUMPI POP PUSH2 0x25E3 JUMP JUMPDEST DUP1 PUSH1 0x40 MLOAD PUSH32 0x8C379A000000000000000000000000000000000000000000000000000000000 DUP2 MSTORE PUSH1 0x4 ADD PUSH2 0x25D8 SWAP2 SWAP1 PUSH2 0x2B0F JUMP JUMPDEST PUSH1 0x40 MLOAD DUP1 SWAP2 SUB SWAP1 REVERT JUMPDEST POP JUMPDEST PUSH1 0x40 MLOAD PUSH32 0x8C379A000000000000000000000000000000000000000000000000000000000 DUP2 MSTORE PUSH1 0x4 ADD PUSH2 0x2615 SWAP1 PUSH2 0x452C JUMP JUMPDEST PUSH1 0x40 MLOAD DUP1 SWAP2 SUB SWAP1 REVERT JUMPDEST PUSH4 0xF23A6E61 PUSH1 0xE0 SHL PUSH28 0xFFFFFFFFFFFFFFFFFFFFFFFFFFFFFFFFFFFFFFFFFFFFFFFFFFFFFFFF NOT AND DUP2 PUSH28 0xFFFFFFFFFFFFFFFFFFFFFFFFFFFFFFFFFFFFFFFFFFFFFFFFFFFFFFFF NOT AND EQ PUSH2 0x26A5 JUMPI PUSH1 0x40 MLOAD PUSH32 0x8C379A000000000000000000000000000000000000000000000000000000000 DUP2 MSTORE PUSH1 0x4 ADD PUSH2 0x269C SWAP1 PUSH2 0x45BE JUMP JUMPDEST PUSH1 0x40 MLOAD DUP1 SWAP2 SUB SWAP1 REVERT JUMPDEST POP JUMPDEST POP POP POP POP POP POP JUMP JUMPDEST PUSH2 0x26CE DUP5 PUSH20 0xFFFFFFFFFFFFFFFFFFFFFFFFFFFFFFFFFFFFFFFF AND PUSH2 0x2886 JUMP JUMPDEST ISZERO PUSH2 0x287E JUMPI DUP4 PUSH20 0xFFFFFFFFFFFFFFFFFFFFFFFFFFFFFFFFFFFFFFFF AND PUSH4 0xBC197C81 DUP8 DUP8 DUP7 DUP7 DUP7 PUSH1 0x40 MLOAD DUP7 PUSH4 0xFFFFFFFF AND PUSH1 0xE0 SHL DUP2 MSTORE PUSH1 0x4 ADD PUSH2 0x2714 SWAP6 SWAP5 SWAP4 SWAP3 SWAP2 SWAP1 PUSH2 0x45DE JUMP JUMPDEST PUSH1 0x20 PUSH1 0x40 MLOAD DUP1 DUP4 SUB DUP2 PUSH1 0x0 DUP8 GAS CALL SWAP3 POP POP POP DUP1 ISZERO PUSH2 0x2750 JUMPI POP PUSH1 0x40 MLOAD RETURNDATASIZE PUSH1 0x1F NOT PUSH1 0x1F DUP3 ADD AND DUP3 ADD DUP1 PUSH1 0x40 MSTORE POP DUP2 ADD SWAP1 PUSH2 0x274D SWAP2 SWAP1 PUSH2 0x43CE JUMP JUMPDEST PUSH1 0x1 JUMPDEST PUSH2 0x27F5 JUMPI PUSH2 0x275C PUSH2 0x4408 JUMP JUMPDEST DUP1 PUSH4 0x8C379A0 SUB PUSH2 0x27B8 JUMPI POP PUSH2 0x2770 PUSH2 0x442A JUMP JUMPDEST DUP1 PUSH2 0x277B JUMPI POP PUSH2 0x27BA JUMP JUMPDEST DUP1 PUSH1 0x40 MLOAD PUSH32 0x8C379A000000000000000000000000000000000000000000000000000000000 DUP2 MSTORE PUSH1 0x4 ADD PUSH2 0x27AF SWAP2 SWAP1 PUSH2 0x2B0F JUMP JUMPDEST PUSH1 0x40 MLOAD DUP1 SWAP2 SUB SWAP1 REVERT JUMPDEST POP JUMPDEST PUSH1 0x40 MLOAD PUSH32 0x8C379A000000000000000000000000000000000000000000000000000000000 DUP2 MSTORE PUSH1 0x4 ADD PUSH2 0x27EC SWAP1 PUSH2 0x452C JUMP JUMPDEST PUSH1 0x40 MLOAD DUP1 SWAP2 SUB SWAP1 REVERT JUMPDEST PUSH4 0xBC197C81 PUSH1 0xE0 SHL PUSH28 0xFFFFFFFFFFFFFFFFFFFFFFFFFFFFFFFFFFFFFFFFFFFFFFFFFFFFFFFF NOT AND DUP2 PUSH28 0xFFFFFFFFFFFFFFFFFFFFFFFFFFFFFFFFFFFFFFFFFFFFFFFFFFFFFFFF NOT AND EQ PUSH2 0x287C JUMPI PUSH1 0x40 MLOAD PUSH32 0x8C379A000000000000000000000000000000000000000000000000000000000 DUP2 MSTORE PUSH1 0x4 ADD PUSH2 0x2873 SWAP1 PUSH2 0x45BE JUMP JUMPDEST PUSH1 0x40 MLOAD DUP1 SWAP2 SUB SWAP1 REVERT JUMPDEST POP JUMPDEST POP POP POP POP POP POP JUMP JUMPDEST PUSH1 0x0 DUP1 DUP3 PUSH20 0xFFFFFFFFFFFFFFFFFFFFFFFFFFFFFFFFFFFFFFFF AND EXTCODESIZE GT SWAP1 POP SWAP2 SWAP1 POP JUMP JUMPDEST PUSH1 0x0 PUSH1 0x40 MLOAD SWAP1 POP SWAP1 JUMP JUMPDEST PUSH1 0x0 DUP1 REVERT JUMPDEST PUSH1 0x0 DUP1 REVERT JUMPDEST PUSH1 0x0 PUSH20 0xFFFFFFFFFFFFFFFFFFFFFFFFFFFFFFFFFFFFFFFF DUP3 AND SWAP1 POP SWAP2 SWAP1 POP JUMP JUMPDEST PUSH1 0x0 PUSH2 0x28E8 DUP3 PUSH2 0x28BD JUMP JUMPDEST SWAP1 POP SWAP2 SWAP1 POP JUMP JUMPDEST PUSH2 0x28F8 DUP2 PUSH2 0x28DD JUMP JUMPDEST DUP2 EQ PUSH2 0x2903 JUMPI PUSH1 0x0 DUP1 REVERT JUMPDEST POP JUMP JUMPDEST PUSH1 0x0 DUP2 CALLDATALOAD SWAP1 POP PUSH2 0x2915 DUP2 PUSH2 0x28EF JUMP JUMPDEST SWAP3 SWAP2 POP POP JUMP JUMPDEST PUSH1 0x0 DUP2 SWAP1 POP SWAP2 SWAP1 POP JUMP JUMPDEST PUSH2 0x292E DUP2 PUSH2 0x291B JUMP JUMPDEST DUP2 EQ PUSH2 0x2939 JUMPI PUSH1 0x0 DUP1 REVERT JUMPDEST POP JUMP JUMPDEST PUSH1 0x0 DUP2 CALLDATALOAD SWAP1 POP PUSH2 0x294B DUP2 PUSH2 0x2925 JUMP JUMPDEST SWAP3 SWAP2 POP POP JUMP JUMPDEST PUSH1 0x0 DUP1 PUSH1 0x40 DUP4 DUP6 SUB SLT ISZERO PUSH2 0x2968 JUMPI PUSH2 0x2967 PUSH2 0x28B3 JUMP JUMPDEST JUMPDEST PUSH1 0x0 PUSH2 0x2976 DUP6 DUP3 DUP7 ADD PUSH2 0x2906 JUMP JUMPDEST SWAP3 POP POP PUSH1 0x20 PUSH2 0x2987 DUP6 DUP3 DUP7 ADD PUSH2 0x293C JUMP JUMPDEST SWAP2 POP POP SWAP3 POP SWAP3 SWAP1 POP JUMP JUMPDEST PUSH2 0x299A DUP2 PUSH2 0x291B JUMP JUMPDEST DUP3 MSTORE POP POP JUMP JUMPDEST PUSH1 0x0 PUSH1 0x20 DUP3 ADD SWAP1 POP PUSH2 0x29B5 PUSH1 0x0 DUP4 ADD DUP5 PUSH2 0x2991 JUMP JUMPDEST SWAP3 SWAP2 POP POP JUMP JUMPDEST PUSH1 0x0 PUSH32 0xFFFFFFFF00000000000000000000000000000000000000000000000000000000 DUP3 AND SWAP1 POP SWAP2 SWAP1 POP JUMP JUMPDEST PUSH2 0x29F0 DUP2 PUSH2 0x29BB JUMP JUMPDEST DUP2 EQ PUSH2 0x29FB JUMPI PUSH1 0x0 DUP1 REVERT JUMPDEST POP JUMP JUMPDEST PUSH1 0x0 DUP2 CALLDATALOAD SWAP1 POP PUSH2 0x2A0D DUP2 PUSH2 0x29E7 JUMP JUMPDEST SWAP3 SWAP2 POP POP JUMP JUMPDEST PUSH1 0x0 PUSH1 0x20 DUP3 DUP5 SUB SLT ISZERO PUSH2 0x2A29 JUMPI PUSH2 0x2A28 PUSH2 0x28B3 JUMP JUMPDEST JUMPDEST PUSH1 0x0 PUSH2 0x2A37 DUP5 DUP3 DUP6 ADD PUSH2 0x29FE JUMP JUMPDEST SWAP2 POP POP SWAP3 SWAP2 POP POP JUMP JUMPDEST PUSH1 0x0 DUP2 ISZERO ISZERO SWAP1 POP SWAP2 SWAP1 POP JUMP JUMPDEST PUSH2 0x2A55 DUP2 PUSH2 0x2A40 JUMP JUMPDEST DUP3 MSTORE POP POP JUMP JUMPDEST PUSH1 0x0 PUSH1 0x20 DUP3 ADD SWAP1 POP PUSH2 0x2A70 PUSH1 0x0 DUP4 ADD DUP5 PUSH2 0x2A4C JUMP JUMPDEST SWAP3 SWAP2 POP POP JUMP JUMPDEST PUSH1 0x0 DUP2 MLOAD SWAP1 POP SWAP2 SWAP1 POP JUMP JUMPDEST PUSH1 0x0 DUP3 DUP3 MSTORE PUSH1 0x20 DUP3 ADD SWAP1 POP SWAP3 SWAP2 POP POP JUMP JUMPDEST PUSH1 0x0 JUMPDEST DUP4 DUP2 LT ISZERO PUSH2 0x2AB0 JUMPI DUP1 DUP3 ADD MLOAD DUP2 DUP5 ADD MSTORE PUSH1 0x20 DUP2 ADD SWAP1 POP PUSH2 0x2A95 JUMP JUMPDEST DUP4 DUP2 GT ISZERO PUSH2 0x2ABF JUMPI PUSH1 0x0 DUP5 DUP5 ADD MSTORE JUMPDEST POP POP POP POP JUMP JUMPDEST PUSH1 0x0 PUSH1 0x1F NOT PUSH1 0x1F DUP4 ADD AND SWAP1 POP SWAP2 SWAP1 POP JUMP JUMPDEST PUSH1 0x0 PUSH2 0x2AE1 DUP3 PUSH2 0x2A76 JUMP JUMPDEST PUSH2 0x2AEB DUP2 DUP6 PUSH2 0x2A81 JUMP JUMPDEST SWAP4 POP PUSH2 0x2AFB DUP2 DUP6 PUSH1 0x20 DUP7 ADD PUSH2 0x2A92 JUMP JUMPDEST PUSH2 0x2B04 DUP2 PUSH2 0x2AC5 JUMP JUMPDEST DUP5 ADD SWAP2 POP POP SWAP3 SWAP2 POP POP JUMP JUMPDEST PUSH1 0x0 PUSH1 0x20 DUP3 ADD SWAP1 POP DUP2 DUP2 SUB PUSH1 0x0 DUP4 ADD MSTORE PUSH2 0x2B29 DUP2 DUP5 PUSH2 0x2AD6 JUMP JUMPDEST SWAP1 POP SWAP3 SWAP2 POP POP JUMP JUMPDEST PUSH1 0x0 PUSH1 0x20 DUP3 DUP5 SUB SLT ISZERO PUSH2 0x2B47 JUMPI PUSH2 0x2B46 PUSH2 0x28B3 JUMP JUMPDEST JUMPDEST PUSH1 0x0 PUSH2 0x2B55 DUP5 DUP3 DUP6 ADD PUSH2 0x293C JUMP JUMPDEST SWAP2 POP POP SWAP3 SWAP2 POP POP JUMP JUMPDEST PUSH1 0x0 DUP1 PUSH1 0x40 DUP4 DUP6 SUB SLT ISZERO PUSH2 0x2B75 JUMPI PUSH2 0x2B74 PUSH2 0x28B3 JUMP JUMPDEST JUMPDEST PUSH1 0x0 PUSH2 0x2B83 DUP6 DUP3 DUP7 ADD PUSH2 0x293C JUMP JUMPDEST SWAP3 POP POP PUSH1 0x20 PUSH2 0x2B94 DUP6 DUP3 DUP7 ADD PUSH2 0x2906 JUMP JUMPDEST SWAP2 POP POP SWAP3 POP SWAP3 SWAP1 POP JUMP JUMPDEST PUSH1 0x0 DUP1 REVERT JUMPDEST PUSH32 0x4E487B7100000000000000000000000000000000000000000000000000000000 PUSH1 0x0 MSTORE PUSH1 0x41 PUSH1 0x4 MSTORE PUSH1 0x24 PUSH1 0x0 REVERT JUMPDEST PUSH2 0x2BDB DUP3 PUSH2 0x2AC5 JUMP JUMPDEST DUP2 ADD DUP2 DUP2 LT PUSH8 0xFFFFFFFFFFFFFFFF DUP3 GT OR ISZERO PUSH2 0x2BFA JUMPI PUSH2 0x2BF9 PUSH2 0x2BA3 JUMP JUMPDEST JUMPDEST DUP1 PUSH1 0x40 MSTORE POP POP POP JUMP JUMPDEST PUSH1 0x0 PUSH2 0x2C0D PUSH2 0x28A9 JUMP JUMPDEST SWAP1 POP PUSH2 0x2C19 DUP3 DUP3 PUSH2 0x2BD2 JUMP JUMPDEST SWAP2 SWAP1 POP JUMP JUMPDEST PUSH1 0x0 PUSH8 0xFFFFFFFFFFFFFFFF DUP3 GT ISZERO PUSH2 0x2C39 JUMPI PUSH2 0x2C38 PUSH2 0x2BA3 JUMP JUMPDEST JUMPDEST PUSH1 0x20 DUP3 MUL SWAP1 POP PUSH1 0x20 DUP2 ADD SWAP1 POP SWAP2 SWAP1 POP JUMP JUMPDEST PUSH1 0x0 DUP1 REVERT JUMPDEST PUSH1 0x0 PUSH2 0x2C62 PUSH2 0x2C5D DUP5 PUSH2 0x2C1E JUMP JUMPDEST PUSH2 0x2C03 JUMP JUMPDEST SWAP1 POP DUP1 DUP4 DUP3 MSTORE PUSH1 0x20 DUP3 ADD SWAP1 POP PUSH1 0x20 DUP5 MUL DUP4 ADD DUP6 DUP2 GT ISZERO PUSH2 0x2C85 JUMPI PUSH2 0x2C84 PUSH2 0x2C4A JUMP JUMPDEST JUMPDEST DUP4 JUMPDEST DUP2 DUP2 LT ISZERO PUSH2 0x2CAE JUMPI DUP1 PUSH2 0x2C9A DUP9 DUP3 PUSH2 0x293C JUMP JUMPDEST DUP5 MSTORE PUSH1 0x20 DUP5 ADD SWAP4 POP POP PUSH1 0x20 DUP2 ADD SWAP1 POP PUSH2 0x2C87 JUMP JUMPDEST POP POP POP SWAP4 SWAP3 POP POP POP JUMP JUMPDEST PUSH1 0x0 DUP3 PUSH1 0x1F DUP4 ADD SLT PUSH2 0x2CCD JUMPI PUSH2 0x2CCC PUSH2 0x2B9E JUMP JUMPDEST JUMPDEST DUP2 CALLDATALOAD PUSH2 0x2CDD DUP5 DUP3 PUSH1 0x20 DUP7 ADD PUSH2 0x2C4F JUMP JUMPDEST SWAP2 POP POP SWAP3 SWAP2 POP POP JUMP JUMPDEST PUSH1 0x0 DUP1 REVERT JUMPDEST PUSH1 0x0 PUSH8 0xFFFFFFFFFFFFFFFF DUP3 GT ISZERO PUSH2 0x2D06 JUMPI PUSH2 0x2D05 PUSH2 0x2BA3 JUMP JUMPDEST JUMPDEST PUSH2 0x2D0F DUP3 PUSH2 0x2AC5 JUMP JUMPDEST SWAP1 POP PUSH1 0x20 DUP2 ADD SWAP1 POP SWAP2 SWAP1 POP JUMP JUMPDEST DUP3 DUP2 DUP4 CALLDATACOPY PUSH1 0x0 DUP4 DUP4 ADD MSTORE POP POP POP JUMP JUMPDEST PUSH1 0x0 PUSH2 0x2D3E PUSH2 0x2D39 DUP5 PUSH2 0x2CEB JUMP JUMPDEST PUSH2 0x2C03 JUMP JUMPDEST SWAP1 POP DUP3 DUP2 MSTORE PUSH1 0x20 DUP2 ADD DUP5 DUP5 DUP5 ADD GT ISZERO PUSH2 0x2D5A JUMPI PUSH2 0x2D59 PUSH2 0x2CE6 JUMP JUMPDEST JUMPDEST PUSH2 0x2D65 DUP5 DUP3 DUP6 PUSH2 0x2D1C JUMP JUMPDEST POP SWAP4 SWAP3 POP POP POP JUMP JUMPDEST PUSH1 0x0 DUP3 PUSH1 0x1F DUP4 ADD SLT PUSH2 0x2D82 JUMPI PUSH2 0x2D81 PUSH2 0x2B9E JUMP JUMPDEST JUMPDEST DUP2 CALLDATALOAD PUSH2 0x2D92 DUP5 DUP3 PUSH1 0x20 DUP7 ADD PUSH2 0x2D2B JUMP JUMPDEST SWAP2 POP POP SWAP3 SWAP2 POP POP JUMP JUMPDEST PUSH1 0x0 DUP1 PUSH1 0x0 DUP1 PUSH1 0x0 PUSH1 0xA0 DUP7 DUP9 SUB SLT ISZERO PUSH2 0x2DB7 JUMPI PUSH2 0x2DB6 PUSH2 0x28B3 JUMP JUMPDEST JUMPDEST PUSH1 0x0 PUSH2 0x2DC5 DUP9 DUP3 DUP10 ADD PUSH2 0x2906 JUMP JUMPDEST SWAP6 POP POP PUSH1 0x20 PUSH2 0x2DD6 DUP9 DUP3 DUP10 ADD PUSH2 0x2906 JUMP JUMPDEST SWAP5 POP POP PUSH1 0x40 DUP7 ADD CALLDATALOAD PUSH8 0xFFFFFFFFFFFFFFFF DUP2 GT ISZERO PUSH2 0x2DF7 JUMPI PUSH2 0x2DF6 PUSH2 0x28B8 JUMP JUMPDEST JUMPDEST PUSH2 0x2E03 DUP9 DUP3 DUP10 ADD PUSH2 0x2CB8 JUMP JUMPDEST SWAP4 POP POP PUSH1 0x60 DUP7 ADD CALLDATALOAD PUSH8 0xFFFFFFFFFFFFFFFF DUP2 GT ISZERO PUSH2 0x2E24 JUMPI PUSH2 0x2E23 PUSH2 0x28B8 JUMP JUMPDEST JUMPDEST PUSH2 0x2E30 DUP9 DUP3 DUP10 ADD PUSH2 0x2CB8 JUMP JUMPDEST SWAP3 POP POP PUSH1 0x80 DUP7 ADD CALLDATALOAD PUSH8 0xFFFFFFFFFFFFFFFF DUP2 GT ISZERO PUSH2 0x2E51 JUMPI PUSH2 0x2E50 PUSH2 0x28B8 JUMP JUMPDEST JUMPDEST PUSH2 0x2E5D DUP9 DUP3 DUP10 ADD PUSH2 0x2D6D JUMP JUMPDEST SWAP2 POP POP SWAP3 SWAP6 POP SWAP3 SWAP6 SWAP1 SWAP4 POP JUMP JUMPDEST PUSH1 0x0 PUSH8 0xFFFFFFFFFFFFFFFF DUP3 GT ISZERO PUSH2 0x2E85 JUMPI PUSH2 0x2E84 PUSH2 0x2BA3 JUMP JUMPDEST JUMPDEST PUSH1 0x20 DUP3 MUL SWAP1 POP PUSH1 0x20 DUP2 ADD SWAP1 POP SWAP2 SWAP1 POP JUMP JUMPDEST PUSH1 0x0 PUSH2 0x2EA9 PUSH2 0x2EA4 DUP5 PUSH2 0x2E6A JUMP JUMPDEST PUSH2 0x2C03 JUMP JUMPDEST SWAP1 POP DUP1 DUP4 DUP3 MSTORE PUSH1 0x20 DUP3 ADD SWAP1 POP PUSH1 0x20 DUP5 MUL DUP4 ADD DUP6 DUP2 GT ISZERO PUSH2 0x2ECC JUMPI PUSH2 0x2ECB PUSH2 0x2C4A JUMP JUMPDEST JUMPDEST DUP4 JUMPDEST DUP2 DUP2 LT ISZERO PUSH2 0x2EF5 JUMPI DUP1 PUSH2 0x2EE1 DUP9 DUP3 PUSH2 0x2906 JUMP JUMPDEST DUP5 MSTORE PUSH1 0x20 DUP5 ADD SWAP4 POP POP PUSH1 0x20 DUP2 ADD SWAP1 POP PUSH2 0x2ECE JUMP JUMPDEST POP POP POP SWAP4 SWAP3 POP POP POP JUMP JUMPDEST PUSH1 0x0 DUP3 PUSH1 0x1F DUP4 ADD SLT PUSH2 0x2F14 JUMPI PUSH2 0x2F13 PUSH2 0x2B9E JUMP JUMPDEST JUMPDEST DUP2 CALLDATALOAD PUSH2 0x2F24 DUP5 DUP3 PUSH1 0x20 DUP7 ADD PUSH2 0x2E96 JUMP JUMPDEST SWAP2 POP POP SWAP3 SWAP2 POP POP JUMP JUMPDEST PUSH1 0x0 DUP1 PUSH1 0x40 DUP4 DUP6 SUB SLT ISZERO PUSH2 0x2F44 JUMPI PUSH2 0x2F43 PUSH2 0x28B3 JUMP JUMPDEST JUMPDEST PUSH1 0x0 DUP4 ADD CALLDATALOAD PUSH8 0xFFFFFFFFFFFFFFFF DUP2 GT ISZERO PUSH2 0x2F62 JUMPI PUSH2 0x2F61 PUSH2 0x28B8 JUMP JUMPDEST JUMPDEST PUSH2 0x2F6E DUP6 DUP3 DUP7 ADD PUSH2 0x2EFF JUMP JUMPDEST SWAP3 POP POP PUSH1 0x20 DUP4 ADD CALLDATALOAD PUSH8 0xFFFFFFFFFFFFFFFF DUP2 GT ISZERO PUSH2 0x2F8F JUMPI PUSH2 0x2F8E PUSH2 0x28B8 JUMP JUMPDEST JUMPDEST PUSH2 0x2F9B DUP6 DUP3 DUP7 ADD PUSH2 0x2CB8 JUMP JUMPDEST SWAP2 POP POP SWAP3 POP SWAP3 SWAP1 POP JUMP JUMPDEST PUSH1 0x0 DUP2 MLOAD SWAP1 POP SWAP2 SWAP1 POP JUMP JUMPDEST PUSH1 0x0 DUP3 DUP3 MSTORE PUSH1 0x20 DUP3 ADD SWAP1 POP SWAP3 SWAP2 POP POP JUMP JUMPDEST PUSH1 0x0 DUP2 SWAP1 POP PUSH1 0x20 DUP3 ADD SWAP1 POP SWAP2 SWAP1 POP JUMP JUMPDEST PUSH2 0x2FDA DUP2 PUSH2 0x291B JUMP JUMPDEST DUP3 MSTORE POP POP JUMP JUMPDEST PUSH1 0x0 PUSH2 0x2FEC DUP4 DUP4 PUSH2 0x2FD1 JUMP JUMPDEST PUSH1 0x20 DUP4 ADD SWAP1 POP SWAP3 SWAP2 POP POP JUMP JUMPDEST PUSH1 0x0 PUSH1 0x20 DUP3 ADD SWAP1 POP SWAP2 SWAP1 POP JUMP JUMPDEST PUSH1 0x0 PUSH2 0x3010 DUP3 PUSH2 0x2FA5 JUMP JUMPDEST PUSH2 0x301A DUP2 DUP6 PUSH2 0x2FB0 JUMP JUMPDEST SWAP4 POP PUSH2 0x3025 DUP4 PUSH2 0x2FC1 JUMP JUMPDEST DUP1 PUSH1 0x0 JUMPDEST DUP4 DUP2 LT ISZERO PUSH2 0x3056 JUMPI DUP2 MLOAD PUSH2 0x303D DUP9 DUP3 PUSH2 0x2FE0 JUMP JUMPDEST SWAP8 POP PUSH2 0x3048 DUP4 PUSH2 0x2FF8 JUMP JUMPDEST SWAP3 POP POP PUSH1 0x1 DUP2 ADD SWAP1 POP PUSH2 0x3029 JUMP JUMPDEST POP DUP6 SWAP4 POP POP POP POP SWAP3 SWAP2 POP POP JUMP JUMPDEST PUSH1 0x0 PUSH1 0x20 DUP3 ADD SWAP1 POP DUP2 DUP2 SUB PUSH1 0x0 DUP4 ADD MSTORE PUSH2 0x307D DUP2 DUP5 PUSH2 0x3005 JUMP JUMPDEST SWAP1 POP SWAP3 SWAP2 POP POP JUMP JUMPDEST PUSH2 0x308E DUP2 PUSH2 0x28DD JUMP JUMPDEST DUP3 MSTORE POP POP JUMP JUMPDEST PUSH1 0x0 PUSH1 0x20 DUP3 ADD SWAP1 POP PUSH2 0x30A9 PUSH1 0x0 DUP4 ADD DUP5 PUSH2 0x3085 JUMP JUMPDEST SWAP3 SWAP2 POP POP JUMP JUMPDEST PUSH1 0x0 PUSH8 0xFFFFFFFFFFFFFFFF DUP3 GT ISZERO PUSH2 0x30CA JUMPI PUSH2 0x30C9 PUSH2 0x2BA3 JUMP JUMPDEST JUMPDEST PUSH2 0x30D3 DUP3 PUSH2 0x2AC5 JUMP JUMPDEST SWAP1 POP PUSH1 0x20 DUP2 ADD SWAP1 POP SWAP2 SWAP1 POP JUMP JUMPDEST PUSH1 0x0 PUSH2 0x30F3 PUSH2 0x30EE DUP5 PUSH2 0x30AF JUMP JUMPDEST PUSH2 0x2C03 JUMP JUMPDEST SWAP1 POP DUP3 DUP2 MSTORE PUSH1 0x20 DUP2 ADD DUP5 DUP5 DUP5 ADD GT ISZERO PUSH2 0x310F JUMPI PUSH2 0x310E PUSH2 0x2CE6 JUMP JUMPDEST JUMPDEST PUSH2 0x311A DUP5 DUP3 DUP6 PUSH2 0x2D1C JUMP JUMPDEST POP SWAP4 SWAP3 POP POP POP JUMP JUMPDEST PUSH1 0x0 DUP3 PUSH1 0x1F DUP4 ADD SLT PUSH2 0x3137 JUMPI PUSH2 0x3136 PUSH2 0x2B9E JUMP JUMPDEST JUMPDEST DUP2 CALLDATALOAD PUSH2 0x3147 DUP5 DUP3 PUSH1 0x20 DUP7 ADD PUSH2 0x30E0 JUMP JUMPDEST SWAP2 POP POP SWAP3 SWAP2 POP POP JUMP JUMPDEST PUSH1 0x0 PUSH1 0x20 DUP3 DUP5 SUB SLT ISZERO PUSH2 0x3166 JUMPI PUSH2 0x3165 PUSH2 0x28B3 JUMP JUMPDEST JUMPDEST PUSH1 0x0 DUP3 ADD CALLDATALOAD PUSH8 0xFFFFFFFFFFFFFFFF DUP2 GT ISZERO PUSH2 0x3184 JUMPI PUSH2 0x3183 PUSH2 0x28B8 JUMP JUMPDEST JUMPDEST PUSH2 0x3190 DUP5 DUP3 DUP6 ADD PUSH2 0x3122 JUMP JUMPDEST SWAP2 POP POP SWAP3 SWAP2 POP POP JUMP JUMPDEST PUSH2 0x31A2 DUP2 PUSH2 0x2A40 JUMP JUMPDEST DUP2 EQ PUSH2 0x31AD JUMPI PUSH1 0x0 DUP1 REVERT JUMPDEST POP JUMP JUMPDEST PUSH1 0x0 DUP2 CALLDATALOAD SWAP1 POP PUSH2 0x31BF DUP2 PUSH2 0x3199 JUMP JUMPDEST SWAP3 SWAP2 POP POP JUMP JUMPDEST PUSH1 0x0 DUP1 PUSH1 0x40 DUP4 DUP6 SUB SLT ISZERO PUSH2 0x31DC JUMPI PUSH2 0x31DB PUSH2 0x28B3 JUMP JUMPDEST JUMPDEST PUSH1 0x0 PUSH2 0x31EA DUP6 DUP3 DUP7 ADD PUSH2 0x2906 JUMP JUMPDEST SWAP3 POP POP PUSH1 0x20 PUSH2 0x31FB DUP6 DUP3 DUP7 ADD PUSH2 0x31B0 JUMP JUMPDEST SWAP2 POP POP SWAP3 POP SWAP3 SWAP1 POP JUMP JUMPDEST PUSH1 0x0 DUP1 PUSH1 0x40 DUP4 DUP6 SUB SLT ISZERO PUSH2 0x321C JUMPI PUSH2 0x321B PUSH2 0x28B3 JUMP JUMPDEST JUMPDEST PUSH1 0x0 DUP4 ADD CALLDATALOAD PUSH8 0xFFFFFFFFFFFFFFFF DUP2 GT ISZERO PUSH2 0x323A JUMPI PUSH2 0x3239 PUSH2 0x28B8 JUMP JUMPDEST JUMPDEST PUSH2 0x3246 DUP6 DUP3 DUP7 ADD PUSH2 0x2EFF JUMP JUMPDEST SWAP3 POP POP PUSH1 0x20 PUSH2 0x3257 DUP6 DUP3 DUP7 ADD PUSH2 0x293C JUMP JUMPDEST SWAP2 POP POP SWAP3 POP SWAP3 SWAP1 POP JUMP JUMPDEST PUSH1 0x0 PUSH16 0xFFFFFFFFFFFFFFFFFFFFFFFFFFFFFFFF DUP3 AND SWAP1 POP SWAP2 SWAP1 POP JUMP JUMPDEST PUSH2 0x3286 DUP2 PUSH2 0x3261 JUMP JUMPDEST DUP3 MSTORE POP POP JUMP JUMPDEST PUSH1 0x0 PUSH1 0x20 DUP3 ADD SWAP1 POP PUSH2 0x32A1 PUSH1 0x0 DUP4 ADD DUP5 PUSH2 0x327D JUMP JUMPDEST SWAP3 SWAP2 POP POP JUMP JUMPDEST PUSH2 0x32B0 DUP2 PUSH2 0x3261 JUMP JUMPDEST DUP2 EQ PUSH2 0x32BB JUMPI PUSH1 0x0 DUP1 REVERT JUMPDEST POP JUMP JUMPDEST PUSH1 0x0 DUP2 CALLDATALOAD SWAP1 POP PUSH2 0x32CD DUP2 PUSH2 0x32A7 JUMP JUMPDEST SWAP3 SWAP2 POP POP JUMP JUMPDEST PUSH1 0x0 DUP1 PUSH1 0x0 PUSH1 0x60 DUP5 DUP7 SUB SLT ISZERO PUSH2 0x32EC JUMPI PUSH2 0x32EB PUSH2 0x28B3 JUMP JUMPDEST JUMPDEST PUSH1 0x0 DUP5 ADD CALLDATALOAD PUSH8 0xFFFFFFFFFFFFFFFF DUP2 GT ISZERO PUSH2 0x330A JUMPI PUSH2 0x3309 PUSH2 0x28B8 JUMP JUMPDEST JUMPDEST PUSH2 0x3316 DUP7 DUP3 DUP8 ADD PUSH2 0x3122 JUMP JUMPDEST SWAP4 POP POP PUSH1 0x20 PUSH2 0x3327 DUP7 DUP3 DUP8 ADD PUSH2 0x31B0 JUMP JUMPDEST SWAP3 POP POP PUSH1 0x40 PUSH2 0x3338 DUP7 DUP3 DUP8 ADD PUSH2 0x32BE JUMP JUMPDEST SWAP2 POP POP SWAP3 POP SWAP3 POP SWAP3 JUMP JUMPDEST PUSH1 0x0 DUP1 PUSH1 0x40 DUP4 DUP6 SUB SLT ISZERO PUSH2 0x3359 JUMPI PUSH2 0x3358 PUSH2 0x28B3 JUMP JUMPDEST JUMPDEST PUSH1 0x0 PUSH2 0x3367 DUP6 DUP3 DUP7 ADD PUSH2 0x2906 JUMP JUMPDEST SWAP3 POP POP PUSH1 0x20 PUSH2 0x3378 DUP6 DUP3 DUP7 ADD PUSH2 0x2906 JUMP JUMPDEST SWAP2 POP POP SWAP3 POP SWAP3 SWAP1 POP JUMP JUMPDEST PUSH1 0x0 DUP1 PUSH1 0x0 DUP1 PUSH1 0x0 PUSH1 0xA0 DUP7 DUP9 SUB SLT ISZERO PUSH2 0x339E JUMPI PUSH2 0x339D PUSH2 0x28B3 JUMP JUMPDEST JUMPDEST PUSH1 0x0 PUSH2 0x33AC DUP9 DUP3 DUP10 ADD PUSH2 0x2906 JUMP JUMPDEST SWAP6 POP POP PUSH1 0x20 PUSH2 0x33BD DUP9 DUP3 DUP10 ADD PUSH2 0x2906 JUMP JUMPDEST SWAP5 POP POP PUSH1 0x40 PUSH2 0x33CE DUP9 DUP3 DUP10 ADD PUSH2 0x293C JUMP JUMPDEST SWAP4 POP POP PUSH1 0x60 PUSH2 0x33DF DUP9 DUP3 DUP10 ADD PUSH2 0x293C JUMP JUMPDEST SWAP3 POP POP PUSH1 0x80 DUP7 ADD CALLDATALOAD PUSH8 0xFFFFFFFFFFFFFFFF DUP2 GT ISZERO PUSH2 0x3400 JUMPI PUSH2 0x33FF PUSH2 0x28B8 JUMP JUMPDEST JUMPDEST PUSH2 0x340C DUP9 DUP3 DUP10 ADD PUSH2 0x2D6D JUMP JUMPDEST SWAP2 POP POP SWAP3 SWAP6 POP SWAP3 SWAP6 SWAP1 SWAP4 POP JUMP JUMPDEST PUSH1 0x0 PUSH1 0x20 DUP3 DUP5 SUB SLT ISZERO PUSH2 0x342F JUMPI PUSH2 0x342E PUSH2 0x28B3 JUMP JUMPDEST JUMPDEST PUSH1 0x0 PUSH2 0x343D DUP5 DUP3 DUP6 ADD PUSH2 0x2906 JUMP JUMPDEST SWAP2 POP POP SWAP3 SWAP2 POP POP JUMP JUMPDEST PUSH1 0x0 DUP1 PUSH1 0x0 PUSH1 0x60 DUP5 DUP7 SUB SLT ISZERO PUSH2 0x345F JUMPI PUSH2 0x345E PUSH2 0x28B3 JUMP JUMPDEST JUMPDEST PUSH1 0x0 PUSH2 0x346D DUP7 DUP3 DUP8 ADD PUSH2 0x2906 JUMP JUMPDEST SWAP4 POP POP PUSH1 0x20 PUSH2 0x347E DUP7 DUP3 DUP8 ADD PUSH2 0x2906 JUMP JUMPDEST SWAP3 POP POP PUSH1 0x40 PUSH2 0x348F DUP7 DUP3 DUP8 ADD PUSH2 0x293C JUMP JUMPDEST SWAP2 POP POP SWAP3 POP SWAP3 POP SWAP3 JUMP JUMPDEST PUSH32 0x455243313135353A2062616C616E636520717565727920666F7220746865207A PUSH1 0x0 DUP3 ADD MSTORE PUSH32 0x65726F2061646472657373000000000000000000000000000000000000000000 PUSH1 0x20 DUP3 ADD MSTORE POP JUMP JUMPDEST PUSH1 0x0 PUSH2 0x34F5 PUSH1 0x2B DUP4 PUSH2 0x2A81 JUMP JUMPDEST SWAP2 POP PUSH2 0x3500 DUP3 PUSH2 0x3499 JUMP JUMPDEST PUSH1 0x40 DUP3 ADD SWAP1 POP SWAP2 SWAP1 POP JUMP JUMPDEST PUSH1 0x0 PUSH1 0x20 DUP3 ADD SWAP1 POP DUP2 DUP2 SUB PUSH1 0x0 DUP4 ADD MSTORE PUSH2 0x3524 DUP2 PUSH2 0x34E8 JUMP JUMPDEST SWAP1 POP SWAP2 SWAP1 POP JUMP JUMPDEST PUSH32 0x4E487B7100000000000000000000000000000000000000000000000000000000 PUSH1 0x0 MSTORE PUSH1 0x22 PUSH1 0x4 MSTORE PUSH1 0x24 PUSH1 0x0 REVERT JUMPDEST PUSH1 0x0 PUSH1 0x2 DUP3 DIV SWAP1 POP PUSH1 0x1 DUP3 AND DUP1 PUSH2 0x3572 JUMPI PUSH1 0x7F DUP3 AND SWAP2 POP JUMPDEST PUSH1 0x20 DUP3 LT DUP2 SUB PUSH2 0x3585 JUMPI PUSH2 0x3584 PUSH2 0x352B JUMP JUMPDEST JUMPDEST POP SWAP2 SWAP1 POP JUMP JUMPDEST PUSH1 0x0 DUP2 SWAP1 POP SWAP3 SWAP2 POP POP JUMP JUMPDEST PUSH1 0x0 DUP2 SWAP1 POP DUP2 PUSH1 0x0 MSTORE PUSH1 0x20 PUSH1 0x0 KECCAK256 SWAP1 POP SWAP2 SWAP1 POP JUMP JUMPDEST PUSH1 0x0 DUP2 SLOAD PUSH2 0x35B8 DUP2 PUSH2 0x355A JUMP JUMPDEST PUSH2 0x35C2 DUP2 DUP7 PUSH2 0x358B JUMP JUMPDEST SWAP5 POP PUSH1 0x1 DUP3 AND PUSH1 0x0 DUP2 EQ PUSH2 0x35DD JUMPI PUSH1 0x1 DUP2 EQ PUSH2 0x35F2 JUMPI PUSH2 0x3625 JUMP JUMPDEST PUSH1 0xFF NOT DUP4 AND DUP7 MSTORE DUP2 ISZERO ISZERO DUP3 MUL DUP7 ADD SWAP4 POP PUSH2 0x3625 JUMP JUMPDEST PUSH2 0x35FB DUP6 PUSH2 0x3596 JUMP JUMPDEST PUSH1 0x0 JUMPDEST DUP4 DUP2 LT ISZERO PUSH2 0x361D JUMPI DUP2 SLOAD DUP2 DUP10 ADD MSTORE PUSH1 0x1 DUP3 ADD SWAP2 POP PUSH1 0x20 DUP2 ADD SWAP1 POP PUSH2 0x35FE JUMP JUMPDEST DUP4 DUP9 ADD SWAP6 POP POP POP JUMPDEST POP POP POP SWAP3 SWAP2 POP POP JUMP JUMPDEST PUSH1 0x0 PUSH2 0x3639 DUP3 PUSH2 0x2A76 JUMP JUMPDEST PUSH2 0x3643 DUP2 DUP6 PUSH2 0x358B JUMP JUMPDEST SWAP4 POP PUSH2 0x3653 DUP2 DUP6 PUSH1 0x20 DUP7 ADD PUSH2 0x2A92 JUMP JUMPDEST DUP1 DUP5 ADD SWAP2 POP POP SWAP3 SWAP2 POP POP JUMP JUMPDEST PUSH1 0x0 PUSH2 0x366B DUP3 DUP7 PUSH2 0x35AB JUMP JUMPDEST SWAP2 POP PUSH2 0x3677 DUP3 DUP6 PUSH2 0x362E JUMP JUMPDEST SWAP2 POP PUSH2 0x3683 DUP3 DUP5 PUSH2 0x35AB JUMP JUMPDEST SWAP2 POP DUP2 SWAP1 POP SWAP5 SWAP4 POP POP POP POP JUMP JUMPDEST PUSH32 0x4F776E61626C653A2063616C6C6572206973206E6F7420746865206F776E6572 PUSH1 0x0 DUP3 ADD MSTORE POP JUMP JUMPDEST PUSH1 0x0 PUSH2 0x36C6 PUSH1 0x20 DUP4 PUSH2 0x2A81 JUMP JUMPDEST SWAP2 POP PUSH2 0x36D1 DUP3 PUSH2 0x3690 JUMP JUMPDEST PUSH1 0x20 DUP3 ADD SWAP1 POP SWAP2 SWAP1 POP JUMP JUMPDEST PUSH1 0x0 PUSH1 0x20 DUP3 ADD SWAP1 POP DUP2 DUP2 SUB PUSH1 0x0 DUP4 ADD MSTORE PUSH2 0x36F5 DUP2 PUSH2 0x36B9 JUMP JUMPDEST SWAP1 POP SWAP2 SWAP1 POP JUMP JUMPDEST PUSH32 0x4D617820746F6B656E7320697373756564000000000000000000000000000000 PUSH1 0x0 DUP3 ADD MSTORE POP JUMP JUMPDEST PUSH1 0x0 PUSH2 0x3732 PUSH1 0x11 DUP4 PUSH2 0x2A81 JUMP JUMPDEST SWAP2 POP PUSH2 0x373D DUP3 PUSH2 0x36FC JUMP JUMPDEST PUSH1 0x20 DUP3 ADD SWAP1 POP SWAP2 SWAP1 POP JUMP JUMPDEST PUSH1 0x0 PUSH1 0x20 DUP3 ADD SWAP1 POP DUP2 DUP2 SUB PUSH1 0x0 DUP4 ADD MSTORE PUSH2 0x3761 DUP2 PUSH2 0x3725 JUMP JUMPDEST SWAP1 POP SWAP2 SWAP1 POP JUMP JUMPDEST PUSH32 0x4E487B7100000000000000000000000000000000000000000000000000000000 PUSH1 0x0 MSTORE PUSH1 0x11 PUSH1 0x4 MSTORE PUSH1 0x24 PUSH1 0x0 REVERT JUMPDEST PUSH1 0x0 PUSH2 0x37A2 DUP3 PUSH2 0x3261 JUMP JUMPDEST SWAP2 POP PUSH2 0x37AD DUP4 PUSH2 0x3261 JUMP JUMPDEST SWAP3 POP DUP3 PUSH16 0xFFFFFFFFFFFFFFFFFFFFFFFFFFFFFFFF SUB DUP3 GT ISZERO PUSH2 0x37D2 JUMPI PUSH2 0x37D1 PUSH2 0x3768 JUMP JUMPDEST JUMPDEST DUP3 DUP3 ADD SWAP1 POP SWAP3 SWAP2 POP POP JUMP JUMPDEST PUSH32 0x6F776E657220616C726561647920657869737473210000000000000000000000 PUSH1 0x0 DUP3 ADD MSTORE POP JUMP JUMPDEST PUSH1 0x0 PUSH2 0x3813 PUSH1 0x15 DUP4 PUSH2 0x2A81 JUMP JUMPDEST SWAP2 POP PUSH2 0x381E DUP3 PUSH2 0x37DD JUMP JUMPDEST PUSH1 0x20 DUP3 ADD SWAP1 POP SWAP2 SWAP1 POP JUMP JUMPDEST PUSH1 0x0 PUSH1 0x20 DUP3 ADD SWAP1 POP DUP2 DUP2 SUB PUSH1 0x0 DUP4 ADD MSTORE PUSH2 0x3842 DUP2 PUSH2 0x3806 JUMP JUMPDEST SWAP1 POP SWAP2 SWAP1 POP JUMP JUMPDEST PUSH32 0x455243313135353A207472616E736665722063616C6C6572206973206E6F7420 PUSH1 0x0 DUP3 ADD MSTORE PUSH32 0x6F776E6572206E6F7220617070726F7665640000000000000000000000000000 PUSH1 0x20 DUP3 ADD MSTORE POP JUMP JUMPDEST PUSH1 0x0 PUSH2 0x38A5 PUSH1 0x32 DUP4 PUSH2 0x2A81 JUMP JUMPDEST SWAP2 POP PUSH2 0x38B0 DUP3 PUSH2 0x3849 JUMP JUMPDEST PUSH1 0x40 DUP3 ADD SWAP1 POP SWAP2 SWAP1 POP JUMP JUMPDEST PUSH1 0x0 PUSH1 0x20 DUP3 ADD SWAP1 POP DUP2 DUP2 SUB PUSH1 0x0 DUP4 ADD MSTORE PUSH2 0x38D4 DUP2 PUSH2 0x3898 JUMP JUMPDEST SWAP1 POP SWAP2 SWAP1 POP JUMP JUMPDEST PUSH32 0x455243313135353A206163636F756E747320616E6420696473206C656E677468 PUSH1 0x0 DUP3 ADD MSTORE PUSH32 0x206D69736D617463680000000000000000000000000000000000000000000000 PUSH1 0x20 DUP3 ADD MSTORE POP JUMP JUMPDEST PUSH1 0x0 PUSH2 0x3937 PUSH1 0x29 DUP4 PUSH2 0x2A81 JUMP JUMPDEST SWAP2 POP PUSH2 0x3942 DUP3 PUSH2 0x38DB JUMP JUMPDEST PUSH1 0x40 DUP3 ADD SWAP1 POP SWAP2 SWAP1 POP JUMP JUMPDEST PUSH1 0x0 PUSH1 0x20 DUP3 ADD SWAP1 POP DUP2 DUP2 SUB PUSH1 0x0 DUP4 ADD MSTORE PUSH2 0x3966 DUP2 PUSH2 0x392A JUMP JUMPDEST SWAP1 POP SWAP2 SWAP1 POP JUMP JUMPDEST PUSH32 0x4E487B7100000000000000000000000000000000000000000000000000000000 PUSH1 0x0 MSTORE PUSH1 0x32 PUSH1 0x4 MSTORE PUSH1 0x24 PUSH1 0x0 REVERT JUMPDEST PUSH1 0x0 PUSH2 0x39A7 DUP3 PUSH2 0x291B JUMP JUMPDEST SWAP2 POP PUSH32 0xFFFFFFFFFFFFFFFFFFFFFFFFFFFFFFFFFFFFFFFFFFFFFFFFFFFFFFFFFFFFFFFF DUP3 SUB PUSH2 0x39D9 JUMPI PUSH2 0x39D8 PUSH2 0x3768 JUMP JUMPDEST JUMPDEST PUSH1 0x1 DUP3 ADD SWAP1 POP SWAP2 SWAP1 POP JUMP JUMPDEST PUSH1 0x0 PUSH1 0x20 PUSH1 0x1F DUP4 ADD DIV SWAP1 POP SWAP2 SWAP1 POP JUMP JUMPDEST PUSH1 0x0 DUP3 DUP3 SHL SWAP1 POP SWAP3 SWAP2 POP POP JUMP JUMPDEST PUSH1 0x0 PUSH1 0x8 DUP4 MUL PUSH2 0x3A31 PUSH32 0xFFFFFFFFFFFFFFFFFFFFFFFFFFFFFFFFFFFFFFFFFFFFFFFFFFFFFFFFFFFFFFFF DUP3 PUSH2 0x39F4 JUMP JUMPDEST PUSH2 0x3A3B DUP7 DUP4 PUSH2 0x39F4 JUMP JUMPDEST SWAP6 POP DUP1 NOT DUP5 AND SWAP4 POP DUP1 DUP7 AND DUP5 OR SWAP3 POP POP POP SWAP4 SWAP3 POP POP POP JUMP JUMPDEST PUSH1 0x0 DUP2 SWAP1 POP SWAP2 SWAP1 POP JUMP JUMPDEST PUSH1 0x0 PUSH2 0x3A78 PUSH2 0x3A73 PUSH2 0x3A6E DUP5 PUSH2 0x291B JUMP JUMPDEST PUSH2 0x3A53 JUMP JUMPDEST PUSH2 0x291B JUMP JUMPDEST SWAP1 POP SWAP2 SWAP1 POP JUMP JUMPDEST PUSH1 0x0 DUP2 SWAP1 POP SWAP2 SWAP1 POP JUMP JUMPDEST PUSH2 0x3A92 DUP4 PUSH2 0x3A5D JUMP JUMPDEST PUSH2 0x3AA6 PUSH2 0x3A9E DUP3 PUSH2 0x3A7F JUMP JUMPDEST DUP5 DUP5 SLOAD PUSH2 0x3A01 JUMP JUMPDEST DUP3 SSTORE POP POP POP POP JUMP JUMPDEST PUSH1 0x0 SWAP1 JUMP JUMPDEST PUSH2 0x3ABB PUSH2 0x3AAE JUMP JUMPDEST PUSH2 0x3AC6 DUP2 DUP5 DUP5 PUSH2 0x3A89 JUMP JUMPDEST POP POP POP JUMP JUMPDEST JUMPDEST DUP2 DUP2 LT ISZERO PUSH2 0x3AEA JUMPI PUSH2 0x3ADF PUSH1 0x0 DUP3 PUSH2 0x3AB3 JUMP JUMPDEST PUSH1 0x1 DUP2 ADD SWAP1 POP PUSH2 0x3ACC JUMP JUMPDEST POP POP JUMP JUMPDEST PUSH1 0x1F DUP3 GT ISZERO PUSH2 0x3B2F JUMPI PUSH2 0x3B00 DUP2 PUSH2 0x3596 JUMP JUMPDEST PUSH2 0x3B09 DUP5 PUSH2 0x39E4 JUMP JUMPDEST DUP2 ADD PUSH1 0x20 DUP6 LT ISZERO PUSH2 0x3B18 JUMPI DUP2 SWAP1 POP JUMPDEST PUSH2 0x3B2C PUSH2 0x3B24 DUP6 PUSH2 0x39E4 JUMP JUMPDEST DUP4 ADD DUP3 PUSH2 0x3ACB JUMP JUMPDEST POP POP JUMPDEST POP POP POP JUMP JUMPDEST PUSH1 0x0 DUP3 DUP3 SHR SWAP1 POP SWAP3 SWAP2 POP POP JUMP JUMPDEST PUSH1 0x0 PUSH2 0x3B52 PUSH1 0x0 NOT DUP5 PUSH1 0x8 MUL PUSH2 0x3B34 JUMP JUMPDEST NOT DUP1 DUP4 AND SWAP2 POP POP SWAP3 SWAP2 POP POP JUMP JUMPDEST PUSH1 0x0 PUSH2 0x3B6B DUP4 DUP4 PUSH2 0x3B41 JUMP JUMPDEST SWAP2 POP DUP3 PUSH1 0x2 MUL DUP3 OR SWAP1 POP SWAP3 SWAP2 POP POP JUMP JUMPDEST PUSH2 0x3B84 DUP3 PUSH2 0x2A76 JUMP JUMPDEST PUSH8 0xFFFFFFFFFFFFFFFF DUP2 GT ISZERO PUSH2 0x3B9D JUMPI PUSH2 0x3B9C PUSH2 0x2BA3 JUMP JUMPDEST JUMPDEST PUSH2 0x3BA7 DUP3 SLOAD PUSH2 0x355A JUMP JUMPDEST PUSH2 0x3BB2 DUP3 DUP3 DUP6 PUSH2 0x3AEE JUMP JUMPDEST PUSH1 0x0 PUSH1 0x20 SWAP1 POP PUSH1 0x1F DUP4 GT PUSH1 0x1 DUP2 EQ PUSH2 0x3BE5 JUMPI PUSH1 0x0 DUP5 ISZERO PUSH2 0x3BD3 JUMPI DUP3 DUP8 ADD MLOAD SWAP1 POP JUMPDEST PUSH2 0x3BDD DUP6 DUP3 PUSH2 0x3B5F JUMP JUMPDEST DUP7 SSTORE POP PUSH2 0x3C45 JUMP JUMPDEST PUSH1 0x1F NOT DUP5 AND PUSH2 0x3BF3 DUP7 PUSH2 0x3596 JUMP JUMPDEST PUSH1 0x0 JUMPDEST DUP3 DUP2 LT ISZERO PUSH2 0x3C1B JUMPI DUP5 DUP10 ADD MLOAD DUP3 SSTORE PUSH1 0x1 DUP3 ADD SWAP2 POP PUSH1 0x20 DUP6 ADD SWAP5 POP PUSH1 0x20 DUP2 ADD SWAP1 POP PUSH2 0x3BF6 JUMP JUMPDEST DUP7 DUP4 LT ISZERO PUSH2 0x3C38 JUMPI DUP5 DUP10 ADD MLOAD PUSH2 0x3C34 PUSH1 0x1F DUP10 AND DUP3 PUSH2 0x3B41 JUMP JUMPDEST DUP4 SSTORE POP JUMPDEST PUSH1 0x1 PUSH1 0x2 DUP9 MUL ADD DUP9 SSTORE POP POP POP JUMPDEST POP POP POP POP POP POP JUMP JUMPDEST PUSH32 0x546F6B656E20616C726561647920657869737473000000000000000000000000 PUSH1 0x0 DUP3 ADD MSTORE POP JUMP JUMPDEST PUSH1 0x0 PUSH2 0x3C83 PUSH1 0x14 DUP4 PUSH2 0x2A81 JUMP JUMPDEST SWAP2 POP PUSH2 0x3C8E DUP3 PUSH2 0x3C4D JUMP JUMPDEST PUSH1 0x20 DUP3 ADD SWAP1 POP SWAP2 SWAP1 POP JUMP JUMPDEST PUSH1 0x0 PUSH1 0x20 DUP3 ADD SWAP1 POP DUP2 DUP2 SUB PUSH1 0x0 DUP4 ADD MSTORE PUSH2 0x3CB2 DUP2 PUSH2 0x3C76 JUMP JUMPDEST SWAP1 POP SWAP2 SWAP1 POP JUMP JUMPDEST PUSH32 0x455243313135353A2063616C6C6572206973206E6F74206F776E6572206E6F72 PUSH1 0x0 DUP3 ADD MSTORE PUSH32 0x20617070726F7665640000000000000000000000000000000000000000000000 PUSH1 0x20 DUP3 ADD MSTORE POP JUMP JUMPDEST PUSH1 0x0 PUSH2 0x3D15 PUSH1 0x29 DUP4 PUSH2 0x2A81 JUMP JUMPDEST SWAP2 POP PUSH2 0x3D20 DUP3 PUSH2 0x3CB9 JUMP JUMPDEST PUSH1 0x40 DUP3 ADD SWAP1 POP SWAP2 SWAP1 POP JUMP JUMPDEST PUSH1 0x0 PUSH1 0x20 DUP3 ADD SWAP1 POP DUP2 DUP2 SUB PUSH1 0x0 DUP4 ADD MSTORE PUSH2 0x3D44 DUP2 PUSH2 0x3D08 JUMP JUMPDEST SWAP1 POP SWAP2 SWAP1 POP JUMP JUMPDEST PUSH32 0x4F776E61626C653A206E6577206F776E657220697320746865207A65726F2061 PUSH1 0x0 DUP3 ADD MSTORE PUSH32 0x6464726573730000000000000000000000000000000000000000000000000000 PUSH1 0x20 DUP3 ADD MSTORE POP JUMP JUMPDEST PUSH1 0x0 PUSH2 0x3DA7 PUSH1 0x26 DUP4 PUSH2 0x2A81 JUMP JUMPDEST SWAP2 POP PUSH2 0x3DB2 DUP3 PUSH2 0x3D4B JUMP JUMPDEST PUSH1 0x40 DUP3 ADD SWAP1 POP SWAP2 SWAP1 POP JUMP JUMPDEST PUSH1 0x0 PUSH1 0x20 DUP3 ADD SWAP1 POP DUP2 DUP2 SUB PUSH1 0x0 DUP4 ADD MSTORE PUSH2 0x3DD6 DUP2 PUSH2 0x3D9A JUMP JUMPDEST SWAP1 POP SWAP2 SWAP1 POP JUMP JUMPDEST PUSH32 0x6E6F7420616C6C6F77656420746F206D696E20746F6B656E2100000000000000 PUSH1 0x0 DUP3 ADD MSTORE POP JUMP JUMPDEST PUSH1 0x0 PUSH2 0x3E13 PUSH1 0x19 DUP4 PUSH2 0x2A81 JUMP JUMPDEST SWAP2 POP PUSH2 0x3E1E DUP3 PUSH2 0x3DDD JUMP JUMPDEST PUSH1 0x20 DUP3 ADD SWAP1 POP SWAP2 SWAP1 POP JUMP JUMPDEST PUSH1 0x0 PUSH1 0x20 DUP3 ADD SWAP1 POP DUP2 DUP2 SUB PUSH1 0x0 DUP4 ADD MSTORE PUSH2 0x3E42 DUP2 PUSH2 0x3E06 JUMP JUMPDEST SWAP1 POP SWAP2 SWAP1 POP JUMP JUMPDEST PUSH32 0x7065726D697373696F6E2064656E696564210000000000000000000000000000 PUSH1 0x0 DUP3 ADD MSTORE POP JUMP JUMPDEST PUSH1 0x0 PUSH2 0x3E7F PUSH1 0x12 DUP4 PUSH2 0x2A81 JUMP JUMPDEST SWAP2 POP PUSH2 0x3E8A DUP3 PUSH2 0x3E49 JUMP JUMPDEST PUSH1 0x20 DUP3 ADD SWAP1 POP SWAP2 SWAP1 POP JUMP JUMPDEST PUSH1 0x0 PUSH1 0x20 DUP3 ADD SWAP1 POP DUP2 DUP2 SUB PUSH1 0x0 DUP4 ADD MSTORE PUSH2 0x3EAE DUP2 PUSH2 0x3E72 JUMP JUMPDEST SWAP1 POP SWAP2 SWAP1 POP JUMP JUMPDEST PUSH32 0x4E487B7100000000000000000000000000000000000000000000000000000000 PUSH1 0x0 MSTORE PUSH1 0x12 PUSH1 0x4 MSTORE PUSH1 0x24 PUSH1 0x0 REVERT JUMPDEST PUSH1 0x0 PUSH2 0x3EEF DUP3 PUSH2 0x291B JUMP JUMPDEST SWAP2 POP PUSH2 0x3EFA DUP4 PUSH2 0x291B JUMP JUMPDEST SWAP3 POP DUP3 PUSH2 0x3F0A JUMPI PUSH2 0x3F09 PUSH2 0x3EB5 JUMP JUMPDEST JUMPDEST DUP3 DUP3 DIV SWAP1 POP SWAP3 SWAP2 POP POP JUMP JUMPDEST PUSH1 0x0 PUSH2 0x3F20 DUP3 PUSH2 0x291B JUMP JUMPDEST SWAP2 POP PUSH2 0x3F2B DUP4 PUSH2 0x291B JUMP JUMPDEST SWAP3 POP DUP3 DUP3 LT ISZERO PUSH2 0x3F3E JUMPI PUSH2 0x3F3D PUSH2 0x3768 JUMP JUMPDEST JUMPDEST DUP3 DUP3 SUB SWAP1 POP SWAP3 SWAP2 POP POP JUMP JUMPDEST PUSH1 0x0 PUSH2 0x3F54 DUP3 PUSH2 0x291B JUMP JUMPDEST SWAP2 POP PUSH2 0x3F5F DUP4 PUSH2 0x291B JUMP JUMPDEST SWAP3 POP DUP3 PUSH2 0x3F6F JUMPI PUSH2 0x3F6E PUSH2 0x3EB5 JUMP JUMPDEST JUMPDEST DUP3 DUP3 MOD SWAP1 POP SWAP3 SWAP2 POP POP JUMP JUMPDEST PUSH1 0x0 PUSH2 0x3F85 DUP3 PUSH2 0x291B JUMP JUMPDEST SWAP2 POP PUSH2 0x3F90 DUP4 PUSH2 0x291B JUMP JUMPDEST SWAP3 POP DUP3 PUSH32 0xFFFFFFFFFFFFFFFFFFFFFFFFFFFFFFFFFFFFFFFFFFFFFFFFFFFFFFFFFFFFFFFF SUB DUP3 GT ISZERO PUSH2 0x3FC5 JUMPI PUSH2 0x3FC4 PUSH2 0x3768 JUMP JUMPDEST JUMPDEST DUP3 DUP3 ADD SWAP1 POP SWAP3 SWAP2 POP POP JUMP JUMPDEST PUSH32 0x455243313135353A206D696E7420746F20746865207A65726F20616464726573 PUSH1 0x0 DUP3 ADD MSTORE PUSH32 0x7300000000000000000000000000000000000000000000000000000000000000 PUSH1 0x20 DUP3 ADD MSTORE POP JUMP JUMPDEST PUSH1 0x0 PUSH2 0x402C PUSH1 0x21 DUP4 PUSH2 0x2A81 JUMP JUMPDEST SWAP2 POP PUSH2 0x4037 DUP3 PUSH2 0x3FD0 JUMP JUMPDEST PUSH1 0x40 DUP3 ADD SWAP1 POP SWAP2 SWAP1 POP JUMP JUMPDEST PUSH1 0x0 PUSH1 0x20 DUP3 ADD SWAP1 POP DUP2 DUP2 SUB PUSH1 0x0 DUP4 ADD MSTORE PUSH2 0x405B DUP2 PUSH2 0x401F JUMP JUMPDEST SWAP1 POP SWAP2 SWAP1 POP JUMP JUMPDEST PUSH1 0x0 PUSH1 0x40 DUP3 ADD SWAP1 POP PUSH2 0x4077 PUSH1 0x0 DUP4 ADD DUP6 PUSH2 0x2991 JUMP JUMPDEST PUSH2 0x4084 PUSH1 0x20 DUP4 ADD DUP5 PUSH2 0x2991 JUMP JUMPDEST SWAP4 SWAP3 POP POP POP JUMP JUMPDEST PUSH32 0x455243313135353A2069647320616E6420616D6F756E7473206C656E67746820 PUSH1 0x0 DUP3 ADD MSTORE PUSH32 0x6D69736D61746368000000000000000000000000000000000000000000000000 PUSH1 0x20 DUP3 ADD MSTORE POP JUMP JUMPDEST PUSH1 0x0 PUSH2 0x40E7 PUSH1 0x28 DUP4 PUSH2 0x2A81 JUMP JUMPDEST SWAP2 POP PUSH2 0x40F2 DUP3 PUSH2 0x408B JUMP JUMPDEST PUSH1 0x40 DUP3 ADD SWAP1 POP SWAP2 SWAP1 POP JUMP JUMPDEST PUSH1 0x0 PUSH1 0x20 DUP3 ADD SWAP1 POP DUP2 DUP2 SUB PUSH1 0x0 DUP4 ADD MSTORE PUSH2 0x4116 DUP2 PUSH2 0x40DA JUMP JUMPDEST SWAP1 POP SWAP2 SWAP1 POP JUMP JUMPDEST PUSH32 0x455243313135353A207472616E7366657220746F20746865207A65726F206164 PUSH1 0x0 DUP3 ADD MSTORE PUSH32 0x6472657373000000000000000000000000000000000000000000000000000000 PUSH1 0x20 DUP3 ADD MSTORE POP JUMP JUMPDEST PUSH1 0x0 PUSH2 0x4179 PUSH1 0x25 DUP4 PUSH2 0x2A81 JUMP JUMPDEST SWAP2 POP PUSH2 0x4184 DUP3 PUSH2 0x411D JUMP JUMPDEST PUSH1 0x40 DUP3 ADD SWAP1 POP SWAP2 SWAP1 POP JUMP JUMPDEST PUSH1 0x0 PUSH1 0x20 DUP3 ADD SWAP1 POP DUP2 DUP2 SUB PUSH1 0x0 DUP4 ADD MSTORE PUSH2 0x41A8 DUP2 PUSH2 0x416C JUMP JUMPDEST SWAP1 POP SWAP2 SWAP1 POP JUMP JUMPDEST PUSH32 0x455243313135353A20696E73756666696369656E742062616C616E636520666F PUSH1 0x0 DUP3 ADD MSTORE PUSH32 0x72207472616E7366657200000000000000000000000000000000000000000000 PUSH1 0x20 DUP3 ADD MSTORE POP JUMP JUMPDEST PUSH1 0x0 PUSH2 0x420B PUSH1 0x2A DUP4 PUSH2 0x2A81 JUMP JUMPDEST SWAP2 POP PUSH2 0x4216 DUP3 PUSH2 0x41AF JUMP JUMPDEST PUSH1 0x40 DUP3 ADD SWAP1 POP SWAP2 SWAP1 POP JUMP JUMPDEST PUSH1 0x0 PUSH1 0x20 DUP3 ADD SWAP1 POP DUP2 DUP2 SUB PUSH1 0x0 DUP4 ADD MSTORE PUSH2 0x423A DUP2 PUSH2 0x41FE JUMP JUMPDEST SWAP1 POP SWAP2 SWAP1 POP JUMP JUMPDEST PUSH1 0x0 PUSH1 0x40 DUP3 ADD SWAP1 POP DUP2 DUP2 SUB PUSH1 0x0 DUP4 ADD MSTORE PUSH2 0x425B DUP2 DUP6 PUSH2 0x3005 JUMP JUMPDEST SWAP1 POP DUP2 DUP2 SUB PUSH1 0x20 DUP4 ADD MSTORE PUSH2 0x426F DUP2 DUP5 PUSH2 0x3005 JUMP JUMPDEST SWAP1 POP SWAP4 SWAP3 POP POP POP JUMP JUMPDEST PUSH32 0x455243313135353A2073657474696E6720617070726F76616C20737461747573 PUSH1 0x0 DUP3 ADD MSTORE PUSH32 0x20666F722073656C660000000000000000000000000000000000000000000000 PUSH1 0x20 DUP3 ADD MSTORE POP JUMP JUMPDEST PUSH1 0x0 PUSH2 0x42D4 PUSH1 0x29 DUP4 PUSH2 0x2A81 JUMP JUMPDEST SWAP2 POP PUSH2 0x42DF DUP3 PUSH2 0x4278 JUMP JUMPDEST PUSH1 0x40 DUP3 ADD SWAP1 POP SWAP2 SWAP1 POP JUMP JUMPDEST PUSH1 0x0 PUSH1 0x20 DUP3 ADD SWAP1 POP DUP2 DUP2 SUB PUSH1 0x0 DUP4 ADD MSTORE PUSH2 0x4303 DUP2 PUSH2 0x42C7 JUMP JUMPDEST SWAP1 POP SWAP2 SWAP1 POP JUMP JUMPDEST PUSH1 0x0 DUP2 MLOAD SWAP1 POP SWAP2 SWAP1 POP JUMP JUMPDEST PUSH1 0x0 DUP3 DUP3 MSTORE PUSH1 0x20 DUP3 ADD SWAP1 POP SWAP3 SWAP2 POP POP JUMP JUMPDEST PUSH1 0x0 PUSH2 0x4331 DUP3 PUSH2 0x430A JUMP JUMPDEST PUSH2 0x433B DUP2 DUP6 PUSH2 0x4315 JUMP JUMPDEST SWAP4 POP PUSH2 0x434B DUP2 DUP6 PUSH1 0x20 DUP7 ADD PUSH2 0x2A92 JUMP JUMPDEST PUSH2 0x4354 DUP2 PUSH2 0x2AC5 JUMP JUMPDEST DUP5 ADD SWAP2 POP POP SWAP3 SWAP2 POP POP JUMP JUMPDEST PUSH1 0x0 PUSH1 0xA0 DUP3 ADD SWAP1 POP PUSH2 0x4374 PUSH1 0x0 DUP4 ADD DUP9 PUSH2 0x3085 JUMP JUMPDEST PUSH2 0x4381 PUSH1 0x20 DUP4 ADD DUP8 PUSH2 0x3085 JUMP JUMPDEST PUSH2 0x438E PUSH1 0x40 DUP4 ADD DUP7 PUSH2 0x2991 JUMP JUMPDEST PUSH2 0x439B PUSH1 0x60 DUP4 ADD DUP6 PUSH2 0x2991 JUMP JUMPDEST DUP2 DUP2 SUB PUSH1 0x80 DUP4 ADD MSTORE PUSH2 0x43AD DUP2 DUP5 PUSH2 0x4326 JUMP JUMPDEST SWAP1 POP SWAP7 SWAP6 POP POP POP POP POP POP JUMP JUMPDEST PUSH1 0x0 DUP2 MLOAD SWAP1 POP PUSH2 0x43C8 DUP2 PUSH2 0x29E7 JUMP JUMPDEST SWAP3 SWAP2 POP POP JUMP JUMPDEST PUSH1 0x0 PUSH1 0x20 DUP3 DUP5 SUB SLT ISZERO PUSH2 0x43E4 JUMPI PUSH2 0x43E3 PUSH2 0x28B3 JUMP JUMPDEST JUMPDEST PUSH1 0x0 PUSH2 0x43F2 DUP5 DUP3 DUP6 ADD PUSH2 0x43B9 JUMP JUMPDEST SWAP2 POP POP SWAP3 SWAP2 POP POP JUMP JUMPDEST PUSH1 0x0 DUP2 PUSH1 0xE0 SHR SWAP1 POP SWAP2 SWAP1 POP JUMP JUMPDEST PUSH1 0x0 PUSH1 0x3 RETURNDATASIZE GT ISZERO PUSH2 0x4427 JUMPI PUSH1 0x4 PUSH1 0x0 DUP1 RETURNDATACOPY PUSH2 0x4424 PUSH1 0x0 MLOAD PUSH2 0x43FB JUMP JUMPDEST SWAP1 POP JUMPDEST SWAP1 JUMP JUMPDEST PUSH1 0x0 PUSH1 0x44 RETURNDATASIZE LT PUSH2 0x44B7 JUMPI PUSH2 0x443C PUSH2 0x28A9 JUMP JUMPDEST PUSH1 0x4 RETURNDATASIZE SUB PUSH1 0x4 DUP3 RETURNDATACOPY DUP1 MLOAD RETURNDATASIZE PUSH1 0x24 DUP3 ADD GT PUSH8 0xFFFFFFFFFFFFFFFF DUP3 GT OR ISZERO PUSH2 0x4464 JUMPI POP POP PUSH2 0x44B7 JUMP JUMPDEST DUP1 DUP3 ADD DUP1 MLOAD PUSH8 0xFFFFFFFFFFFFFFFF DUP2 GT ISZERO PUSH2 0x4482 JUMPI POP POP POP POP PUSH2 0x44B7 JUMP JUMPDEST DUP1 PUSH1 0x20 DUP4 ADD ADD PUSH1 0x4 RETURNDATASIZE SUB DUP6 ADD DUP2 GT ISZERO PUSH2 0x449F JUMPI POP POP POP POP POP PUSH2 0x44B7 JUMP JUMPDEST PUSH2 0x44AE DUP3 PUSH1 0x20 ADD DUP6 ADD DUP7 PUSH2 0x2BD2 JUMP JUMPDEST DUP3 SWAP6 POP POP POP POP POP POP JUMPDEST SWAP1 JUMP JUMPDEST PUSH32 0x455243313135353A207472616E7366657220746F206E6F6E2045524331313535 PUSH1 0x0 DUP3 ADD MSTORE PUSH32 0x526563656976657220696D706C656D656E746572000000000000000000000000 PUSH1 0x20 DUP3 ADD MSTORE POP JUMP JUMPDEST PUSH1 0x0 PUSH2 0x4516 PUSH1 0x34 DUP4 PUSH2 0x2A81 JUMP JUMPDEST SWAP2 POP PUSH2 0x4521 DUP3 PUSH2 0x44BA JUMP JUMPDEST PUSH1 0x40 DUP3 ADD SWAP1 POP SWAP2 SWAP1 POP JUMP JUMPDEST PUSH1 0x0 PUSH1 0x20 DUP3 ADD SWAP1 POP DUP2 DUP2 SUB PUSH1 0x0 DUP4 ADD MSTORE PUSH2 0x4545 DUP2 PUSH2 0x4509 JUMP JUMPDEST SWAP1 POP SWAP2 SWAP1 POP JUMP JUMPDEST PUSH32 0x455243313135353A204552433131353552656365697665722072656A65637465 PUSH1 0x0 DUP3 ADD MSTORE PUSH32 0x6420746F6B656E73000000000000000000000000000000000000000000000000 PUSH1 0x20 DUP3 ADD MSTORE POP JUMP JUMPDEST PUSH1 0x0 PUSH2 0x45A8 PUSH1 0x28 DUP4 PUSH2 0x2A81 JUMP JUMPDEST SWAP2 POP PUSH2 0x45B3 DUP3 PUSH2 0x454C JUMP JUMPDEST PUSH1 0x40 DUP3 ADD SWAP1 POP SWAP2 SWAP1 POP JUMP JUMPDEST PUSH1 0x0 PUSH1 0x20 DUP3 ADD SWAP1 POP DUP2 DUP2 SUB PUSH1 0x0 DUP4 ADD MSTORE PUSH2 0x45D7 DUP2 PUSH2 0x459B JUMP JUMPDEST SWAP1 POP SWAP2 SWAP1 POP JUMP JUMPDEST PUSH1 0x0 PUSH1 0xA0 DUP3 ADD SWAP1 POP PUSH2 0x45F3 PUSH1 0x0 DUP4 ADD DUP9 PUSH2 0x3085 JUMP JUMPDEST PUSH2 0x4600 PUSH1 0x20 DUP4 ADD DUP8 PUSH2 0x3085 JUMP JUMPDEST DUP2 DUP2 SUB PUSH1 0x40 DUP4 ADD MSTORE PUSH2 0x4612 DUP2 DUP7 PUSH2 0x3005 JUMP JUMPDEST SWAP1 POP DUP2 DUP2 SUB PUSH1 0x60 DUP4 ADD MSTORE PUSH2 0x4626 DUP2 DUP6 PUSH2 0x3005 JUMP JUMPDEST SWAP1 POP DUP2 DUP2 SUB PUSH1 0x80 DUP4 ADD MSTORE PUSH2 0x463A DUP2 DUP5 PUSH2 0x4326 JUMP JUMPDEST SWAP1 POP SWAP7 SWAP6 POP POP POP POP POP POP JUMP INVALID LOG2 PUSH5 0x6970667358 0x22 SLT KECCAK256 PUSH32 0xF088EA8402F7A6C3ECDB52EECB5A0ABAFE99E4367B936AA700F21E3FA0589B64 PUSH20 0x6F6C634300080F0033A264697066735822122021 0xAB 0x49 0xC9 0xAB LOG0 RETURNDATASIZE CALLVALUE LOG1 NUMBER BYTE 0xD9 PUSH6 0xAE370E7D0CE0 LOG3 0xEB PUSH12 0x654AFA59320AF906E5886473 PUSH16 0x6C634300080F00330000000000000000 "
		},
		"gasEstimates": {
			"creation": {
				"codeDepositCost": "4583000",
				"executionCost": "5357",
				"totalCost": "4588357"
			},
			"external": {
				"contracts(uint256)": "infinite",
				"createContract(string,string,string,bool)": "infinite",
				"getContract(uint256)": "infinite"
			}
		},
		"methodIdentifiers": {
			"contracts(uint256)": "474da79a",
			"createContract(string,string,string,bool)": "5a9f67e3",
			"getContract(uint256)": "6ebc8c86"
		}
	},
	"abi": [
		{
			"inputs": [
				{
					"internalType": "uint256",
					"name": "",
					"type": "uint256"
				}
			],
			"name": "contracts",
			"outputs": [
				{
					"internalType": "contract ERC1155Token",
					"name": "",
					"type": "address"
				}
			],
			"stateMutability": "view",
			"type": "function"
		},
		{
			"inputs": [
				{
					"internalType": "string",
					"name": "_name",
					"type": "string"
				},
				{
					"internalType": "string",
					"name": "_symbol",
					"type": "string"
				},
				{
					"internalType": "string",
					"name": "_baseURI",
					"type": "string"
				},
				{
					"internalType": "bool",
					"name": "_allowsTransfers",
					"type": "bool"
				}
			],
			"name": "createContract",
			"outputs": [],
			"stateMutability": "nonpayable",
			"type": "function"
		},
		{
			"inputs": [
				{
					"internalType": "uint256",
					"name": "_index",
					"type": "uint256"
				}
			],
			"name": "getContract",
			"outputs": [
				{
					"internalType": "address",
					"name": "contractAddress",
					"type": "address"
				},
				{
					"internalType": "string",
					"name": "name",
					"type": "string"
				},
				{
					"internalType": "string",
					"name": "symbol",
					"type": "string"
				},
				{
					"internalType": "string",
					"name": "baseURI",
					"type": "string"
				}
			],
			"stateMutability": "view",
			"type": "function"
		}
	]
}