{
	"data": {
		"bytecode": {
			"linkReferences": {},
			"object": "6080604052604051806108a00160405280610879815260200162004cde6108799139600a908162000031919062000404565b506040518060400160405280600d81526020017f3c2f746578743e3c2f7376673e00000000000000000000000000000000000000815250600b908162000078919062000404565b50604051620055573803806200555783398181016040528101906200009e919062000659565b6040518060400160405280601081526020017f4c7576204e616d652053657276696365000000000000000000000000000000008152506040518060400160405280600381526020017f4c5556000000000000000000000000000000000000000000000000000000000081525081600090816200011b919062000404565b5080600190816200012d919062000404565b50505033600760006101000a81548173ffffffffffffffffffffffffffffffffffffffff021916908373ffffffffffffffffffffffffffffffffffffffff160217905550806009908162000182919062000404565b5050620006aa565b600081519050919050565b7f4e487b7100000000000000000000000000000000000000000000000000000000600052604160045260246000fd5b7f4e487b7100000000000000000000000000000000000000000000000000000000600052602260045260246000fd5b600060028204905060018216806200020c57607f821691505b602082108103620002225762000221620001c4565b5b50919050565b60008190508160005260206000209050919050565b60006020601f8301049050919050565b600082821b905092915050565b6000600883026200028c7fffffffffffffffffffffffffffffffffffffffffffffffffffffffffffffffff826200024d565b6200029886836200024d565b95508019841693508086168417925050509392505050565b6000819050919050565b6000819050919050565b6000620002e5620002df620002d984620002b0565b620002ba565b620002b0565b9050919050565b6000819050919050565b6200030183620002c4565b620003196200031082620002ec565b8484546200025a565b825550505050565b600090565b6200033062000321565b6200033d818484620002f6565b505050565b5b8181101562000365576200035960008262000326565b60018101905062000343565b5050565b601f821115620003b4576200037e8162000228565b62000389846200023d565b8101602085101562000399578190505b620003b1620003a8856200023d565b83018262000342565b50505b505050565b600082821c905092915050565b6000620003d960001984600802620003b9565b1980831691505092915050565b6000620003f48383620003c6565b9150826002028217905092915050565b6200040f826200018a565b67ffffffffffffffff8111156200042b576200042a62000195565b5b620004378254620001f3565b6200044482828562000369565b600060209050601f8311600181146200047c576000841562000467578287015190505b620004738582620003e6565b865550620004e3565b601f1984166200048c8662000228565b60005b82811015620004b6578489015182556001820191506020850194506020810190506200048f565b86831015620004d65784890151620004d2601f891682620003c6565b8355505b6001600288020188555050505b505050505050565b6000604051905090565b600080fd5b600080fd5b600080fd5b600080fd5b6000601f19601f8301169050919050565b620005258262000509565b810181811067ffffffffffffffff8211171562000547576200054662000195565b5b80604052505050565b60006200055c620004eb565b90506200056a82826200051a565b919050565b600067ffffffffffffffff8211156200058d576200058c62000195565b5b620005988262000509565b9050602081019050919050565b60005b83811015620005c5578082015181840152602081019050620005a8565b83811115620005d5576000848401525b50505050565b6000620005f2620005ec846200056f565b62000550565b90508281526020810184848401111562000611576200061062000504565b5b6200061e848285620005a5565b509392505050565b600082601f8301126200063e576200063d620004ff565b5b815162000650848260208601620005db565b91505092915050565b600060208284031215620006725762000671620004f5565b5b600082015167ffffffffffffffff811115620006935762000692620004fa565b5b620006a18482850162000626565b91505092915050565b61462480620006ba6000396000f3fe6080604052600436106101b75760003560e01c80638ada066e116100ec578063bf40fac11161008a578063e985e9c511610064578063e985e9c51461066a578063f2c298be146106a7578063fb825e5f146106c3578063fe2c6198146106ee576101b7565b8063bf40fac1146105c7578063c1880a9814610604578063c87b56dd1461062d576101b7565b806395d89b41116100c657806395d89b411461050d5780639791c09714610538578063a22cb46514610575578063b88d4fde1461059e576101b7565b80638ada066e1461048c5780638da5cb5b146104b75780638f32d59b146104e2576101b7565b80632d551432116101595780634622ab03116101335780634622ab0314610398578063541e771d146103d55780636352211e1461041257806370a082311461044f576101b7565b80632d5514321461032d5780633ccfd60b1461035857806342842e0e1461036f576101b7565b8063095ea7b311610195578063095ea7b31461026157806311dd88451461028a57806323b872dd146102c757806326449235146102f0576101b7565b806301ffc9a7146101bc57806306fdde03146101f9578063081812fc14610224575b600080fd5b3480156101c857600080fd5b506101e360048036038101906101de91906129f6565b61072b565b6040516101f09190612a3e565b60405180910390f35b34801561020557600080fd5b5061020e61080d565b60405161021b9190612af2565b60405180910390f35b34801561023057600080fd5b5061024b60048036038101906102469190612b4a565b61089f565b6040516102589190612bb8565b60405180910390f35b34801561026d57600080fd5b5061028860048036038101906102839190612bff565b610924565b005b34801561029657600080fd5b506102b160048036038101906102ac9190612d74565b610a3b565b6040516102be9190612af2565b60405180910390f35b3480156102d357600080fd5b506102ee60048036038101906102e99190612dbd565b610aeb565b005b3480156102fc57600080fd5b5061031760048036038101906103129190612d74565b610b4b565b6040516103249190612bb8565b60405180910390f35b34801561033957600080fd5b50610342610b94565b60405161034f9190612af2565b60405180910390f35b34801561036457600080fd5b5061036d610c22565b005b34801561037b57600080fd5b5061039660048036038101906103919190612dbd565b610ce8565b005b3480156103a457600080fd5b506103bf60048036038101906103ba9190612b4a565b610d08565b6040516103cc9190612af2565b60405180910390f35b3480156103e157600080fd5b506103fc60048036038101906103f79190612d74565b610da8565b6040516104099190612af2565b60405180910390f35b34801561041e57600080fd5b5061043960048036038101906104349190612b4a565b610e5e565b6040516104469190612bb8565b60405180910390f35b34801561045b57600080fd5b5061047660048036038101906104719190612e10565b610f0f565b6040516104839190612e4c565b60405180910390f35b34801561049857600080fd5b506104a1610fc6565b6040516104ae9190612e4c565b60405180910390f35b3480156104c357600080fd5b506104cc610fd7565b6040516104d99190612e88565b60405180910390f35b3480156104ee57600080fd5b506104f7610ffd565b6040516105049190612a3e565b60405180910390f35b34801561051957600080fd5b50610522611055565b60405161052f9190612af2565b60405180910390f35b34801561054457600080fd5b5061055f600480360381019061055a9190612d74565b6110e7565b60405161056c9190612a3e565b60405180910390f35b34801561058157600080fd5b5061059c60048036038101906105979190612ecf565b611112565b005b3480156105aa57600080fd5b506105c560048036038101906105c09190612fb0565b611128565b005b3480156105d357600080fd5b506105ee60048036038101906105e99190612d74565b61118a565b6040516105fb9190612bb8565b60405180910390f35b34801561061057600080fd5b5061062b60048036038101906106269190613033565b6111d2565b005b34801561063957600080fd5b50610654600480360381019061064f9190612b4a565b6112a5565b6040516106619190612af2565b60405180910390f35b34801561067657600080fd5b50610691600480360381019061068c91906130ab565b6113f6565b60405161069e9190612a3e565b60405180910390f35b6106c160048036038101906106bc9190612d74565b61148a565b005b3480156106cf57600080fd5b506106d8611744565b6040516106e591906131f7565b60405180910390f35b3480156106fa57600080fd5b5061071560048036038101906107109190612d74565b61188a565b6040516107229190612e4c565b60405180910390f35b60007f80ac58cd000000000000000000000000000000000000000000000000000000007bffffffffffffffffffffffffffffffffffffffffffffffffffffffff1916827bffffffffffffffffffffffffffffffffffffffffffffffffffffffff191614806107f657507f5b5e139f000000000000000000000000000000000000000000000000000000007bffffffffffffffffffffffffffffffffffffffffffffffffffffffff1916827bffffffffffffffffffffffffffffffffffffffffffffffffffffffff1916145b806108065750610805826118e6565b5b9050919050565b60606000805461081c90613248565b80601f016020809104026020016040519081016040528092919081815260200182805461084890613248565b80156108955780601f1061086a57610100808354040283529160200191610895565b820191906000526020600020905b81548152906001019060200180831161087857829003601f168201915b5050505050905090565b60006108aa82611950565b6108e9576040517f08c379a00000000000000000000000000000000000000000000000000000000081526004016108e0906132eb565b60405180910390fd5b6004600083815260200190815260200160002060009054906101000a900473ffffffffffffffffffffffffffffffffffffffff169050919050565b600061092f82610e5e565b90508073ffffffffffffffffffffffffffffffffffffffff168373ffffffffffffffffffffffffffffffffffffffff160361099f576040517f08c379a00000000000000000000000000000000000000000000000000000000081526004016109969061337d565b60405180910390fd5b8073ffffffffffffffffffffffffffffffffffffffff166109be6119bc565b73ffffffffffffffffffffffffffffffffffffffff1614806109ed57506109ec816109e76119bc565b6113f6565b5b610a2c576040517f08c379a0000000000000000000000000000000000000000000000000000000008152600401610a239061340f565b60405180910390fd5b610a3683836119c4565b505050565b6060600d82604051610a4d919061346b565b90815260200160405180910390208054610a6690613248565b80601f0160208091040260200160405190810160405280929190818152602001828054610a9290613248565b8015610adf5780601f10610ab457610100808354040283529160200191610adf565b820191906000526020600020905b815481529060010190602001808311610ac257829003601f168201915b50505050509050919050565b610afc610af66119bc565b82611a7d565b610b3b576040517f08c379a0000000000000000000000000000000000000000000000000000000008152600401610b32906134f4565b60405180910390fd5b610b46838383611b5b565b505050565b600c818051602081018201805184825260208301602085012081835280955050505050506000915054906101000a900473ffffffffffffffffffffffffffffffffffffffff1681565b60098054610ba190613248565b80601f0160208091040260200160405190810160405280929190818152602001828054610bcd90613248565b8015610c1a5780601f10610bef57610100808354040283529160200191610c1a565b820191906000526020600020905b815481529060010190602001808311610bfd57829003601f168201915b505050505081565b610c2a610ffd565b610c3357600080fd5b600047905060003373ffffffffffffffffffffffffffffffffffffffff1682604051610c5e90613545565b60006040518083038185875af1925050503d8060008114610c9b576040519150601f19603f3d011682016040523d82523d6000602084013e610ca0565b606091505b5050905080610ce4576040517f08c379a0000000000000000000000000000000000000000000000000000000008152600401610cdb906135a6565b60405180910390fd5b5050565b610d0383838360405180602001604052806000815250611128565b505050565b600e6020528060005260406000206000915090508054610d2790613248565b80601f0160208091040260200160405190810160405280929190818152602001828054610d5390613248565b8015610da05780601f10610d7557610100808354040283529160200191610da0565b820191906000526020600020905b815481529060010190602001808311610d8357829003601f168201915b505050505081565b600d818051602081018201805184825260208301602085012081835280955050505050506000915090508054610ddd90613248565b80601f0160208091040260200160405190810160405280929190818152602001828054610e0990613248565b8015610e565780601f10610e2b57610100808354040283529160200191610e56565b820191906000526020600020905b815481529060010190602001808311610e3957829003601f168201915b505050505081565b6000806002600084815260200190815260200160002060009054906101000a900473ffffffffffffffffffffffffffffffffffffffff169050600073ffffffffffffffffffffffffffffffffffffffff168173ffffffffffffffffffffffffffffffffffffffff1603610f06576040517f08c379a0000000000000000000000000000000000000000000000000000000008152600401610efd90613638565b60405180910390fd5b80915050919050565b60008073ffffffffffffffffffffffffffffffffffffffff168273ffffffffffffffffffffffffffffffffffffffff1603610f7f576040517f08c379a0000000000000000000000000000000000000000000000000000000008152600401610f76906136ca565b60405180910390fd5b600360008373ffffffffffffffffffffffffffffffffffffffff1673ffffffffffffffffffffffffffffffffffffffff168152602001908152602001600020549050919050565b6000610fd26008611dc1565b905090565b600760009054906101000a900473ffffffffffffffffffffffffffffffffffffffff1681565b6000600760009054906101000a900473ffffffffffffffffffffffffffffffffffffffff1673ffffffffffffffffffffffffffffffffffffffff163373ffffffffffffffffffffffffffffffffffffffff1614905090565b60606001805461106490613248565b80601f016020809104026020016040519081016040528092919081815260200182805461109090613248565b80156110dd5780601f106110b2576101008083540402835291602001916110dd565b820191906000526020600020905b8154815290600101906020018083116110c057829003601f168201915b5050505050905090565b600060036110f483611dcf565b1015801561110b5750600a61110883611dcf565b11155b9050919050565b61112461111d6119bc565b8383611f84565b5050565b6111396111336119bc565b83611a7d565b611178576040517f08c379a000000000000000000000000000000000000000000000000000000000815260040161116f906134f4565b60405180910390fd5b611184848484846120f0565b50505050565b6000600c8260405161119c919061346b565b908152602001604051809103902060009054906101000a900473ffffffffffffffffffffffffffffffffffffffff169050919050565b600c826040516111e2919061346b565b908152602001604051809103902060009054906101000a900473ffffffffffffffffffffffffffffffffffffffff1673ffffffffffffffffffffffffffffffffffffffff163373ffffffffffffffffffffffffffffffffffffffff1614611275576040517f82b4290000000000000000000000000000000000000000000000000000000000815260040160405180910390fd5b80600d83604051611286919061346b565b908152602001604051809103902090816112a09190613896565b505050565b60606112b082611950565b6112ef576040517f08c379a00000000000000000000000000000000000000000000000000000000081526004016112e6906139da565b60405180910390fd5b600060066000848152602001908152602001600020805461130f90613248565b80601f016020809104026020016040519081016040528092919081815260200182805461133b90613248565b80156113885780601f1061135d57610100808354040283529160200191611388565b820191906000526020600020905b81548152906001019060200180831161136b57829003601f168201915b50505050509050600061139961214c565b905060008151036113ae5781925050506113f1565b6000825111156113e35780826040516020016113cb9291906139fa565b604051602081830303815290604052925050506113f1565b6113ec84612163565b925050505b919050565b6000600560008473ffffffffffffffffffffffffffffffffffffffff1673ffffffffffffffffffffffffffffffffffffffff16815260200190815260200160002060008373ffffffffffffffffffffffffffffffffffffffff1673ffffffffffffffffffffffffffffffffffffffff16815260200190815260200160002060009054906101000a900460ff16905092915050565b600073ffffffffffffffffffffffffffffffffffffffff16600c826040516114b2919061346b565b908152602001604051809103902060009054906101000a900473ffffffffffffffffffffffffffffffffffffffff1673ffffffffffffffffffffffffffffffffffffffff161461152e576040517f3a81d6fc00000000000000000000000000000000000000000000000000000000815260040160405180910390fd5b611537816110e7565b61157857806040517f7f19f48d00000000000000000000000000000000000000000000000000000000815260040161156f9190612af2565b60405180910390fd5b60006115838261188a565b9050803410156115c8576040517f08c379a00000000000000000000000000000000000000000000000000000000081526004016115bf90613a6a565b60405180910390fd5b60008260096040516020016115de929190613b59565b60405160208183030381529060405290506000600a82600b60405160200161160893929190613b88565b604051602081830303815290604052905060006116256008611dc1565b9050600061163286611dcf565b9050600061163f8261220a565b90506000611677866116508761236a565b8460405160200161166393929190613d35565b60405160208183030381529060405261236a565b905060008160405160200161168c9190613dde565b60405160208183030381529060405290506116a73386612501565b6116b1858261251f565b33600c8a6040516116c2919061346b565b908152602001604051809103902060006101000a81548173ffffffffffffffffffffffffffffffffffffffff021916908373ffffffffffffffffffffffffffffffffffffffff16021790555088600e6000878152602001908152602001600020908161172e9190613896565b50611739600861258c565b505050505050505050565b606060006117526008611dc1565b67ffffffffffffffff81111561176b5761176a612c49565b5b60405190808252806020026020018201604052801561179e57816020015b60608152602001906001900390816117895790505b50905060005b6117ae6008611dc1565b81101561188257600e600082815260200190815260200160002080546117d390613248565b80601f01602080910402602001604051908101604052809291908181526020018280546117ff90613248565b801561184c5780601f106118215761010080835404028352916020019161184c565b820191906000526020600020905b81548152906001019060200180831161182f57829003601f168201915b505050505082828151811061186457611863613e00565b5b6020026020010181905250808061187a90613e5e565b9150506117a4565b508091505090565b60008061189683611dcf565b9050600081116118a557600080fd5b600381036118bd5766b1a2bc2ec500009150506118e1565b600481036118d557666a94d74f4300009150506118e1565b662386f26fc100009150505b919050565b60007f01ffc9a7000000000000000000000000000000000000000000000000000000007bffffffffffffffffffffffffffffffffffffffffffffffffffffffff1916827bffffffffffffffffffffffffffffffffffffffffffffffffffffffff1916149050919050565b60008073ffffffffffffffffffffffffffffffffffffffff166002600084815260200190815260200160002060009054906101000a900473ffffffffffffffffffffffffffffffffffffffff1673ffffffffffffffffffffffffffffffffffffffff1614159050919050565b600033905090565b816004600083815260200190815260200160002060006101000a81548173ffffffffffffffffffffffffffffffffffffffff021916908373ffffffffffffffffffffffffffffffffffffffff160217905550808273ffffffffffffffffffffffffffffffffffffffff16611a3783610e5e565b73ffffffffffffffffffffffffffffffffffffffff167f8c5be1e5ebec7d5bd14f71427d1e84f3dd0314c0f7b2291e5b200ac8c7c3b92560405160405180910390a45050565b6000611a8882611950565b611ac7576040517f08c379a0000000000000000000000000000000000000000000000000000000008152600401611abe90613f18565b60405180910390fd5b6000611ad283610e5e565b90508073ffffffffffffffffffffffffffffffffffffffff168473ffffffffffffffffffffffffffffffffffffffff161480611b145750611b1381856113f6565b5b80611b5257508373ffffffffffffffffffffffffffffffffffffffff16611b3a8461089f565b73ffffffffffffffffffffffffffffffffffffffff16145b91505092915050565b8273ffffffffffffffffffffffffffffffffffffffff16611b7b82610e5e565b73ffffffffffffffffffffffffffffffffffffffff1614611bd1576040517f08c379a0000000000000000000000000000000000000000000000000000000008152600401611bc890613faa565b60405180910390fd5b600073ffffffffffffffffffffffffffffffffffffffff168273ffffffffffffffffffffffffffffffffffffffff1603611c40576040517f08c379a0000000000000000000000000000000000000000000000000000000008152600401611c379061403c565b60405180910390fd5b611c4b8383836125a2565b611c566000826119c4565b6001600360008573ffffffffffffffffffffffffffffffffffffffff1673ffffffffffffffffffffffffffffffffffffffff1681526020019081526020016000206000828254611ca6919061405c565b925050819055506001600360008473ffffffffffffffffffffffffffffffffffffffff1673ffffffffffffffffffffffffffffffffffffffff1681526020019081526020016000206000828254611cfd9190614090565b92505081905550816002600083815260200190815260200160002060006101000a81548173ffffffffffffffffffffffffffffffffffffffff021916908373ffffffffffffffffffffffffffffffffffffffff160217905550808273ffffffffffffffffffffffffffffffffffffffff168473ffffffffffffffffffffffffffffffffffffffff167fddf252ad1be2c89b69c2b068fc378daa952ba7f163c4a11628f55a4df523b3ef60405160405180910390a4611dbc8383836125a7565b505050565b600081600001549050919050565b60008060008084519050600092505b80821015611f79576000858381518110611dfb57611dfa613e00565b5b602001015160f81c60f81b9050608060f81b817effffffffffffffffffffffffffffffffffffffffffffffffffffffffffffff19161015611e4a57600183611e439190614090565b9250611f65565b60e060f81b817effffffffffffffffffffffffffffffffffffffffffffffffffffffffffffff19161015611e8c57600283611e859190614090565b9250611f64565b60f060f81b817effffffffffffffffffffffffffffffffffffffffffffffffffffffffffffff19161015611ece57600383611ec79190614090565b9250611f63565b60f8801b817effffffffffffffffffffffffffffffffffffffffffffffffffffffffffffff19161015611f0f57600483611f089190614090565b9250611f62565b60fc60f81b817effffffffffffffffffffffffffffffffffffffffffffffffffffffffffffff19161015611f5157600583611f4a9190614090565b9250611f61565b600683611f5e9190614090565b92505b5b5b5b5b508280611f7190613e5e565b935050611dde565b829350505050919050565b8173ffffffffffffffffffffffffffffffffffffffff168373ffffffffffffffffffffffffffffffffffffffff1603611ff2576040517f08c379a0000000000000000000000000000000000000000000000000000000008152600401611fe990614132565b60405180910390fd5b80600560008573ffffffffffffffffffffffffffffffffffffffff1673ffffffffffffffffffffffffffffffffffffffff16815260200190815260200160002060008473ffffffffffffffffffffffffffffffffffffffff1673ffffffffffffffffffffffffffffffffffffffff16815260200190815260200160002060006101000a81548160ff0219169083151502179055508173ffffffffffffffffffffffffffffffffffffffff168373ffffffffffffffffffffffffffffffffffffffff167f17307eab39ab6107e8899845ad3d59bd9653f200f220920489ca2b5937696c31836040516120e39190612a3e565b60405180910390a3505050565b6120fb848484611b5b565b612107848484846125ac565b612146576040517f08c379a000000000000000000000000000000000000000000000000000000000815260040161213d906141c4565b60405180910390fd5b50505050565b606060405180602001604052806000815250905090565b606061216e82611950565b6121ad576040517f08c379a00000000000000000000000000000000000000000000000000000000081526004016121a490614256565b60405180910390fd5b60006121b761214c565b905060008151116121d75760405180602001604052806000815250612202565b806121e18461220a565b6040516020016121f29291906139fa565b6040516020818303038152906040525b915050919050565b606060008203612251576040518060400160405280600181526020017f30000000000000000000000000000000000000000000000000000000000000008152509050612365565b600082905060005b6000821461228357808061226c90613e5e565b915050600a8261227c91906142a5565b9150612259565b60008167ffffffffffffffff81111561229f5761229e612c49565b5b6040519080825280601f01601f1916602001820160405280156122d15781602001600182028036833780820191505090505b5090505b6000851461235e576001826122ea919061405c565b9150600a856122f991906142d6565b60306123059190614090565b60f81b81838151811061231b5761231a613e00565b5b60200101907effffffffffffffffffffffffffffffffffffffffffffffffffffffffffffff1916908160001a905350600a8561235791906142a5565b94506122d5565b8093505050505b919050565b60606000825190506000810361239257604051806020016040528060008152509150506124fc565b600060036002836123a39190614090565b6123ad91906142a5565b60046123b99190614307565b905060006020826123ca9190614090565b67ffffffffffffffff8111156123e3576123e2612c49565b5b6040519080825280601f01601f1916602001820160405280156124155781602001600182028036833780820191505090505b50905060006040518060600160405280604081526020016145af604091399050600181016020830160005b868110156124b95760038101905062ffffff818a015116603f8160121c168401518060081b905060ff603f83600c1c1686015116810190508060081b905060ff603f8360061c1686015116810190508060081b905060ff603f831686015116810190508060e01b90508084526004840193505050612440565b5060038606600181146124d357600281146124e3576124ee565b613d3d60f01b60028303526124ee565b603d60f81b60018303525b508484525050819450505050505b919050565b61251b828260405180602001604052806000815250612733565b5050565b61252882611950565b612567576040517f08c379a000000000000000000000000000000000000000000000000000000000815260040161255e906143d3565b60405180910390fd5b806006600084815260200190815260200160002090816125879190613896565b505050565b6001816000016000828254019250508190555050565b505050565b505050565b60006125cd8473ffffffffffffffffffffffffffffffffffffffff1661278e565b15612726578373ffffffffffffffffffffffffffffffffffffffff1663150b7a026125f66119bc565b8786866040518563ffffffff1660e01b81526004016126189493929190614448565b6020604051808303816000875af192505050801561265457506040513d601f19601f8201168201806040525081019061265191906144a9565b60015b6126d6573d8060008114612684576040519150601f19603f3d011682016040523d82523d6000602084013e612689565b606091505b5060008151036126ce576040517f08c379a00000000000000000000000000000000000000000000000000000000081526004016126c5906141c4565b60405180910390fd5b805181602001fd5b63150b7a0260e01b7bffffffffffffffffffffffffffffffffffffffffffffffffffffffff1916817bffffffffffffffffffffffffffffffffffffffffffffffffffffffff19161491505061272b565b600190505b949350505050565b61273d83836127b1565b61274a60008484846125ac565b612789576040517f08c379a0000000000000000000000000000000000000000000000000000000008152600401612780906141c4565b60405180910390fd5b505050565b6000808273ffffffffffffffffffffffffffffffffffffffff163b119050919050565b600073ffffffffffffffffffffffffffffffffffffffff168273ffffffffffffffffffffffffffffffffffffffff1603612820576040517f08c379a000000000000000000000000000000000000000000000000000000000815260040161281790614522565b60405180910390fd5b61282981611950565b15612869576040517f08c379a00000000000000000000000000000000000000000000000000000000081526004016128609061458e565b60405180910390fd5b612875600083836125a2565b6001600360008473ffffffffffffffffffffffffffffffffffffffff1673ffffffffffffffffffffffffffffffffffffffff16815260200190815260200160002060008282546128c59190614090565b92505081905550816002600083815260200190815260200160002060006101000a81548173ffffffffffffffffffffffffffffffffffffffff021916908373ffffffffffffffffffffffffffffffffffffffff160217905550808273ffffffffffffffffffffffffffffffffffffffff16600073ffffffffffffffffffffffffffffffffffffffff167fddf252ad1be2c89b69c2b068fc378daa952ba7f163c4a11628f55a4df523b3ef60405160405180910390a4612986600083836125a7565b5050565b6000604051905090565b600080fd5b600080fd5b60007fffffffff0000000000000000000000000000000000000000000000000000000082169050919050565b6129d38161299e565b81146129de57600080fd5b50565b6000813590506129f0816129ca565b92915050565b600060208284031215612a0c57612a0b612994565b5b6000612a1a848285016129e1565b91505092915050565b60008115159050919050565b612a3881612a23565b82525050565b6000602082019050612a536000830184612a2f565b92915050565b600081519050919050565b600082825260208201905092915050565b60005b83811015612a93578082015181840152602081019050612a78565b83811115612aa2576000848401525b50505050565b6000601f19601f8301169050919050565b6000612ac482612a59565b612ace8185612a64565b9350612ade818560208601612a75565b612ae781612aa8565b840191505092915050565b60006020820190508181036000830152612b0c8184612ab9565b905092915050565b6000819050919050565b612b2781612b14565b8114612b3257600080fd5b50565b600081359050612b4481612b1e565b92915050565b600060208284031215612b6057612b5f612994565b5b6000612b6e84828501612b35565b91505092915050565b600073ffffffffffffffffffffffffffffffffffffffff82169050919050565b6000612ba282612b77565b9050919050565b612bb281612b97565b82525050565b6000602082019050612bcd6000830184612ba9565b92915050565b612bdc81612b97565b8114612be757600080fd5b50565b600081359050612bf981612bd3565b92915050565b60008060408385031215612c1657612c15612994565b5b6000612c2485828601612bea565b9250506020612c3585828601612b35565b9150509250929050565b600080fd5b600080fd5b7f4e487b7100000000000000000000000000000000000000000000000000000000600052604160045260246000fd5b612c8182612aa8565b810181811067ffffffffffffffff82111715612ca057612c9f612c49565b5b80604052505050565b6000612cb361298a565b9050612cbf8282612c78565b919050565b600067ffffffffffffffff821115612cdf57612cde612c49565b5b612ce882612aa8565b9050602081019050919050565b82818337600083830152505050565b6000612d17612d1284612cc4565b612ca9565b905082815260208101848484011115612d3357612d32612c44565b5b612d3e848285612cf5565b509392505050565b600082601f830112612d5b57612d5a612c3f565b5b8135612d6b848260208601612d04565b91505092915050565b600060208284031215612d8a57612d89612994565b5b600082013567ffffffffffffffff811115612da857612da7612999565b5b612db484828501612d46565b91505092915050565b600080600060608486031215612dd657612dd5612994565b5b6000612de486828701612bea565b9350506020612df586828701612bea565b9250506040612e0686828701612b35565b9150509250925092565b600060208284031215612e2657612e25612994565b5b6000612e3484828501612bea565b91505092915050565b612e4681612b14565b82525050565b6000602082019050612e616000830184612e3d565b92915050565b6000612e7282612b77565b9050919050565b612e8281612e67565b82525050565b6000602082019050612e9d6000830184612e79565b92915050565b612eac81612a23565b8114612eb757600080fd5b50565b600081359050612ec981612ea3565b92915050565b60008060408385031215612ee657612ee5612994565b5b6000612ef485828601612bea565b9250506020612f0585828601612eba565b9150509250929050565b600067ffffffffffffffff821115612f2a57612f29612c49565b5b612f3382612aa8565b9050602081019050919050565b6000612f53612f4e84612f0f565b612ca9565b905082815260208101848484011115612f6f57612f6e612c44565b5b612f7a848285612cf5565b509392505050565b600082601f830112612f9757612f96612c3f565b5b8135612fa7848260208601612f40565b91505092915050565b60008060008060808587031215612fca57612fc9612994565b5b6000612fd887828801612bea565b9450506020612fe987828801612bea565b9350506040612ffa87828801612b35565b925050606085013567ffffffffffffffff81111561301b5761301a612999565b5b61302787828801612f82565b91505092959194509250565b6000806040838503121561304a57613049612994565b5b600083013567ffffffffffffffff81111561306857613067612999565b5b61307485828601612d46565b925050602083013567ffffffffffffffff81111561309557613094612999565b5b6130a185828601612d46565b9150509250929050565b600080604083850312156130c2576130c1612994565b5b60006130d085828601612bea565b92505060206130e185828601612bea565b9150509250929050565b600081519050919050565b600082825260208201905092915050565b6000819050602082019050919050565b600082825260208201905092915050565b600061313382612a59565b61313d8185613117565b935061314d818560208601612a75565b61315681612aa8565b840191505092915050565b600061316d8383613128565b905092915050565b6000602082019050919050565b600061318d826130eb565b61319781856130f6565b9350836020820285016131a985613107565b8060005b858110156131e557848403895281516131c68582613161565b94506131d183613175565b925060208a019950506001810190506131ad565b50829750879550505050505092915050565b600060208201905081810360008301526132118184613182565b905092915050565b7f4e487b7100000000000000000000000000000000000000000000000000000000600052602260045260246000fd5b6000600282049050600182168061326057607f821691505b60208210810361327357613272613219565b5b50919050565b7f4552433732313a20617070726f76656420717565727920666f72206e6f6e657860008201527f697374656e7420746f6b656e0000000000000000000000000000000000000000602082015250565b60006132d5602c83612a64565b91506132e082613279565b604082019050919050565b60006020820190508181036000830152613304816132c8565b9050919050565b7f4552433732313a20617070726f76616c20746f2063757272656e74206f776e6560008201527f7200000000000000000000000000000000000000000000000000000000000000602082015250565b6000613367602183612a64565b91506133728261330b565b604082019050919050565b600060208201905081810360008301526133968161335a565b9050919050565b7f4552433732313a20617070726f76652063616c6c6572206973206e6f74206f7760008201527f6e6572206e6f7220617070726f76656420666f7220616c6c0000000000000000602082015250565b60006133f9603883612a64565b91506134048261339d565b604082019050919050565b60006020820190508181036000830152613428816133ec565b9050919050565b600081905092915050565b600061344582612a59565b61344f818561342f565b935061345f818560208601612a75565b80840191505092915050565b6000613477828461343a565b915081905092915050565b7f4552433732313a207472616e736665722063616c6c6572206973206e6f74206f60008201527f776e6572206e6f7220617070726f766564000000000000000000000000000000602082015250565b60006134de603183612a64565b91506134e982613482565b604082019050919050565b6000602082019050818103600083015261350d816134d1565b9050919050565b600081905092915050565b50565b600061352f600083613514565b915061353a8261351f565b600082019050919050565b600061355082613522565b9150819050919050565b7f4661696c656420746f207769746864726177204d617469630000000000000000600082015250565b6000613590601883612a64565b915061359b8261355a565b602082019050919050565b600060208201905081810360008301526135bf81613583565b9050919050565b7f4552433732313a206f776e657220717565727920666f72206e6f6e657869737460008201527f656e7420746f6b656e0000000000000000000000000000000000000000000000602082015250565b6000613622602983612a64565b915061362d826135c6565b604082019050919050565b6000602082019050818103600083015261365181613615565b9050919050565b7f4552433732313a2062616c616e636520717565727920666f7220746865207a6560008201527f726f206164647265737300000000000000000000000000000000000000000000602082015250565b60006136b4602a83612a64565b91506136bf82613658565b604082019050919050565b600060208201905081810360008301526136e3816136a7565b9050919050565b60008190508160005260206000209050919050565b60006020601f8301049050919050565b600082821b905092915050565b60006008830261374c7fffffffffffffffffffffffffffffffffffffffffffffffffffffffffffffffff8261370f565b613756868361370f565b95508019841693508086168417925050509392505050565b6000819050919050565b600061379361378e61378984612b14565b61376e565b612b14565b9050919050565b6000819050919050565b6137ad83613778565b6137c16137b98261379a565b84845461371c565b825550505050565b600090565b6137d66137c9565b6137e18184846137a4565b505050565b5b81811015613805576137fa6000826137ce565b6001810190506137e7565b5050565b601f82111561384a5761381b816136ea565b613824846136ff565b81016020851015613833578190505b61384761383f856136ff565b8301826137e6565b50505b505050565b600082821c905092915050565b600061386d6000198460080261384f565b1980831691505092915050565b6000613886838361385c565b9150826002028217905092915050565b61389f82612a59565b67ffffffffffffffff8111156138b8576138b7612c49565b5b6138c28254613248565b6138cd828285613809565b600060209050601f83116001811461390057600084156138ee578287015190505b6138f8858261387a565b865550613960565b601f19841661390e866136ea565b60005b8281101561393657848901518255600182019150602085019450602081019050613911565b86831015613953578489015161394f601f89168261385c565b8355505b6001600288020188555050505b505050505050565b7f45524337323155524953746f726167653a2055524920717565727920666f722060008201527f6e6f6e6578697374656e7420746f6b656e000000000000000000000000000000602082015250565b60006139c4603183612a64565b91506139cf82613968565b604082019050919050565b600060208201905081810360008301526139f3816139b7565b9050919050565b6000613a06828561343a565b9150613a12828461343a565b91508190509392505050565b7f4e6f7420656e6f756768204d6174696320706169640000000000000000000000600082015250565b6000613a54601583612a64565b9150613a5f82613a1e565b602082019050919050565b60006020820190508181036000830152613a8381613a47565b9050919050565b7f2e00000000000000000000000000000000000000000000000000000000000000600082015250565b6000613ac060018361342f565b9150613acb82613a8a565b600182019050919050565b60008154613ae381613248565b613aed818661342f565b94506001821660008114613b085760018114613b1d57613b50565b60ff1983168652811515820286019350613b50565b613b26856136ea565b60005b83811015613b4857815481890152600182019150602081019050613b29565b838801955050505b50505092915050565b6000613b65828561343a565b9150613b7082613ab3565b9150613b7c8284613ad6565b91508190509392505050565b6000613b948286613ad6565b9150613ba0828561343a565b9150613bac8284613ad6565b9150819050949350505050565b7f7b226e616d65223a202200000000000000000000000000000000000000000000600082015250565b6000613bef600a8361342f565b9150613bfa82613bb9565b600a82019050919050565b7f222c20226465736372697074696f6e223a20224120646f6d61696e206f6e207460008201527f68652044616d6e204e616d652053657276696365222c2022696d616765223a2060208201527f22646174613a696d6167652f7376672b786d6c3b6261736536342c0000000000604082015250565b6000613c87605b8361342f565b9150613c9282613c05565b605b82019050919050565b7f222c226c656e677468223a220000000000000000000000000000000000000000600082015250565b6000613cd3600c8361342f565b9150613cde82613c9d565b600c82019050919050565b7f227d000000000000000000000000000000000000000000000000000000000000600082015250565b6000613d1f60028361342f565b9150613d2a82613ce9565b600282019050919050565b6000613d4082613be2565b9150613d4c828661343a565b9150613d5782613c7a565b9150613d63828561343a565b9150613d6e82613cc6565b9150613d7a828461343a565b9150613d8582613d12565b9150819050949350505050565b7f646174613a6170706c69636174696f6e2f6a736f6e3b6261736536342c000000600082015250565b6000613dc8601d8361342f565b9150613dd382613d92565b601d82019050919050565b6000613de982613dbb565b9150613df5828461343a565b915081905092915050565b7f4e487b7100000000000000000000000000000000000000000000000000000000600052603260045260246000fd5b7f4e487b7100000000000000000000000000000000000000000000000000000000600052601160045260246000fd5b6000613e6982612b14565b91507fffffffffffffffffffffffffffffffffffffffffffffffffffffffffffffffff8203613e9b57613e9a613e2f565b5b600182019050919050565b7f4552433732313a206f70657261746f7220717565727920666f72206e6f6e657860008201527f697374656e7420746f6b656e0000000000000000000000000000000000000000602082015250565b6000613f02602c83612a64565b9150613f0d82613ea6565b604082019050919050565b60006020820190508181036000830152613f3181613ef5565b9050919050565b7f4552433732313a207472616e736665722066726f6d20696e636f72726563742060008201527f6f776e6572000000000000000000000000000000000000000000000000000000602082015250565b6000613f94602583612a64565b9150613f9f82613f38565b604082019050919050565b60006020820190508181036000830152613fc381613f87565b9050919050565b7f4552433732313a207472616e7366657220746f20746865207a65726f2061646460008201527f7265737300000000000000000000000000000000000000000000000000000000602082015250565b6000614026602483612a64565b915061403182613fca565b604082019050919050565b6000602082019050818103600083015261405581614019565b9050919050565b600061406782612b14565b915061407283612b14565b92508282101561408557614084613e2f565b5b828203905092915050565b600061409b82612b14565b91506140a683612b14565b9250827fffffffffffffffffffffffffffffffffffffffffffffffffffffffffffffffff038211156140db576140da613e2f565b5b828201905092915050565b7f4552433732313a20617070726f766520746f2063616c6c657200000000000000600082015250565b600061411c601983612a64565b9150614127826140e6565b602082019050919050565b6000602082019050818103600083015261414b8161410f565b9050919050565b7f4552433732313a207472616e7366657220746f206e6f6e20455243373231526560008201527f63656976657220696d706c656d656e7465720000000000000000000000000000602082015250565b60006141ae603283612a64565b91506141b982614152565b604082019050919050565b600060208201905081810360008301526141dd816141a1565b9050919050565b7f4552433732314d657461646174613a2055524920717565727920666f72206e6f60008201527f6e6578697374656e7420746f6b656e0000000000000000000000000000000000602082015250565b6000614240602f83612a64565b915061424b826141e4565b604082019050919050565b6000602082019050818103600083015261426f81614233565b9050919050565b7f4e487b7100000000000000000000000000000000000000000000000000000000600052601260045260246000fd5b60006142b082612b14565b91506142bb83612b14565b9250826142cb576142ca614276565b5b828204905092915050565b60006142e182612b14565b91506142ec83612b14565b9250826142fc576142fb614276565b5b828206905092915050565b600061431282612b14565b915061431d83612b14565b9250817fffffffffffffffffffffffffffffffffffffffffffffffffffffffffffffffff048311821515161561435657614355613e2f565b5b828202905092915050565b7f45524337323155524953746f726167653a2055524920736574206f66206e6f6e60008201527f6578697374656e7420746f6b656e000000000000000000000000000000000000602082015250565b60006143bd602e83612a64565b91506143c882614361565b604082019050919050565b600060208201905081810360008301526143ec816143b0565b9050919050565b600081519050919050565b600082825260208201905092915050565b600061441a826143f3565b61442481856143fe565b9350614434818560208601612a75565b61443d81612aa8565b840191505092915050565b600060808201905061445d6000830187612ba9565b61446a6020830186612ba9565b6144776040830185612e3d565b8181036060830152614489818461440f565b905095945050505050565b6000815190506144a3816129ca565b92915050565b6000602082840312156144bf576144be612994565b5b60006144cd84828501614494565b91505092915050565b7f4552433732313a206d696e7420746f20746865207a65726f2061646472657373600082015250565b600061450c602083612a64565b9150614517826144d6565b602082019050919050565b6000602082019050818103600083015261453b816144ff565b9050919050565b7f4552433732313a20746f6b656e20616c7265616479206d696e74656400000000600082015250565b6000614578601c83612a64565b915061458382614542565b602082019050919050565b600060208201905081810360008301526145a78161456b565b905091905056fe4142434445464748494a4b4c4d4e4f505152535455565758595a6162636465666768696a6b6c6d6e6f707172737475767778797a303132333435363738392b2fa2646970667358221220f4f1b3e919866f140e304333f87b5263811fd16e8cc6506bd908c25a164c294764736f6c634300080f00333c73766720786d6c6e733d22687474703a2f2f7777772e77332e6f72672f323030302f737667222077696474683d2232373022206865696768743d22323730222066696c6c3d226e6f6e65223e3c706174682066696c6c3d2275726c282361292220643d224d302030683237307632373048307a222f3e3c646566733e3c66696c7465722069643d22622220636f6c6f722d696e746572706f6c6174696f6e2d66696c746572733d2273524742222066696c746572556e6974733d227573657253706163654f6e55736522206865696768743d22323730222077696474683d22323730223e3c666544726f70536861646f772064783d2230222064793d22312220737464446576696174696f6e3d22322220666c6f6f642d6f7061636974793d222e323235222077696474683d223230302522206865696768743d2232303025222f3e3c2f66696c7465723e3c2f646566733e3c70617468207374796c653d2266696c6c3a236536346333632220643d224d342e3634352034352e3537376132352e3938362032352e3938362030203020312d2e3032392d312e31353463302d31332e3939372031312e3338372d32352e3338352032352e3338352d32352e3338357332352e3338352031312e3338372032352e3338352032352e3338356330202e3338372d2e3031322e3737312d2e30323920312e31353468342e363136632e3031322d2e3338342e3032372d2e3736372e3032372d312e31353420302d31362e3536392d31332e3433312d33302d33302d3330732d33302031332e3433312d33302033306330202e3338372e3031352e37372e30323920312e31353468342e3631367a222f3e3c70617468207374796c653d2266696c6c3a236630633431392220643d224d392e3238392034352e353737632d2e3032312d2e3338342d2e3035382d2e3736342d2e3035382d312e31353420302d31312e34353220392e3331372d32302e3736392032302e3736392d32302e3736397332302e37363920392e3331382032302e3736392032302e3736396330202e3338392d2e3033372e37372d2e30353820312e31353468342e363435632e3031372d2e3338332e3032392d2e3736372e3032392d312e31353420302d31332e3939372d31312e3338372d32352e3338352d32352e3338352d32352e33383553342e3631352033302e34323620342e3631352034342e3432336330202e3338372e3031322e3737312e30323920312e31353468342e3634357a222f3e3c70617468207374796c653d2266696c6c3a233731633238352220643d224d31332e3930352034352e353737632d2e3032372d2e3338332d2e3035382d2e3736342d2e3035382d312e31353420302d382e39303720372e3234362d31362e3135342031362e3135342d31362e3135347331362e31353420372e3234362031362e3135342031362e3135346330202e3338392d2e3033312e3737312d2e30353820312e31353468342e363135632e3032312d2e3338342e3035382d2e3736342e3035382d312e31353420302d31312e3435322d392e3331372d32302e3736392d32302e3736392d32302e373639732d32302e373720392e3331372d32302e37372032302e3736396330202e3338392e3033372e37372e30353820312e31353468342e3631367a222f3e3c70617468207374796c653d2266696c6c3a233030393665362220643d224d31382e35322034352e3537376131312e35382031312e35382030203020312d2e3035382d312e31353463302d362e33363220352e3137362d31312e3533382031312e3533382d31312e3533387331312e35333820352e3137372031312e3533382031312e3533386330202e3338392d2e3032312e3737342d2e30353820312e31353468342e363135632e3032372d2e3338332e3035382d2e3736342e3035382d312e31353420302d382e3930372d372e3234362d31362e3135342d31362e3135342d31362e313534732d31362e31353420372e3234362d31362e3135342031362e3135346330202e3338392e3033312e3737312e30353820312e31353468342e3631377a222f3e3c70617468207374796c653d2266696c6c3a233534366137392220643d224d32332e3138312034352e35373761362e38353920362e3835392030203020312d2e3130342d312e31353463302d332e38313820332e3130352d362e39323320362e3932332d362e39323373362e39323320332e31303520362e39323320362e3932336330202e3339342d2e3034312e3737382d2e31303420312e31353468342e363631632e3033382d2e33382e3035382d2e3736342e3035382d312e31353420302d362e3336322d352e3137362d31312e3533382d31312e3533382d31312e353338732d31312e35333820352e3137372d31312e3533382031312e3533386330202e3338392e3032312e3737342e30353820312e31353468342e3636317a222f3e3c646566733e3c6c696e6561724772616469656e742069643d2261222078313d2230222079313d2230222078323d22323730222079323d2232373022206772616469656e74556e6974733d227573657253706163654f6e557365223e3c73746f702073746f702d636f6c6f723d2223636235656565222f3e3c73746f70206f66667365743d2231222073746f702d636f6c6f723d2223306364376534222073746f702d6f7061636974793d222e3939222f3e3c2f6c696e6561724772616469656e743e3c2f646566733e3c7465787420783d2233322e352220793d223233312220666f6e742d73697a653d223237222066696c6c3d2223666666222066696c7465723d2275726c282362292220666f6e742d66616d696c793d22506c7573204a616b617274612053616e732c44656a6156752053616e732c4e6f746f20436f6c6f7220456d6f6a692c4170706c6520436f6c6f7220456d6f6a692c73616e732d73657269662220666f6e742d7765696768743d22626f6c64223e",
			"opcodes": "PUSH1 0x80 PUSH1 0x40 MSTORE PUSH1 0x40 MLOAD DUP1 PUSH2 0x8A0 ADD PUSH1 0x40 MSTORE DUP1 PUSH2 0x879 DUP2 MSTORE PUSH1 0x20 ADD PUSH3 0x4CDE PUSH2 0x879 SWAP2 CODECOPY PUSH1 0xA SWAP1 DUP2 PUSH3 0x31 SWAP2 SWAP1 PUSH3 0x404 JUMP JUMPDEST POP PUSH1 0x40 MLOAD DUP1 PUSH1 0x40 ADD PUSH1 0x40 MSTORE DUP1 PUSH1 0xD DUP2 MSTORE PUSH1 0x20 ADD PUSH32 0x3C2F746578743E3C2F7376673E00000000000000000000000000000000000000 DUP2 MSTORE POP PUSH1 0xB SWAP1 DUP2 PUSH3 0x78 SWAP2 SWAP1 PUSH3 0x404 JUMP JUMPDEST POP PUSH1 0x40 MLOAD PUSH3 0x5557 CODESIZE SUB DUP1 PUSH3 0x5557 DUP4 CODECOPY DUP2 DUP2 ADD PUSH1 0x40 MSTORE DUP2 ADD SWAP1 PUSH3 0x9E SWAP2 SWAP1 PUSH3 0x659 JUMP JUMPDEST PUSH1 0x40 MLOAD DUP1 PUSH1 0x40 ADD PUSH1 0x40 MSTORE DUP1 PUSH1 0x10 DUP2 MSTORE PUSH1 0x20 ADD PUSH32 0x4C7576204E616D65205365727669636500000000000000000000000000000000 DUP2 MSTORE POP PUSH1 0x40 MLOAD DUP1 PUSH1 0x40 ADD PUSH1 0x40 MSTORE DUP1 PUSH1 0x3 DUP2 MSTORE PUSH1 0x20 ADD PUSH32 0x4C55560000000000000000000000000000000000000000000000000000000000 DUP2 MSTORE POP DUP2 PUSH1 0x0 SWAP1 DUP2 PUSH3 0x11B SWAP2 SWAP1 PUSH3 0x404 JUMP JUMPDEST POP DUP1 PUSH1 0x1 SWAP1 DUP2 PUSH3 0x12D SWAP2 SWAP1 PUSH3 0x404 JUMP JUMPDEST POP POP POP CALLER PUSH1 0x7 PUSH1 0x0 PUSH2 0x100 EXP DUP2 SLOAD DUP2 PUSH20 0xFFFFFFFFFFFFFFFFFFFFFFFFFFFFFFFFFFFFFFFF MUL NOT AND SWAP1 DUP4 PUSH20 0xFFFFFFFFFFFFFFFFFFFFFFFFFFFFFFFFFFFFFFFF AND MUL OR SWAP1 SSTORE POP DUP1 PUSH1 0x9 SWAP1 DUP2 PUSH3 0x182 SWAP2 SWAP1 PUSH3 0x404 JUMP JUMPDEST POP POP PUSH3 0x6AA JUMP JUMPDEST PUSH1 0x0 DUP2 MLOAD SWAP1 POP SWAP2 SWAP1 POP JUMP JUMPDEST PUSH32 0x4E487B7100000000000000000000000000000000000000000000000000000000 PUSH1 0x0 MSTORE PUSH1 0x41 PUSH1 0x4 MSTORE PUSH1 0x24 PUSH1 0x0 REVERT JUMPDEST PUSH32 0x4E487B7100000000000000000000000000000000000000000000000000000000 PUSH1 0x0 MSTORE PUSH1 0x22 PUSH1 0x4 MSTORE PUSH1 0x24 PUSH1 0x0 REVERT JUMPDEST PUSH1 0x0 PUSH1 0x2 DUP3 DIV SWAP1 POP PUSH1 0x1 DUP3 AND DUP1 PUSH3 0x20C JUMPI PUSH1 0x7F DUP3 AND SWAP2 POP JUMPDEST PUSH1 0x20 DUP3 LT DUP2 SUB PUSH3 0x222 JUMPI PUSH3 0x221 PUSH3 0x1C4 JUMP JUMPDEST JUMPDEST POP SWAP2 SWAP1 POP JUMP JUMPDEST PUSH1 0x0 DUP2 SWAP1 POP DUP2 PUSH1 0x0 MSTORE PUSH1 0x20 PUSH1 0x0 KECCAK256 SWAP1 POP SWAP2 SWAP1 POP JUMP JUMPDEST PUSH1 0x0 PUSH1 0x20 PUSH1 0x1F DUP4 ADD DIV SWAP1 POP SWAP2 SWAP1 POP JUMP JUMPDEST PUSH1 0x0 DUP3 DUP3 SHL SWAP1 POP SWAP3 SWAP2 POP POP JUMP JUMPDEST PUSH1 0x0 PUSH1 0x8 DUP4 MUL PUSH3 0x28C PUSH32 0xFFFFFFFFFFFFFFFFFFFFFFFFFFFFFFFFFFFFFFFFFFFFFFFFFFFFFFFFFFFFFFFF DUP3 PUSH3 0x24D JUMP JUMPDEST PUSH3 0x298 DUP7 DUP4 PUSH3 0x24D JUMP JUMPDEST SWAP6 POP DUP1 NOT DUP5 AND SWAP4 POP DUP1 DUP7 AND DUP5 OR SWAP3 POP POP POP SWAP4 SWAP3 POP POP POP JUMP JUMPDEST PUSH1 0x0 DUP2 SWAP1 POP SWAP2 SWAP1 POP JUMP JUMPDEST PUSH1 0x0 DUP2 SWAP1 POP SWAP2 SWAP1 POP JUMP JUMPDEST PUSH1 0x0 PUSH3 0x2E5 PUSH3 0x2DF PUSH3 0x2D9 DUP5 PUSH3 0x2B0 JUMP JUMPDEST PUSH3 0x2BA JUMP JUMPDEST PUSH3 0x2B0 JUMP JUMPDEST SWAP1 POP SWAP2 SWAP1 POP JUMP JUMPDEST PUSH1 0x0 DUP2 SWAP1 POP SWAP2 SWAP1 POP JUMP JUMPDEST PUSH3 0x301 DUP4 PUSH3 0x2C4 JUMP JUMPDEST PUSH3 0x319 PUSH3 0x310 DUP3 PUSH3 0x2EC JUMP JUMPDEST DUP5 DUP5 SLOAD PUSH3 0x25A JUMP JUMPDEST DUP3 SSTORE POP POP POP POP JUMP JUMPDEST PUSH1 0x0 SWAP1 JUMP JUMPDEST PUSH3 0x330 PUSH3 0x321 JUMP JUMPDEST PUSH3 0x33D DUP2 DUP5 DUP5 PUSH3 0x2F6 JUMP JUMPDEST POP POP POP JUMP JUMPDEST JUMPDEST DUP2 DUP2 LT ISZERO PUSH3 0x365 JUMPI PUSH3 0x359 PUSH1 0x0 DUP3 PUSH3 0x326 JUMP JUMPDEST PUSH1 0x1 DUP2 ADD SWAP1 POP PUSH3 0x343 JUMP JUMPDEST POP POP JUMP JUMPDEST PUSH1 0x1F DUP3 GT ISZERO PUSH3 0x3B4 JUMPI PUSH3 0x37E DUP2 PUSH3 0x228 JUMP JUMPDEST PUSH3 0x389 DUP5 PUSH3 0x23D JUMP JUMPDEST DUP2 ADD PUSH1 0x20 DUP6 LT ISZERO PUSH3 0x399 JUMPI DUP2 SWAP1 POP JUMPDEST PUSH3 0x3B1 PUSH3 0x3A8 DUP6 PUSH3 0x23D JUMP JUMPDEST DUP4 ADD DUP3 PUSH3 0x342 JUMP JUMPDEST POP POP JUMPDEST POP POP POP JUMP JUMPDEST PUSH1 0x0 DUP3 DUP3 SHR SWAP1 POP SWAP3 SWAP2 POP POP JUMP JUMPDEST PUSH1 0x0 PUSH3 0x3D9 PUSH1 0x0 NOT DUP5 PUSH1 0x8 MUL PUSH3 0x3B9 JUMP JUMPDEST NOT DUP1 DUP4 AND SWAP2 POP POP SWAP3 SWAP2 POP POP JUMP JUMPDEST PUSH1 0x0 PUSH3 0x3F4 DUP4 DUP4 PUSH3 0x3C6 JUMP JUMPDEST SWAP2 POP DUP3 PUSH1 0x2 MUL DUP3 OR SWAP1 POP SWAP3 SWAP2 POP POP JUMP JUMPDEST PUSH3 0x40F DUP3 PUSH3 0x18A JUMP JUMPDEST PUSH8 0xFFFFFFFFFFFFFFFF DUP2 GT ISZERO PUSH3 0x42B JUMPI PUSH3 0x42A PUSH3 0x195 JUMP JUMPDEST JUMPDEST PUSH3 0x437 DUP3 SLOAD PUSH3 0x1F3 JUMP JUMPDEST PUSH3 0x444 DUP3 DUP3 DUP6 PUSH3 0x369 JUMP JUMPDEST PUSH1 0x0 PUSH1 0x20 SWAP1 POP PUSH1 0x1F DUP4 GT PUSH1 0x1 DUP2 EQ PUSH3 0x47C JUMPI PUSH1 0x0 DUP5 ISZERO PUSH3 0x467 JUMPI DUP3 DUP8 ADD MLOAD SWAP1 POP JUMPDEST PUSH3 0x473 DUP6 DUP3 PUSH3 0x3E6 JUMP JUMPDEST DUP7 SSTORE POP PUSH3 0x4E3 JUMP JUMPDEST PUSH1 0x1F NOT DUP5 AND PUSH3 0x48C DUP7 PUSH3 0x228 JUMP JUMPDEST PUSH1 0x0 JUMPDEST DUP3 DUP2 LT ISZERO PUSH3 0x4B6 JUMPI DUP5 DUP10 ADD MLOAD DUP3 SSTORE PUSH1 0x1 DUP3 ADD SWAP2 POP PUSH1 0x20 DUP6 ADD SWAP5 POP PUSH1 0x20 DUP2 ADD SWAP1 POP PUSH3 0x48F JUMP JUMPDEST DUP7 DUP4 LT ISZERO PUSH3 0x4D6 JUMPI DUP5 DUP10 ADD MLOAD PUSH3 0x4D2 PUSH1 0x1F DUP10 AND DUP3 PUSH3 0x3C6 JUMP JUMPDEST DUP4 SSTORE POP JUMPDEST PUSH1 0x1 PUSH1 0x2 DUP9 MUL ADD DUP9 SSTORE POP POP POP JUMPDEST POP POP POP POP POP POP JUMP JUMPDEST PUSH1 0x0 PUSH1 0x40 MLOAD SWAP1 POP SWAP1 JUMP JUMPDEST PUSH1 0x0 DUP1 REVERT JUMPDEST PUSH1 0x0 DUP1 REVERT JUMPDEST PUSH1 0x0 DUP1 REVERT JUMPDEST PUSH1 0x0 DUP1 REVERT JUMPDEST PUSH1 0x0 PUSH1 0x1F NOT PUSH1 0x1F DUP4 ADD AND SWAP1 POP SWAP2 SWAP1 POP JUMP JUMPDEST PUSH3 0x525 DUP3 PUSH3 0x509 JUMP JUMPDEST DUP2 ADD DUP2 DUP2 LT PUSH8 0xFFFFFFFFFFFFFFFF DUP3 GT OR ISZERO PUSH3 0x547 JUMPI PUSH3 0x546 PUSH3 0x195 JUMP JUMPDEST JUMPDEST DUP1 PUSH1 0x40 MSTORE POP POP POP JUMP JUMPDEST PUSH1 0x0 PUSH3 0x55C PUSH3 0x4EB JUMP JUMPDEST SWAP1 POP PUSH3 0x56A DUP3 DUP3 PUSH3 0x51A JUMP JUMPDEST SWAP2 SWAP1 POP JUMP JUMPDEST PUSH1 0x0 PUSH8 0xFFFFFFFFFFFFFFFF DUP3 GT ISZERO PUSH3 0x58D JUMPI PUSH3 0x58C PUSH3 0x195 JUMP JUMPDEST JUMPDEST PUSH3 0x598 DUP3 PUSH3 0x509 JUMP JUMPDEST SWAP1 POP PUSH1 0x20 DUP2 ADD SWAP1 POP SWAP2 SWAP1 POP JUMP JUMPDEST PUSH1 0x0 JUMPDEST DUP4 DUP2 LT ISZERO PUSH3 0x5C5 JUMPI DUP1 DUP3 ADD MLOAD DUP2 DUP5 ADD MSTORE PUSH1 0x20 DUP2 ADD SWAP1 POP PUSH3 0x5A8 JUMP JUMPDEST DUP4 DUP2 GT ISZERO PUSH3 0x5D5 JUMPI PUSH1 0x0 DUP5 DUP5 ADD MSTORE JUMPDEST POP POP POP POP JUMP JUMPDEST PUSH1 0x0 PUSH3 0x5F2 PUSH3 0x5EC DUP5 PUSH3 0x56F JUMP JUMPDEST PUSH3 0x550 JUMP JUMPDEST SWAP1 POP DUP3 DUP2 MSTORE PUSH1 0x20 DUP2 ADD DUP5 DUP5 DUP5 ADD GT ISZERO PUSH3 0x611 JUMPI PUSH3 0x610 PUSH3 0x504 JUMP JUMPDEST JUMPDEST PUSH3 0x61E DUP5 DUP3 DUP6 PUSH3 0x5A5 JUMP JUMPDEST POP SWAP4 SWAP3 POP POP POP JUMP JUMPDEST PUSH1 0x0 DUP3 PUSH1 0x1F DUP4 ADD SLT PUSH3 0x63E JUMPI PUSH3 0x63D PUSH3 0x4FF JUMP JUMPDEST JUMPDEST DUP2 MLOAD PUSH3 0x650 DUP5 DUP3 PUSH1 0x20 DUP7 ADD PUSH3 0x5DB JUMP JUMPDEST SWAP2 POP POP SWAP3 SWAP2 POP POP JUMP JUMPDEST PUSH1 0x0 PUSH1 0x20 DUP3 DUP5 SUB SLT ISZERO PUSH3 0x672 JUMPI PUSH3 0x671 PUSH3 0x4F5 JUMP JUMPDEST JUMPDEST PUSH1 0x0 DUP3 ADD MLOAD PUSH8 0xFFFFFFFFFFFFFFFF DUP2 GT ISZERO PUSH3 0x693 JUMPI PUSH3 0x692 PUSH3 0x4FA JUMP JUMPDEST JUMPDEST PUSH3 0x6A1 DUP5 DUP3 DUP6 ADD PUSH3 0x626 JUMP JUMPDEST SWAP2 POP POP SWAP3 SWAP2 POP POP JUMP JUMPDEST PUSH2 0x4624 DUP1 PUSH3 0x6BA PUSH1 0x0 CODECOPY PUSH1 0x0 RETURN INVALID PUSH1 0x80 PUSH1 0x40 MSTORE PUSH1 0x4 CALLDATASIZE LT PUSH2 0x1B7 JUMPI PUSH1 0x0 CALLDATALOAD PUSH1 0xE0 SHR DUP1 PUSH4 0x8ADA066E GT PUSH2 0xEC JUMPI DUP1 PUSH4 0xBF40FAC1 GT PUSH2 0x8A JUMPI DUP1 PUSH4 0xE985E9C5 GT PUSH2 0x64 JUMPI DUP1 PUSH4 0xE985E9C5 EQ PUSH2 0x66A JUMPI DUP1 PUSH4 0xF2C298BE EQ PUSH2 0x6A7 JUMPI DUP1 PUSH4 0xFB825E5F EQ PUSH2 0x6C3 JUMPI DUP1 PUSH4 0xFE2C6198 EQ PUSH2 0x6EE JUMPI PUSH2 0x1B7 JUMP JUMPDEST DUP1 PUSH4 0xBF40FAC1 EQ PUSH2 0x5C7 JUMPI DUP1 PUSH4 0xC1880A98 EQ PUSH2 0x604 JUMPI DUP1 PUSH4 0xC87B56DD EQ PUSH2 0x62D JUMPI PUSH2 0x1B7 JUMP JUMPDEST DUP1 PUSH4 0x95D89B41 GT PUSH2 0xC6 JUMPI DUP1 PUSH4 0x95D89B41 EQ PUSH2 0x50D JUMPI DUP1 PUSH4 0x9791C097 EQ PUSH2 0x538 JUMPI DUP1 PUSH4 0xA22CB465 EQ PUSH2 0x575 JUMPI DUP1 PUSH4 0xB88D4FDE EQ PUSH2 0x59E JUMPI PUSH2 0x1B7 JUMP JUMPDEST DUP1 PUSH4 0x8ADA066E EQ PUSH2 0x48C JUMPI DUP1 PUSH4 0x8DA5CB5B EQ PUSH2 0x4B7 JUMPI DUP1 PUSH4 0x8F32D59B EQ PUSH2 0x4E2 JUMPI PUSH2 0x1B7 JUMP JUMPDEST DUP1 PUSH4 0x2D551432 GT PUSH2 0x159 JUMPI DUP1 PUSH4 0x4622AB03 GT PUSH2 0x133 JUMPI DUP1 PUSH4 0x4622AB03 EQ PUSH2 0x398 JUMPI DUP1 PUSH4 0x541E771D EQ PUSH2 0x3D5 JUMPI DUP1 PUSH4 0x6352211E EQ PUSH2 0x412 JUMPI DUP1 PUSH4 0x70A08231 EQ PUSH2 0x44F JUMPI PUSH2 0x1B7 JUMP JUMPDEST DUP1 PUSH4 0x2D551432 EQ PUSH2 0x32D JUMPI DUP1 PUSH4 0x3CCFD60B EQ PUSH2 0x358 JUMPI DUP1 PUSH4 0x42842E0E EQ PUSH2 0x36F JUMPI PUSH2 0x1B7 JUMP JUMPDEST DUP1 PUSH4 0x95EA7B3 GT PUSH2 0x195 JUMPI DUP1 PUSH4 0x95EA7B3 EQ PUSH2 0x261 JUMPI DUP1 PUSH4 0x11DD8845 EQ PUSH2 0x28A JUMPI DUP1 PUSH4 0x23B872DD EQ PUSH2 0x2C7 JUMPI DUP1 PUSH4 0x26449235 EQ PUSH2 0x2F0 JUMPI PUSH2 0x1B7 JUMP JUMPDEST DUP1 PUSH4 0x1FFC9A7 EQ PUSH2 0x1BC JUMPI DUP1 PUSH4 0x6FDDE03 EQ PUSH2 0x1F9 JUMPI DUP1 PUSH4 0x81812FC EQ PUSH2 0x224 JUMPI JUMPDEST PUSH1 0x0 DUP1 REVERT JUMPDEST CALLVALUE DUP1 ISZERO PUSH2 0x1C8 JUMPI PUSH1 0x0 DUP1 REVERT JUMPDEST POP PUSH2 0x1E3 PUSH1 0x4 DUP1 CALLDATASIZE SUB DUP2 ADD SWAP1 PUSH2 0x1DE SWAP2 SWAP1 PUSH2 0x29F6 JUMP JUMPDEST PUSH2 0x72B JUMP JUMPDEST PUSH1 0x40 MLOAD PUSH2 0x1F0 SWAP2 SWAP1 PUSH2 0x2A3E JUMP JUMPDEST PUSH1 0x40 MLOAD DUP1 SWAP2 SUB SWAP1 RETURN JUMPDEST CALLVALUE DUP1 ISZERO PUSH2 0x205 JUMPI PUSH1 0x0 DUP1 REVERT JUMPDEST POP PUSH2 0x20E PUSH2 0x80D JUMP JUMPDEST PUSH1 0x40 MLOAD PUSH2 0x21B SWAP2 SWAP1 PUSH2 0x2AF2 JUMP JUMPDEST PUSH1 0x40 MLOAD DUP1 SWAP2 SUB SWAP1 RETURN JUMPDEST CALLVALUE DUP1 ISZERO PUSH2 0x230 JUMPI PUSH1 0x0 DUP1 REVERT JUMPDEST POP PUSH2 0x24B PUSH1 0x4 DUP1 CALLDATASIZE SUB DUP2 ADD SWAP1 PUSH2 0x246 SWAP2 SWAP1 PUSH2 0x2B4A JUMP JUMPDEST PUSH2 0x89F JUMP JUMPDEST PUSH1 0x40 MLOAD PUSH2 0x258 SWAP2 SWAP1 PUSH2 0x2BB8 JUMP JUMPDEST PUSH1 0x40 MLOAD DUP1 SWAP2 SUB SWAP1 RETURN JUMPDEST CALLVALUE DUP1 ISZERO PUSH2 0x26D JUMPI PUSH1 0x0 DUP1 REVERT JUMPDEST POP PUSH2 0x288 PUSH1 0x4 DUP1 CALLDATASIZE SUB DUP2 ADD SWAP1 PUSH2 0x283 SWAP2 SWAP1 PUSH2 0x2BFF JUMP JUMPDEST PUSH2 0x924 JUMP JUMPDEST STOP JUMPDEST CALLVALUE DUP1 ISZERO PUSH2 0x296 JUMPI PUSH1 0x0 DUP1 REVERT JUMPDEST POP PUSH2 0x2B1 PUSH1 0x4 DUP1 CALLDATASIZE SUB DUP2 ADD SWAP1 PUSH2 0x2AC SWAP2 SWAP1 PUSH2 0x2D74 JUMP JUMPDEST PUSH2 0xA3B JUMP JUMPDEST PUSH1 0x40 MLOAD PUSH2 0x2BE SWAP2 SWAP1 PUSH2 0x2AF2 JUMP JUMPDEST PUSH1 0x40 MLOAD DUP1 SWAP2 SUB SWAP1 RETURN JUMPDEST CALLVALUE DUP1 ISZERO PUSH2 0x2D3 JUMPI PUSH1 0x0 DUP1 REVERT JUMPDEST POP PUSH2 0x2EE PUSH1 0x4 DUP1 CALLDATASIZE SUB DUP2 ADD SWAP1 PUSH2 0x2E9 SWAP2 SWAP1 PUSH2 0x2DBD JUMP JUMPDEST PUSH2 0xAEB JUMP JUMPDEST STOP JUMPDEST CALLVALUE DUP1 ISZERO PUSH2 0x2FC JUMPI PUSH1 0x0 DUP1 REVERT JUMPDEST POP PUSH2 0x317 PUSH1 0x4 DUP1 CALLDATASIZE SUB DUP2 ADD SWAP1 PUSH2 0x312 SWAP2 SWAP1 PUSH2 0x2D74 JUMP JUMPDEST PUSH2 0xB4B JUMP JUMPDEST PUSH1 0x40 MLOAD PUSH2 0x324 SWAP2 SWAP1 PUSH2 0x2BB8 JUMP JUMPDEST PUSH1 0x40 MLOAD DUP1 SWAP2 SUB SWAP1 RETURN JUMPDEST CALLVALUE DUP1 ISZERO PUSH2 0x339 JUMPI PUSH1 0x0 DUP1 REVERT JUMPDEST POP PUSH2 0x342 PUSH2 0xB94 JUMP JUMPDEST PUSH1 0x40 MLOAD PUSH2 0x34F SWAP2 SWAP1 PUSH2 0x2AF2 JUMP JUMPDEST PUSH1 0x40 MLOAD DUP1 SWAP2 SUB SWAP1 RETURN JUMPDEST CALLVALUE DUP1 ISZERO PUSH2 0x364 JUMPI PUSH1 0x0 DUP1 REVERT JUMPDEST POP PUSH2 0x36D PUSH2 0xC22 JUMP JUMPDEST STOP JUMPDEST CALLVALUE DUP1 ISZERO PUSH2 0x37B JUMPI PUSH1 0x0 DUP1 REVERT JUMPDEST POP PUSH2 0x396 PUSH1 0x4 DUP1 CALLDATASIZE SUB DUP2 ADD SWAP1 PUSH2 0x391 SWAP2 SWAP1 PUSH2 0x2DBD JUMP JUMPDEST PUSH2 0xCE8 JUMP JUMPDEST STOP JUMPDEST CALLVALUE DUP1 ISZERO PUSH2 0x3A4 JUMPI PUSH1 0x0 DUP1 REVERT JUMPDEST POP PUSH2 0x3BF PUSH1 0x4 DUP1 CALLDATASIZE SUB DUP2 ADD SWAP1 PUSH2 0x3BA SWAP2 SWAP1 PUSH2 0x2B4A JUMP JUMPDEST PUSH2 0xD08 JUMP JUMPDEST PUSH1 0x40 MLOAD PUSH2 0x3CC SWAP2 SWAP1 PUSH2 0x2AF2 JUMP JUMPDEST PUSH1 0x40 MLOAD DUP1 SWAP2 SUB SWAP1 RETURN JUMPDEST CALLVALUE DUP1 ISZERO PUSH2 0x3E1 JUMPI PUSH1 0x0 DUP1 REVERT JUMPDEST POP PUSH2 0x3FC PUSH1 0x4 DUP1 CALLDATASIZE SUB DUP2 ADD SWAP1 PUSH2 0x3F7 SWAP2 SWAP1 PUSH2 0x2D74 JUMP JUMPDEST PUSH2 0xDA8 JUMP JUMPDEST PUSH1 0x40 MLOAD PUSH2 0x409 SWAP2 SWAP1 PUSH2 0x2AF2 JUMP JUMPDEST PUSH1 0x40 MLOAD DUP1 SWAP2 SUB SWAP1 RETURN JUMPDEST CALLVALUE DUP1 ISZERO PUSH2 0x41E JUMPI PUSH1 0x0 DUP1 REVERT JUMPDEST POP PUSH2 0x439 PUSH1 0x4 DUP1 CALLDATASIZE SUB DUP2 ADD SWAP1 PUSH2 0x434 SWAP2 SWAP1 PUSH2 0x2B4A JUMP JUMPDEST PUSH2 0xE5E JUMP JUMPDEST PUSH1 0x40 MLOAD PUSH2 0x446 SWAP2 SWAP1 PUSH2 0x2BB8 JUMP JUMPDEST PUSH1 0x40 MLOAD DUP1 SWAP2 SUB SWAP1 RETURN JUMPDEST CALLVALUE DUP1 ISZERO PUSH2 0x45B JUMPI PUSH1 0x0 DUP1 REVERT JUMPDEST POP PUSH2 0x476 PUSH1 0x4 DUP1 CALLDATASIZE SUB DUP2 ADD SWAP1 PUSH2 0x471 SWAP2 SWAP1 PUSH2 0x2E10 JUMP JUMPDEST PUSH2 0xF0F JUMP JUMPDEST PUSH1 0x40 MLOAD PUSH2 0x483 SWAP2 SWAP1 PUSH2 0x2E4C JUMP JUMPDEST PUSH1 0x40 MLOAD DUP1 SWAP2 SUB SWAP1 RETURN JUMPDEST CALLVALUE DUP1 ISZERO PUSH2 0x498 JUMPI PUSH1 0x0 DUP1 REVERT JUMPDEST POP PUSH2 0x4A1 PUSH2 0xFC6 JUMP JUMPDEST PUSH1 0x40 MLOAD PUSH2 0x4AE SWAP2 SWAP1 PUSH2 0x2E4C JUMP JUMPDEST PUSH1 0x40 MLOAD DUP1 SWAP2 SUB SWAP1 RETURN JUMPDEST CALLVALUE DUP1 ISZERO PUSH2 0x4C3 JUMPI PUSH1 0x0 DUP1 REVERT JUMPDEST POP PUSH2 0x4CC PUSH2 0xFD7 JUMP JUMPDEST PUSH1 0x40 MLOAD PUSH2 0x4D9 SWAP2 SWAP1 PUSH2 0x2E88 JUMP JUMPDEST PUSH1 0x40 MLOAD DUP1 SWAP2 SUB SWAP1 RETURN JUMPDEST CALLVALUE DUP1 ISZERO PUSH2 0x4EE JUMPI PUSH1 0x0 DUP1 REVERT JUMPDEST POP PUSH2 0x4F7 PUSH2 0xFFD JUMP JUMPDEST PUSH1 0x40 MLOAD PUSH2 0x504 SWAP2 SWAP1 PUSH2 0x2A3E JUMP JUMPDEST PUSH1 0x40 MLOAD DUP1 SWAP2 SUB SWAP1 RETURN JUMPDEST CALLVALUE DUP1 ISZERO PUSH2 0x519 JUMPI PUSH1 0x0 DUP1 REVERT JUMPDEST POP PUSH2 0x522 PUSH2 0x1055 JUMP JUMPDEST PUSH1 0x40 MLOAD PUSH2 0x52F SWAP2 SWAP1 PUSH2 0x2AF2 JUMP JUMPDEST PUSH1 0x40 MLOAD DUP1 SWAP2 SUB SWAP1 RETURN JUMPDEST CALLVALUE DUP1 ISZERO PUSH2 0x544 JUMPI PUSH1 0x0 DUP1 REVERT JUMPDEST POP PUSH2 0x55F PUSH1 0x4 DUP1 CALLDATASIZE SUB DUP2 ADD SWAP1 PUSH2 0x55A SWAP2 SWAP1 PUSH2 0x2D74 JUMP JUMPDEST PUSH2 0x10E7 JUMP JUMPDEST PUSH1 0x40 MLOAD PUSH2 0x56C SWAP2 SWAP1 PUSH2 0x2A3E JUMP JUMPDEST PUSH1 0x40 MLOAD DUP1 SWAP2 SUB SWAP1 RETURN JUMPDEST CALLVALUE DUP1 ISZERO PUSH2 0x581 JUMPI PUSH1 0x0 DUP1 REVERT JUMPDEST POP PUSH2 0x59C PUSH1 0x4 DUP1 CALLDATASIZE SUB DUP2 ADD SWAP1 PUSH2 0x597 SWAP2 SWAP1 PUSH2 0x2ECF JUMP JUMPDEST PUSH2 0x1112 JUMP JUMPDEST STOP JUMPDEST CALLVALUE DUP1 ISZERO PUSH2 0x5AA JUMPI PUSH1 0x0 DUP1 REVERT JUMPDEST POP PUSH2 0x5C5 PUSH1 0x4 DUP1 CALLDATASIZE SUB DUP2 ADD SWAP1 PUSH2 0x5C0 SWAP2 SWAP1 PUSH2 0x2FB0 JUMP JUMPDEST PUSH2 0x1128 JUMP JUMPDEST STOP JUMPDEST CALLVALUE DUP1 ISZERO PUSH2 0x5D3 JUMPI PUSH1 0x0 DUP1 REVERT JUMPDEST POP PUSH2 0x5EE PUSH1 0x4 DUP1 CALLDATASIZE SUB DUP2 ADD SWAP1 PUSH2 0x5E9 SWAP2 SWAP1 PUSH2 0x2D74 JUMP JUMPDEST PUSH2 0x118A JUMP JUMPDEST PUSH1 0x40 MLOAD PUSH2 0x5FB SWAP2 SWAP1 PUSH2 0x2BB8 JUMP JUMPDEST PUSH1 0x40 MLOAD DUP1 SWAP2 SUB SWAP1 RETURN JUMPDEST CALLVALUE DUP1 ISZERO PUSH2 0x610 JUMPI PUSH1 0x0 DUP1 REVERT JUMPDEST POP PUSH2 0x62B PUSH1 0x4 DUP1 CALLDATASIZE SUB DUP2 ADD SWAP1 PUSH2 0x626 SWAP2 SWAP1 PUSH2 0x3033 JUMP JUMPDEST PUSH2 0x11D2 JUMP JUMPDEST STOP JUMPDEST CALLVALUE DUP1 ISZERO PUSH2 0x639 JUMPI PUSH1 0x0 DUP1 REVERT JUMPDEST POP PUSH2 0x654 PUSH1 0x4 DUP1 CALLDATASIZE SUB DUP2 ADD SWAP1 PUSH2 0x64F SWAP2 SWAP1 PUSH2 0x2B4A JUMP JUMPDEST PUSH2 0x12A5 JUMP JUMPDEST PUSH1 0x40 MLOAD PUSH2 0x661 SWAP2 SWAP1 PUSH2 0x2AF2 JUMP JUMPDEST PUSH1 0x40 MLOAD DUP1 SWAP2 SUB SWAP1 RETURN JUMPDEST CALLVALUE DUP1 ISZERO PUSH2 0x676 JUMPI PUSH1 0x0 DUP1 REVERT JUMPDEST POP PUSH2 0x691 PUSH1 0x4 DUP1 CALLDATASIZE SUB DUP2 ADD SWAP1 PUSH2 0x68C SWAP2 SWAP1 PUSH2 0x30AB JUMP JUMPDEST PUSH2 0x13F6 JUMP JUMPDEST PUSH1 0x40 MLOAD PUSH2 0x69E SWAP2 SWAP1 PUSH2 0x2A3E JUMP JUMPDEST PUSH1 0x40 MLOAD DUP1 SWAP2 SUB SWAP1 RETURN JUMPDEST PUSH2 0x6C1 PUSH1 0x4 DUP1 CALLDATASIZE SUB DUP2 ADD SWAP1 PUSH2 0x6BC SWAP2 SWAP1 PUSH2 0x2D74 JUMP JUMPDEST PUSH2 0x148A JUMP JUMPDEST STOP JUMPDEST CALLVALUE DUP1 ISZERO PUSH2 0x6CF JUMPI PUSH1 0x0 DUP1 REVERT JUMPDEST POP PUSH2 0x6D8 PUSH2 0x1744 JUMP JUMPDEST PUSH1 0x40 MLOAD PUSH2 0x6E5 SWAP2 SWAP1 PUSH2 0x31F7 JUMP JUMPDEST PUSH1 0x40 MLOAD DUP1 SWAP2 SUB SWAP1 RETURN JUMPDEST CALLVALUE DUP1 ISZERO PUSH2 0x6FA JUMPI PUSH1 0x0 DUP1 REVERT JUMPDEST POP PUSH2 0x715 PUSH1 0x4 DUP1 CALLDATASIZE SUB DUP2 ADD SWAP1 PUSH2 0x710 SWAP2 SWAP1 PUSH2 0x2D74 JUMP JUMPDEST PUSH2 0x188A JUMP JUMPDEST PUSH1 0x40 MLOAD PUSH2 0x722 SWAP2 SWAP1 PUSH2 0x2E4C JUMP JUMPDEST PUSH1 0x40 MLOAD DUP1 SWAP2 SUB SWAP1 RETURN JUMPDEST PUSH1 0x0 PUSH32 0x80AC58CD00000000000000000000000000000000000000000000000000000000 PUSH28 0xFFFFFFFFFFFFFFFFFFFFFFFFFFFFFFFFFFFFFFFFFFFFFFFFFFFFFFFF NOT AND DUP3 PUSH28 0xFFFFFFFFFFFFFFFFFFFFFFFFFFFFFFFFFFFFFFFFFFFFFFFFFFFFFFFF NOT AND EQ DUP1 PUSH2 0x7F6 JUMPI POP PUSH32 0x5B5E139F00000000000000000000000000000000000000000000000000000000 PUSH28 0xFFFFFFFFFFFFFFFFFFFFFFFFFFFFFFFFFFFFFFFFFFFFFFFFFFFFFFFF NOT AND DUP3 PUSH28 0xFFFFFFFFFFFFFFFFFFFFFFFFFFFFFFFFFFFFFFFFFFFFFFFFFFFFFFFF NOT AND EQ JUMPDEST DUP1 PUSH2 0x806 JUMPI POP PUSH2 0x805 DUP3 PUSH2 0x18E6 JUMP JUMPDEST JUMPDEST SWAP1 POP SWAP2 SWAP1 POP JUMP JUMPDEST PUSH1 0x60 PUSH1 0x0 DUP1 SLOAD PUSH2 0x81C SWAP1 PUSH2 0x3248 JUMP JUMPDEST DUP1 PUSH1 0x1F ADD PUSH1 0x20 DUP1 SWAP2 DIV MUL PUSH1 0x20 ADD PUSH1 0x40 MLOAD SWAP1 DUP2 ADD PUSH1 0x40 MSTORE DUP1 SWAP3 SWAP2 SWAP1 DUP2 DUP2 MSTORE PUSH1 0x20 ADD DUP3 DUP1 SLOAD PUSH2 0x848 SWAP1 PUSH2 0x3248 JUMP JUMPDEST DUP1 ISZERO PUSH2 0x895 JUMPI DUP1 PUSH1 0x1F LT PUSH2 0x86A JUMPI PUSH2 0x100 DUP1 DUP4 SLOAD DIV MUL DUP4 MSTORE SWAP2 PUSH1 0x20 ADD SWAP2 PUSH2 0x895 JUMP JUMPDEST DUP3 ADD SWAP2 SWAP1 PUSH1 0x0 MSTORE PUSH1 0x20 PUSH1 0x0 KECCAK256 SWAP1 JUMPDEST DUP2 SLOAD DUP2 MSTORE SWAP1 PUSH1 0x1 ADD SWAP1 PUSH1 0x20 ADD DUP1 DUP4 GT PUSH2 0x878 JUMPI DUP3 SWAP1 SUB PUSH1 0x1F AND DUP3 ADD SWAP2 JUMPDEST POP POP POP POP POP SWAP1 POP SWAP1 JUMP JUMPDEST PUSH1 0x0 PUSH2 0x8AA DUP3 PUSH2 0x1950 JUMP JUMPDEST PUSH2 0x8E9 JUMPI PUSH1 0x40 MLOAD PUSH32 0x8C379A000000000000000000000000000000000000000000000000000000000 DUP2 MSTORE PUSH1 0x4 ADD PUSH2 0x8E0 SWAP1 PUSH2 0x32EB JUMP JUMPDEST PUSH1 0x40 MLOAD DUP1 SWAP2 SUB SWAP1 REVERT JUMPDEST PUSH1 0x4 PUSH1 0x0 DUP4 DUP2 MSTORE PUSH1 0x20 ADD SWAP1 DUP2 MSTORE PUSH1 0x20 ADD PUSH1 0x0 KECCAK256 PUSH1 0x0 SWAP1 SLOAD SWAP1 PUSH2 0x100 EXP SWAP1 DIV PUSH20 0xFFFFFFFFFFFFFFFFFFFFFFFFFFFFFFFFFFFFFFFF AND SWAP1 POP SWAP2 SWAP1 POP JUMP JUMPDEST PUSH1 0x0 PUSH2 0x92F DUP3 PUSH2 0xE5E JUMP JUMPDEST SWAP1 POP DUP1 PUSH20 0xFFFFFFFFFFFFFFFFFFFFFFFFFFFFFFFFFFFFFFFF AND DUP4 PUSH20 0xFFFFFFFFFFFFFFFFFFFFFFFFFFFFFFFFFFFFFFFF AND SUB PUSH2 0x99F JUMPI PUSH1 0x40 MLOAD PUSH32 0x8C379A000000000000000000000000000000000000000000000000000000000 DUP2 MSTORE PUSH1 0x4 ADD PUSH2 0x996 SWAP1 PUSH2 0x337D JUMP JUMPDEST PUSH1 0x40 MLOAD DUP1 SWAP2 SUB SWAP1 REVERT JUMPDEST DUP1 PUSH20 0xFFFFFFFFFFFFFFFFFFFFFFFFFFFFFFFFFFFFFFFF AND PUSH2 0x9BE PUSH2 0x19BC JUMP JUMPDEST PUSH20 0xFFFFFFFFFFFFFFFFFFFFFFFFFFFFFFFFFFFFFFFF AND EQ DUP1 PUSH2 0x9ED JUMPI POP PUSH2 0x9EC DUP2 PUSH2 0x9E7 PUSH2 0x19BC JUMP JUMPDEST PUSH2 0x13F6 JUMP JUMPDEST JUMPDEST PUSH2 0xA2C JUMPI PUSH1 0x40 MLOAD PUSH32 0x8C379A000000000000000000000000000000000000000000000000000000000 DUP2 MSTORE PUSH1 0x4 ADD PUSH2 0xA23 SWAP1 PUSH2 0x340F JUMP JUMPDEST PUSH1 0x40 MLOAD DUP1 SWAP2 SUB SWAP1 REVERT JUMPDEST PUSH2 0xA36 DUP4 DUP4 PUSH2 0x19C4 JUMP JUMPDEST POP POP POP JUMP JUMPDEST PUSH1 0x60 PUSH1 0xD DUP3 PUSH1 0x40 MLOAD PUSH2 0xA4D SWAP2 SWAP1 PUSH2 0x346B JUMP JUMPDEST SWAP1 DUP2 MSTORE PUSH1 0x20 ADD PUSH1 0x40 MLOAD DUP1 SWAP2 SUB SWAP1 KECCAK256 DUP1 SLOAD PUSH2 0xA66 SWAP1 PUSH2 0x3248 JUMP JUMPDEST DUP1 PUSH1 0x1F ADD PUSH1 0x20 DUP1 SWAP2 DIV MUL PUSH1 0x20 ADD PUSH1 0x40 MLOAD SWAP1 DUP2 ADD PUSH1 0x40 MSTORE DUP1 SWAP3 SWAP2 SWAP1 DUP2 DUP2 MSTORE PUSH1 0x20 ADD DUP3 DUP1 SLOAD PUSH2 0xA92 SWAP1 PUSH2 0x3248 JUMP JUMPDEST DUP1 ISZERO PUSH2 0xADF JUMPI DUP1 PUSH1 0x1F LT PUSH2 0xAB4 JUMPI PUSH2 0x100 DUP1 DUP4 SLOAD DIV MUL DUP4 MSTORE SWAP2 PUSH1 0x20 ADD SWAP2 PUSH2 0xADF JUMP JUMPDEST DUP3 ADD SWAP2 SWAP1 PUSH1 0x0 MSTORE PUSH1 0x20 PUSH1 0x0 KECCAK256 SWAP1 JUMPDEST DUP2 SLOAD DUP2 MSTORE SWAP1 PUSH1 0x1 ADD SWAP1 PUSH1 0x20 ADD DUP1 DUP4 GT PUSH2 0xAC2 JUMPI DUP3 SWAP1 SUB PUSH1 0x1F AND DUP3 ADD SWAP2 JUMPDEST POP POP POP POP POP SWAP1 POP SWAP2 SWAP1 POP JUMP JUMPDEST PUSH2 0xAFC PUSH2 0xAF6 PUSH2 0x19BC JUMP JUMPDEST DUP3 PUSH2 0x1A7D JUMP JUMPDEST PUSH2 0xB3B JUMPI PUSH1 0x40 MLOAD PUSH32 0x8C379A000000000000000000000000000000000000000000000000000000000 DUP2 MSTORE PUSH1 0x4 ADD PUSH2 0xB32 SWAP1 PUSH2 0x34F4 JUMP JUMPDEST PUSH1 0x40 MLOAD DUP1 SWAP2 SUB SWAP1 REVERT JUMPDEST PUSH2 0xB46 DUP4 DUP4 DUP4 PUSH2 0x1B5B JUMP JUMPDEST POP POP POP JUMP JUMPDEST PUSH1 0xC DUP2 DUP1 MLOAD PUSH1 0x20 DUP2 ADD DUP3 ADD DUP1 MLOAD DUP5 DUP3 MSTORE PUSH1 0x20 DUP4 ADD PUSH1 0x20 DUP6 ADD KECCAK256 DUP2 DUP4 MSTORE DUP1 SWAP6 POP POP POP POP POP POP PUSH1 0x0 SWAP2 POP SLOAD SWAP1 PUSH2 0x100 EXP SWAP1 DIV PUSH20 0xFFFFFFFFFFFFFFFFFFFFFFFFFFFFFFFFFFFFFFFF AND DUP2 JUMP JUMPDEST PUSH1 0x9 DUP1 SLOAD PUSH2 0xBA1 SWAP1 PUSH2 0x3248 JUMP JUMPDEST DUP1 PUSH1 0x1F ADD PUSH1 0x20 DUP1 SWAP2 DIV MUL PUSH1 0x20 ADD PUSH1 0x40 MLOAD SWAP1 DUP2 ADD PUSH1 0x40 MSTORE DUP1 SWAP3 SWAP2 SWAP1 DUP2 DUP2 MSTORE PUSH1 0x20 ADD DUP3 DUP1 SLOAD PUSH2 0xBCD SWAP1 PUSH2 0x3248 JUMP JUMPDEST DUP1 ISZERO PUSH2 0xC1A JUMPI DUP1 PUSH1 0x1F LT PUSH2 0xBEF JUMPI PUSH2 0x100 DUP1 DUP4 SLOAD DIV MUL DUP4 MSTORE SWAP2 PUSH1 0x20 ADD SWAP2 PUSH2 0xC1A JUMP JUMPDEST DUP3 ADD SWAP2 SWAP1 PUSH1 0x0 MSTORE PUSH1 0x20 PUSH1 0x0 KECCAK256 SWAP1 JUMPDEST DUP2 SLOAD DUP2 MSTORE SWAP1 PUSH1 0x1 ADD SWAP1 PUSH1 0x20 ADD DUP1 DUP4 GT PUSH2 0xBFD JUMPI DUP3 SWAP1 SUB PUSH1 0x1F AND DUP3 ADD SWAP2 JUMPDEST POP POP POP POP POP DUP2 JUMP JUMPDEST PUSH2 0xC2A PUSH2 0xFFD JUMP JUMPDEST PUSH2 0xC33 JUMPI PUSH1 0x0 DUP1 REVERT JUMPDEST PUSH1 0x0 SELFBALANCE SWAP1 POP PUSH1 0x0 CALLER PUSH20 0xFFFFFFFFFFFFFFFFFFFFFFFFFFFFFFFFFFFFFFFF AND DUP3 PUSH1 0x40 MLOAD PUSH2 0xC5E SWAP1 PUSH2 0x3545 JUMP JUMPDEST PUSH1 0x0 PUSH1 0x40 MLOAD DUP1 DUP4 SUB DUP2 DUP6 DUP8 GAS CALL SWAP3 POP POP POP RETURNDATASIZE DUP1 PUSH1 0x0 DUP2 EQ PUSH2 0xC9B JUMPI PUSH1 0x40 MLOAD SWAP2 POP PUSH1 0x1F NOT PUSH1 0x3F RETURNDATASIZE ADD AND DUP3 ADD PUSH1 0x40 MSTORE RETURNDATASIZE DUP3 MSTORE RETURNDATASIZE PUSH1 0x0 PUSH1 0x20 DUP5 ADD RETURNDATACOPY PUSH2 0xCA0 JUMP JUMPDEST PUSH1 0x60 SWAP2 POP JUMPDEST POP POP SWAP1 POP DUP1 PUSH2 0xCE4 JUMPI PUSH1 0x40 MLOAD PUSH32 0x8C379A000000000000000000000000000000000000000000000000000000000 DUP2 MSTORE PUSH1 0x4 ADD PUSH2 0xCDB SWAP1 PUSH2 0x35A6 JUMP JUMPDEST PUSH1 0x40 MLOAD DUP1 SWAP2 SUB SWAP1 REVERT JUMPDEST POP POP JUMP JUMPDEST PUSH2 0xD03 DUP4 DUP4 DUP4 PUSH1 0x40 MLOAD DUP1 PUSH1 0x20 ADD PUSH1 0x40 MSTORE DUP1 PUSH1 0x0 DUP2 MSTORE POP PUSH2 0x1128 JUMP JUMPDEST POP POP POP JUMP JUMPDEST PUSH1 0xE PUSH1 0x20 MSTORE DUP1 PUSH1 0x0 MSTORE PUSH1 0x40 PUSH1 0x0 KECCAK256 PUSH1 0x0 SWAP2 POP SWAP1 POP DUP1 SLOAD PUSH2 0xD27 SWAP1 PUSH2 0x3248 JUMP JUMPDEST DUP1 PUSH1 0x1F ADD PUSH1 0x20 DUP1 SWAP2 DIV MUL PUSH1 0x20 ADD PUSH1 0x40 MLOAD SWAP1 DUP2 ADD PUSH1 0x40 MSTORE DUP1 SWAP3 SWAP2 SWAP1 DUP2 DUP2 MSTORE PUSH1 0x20 ADD DUP3 DUP1 SLOAD PUSH2 0xD53 SWAP1 PUSH2 0x3248 JUMP JUMPDEST DUP1 ISZERO PUSH2 0xDA0 JUMPI DUP1 PUSH1 0x1F LT PUSH2 0xD75 JUMPI PUSH2 0x100 DUP1 DUP4 SLOAD DIV MUL DUP4 MSTORE SWAP2 PUSH1 0x20 ADD SWAP2 PUSH2 0xDA0 JUMP JUMPDEST DUP3 ADD SWAP2 SWAP1 PUSH1 0x0 MSTORE PUSH1 0x20 PUSH1 0x0 KECCAK256 SWAP1 JUMPDEST DUP2 SLOAD DUP2 MSTORE SWAP1 PUSH1 0x1 ADD SWAP1 PUSH1 0x20 ADD DUP1 DUP4 GT PUSH2 0xD83 JUMPI DUP3 SWAP1 SUB PUSH1 0x1F AND DUP3 ADD SWAP2 JUMPDEST POP POP POP POP POP DUP2 JUMP JUMPDEST PUSH1 0xD DUP2 DUP1 MLOAD PUSH1 0x20 DUP2 ADD DUP3 ADD DUP1 MLOAD DUP5 DUP3 MSTORE PUSH1 0x20 DUP4 ADD PUSH1 0x20 DUP6 ADD KECCAK256 DUP2 DUP4 MSTORE DUP1 SWAP6 POP POP POP POP POP POP PUSH1 0x0 SWAP2 POP SWAP1 POP DUP1 SLOAD PUSH2 0xDDD SWAP1 PUSH2 0x3248 JUMP JUMPDEST DUP1 PUSH1 0x1F ADD PUSH1 0x20 DUP1 SWAP2 DIV MUL PUSH1 0x20 ADD PUSH1 0x40 MLOAD SWAP1 DUP2 ADD PUSH1 0x40 MSTORE DUP1 SWAP3 SWAP2 SWAP1 DUP2 DUP2 MSTORE PUSH1 0x20 ADD DUP3 DUP1 SLOAD PUSH2 0xE09 SWAP1 PUSH2 0x3248 JUMP JUMPDEST DUP1 ISZERO PUSH2 0xE56 JUMPI DUP1 PUSH1 0x1F LT PUSH2 0xE2B JUMPI PUSH2 0x100 DUP1 DUP4 SLOAD DIV MUL DUP4 MSTORE SWAP2 PUSH1 0x20 ADD SWAP2 PUSH2 0xE56 JUMP JUMPDEST DUP3 ADD SWAP2 SWAP1 PUSH1 0x0 MSTORE PUSH1 0x20 PUSH1 0x0 KECCAK256 SWAP1 JUMPDEST DUP2 SLOAD DUP2 MSTORE SWAP1 PUSH1 0x1 ADD SWAP1 PUSH1 0x20 ADD DUP1 DUP4 GT PUSH2 0xE39 JUMPI DUP3 SWAP1 SUB PUSH1 0x1F AND DUP3 ADD SWAP2 JUMPDEST POP POP POP POP POP DUP2 JUMP JUMPDEST PUSH1 0x0 DUP1 PUSH1 0x2 PUSH1 0x0 DUP5 DUP2 MSTORE PUSH1 0x20 ADD SWAP1 DUP2 MSTORE PUSH1 0x20 ADD PUSH1 0x0 KECCAK256 PUSH1 0x0 SWAP1 SLOAD SWAP1 PUSH2 0x100 EXP SWAP1 DIV PUSH20 0xFFFFFFFFFFFFFFFFFFFFFFFFFFFFFFFFFFFFFFFF AND SWAP1 POP PUSH1 0x0 PUSH20 0xFFFFFFFFFFFFFFFFFFFFFFFFFFFFFFFFFFFFFFFF AND DUP2 PUSH20 0xFFFFFFFFFFFFFFFFFFFFFFFFFFFFFFFFFFFFFFFF AND SUB PUSH2 0xF06 JUMPI PUSH1 0x40 MLOAD PUSH32 0x8C379A000000000000000000000000000000000000000000000000000000000 DUP2 MSTORE PUSH1 0x4 ADD PUSH2 0xEFD SWAP1 PUSH2 0x3638 JUMP JUMPDEST PUSH1 0x40 MLOAD DUP1 SWAP2 SUB SWAP1 REVERT JUMPDEST DUP1 SWAP2 POP POP SWAP2 SWAP1 POP JUMP JUMPDEST PUSH1 0x0 DUP1 PUSH20 0xFFFFFFFFFFFFFFFFFFFFFFFFFFFFFFFFFFFFFFFF AND DUP3 PUSH20 0xFFFFFFFFFFFFFFFFFFFFFFFFFFFFFFFFFFFFFFFF AND SUB PUSH2 0xF7F JUMPI PUSH1 0x40 MLOAD PUSH32 0x8C379A000000000000000000000000000000000000000000000000000000000 DUP2 MSTORE PUSH1 0x4 ADD PUSH2 0xF76 SWAP1 PUSH2 0x36CA JUMP JUMPDEST PUSH1 0x40 MLOAD DUP1 SWAP2 SUB SWAP1 REVERT JUMPDEST PUSH1 0x3 PUSH1 0x0 DUP4 PUSH20 0xFFFFFFFFFFFFFFFFFFFFFFFFFFFFFFFFFFFFFFFF AND PUSH20 0xFFFFFFFFFFFFFFFFFFFFFFFFFFFFFFFFFFFFFFFF AND DUP2 MSTORE PUSH1 0x20 ADD SWAP1 DUP2 MSTORE PUSH1 0x20 ADD PUSH1 0x0 KECCAK256 SLOAD SWAP1 POP SWAP2 SWAP1 POP JUMP JUMPDEST PUSH1 0x0 PUSH2 0xFD2 PUSH1 0x8 PUSH2 0x1DC1 JUMP JUMPDEST SWAP1 POP SWAP1 JUMP JUMPDEST PUSH1 0x7 PUSH1 0x0 SWAP1 SLOAD SWAP1 PUSH2 0x100 EXP SWAP1 DIV PUSH20 0xFFFFFFFFFFFFFFFFFFFFFFFFFFFFFFFFFFFFFFFF AND DUP2 JUMP JUMPDEST PUSH1 0x0 PUSH1 0x7 PUSH1 0x0 SWAP1 SLOAD SWAP1 PUSH2 0x100 EXP SWAP1 DIV PUSH20 0xFFFFFFFFFFFFFFFFFFFFFFFFFFFFFFFFFFFFFFFF AND PUSH20 0xFFFFFFFFFFFFFFFFFFFFFFFFFFFFFFFFFFFFFFFF AND CALLER PUSH20 0xFFFFFFFFFFFFFFFFFFFFFFFFFFFFFFFFFFFFFFFF AND EQ SWAP1 POP SWAP1 JUMP JUMPDEST PUSH1 0x60 PUSH1 0x1 DUP1 SLOAD PUSH2 0x1064 SWAP1 PUSH2 0x3248 JUMP JUMPDEST DUP1 PUSH1 0x1F ADD PUSH1 0x20 DUP1 SWAP2 DIV MUL PUSH1 0x20 ADD PUSH1 0x40 MLOAD SWAP1 DUP2 ADD PUSH1 0x40 MSTORE DUP1 SWAP3 SWAP2 SWAP1 DUP2 DUP2 MSTORE PUSH1 0x20 ADD DUP3 DUP1 SLOAD PUSH2 0x1090 SWAP1 PUSH2 0x3248 JUMP JUMPDEST DUP1 ISZERO PUSH2 0x10DD JUMPI DUP1 PUSH1 0x1F LT PUSH2 0x10B2 JUMPI PUSH2 0x100 DUP1 DUP4 SLOAD DIV MUL DUP4 MSTORE SWAP2 PUSH1 0x20 ADD SWAP2 PUSH2 0x10DD JUMP JUMPDEST DUP3 ADD SWAP2 SWAP1 PUSH1 0x0 MSTORE PUSH1 0x20 PUSH1 0x0 KECCAK256 SWAP1 JUMPDEST DUP2 SLOAD DUP2 MSTORE SWAP1 PUSH1 0x1 ADD SWAP1 PUSH1 0x20 ADD DUP1 DUP4 GT PUSH2 0x10C0 JUMPI DUP3 SWAP1 SUB PUSH1 0x1F AND DUP3 ADD SWAP2 JUMPDEST POP POP POP POP POP SWAP1 POP SWAP1 JUMP JUMPDEST PUSH1 0x0 PUSH1 0x3 PUSH2 0x10F4 DUP4 PUSH2 0x1DCF JUMP JUMPDEST LT ISZERO DUP1 ISZERO PUSH2 0x110B JUMPI POP PUSH1 0xA PUSH2 0x1108 DUP4 PUSH2 0x1DCF JUMP JUMPDEST GT ISZERO JUMPDEST SWAP1 POP SWAP2 SWAP1 POP JUMP JUMPDEST PUSH2 0x1124 PUSH2 0x111D PUSH2 0x19BC JUMP JUMPDEST DUP4 DUP4 PUSH2 0x1F84 JUMP JUMPDEST POP POP JUMP JUMPDEST PUSH2 0x1139 PUSH2 0x1133 PUSH2 0x19BC JUMP JUMPDEST DUP4 PUSH2 0x1A7D JUMP JUMPDEST PUSH2 0x1178 JUMPI PUSH1 0x40 MLOAD PUSH32 0x8C379A000000000000000000000000000000000000000000000000000000000 DUP2 MSTORE PUSH1 0x4 ADD PUSH2 0x116F SWAP1 PUSH2 0x34F4 JUMP JUMPDEST PUSH1 0x40 MLOAD DUP1 SWAP2 SUB SWAP1 REVERT JUMPDEST PUSH2 0x1184 DUP5 DUP5 DUP5 DUP5 PUSH2 0x20F0 JUMP JUMPDEST POP POP POP POP JUMP JUMPDEST PUSH1 0x0 PUSH1 0xC DUP3 PUSH1 0x40 MLOAD PUSH2 0x119C SWAP2 SWAP1 PUSH2 0x346B JUMP JUMPDEST SWAP1 DUP2 MSTORE PUSH1 0x20 ADD PUSH1 0x40 MLOAD DUP1 SWAP2 SUB SWAP1 KECCAK256 PUSH1 0x0 SWAP1 SLOAD SWAP1 PUSH2 0x100 EXP SWAP1 DIV PUSH20 0xFFFFFFFFFFFFFFFFFFFFFFFFFFFFFFFFFFFFFFFF AND SWAP1 POP SWAP2 SWAP1 POP JUMP JUMPDEST PUSH1 0xC DUP3 PUSH1 0x40 MLOAD PUSH2 0x11E2 SWAP2 SWAP1 PUSH2 0x346B JUMP JUMPDEST SWAP1 DUP2 MSTORE PUSH1 0x20 ADD PUSH1 0x40 MLOAD DUP1 SWAP2 SUB SWAP1 KECCAK256 PUSH1 0x0 SWAP1 SLOAD SWAP1 PUSH2 0x100 EXP SWAP1 DIV PUSH20 0xFFFFFFFFFFFFFFFFFFFFFFFFFFFFFFFFFFFFFFFF AND PUSH20 0xFFFFFFFFFFFFFFFFFFFFFFFFFFFFFFFFFFFFFFFF AND CALLER PUSH20 0xFFFFFFFFFFFFFFFFFFFFFFFFFFFFFFFFFFFFFFFF AND EQ PUSH2 0x1275 JUMPI PUSH1 0x40 MLOAD PUSH32 0x82B4290000000000000000000000000000000000000000000000000000000000 DUP2 MSTORE PUSH1 0x4 ADD PUSH1 0x40 MLOAD DUP1 SWAP2 SUB SWAP1 REVERT JUMPDEST DUP1 PUSH1 0xD DUP4 PUSH1 0x40 MLOAD PUSH2 0x1286 SWAP2 SWAP1 PUSH2 0x346B JUMP JUMPDEST SWAP1 DUP2 MSTORE PUSH1 0x20 ADD PUSH1 0x40 MLOAD DUP1 SWAP2 SUB SWAP1 KECCAK256 SWAP1 DUP2 PUSH2 0x12A0 SWAP2 SWAP1 PUSH2 0x3896 JUMP JUMPDEST POP POP POP JUMP JUMPDEST PUSH1 0x60 PUSH2 0x12B0 DUP3 PUSH2 0x1950 JUMP JUMPDEST PUSH2 0x12EF JUMPI PUSH1 0x40 MLOAD PUSH32 0x8C379A000000000000000000000000000000000000000000000000000000000 DUP2 MSTORE PUSH1 0x4 ADD PUSH2 0x12E6 SWAP1 PUSH2 0x39DA JUMP JUMPDEST PUSH1 0x40 MLOAD DUP1 SWAP2 SUB SWAP1 REVERT JUMPDEST PUSH1 0x0 PUSH1 0x6 PUSH1 0x0 DUP5 DUP2 MSTORE PUSH1 0x20 ADD SWAP1 DUP2 MSTORE PUSH1 0x20 ADD PUSH1 0x0 KECCAK256 DUP1 SLOAD PUSH2 0x130F SWAP1 PUSH2 0x3248 JUMP JUMPDEST DUP1 PUSH1 0x1F ADD PUSH1 0x20 DUP1 SWAP2 DIV MUL PUSH1 0x20 ADD PUSH1 0x40 MLOAD SWAP1 DUP2 ADD PUSH1 0x40 MSTORE DUP1 SWAP3 SWAP2 SWAP1 DUP2 DUP2 MSTORE PUSH1 0x20 ADD DUP3 DUP1 SLOAD PUSH2 0x133B SWAP1 PUSH2 0x3248 JUMP JUMPDEST DUP1 ISZERO PUSH2 0x1388 JUMPI DUP1 PUSH1 0x1F LT PUSH2 0x135D JUMPI PUSH2 0x100 DUP1 DUP4 SLOAD DIV MUL DUP4 MSTORE SWAP2 PUSH1 0x20 ADD SWAP2 PUSH2 0x1388 JUMP JUMPDEST DUP3 ADD SWAP2 SWAP1 PUSH1 0x0 MSTORE PUSH1 0x20 PUSH1 0x0 KECCAK256 SWAP1 JUMPDEST DUP2 SLOAD DUP2 MSTORE SWAP1 PUSH1 0x1 ADD SWAP1 PUSH1 0x20 ADD DUP1 DUP4 GT PUSH2 0x136B JUMPI DUP3 SWAP1 SUB PUSH1 0x1F AND DUP3 ADD SWAP2 JUMPDEST POP POP POP POP POP SWAP1 POP PUSH1 0x0 PUSH2 0x1399 PUSH2 0x214C JUMP JUMPDEST SWAP1 POP PUSH1 0x0 DUP2 MLOAD SUB PUSH2 0x13AE JUMPI DUP2 SWAP3 POP POP POP PUSH2 0x13F1 JUMP JUMPDEST PUSH1 0x0 DUP3 MLOAD GT ISZERO PUSH2 0x13E3 JUMPI DUP1 DUP3 PUSH1 0x40 MLOAD PUSH1 0x20 ADD PUSH2 0x13CB SWAP3 SWAP2 SWAP1 PUSH2 0x39FA JUMP JUMPDEST PUSH1 0x40 MLOAD PUSH1 0x20 DUP2 DUP4 SUB SUB DUP2 MSTORE SWAP1 PUSH1 0x40 MSTORE SWAP3 POP POP POP PUSH2 0x13F1 JUMP JUMPDEST PUSH2 0x13EC DUP5 PUSH2 0x2163 JUMP JUMPDEST SWAP3 POP POP POP JUMPDEST SWAP2 SWAP1 POP JUMP JUMPDEST PUSH1 0x0 PUSH1 0x5 PUSH1 0x0 DUP5 PUSH20 0xFFFFFFFFFFFFFFFFFFFFFFFFFFFFFFFFFFFFFFFF AND PUSH20 0xFFFFFFFFFFFFFFFFFFFFFFFFFFFFFFFFFFFFFFFF AND DUP2 MSTORE PUSH1 0x20 ADD SWAP1 DUP2 MSTORE PUSH1 0x20 ADD PUSH1 0x0 KECCAK256 PUSH1 0x0 DUP4 PUSH20 0xFFFFFFFFFFFFFFFFFFFFFFFFFFFFFFFFFFFFFFFF AND PUSH20 0xFFFFFFFFFFFFFFFFFFFFFFFFFFFFFFFFFFFFFFFF AND DUP2 MSTORE PUSH1 0x20 ADD SWAP1 DUP2 MSTORE PUSH1 0x20 ADD PUSH1 0x0 KECCAK256 PUSH1 0x0 SWAP1 SLOAD SWAP1 PUSH2 0x100 EXP SWAP1 DIV PUSH1 0xFF AND SWAP1 POP SWAP3 SWAP2 POP POP JUMP JUMPDEST PUSH1 0x0 PUSH20 0xFFFFFFFFFFFFFFFFFFFFFFFFFFFFFFFFFFFFFFFF AND PUSH1 0xC DUP3 PUSH1 0x40 MLOAD PUSH2 0x14B2 SWAP2 SWAP1 PUSH2 0x346B JUMP JUMPDEST SWAP1 DUP2 MSTORE PUSH1 0x20 ADD PUSH1 0x40 MLOAD DUP1 SWAP2 SUB SWAP1 KECCAK256 PUSH1 0x0 SWAP1 SLOAD SWAP1 PUSH2 0x100 EXP SWAP1 DIV PUSH20 0xFFFFFFFFFFFFFFFFFFFFFFFFFFFFFFFFFFFFFFFF AND PUSH20 0xFFFFFFFFFFFFFFFFFFFFFFFFFFFFFFFFFFFFFFFF AND EQ PUSH2 0x152E JUMPI PUSH1 0x40 MLOAD PUSH32 0x3A81D6FC00000000000000000000000000000000000000000000000000000000 DUP2 MSTORE PUSH1 0x4 ADD PUSH1 0x40 MLOAD DUP1 SWAP2 SUB SWAP1 REVERT JUMPDEST PUSH2 0x1537 DUP2 PUSH2 0x10E7 JUMP JUMPDEST PUSH2 0x1578 JUMPI DUP1 PUSH1 0x40 MLOAD PUSH32 0x7F19F48D00000000000000000000000000000000000000000000000000000000 DUP2 MSTORE PUSH1 0x4 ADD PUSH2 0x156F SWAP2 SWAP1 PUSH2 0x2AF2 JUMP JUMPDEST PUSH1 0x40 MLOAD DUP1 SWAP2 SUB SWAP1 REVERT JUMPDEST PUSH1 0x0 PUSH2 0x1583 DUP3 PUSH2 0x188A JUMP JUMPDEST SWAP1 POP DUP1 CALLVALUE LT ISZERO PUSH2 0x15C8 JUMPI PUSH1 0x40 MLOAD PUSH32 0x8C379A000000000000000000000000000000000000000000000000000000000 DUP2 MSTORE PUSH1 0x4 ADD PUSH2 0x15BF SWAP1 PUSH2 0x3A6A JUMP JUMPDEST PUSH1 0x40 MLOAD DUP1 SWAP2 SUB SWAP1 REVERT JUMPDEST PUSH1 0x0 DUP3 PUSH1 0x9 PUSH1 0x40 MLOAD PUSH1 0x20 ADD PUSH2 0x15DE SWAP3 SWAP2 SWAP1 PUSH2 0x3B59 JUMP JUMPDEST PUSH1 0x40 MLOAD PUSH1 0x20 DUP2 DUP4 SUB SUB DUP2 MSTORE SWAP1 PUSH1 0x40 MSTORE SWAP1 POP PUSH1 0x0 PUSH1 0xA DUP3 PUSH1 0xB PUSH1 0x40 MLOAD PUSH1 0x20 ADD PUSH2 0x1608 SWAP4 SWAP3 SWAP2 SWAP1 PUSH2 0x3B88 JUMP JUMPDEST PUSH1 0x40 MLOAD PUSH1 0x20 DUP2 DUP4 SUB SUB DUP2 MSTORE SWAP1 PUSH1 0x40 MSTORE SWAP1 POP PUSH1 0x0 PUSH2 0x1625 PUSH1 0x8 PUSH2 0x1DC1 JUMP JUMPDEST SWAP1 POP PUSH1 0x0 PUSH2 0x1632 DUP7 PUSH2 0x1DCF JUMP JUMPDEST SWAP1 POP PUSH1 0x0 PUSH2 0x163F DUP3 PUSH2 0x220A JUMP JUMPDEST SWAP1 POP PUSH1 0x0 PUSH2 0x1677 DUP7 PUSH2 0x1650 DUP8 PUSH2 0x236A JUMP JUMPDEST DUP5 PUSH1 0x40 MLOAD PUSH1 0x20 ADD PUSH2 0x1663 SWAP4 SWAP3 SWAP2 SWAP1 PUSH2 0x3D35 JUMP JUMPDEST PUSH1 0x40 MLOAD PUSH1 0x20 DUP2 DUP4 SUB SUB DUP2 MSTORE SWAP1 PUSH1 0x40 MSTORE PUSH2 0x236A JUMP JUMPDEST SWAP1 POP PUSH1 0x0 DUP2 PUSH1 0x40 MLOAD PUSH1 0x20 ADD PUSH2 0x168C SWAP2 SWAP1 PUSH2 0x3DDE JUMP JUMPDEST PUSH1 0x40 MLOAD PUSH1 0x20 DUP2 DUP4 SUB SUB DUP2 MSTORE SWAP1 PUSH1 0x40 MSTORE SWAP1 POP PUSH2 0x16A7 CALLER DUP7 PUSH2 0x2501 JUMP JUMPDEST PUSH2 0x16B1 DUP6 DUP3 PUSH2 0x251F JUMP JUMPDEST CALLER PUSH1 0xC DUP11 PUSH1 0x40 MLOAD PUSH2 0x16C2 SWAP2 SWAP1 PUSH2 0x346B JUMP JUMPDEST SWAP1 DUP2 MSTORE PUSH1 0x20 ADD PUSH1 0x40 MLOAD DUP1 SWAP2 SUB SWAP1 KECCAK256 PUSH1 0x0 PUSH2 0x100 EXP DUP2 SLOAD DUP2 PUSH20 0xFFFFFFFFFFFFFFFFFFFFFFFFFFFFFFFFFFFFFFFF MUL NOT AND SWAP1 DUP4 PUSH20 0xFFFFFFFFFFFFFFFFFFFFFFFFFFFFFFFFFFFFFFFF AND MUL OR SWAP1 SSTORE POP DUP9 PUSH1 0xE PUSH1 0x0 DUP8 DUP2 MSTORE PUSH1 0x20 ADD SWAP1 DUP2 MSTORE PUSH1 0x20 ADD PUSH1 0x0 KECCAK256 SWAP1 DUP2 PUSH2 0x172E SWAP2 SWAP1 PUSH2 0x3896 JUMP JUMPDEST POP PUSH2 0x1739 PUSH1 0x8 PUSH2 0x258C JUMP JUMPDEST POP POP POP POP POP POP POP POP POP JUMP JUMPDEST PUSH1 0x60 PUSH1 0x0 PUSH2 0x1752 PUSH1 0x8 PUSH2 0x1DC1 JUMP JUMPDEST PUSH8 0xFFFFFFFFFFFFFFFF DUP2 GT ISZERO PUSH2 0x176B JUMPI PUSH2 0x176A PUSH2 0x2C49 JUMP JUMPDEST JUMPDEST PUSH1 0x40 MLOAD SWAP1 DUP1 DUP3 MSTORE DUP1 PUSH1 0x20 MUL PUSH1 0x20 ADD DUP3 ADD PUSH1 0x40 MSTORE DUP1 ISZERO PUSH2 0x179E JUMPI DUP2 PUSH1 0x20 ADD JUMPDEST PUSH1 0x60 DUP2 MSTORE PUSH1 0x20 ADD SWAP1 PUSH1 0x1 SWAP1 SUB SWAP1 DUP2 PUSH2 0x1789 JUMPI SWAP1 POP JUMPDEST POP SWAP1 POP PUSH1 0x0 JUMPDEST PUSH2 0x17AE PUSH1 0x8 PUSH2 0x1DC1 JUMP JUMPDEST DUP2 LT ISZERO PUSH2 0x1882 JUMPI PUSH1 0xE PUSH1 0x0 DUP3 DUP2 MSTORE PUSH1 0x20 ADD SWAP1 DUP2 MSTORE PUSH1 0x20 ADD PUSH1 0x0 KECCAK256 DUP1 SLOAD PUSH2 0x17D3 SWAP1 PUSH2 0x3248 JUMP JUMPDEST DUP1 PUSH1 0x1F ADD PUSH1 0x20 DUP1 SWAP2 DIV MUL PUSH1 0x20 ADD PUSH1 0x40 MLOAD SWAP1 DUP2 ADD PUSH1 0x40 MSTORE DUP1 SWAP3 SWAP2 SWAP1 DUP2 DUP2 MSTORE PUSH1 0x20 ADD DUP3 DUP1 SLOAD PUSH2 0x17FF SWAP1 PUSH2 0x3248 JUMP JUMPDEST DUP1 ISZERO PUSH2 0x184C JUMPI DUP1 PUSH1 0x1F LT PUSH2 0x1821 JUMPI PUSH2 0x100 DUP1 DUP4 SLOAD DIV MUL DUP4 MSTORE SWAP2 PUSH1 0x20 ADD SWAP2 PUSH2 0x184C JUMP JUMPDEST DUP3 ADD SWAP2 SWAP1 PUSH1 0x0 MSTORE PUSH1 0x20 PUSH1 0x0 KECCAK256 SWAP1 JUMPDEST DUP2 SLOAD DUP2 MSTORE SWAP1 PUSH1 0x1 ADD SWAP1 PUSH1 0x20 ADD DUP1 DUP4 GT PUSH2 0x182F JUMPI DUP3 SWAP1 SUB PUSH1 0x1F AND DUP3 ADD SWAP2 JUMPDEST POP POP POP POP POP DUP3 DUP3 DUP2 MLOAD DUP2 LT PUSH2 0x1864 JUMPI PUSH2 0x1863 PUSH2 0x3E00 JUMP JUMPDEST JUMPDEST PUSH1 0x20 MUL PUSH1 0x20 ADD ADD DUP2 SWAP1 MSTORE POP DUP1 DUP1 PUSH2 0x187A SWAP1 PUSH2 0x3E5E JUMP JUMPDEST SWAP2 POP POP PUSH2 0x17A4 JUMP JUMPDEST POP DUP1 SWAP2 POP POP SWAP1 JUMP JUMPDEST PUSH1 0x0 DUP1 PUSH2 0x1896 DUP4 PUSH2 0x1DCF JUMP JUMPDEST SWAP1 POP PUSH1 0x0 DUP2 GT PUSH2 0x18A5 JUMPI PUSH1 0x0 DUP1 REVERT JUMPDEST PUSH1 0x3 DUP2 SUB PUSH2 0x18BD JUMPI PUSH7 0xB1A2BC2EC50000 SWAP2 POP POP PUSH2 0x18E1 JUMP JUMPDEST PUSH1 0x4 DUP2 SUB PUSH2 0x18D5 JUMPI PUSH7 0x6A94D74F430000 SWAP2 POP POP PUSH2 0x18E1 JUMP JUMPDEST PUSH7 0x2386F26FC10000 SWAP2 POP POP JUMPDEST SWAP2 SWAP1 POP JUMP JUMPDEST PUSH1 0x0 PUSH32 0x1FFC9A700000000000000000000000000000000000000000000000000000000 PUSH28 0xFFFFFFFFFFFFFFFFFFFFFFFFFFFFFFFFFFFFFFFFFFFFFFFFFFFFFFFF NOT AND DUP3 PUSH28 0xFFFFFFFFFFFFFFFFFFFFFFFFFFFFFFFFFFFFFFFFFFFFFFFFFFFFFFFF NOT AND EQ SWAP1 POP SWAP2 SWAP1 POP JUMP JUMPDEST PUSH1 0x0 DUP1 PUSH20 0xFFFFFFFFFFFFFFFFFFFFFFFFFFFFFFFFFFFFFFFF AND PUSH1 0x2 PUSH1 0x0 DUP5 DUP2 MSTORE PUSH1 0x20 ADD SWAP1 DUP2 MSTORE PUSH1 0x20 ADD PUSH1 0x0 KECCAK256 PUSH1 0x0 SWAP1 SLOAD SWAP1 PUSH2 0x100 EXP SWAP1 DIV PUSH20 0xFFFFFFFFFFFFFFFFFFFFFFFFFFFFFFFFFFFFFFFF AND PUSH20 0xFFFFFFFFFFFFFFFFFFFFFFFFFFFFFFFFFFFFFFFF AND EQ ISZERO SWAP1 POP SWAP2 SWAP1 POP JUMP JUMPDEST PUSH1 0x0 CALLER SWAP1 POP SWAP1 JUMP JUMPDEST DUP2 PUSH1 0x4 PUSH1 0x0 DUP4 DUP2 MSTORE PUSH1 0x20 ADD SWAP1 DUP2 MSTORE PUSH1 0x20 ADD PUSH1 0x0 KECCAK256 PUSH1 0x0 PUSH2 0x100 EXP DUP2 SLOAD DUP2 PUSH20 0xFFFFFFFFFFFFFFFFFFFFFFFFFFFFFFFFFFFFFFFF MUL NOT AND SWAP1 DUP4 PUSH20 0xFFFFFFFFFFFFFFFFFFFFFFFFFFFFFFFFFFFFFFFF AND MUL OR SWAP1 SSTORE POP DUP1 DUP3 PUSH20 0xFFFFFFFFFFFFFFFFFFFFFFFFFFFFFFFFFFFFFFFF AND PUSH2 0x1A37 DUP4 PUSH2 0xE5E JUMP JUMPDEST PUSH20 0xFFFFFFFFFFFFFFFFFFFFFFFFFFFFFFFFFFFFFFFF AND PUSH32 0x8C5BE1E5EBEC7D5BD14F71427D1E84F3DD0314C0F7B2291E5B200AC8C7C3B925 PUSH1 0x40 MLOAD PUSH1 0x40 MLOAD DUP1 SWAP2 SUB SWAP1 LOG4 POP POP JUMP JUMPDEST PUSH1 0x0 PUSH2 0x1A88 DUP3 PUSH2 0x1950 JUMP JUMPDEST PUSH2 0x1AC7 JUMPI PUSH1 0x40 MLOAD PUSH32 0x8C379A000000000000000000000000000000000000000000000000000000000 DUP2 MSTORE PUSH1 0x4 ADD PUSH2 0x1ABE SWAP1 PUSH2 0x3F18 JUMP JUMPDEST PUSH1 0x40 MLOAD DUP1 SWAP2 SUB SWAP1 REVERT JUMPDEST PUSH1 0x0 PUSH2 0x1AD2 DUP4 PUSH2 0xE5E JUMP JUMPDEST SWAP1 POP DUP1 PUSH20 0xFFFFFFFFFFFFFFFFFFFFFFFFFFFFFFFFFFFFFFFF AND DUP5 PUSH20 0xFFFFFFFFFFFFFFFFFFFFFFFFFFFFFFFFFFFFFFFF AND EQ DUP1 PUSH2 0x1B14 JUMPI POP PUSH2 0x1B13 DUP2 DUP6 PUSH2 0x13F6 JUMP JUMPDEST JUMPDEST DUP1 PUSH2 0x1B52 JUMPI POP DUP4 PUSH20 0xFFFFFFFFFFFFFFFFFFFFFFFFFFFFFFFFFFFFFFFF AND PUSH2 0x1B3A DUP5 PUSH2 0x89F JUMP JUMPDEST PUSH20 0xFFFFFFFFFFFFFFFFFFFFFFFFFFFFFFFFFFFFFFFF AND EQ JUMPDEST SWAP2 POP POP SWAP3 SWAP2 POP POP JUMP JUMPDEST DUP3 PUSH20 0xFFFFFFFFFFFFFFFFFFFFFFFFFFFFFFFFFFFFFFFF AND PUSH2 0x1B7B DUP3 PUSH2 0xE5E JUMP JUMPDEST PUSH20 0xFFFFFFFFFFFFFFFFFFFFFFFFFFFFFFFFFFFFFFFF AND EQ PUSH2 0x1BD1 JUMPI PUSH1 0x40 MLOAD PUSH32 0x8C379A000000000000000000000000000000000000000000000000000000000 DUP2 MSTORE PUSH1 0x4 ADD PUSH2 0x1BC8 SWAP1 PUSH2 0x3FAA JUMP JUMPDEST PUSH1 0x40 MLOAD DUP1 SWAP2 SUB SWAP1 REVERT JUMPDEST PUSH1 0x0 PUSH20 0xFFFFFFFFFFFFFFFFFFFFFFFFFFFFFFFFFFFFFFFF AND DUP3 PUSH20 0xFFFFFFFFFFFFFFFFFFFFFFFFFFFFFFFFFFFFFFFF AND SUB PUSH2 0x1C40 JUMPI PUSH1 0x40 MLOAD PUSH32 0x8C379A000000000000000000000000000000000000000000000000000000000 DUP2 MSTORE PUSH1 0x4 ADD PUSH2 0x1C37 SWAP1 PUSH2 0x403C JUMP JUMPDEST PUSH1 0x40 MLOAD DUP1 SWAP2 SUB SWAP1 REVERT JUMPDEST PUSH2 0x1C4B DUP4 DUP4 DUP4 PUSH2 0x25A2 JUMP JUMPDEST PUSH2 0x1C56 PUSH1 0x0 DUP3 PUSH2 0x19C4 JUMP JUMPDEST PUSH1 0x1 PUSH1 0x3 PUSH1 0x0 DUP6 PUSH20 0xFFFFFFFFFFFFFFFFFFFFFFFFFFFFFFFFFFFFFFFF AND PUSH20 0xFFFFFFFFFFFFFFFFFFFFFFFFFFFFFFFFFFFFFFFF AND DUP2 MSTORE PUSH1 0x20 ADD SWAP1 DUP2 MSTORE PUSH1 0x20 ADD PUSH1 0x0 KECCAK256 PUSH1 0x0 DUP3 DUP3 SLOAD PUSH2 0x1CA6 SWAP2 SWAP1 PUSH2 0x405C JUMP JUMPDEST SWAP3 POP POP DUP2 SWAP1 SSTORE POP PUSH1 0x1 PUSH1 0x3 PUSH1 0x0 DUP5 PUSH20 0xFFFFFFFFFFFFFFFFFFFFFFFFFFFFFFFFFFFFFFFF AND PUSH20 0xFFFFFFFFFFFFFFFFFFFFFFFFFFFFFFFFFFFFFFFF AND DUP2 MSTORE PUSH1 0x20 ADD SWAP1 DUP2 MSTORE PUSH1 0x20 ADD PUSH1 0x0 KECCAK256 PUSH1 0x0 DUP3 DUP3 SLOAD PUSH2 0x1CFD SWAP2 SWAP1 PUSH2 0x4090 JUMP JUMPDEST SWAP3 POP POP DUP2 SWAP1 SSTORE POP DUP2 PUSH1 0x2 PUSH1 0x0 DUP4 DUP2 MSTORE PUSH1 0x20 ADD SWAP1 DUP2 MSTORE PUSH1 0x20 ADD PUSH1 0x0 KECCAK256 PUSH1 0x0 PUSH2 0x100 EXP DUP2 SLOAD DUP2 PUSH20 0xFFFFFFFFFFFFFFFFFFFFFFFFFFFFFFFFFFFFFFFF MUL NOT AND SWAP1 DUP4 PUSH20 0xFFFFFFFFFFFFFFFFFFFFFFFFFFFFFFFFFFFFFFFF AND MUL OR SWAP1 SSTORE POP DUP1 DUP3 PUSH20 0xFFFFFFFFFFFFFFFFFFFFFFFFFFFFFFFFFFFFFFFF AND DUP5 PUSH20 0xFFFFFFFFFFFFFFFFFFFFFFFFFFFFFFFFFFFFFFFF AND PUSH32 0xDDF252AD1BE2C89B69C2B068FC378DAA952BA7F163C4A11628F55A4DF523B3EF PUSH1 0x40 MLOAD PUSH1 0x40 MLOAD DUP1 SWAP2 SUB SWAP1 LOG4 PUSH2 0x1DBC DUP4 DUP4 DUP4 PUSH2 0x25A7 JUMP JUMPDEST POP POP POP JUMP JUMPDEST PUSH1 0x0 DUP2 PUSH1 0x0 ADD SLOAD SWAP1 POP SWAP2 SWAP1 POP JUMP JUMPDEST PUSH1 0x0 DUP1 PUSH1 0x0 DUP1 DUP5 MLOAD SWAP1 POP PUSH1 0x0 SWAP3 POP JUMPDEST DUP1 DUP3 LT ISZERO PUSH2 0x1F79 JUMPI PUSH1 0x0 DUP6 DUP4 DUP2 MLOAD DUP2 LT PUSH2 0x1DFB JUMPI PUSH2 0x1DFA PUSH2 0x3E00 JUMP JUMPDEST JUMPDEST PUSH1 0x20 ADD ADD MLOAD PUSH1 0xF8 SHR PUSH1 0xF8 SHL SWAP1 POP PUSH1 0x80 PUSH1 0xF8 SHL DUP2 PUSH31 0xFFFFFFFFFFFFFFFFFFFFFFFFFFFFFFFFFFFFFFFFFFFFFFFFFFFFFFFFFFFFFF NOT AND LT ISZERO PUSH2 0x1E4A JUMPI PUSH1 0x1 DUP4 PUSH2 0x1E43 SWAP2 SWAP1 PUSH2 0x4090 JUMP JUMPDEST SWAP3 POP PUSH2 0x1F65 JUMP JUMPDEST PUSH1 0xE0 PUSH1 0xF8 SHL DUP2 PUSH31 0xFFFFFFFFFFFFFFFFFFFFFFFFFFFFFFFFFFFFFFFFFFFFFFFFFFFFFFFFFFFFFF NOT AND LT ISZERO PUSH2 0x1E8C JUMPI PUSH1 0x2 DUP4 PUSH2 0x1E85 SWAP2 SWAP1 PUSH2 0x4090 JUMP JUMPDEST SWAP3 POP PUSH2 0x1F64 JUMP JUMPDEST PUSH1 0xF0 PUSH1 0xF8 SHL DUP2 PUSH31 0xFFFFFFFFFFFFFFFFFFFFFFFFFFFFFFFFFFFFFFFFFFFFFFFFFFFFFFFFFFFFFF NOT AND LT ISZERO PUSH2 0x1ECE JUMPI PUSH1 0x3 DUP4 PUSH2 0x1EC7 SWAP2 SWAP1 PUSH2 0x4090 JUMP JUMPDEST SWAP3 POP PUSH2 0x1F63 JUMP JUMPDEST PUSH1 0xF8 DUP1 SHL DUP2 PUSH31 0xFFFFFFFFFFFFFFFFFFFFFFFFFFFFFFFFFFFFFFFFFFFFFFFFFFFFFFFFFFFFFF NOT AND LT ISZERO PUSH2 0x1F0F JUMPI PUSH1 0x4 DUP4 PUSH2 0x1F08 SWAP2 SWAP1 PUSH2 0x4090 JUMP JUMPDEST SWAP3 POP PUSH2 0x1F62 JUMP JUMPDEST PUSH1 0xFC PUSH1 0xF8 SHL DUP2 PUSH31 0xFFFFFFFFFFFFFFFFFFFFFFFFFFFFFFFFFFFFFFFFFFFFFFFFFFFFFFFFFFFFFF NOT AND LT ISZERO PUSH2 0x1F51 JUMPI PUSH1 0x5 DUP4 PUSH2 0x1F4A SWAP2 SWAP1 PUSH2 0x4090 JUMP JUMPDEST SWAP3 POP PUSH2 0x1F61 JUMP JUMPDEST PUSH1 0x6 DUP4 PUSH2 0x1F5E SWAP2 SWAP1 PUSH2 0x4090 JUMP JUMPDEST SWAP3 POP JUMPDEST JUMPDEST JUMPDEST JUMPDEST JUMPDEST POP DUP3 DUP1 PUSH2 0x1F71 SWAP1 PUSH2 0x3E5E JUMP JUMPDEST SWAP4 POP POP PUSH2 0x1DDE JUMP JUMPDEST DUP3 SWAP4 POP POP POP POP SWAP2 SWAP1 POP JUMP JUMPDEST DUP2 PUSH20 0xFFFFFFFFFFFFFFFFFFFFFFFFFFFFFFFFFFFFFFFF AND DUP4 PUSH20 0xFFFFFFFFFFFFFFFFFFFFFFFFFFFFFFFFFFFFFFFF AND SUB PUSH2 0x1FF2 JUMPI PUSH1 0x40 MLOAD PUSH32 0x8C379A000000000000000000000000000000000000000000000000000000000 DUP2 MSTORE PUSH1 0x4 ADD PUSH2 0x1FE9 SWAP1 PUSH2 0x4132 JUMP JUMPDEST PUSH1 0x40 MLOAD DUP1 SWAP2 SUB SWAP1 REVERT JUMPDEST DUP1 PUSH1 0x5 PUSH1 0x0 DUP6 PUSH20 0xFFFFFFFFFFFFFFFFFFFFFFFFFFFFFFFFFFFFFFFF AND PUSH20 0xFFFFFFFFFFFFFFFFFFFFFFFFFFFFFFFFFFFFFFFF AND DUP2 MSTORE PUSH1 0x20 ADD SWAP1 DUP2 MSTORE PUSH1 0x20 ADD PUSH1 0x0 KECCAK256 PUSH1 0x0 DUP5 PUSH20 0xFFFFFFFFFFFFFFFFFFFFFFFFFFFFFFFFFFFFFFFF AND PUSH20 0xFFFFFFFFFFFFFFFFFFFFFFFFFFFFFFFFFFFFFFFF AND DUP2 MSTORE PUSH1 0x20 ADD SWAP1 DUP2 MSTORE PUSH1 0x20 ADD PUSH1 0x0 KECCAK256 PUSH1 0x0 PUSH2 0x100 EXP DUP2 SLOAD DUP2 PUSH1 0xFF MUL NOT AND SWAP1 DUP4 ISZERO ISZERO MUL OR SWAP1 SSTORE POP DUP2 PUSH20 0xFFFFFFFFFFFFFFFFFFFFFFFFFFFFFFFFFFFFFFFF AND DUP4 PUSH20 0xFFFFFFFFFFFFFFFFFFFFFFFFFFFFFFFFFFFFFFFF AND PUSH32 0x17307EAB39AB6107E8899845AD3D59BD9653F200F220920489CA2B5937696C31 DUP4 PUSH1 0x40 MLOAD PUSH2 0x20E3 SWAP2 SWAP1 PUSH2 0x2A3E JUMP JUMPDEST PUSH1 0x40 MLOAD DUP1 SWAP2 SUB SWAP1 LOG3 POP POP POP JUMP JUMPDEST PUSH2 0x20FB DUP5 DUP5 DUP5 PUSH2 0x1B5B JUMP JUMPDEST PUSH2 0x2107 DUP5 DUP5 DUP5 DUP5 PUSH2 0x25AC JUMP JUMPDEST PUSH2 0x2146 JUMPI PUSH1 0x40 MLOAD PUSH32 0x8C379A000000000000000000000000000000000000000000000000000000000 DUP2 MSTORE PUSH1 0x4 ADD PUSH2 0x213D SWAP1 PUSH2 0x41C4 JUMP JUMPDEST PUSH1 0x40 MLOAD DUP1 SWAP2 SUB SWAP1 REVERT JUMPDEST POP POP POP POP JUMP JUMPDEST PUSH1 0x60 PUSH1 0x40 MLOAD DUP1 PUSH1 0x20 ADD PUSH1 0x40 MSTORE DUP1 PUSH1 0x0 DUP2 MSTORE POP SWAP1 POP SWAP1 JUMP JUMPDEST PUSH1 0x60 PUSH2 0x216E DUP3 PUSH2 0x1950 JUMP JUMPDEST PUSH2 0x21AD JUMPI PUSH1 0x40 MLOAD PUSH32 0x8C379A000000000000000000000000000000000000000000000000000000000 DUP2 MSTORE PUSH1 0x4 ADD PUSH2 0x21A4 SWAP1 PUSH2 0x4256 JUMP JUMPDEST PUSH1 0x40 MLOAD DUP1 SWAP2 SUB SWAP1 REVERT JUMPDEST PUSH1 0x0 PUSH2 0x21B7 PUSH2 0x214C JUMP JUMPDEST SWAP1 POP PUSH1 0x0 DUP2 MLOAD GT PUSH2 0x21D7 JUMPI PUSH1 0x40 MLOAD DUP1 PUSH1 0x20 ADD PUSH1 0x40 MSTORE DUP1 PUSH1 0x0 DUP2 MSTORE POP PUSH2 0x2202 JUMP JUMPDEST DUP1 PUSH2 0x21E1 DUP5 PUSH2 0x220A JUMP JUMPDEST PUSH1 0x40 MLOAD PUSH1 0x20 ADD PUSH2 0x21F2 SWAP3 SWAP2 SWAP1 PUSH2 0x39FA JUMP JUMPDEST PUSH1 0x40 MLOAD PUSH1 0x20 DUP2 DUP4 SUB SUB DUP2 MSTORE SWAP1 PUSH1 0x40 MSTORE JUMPDEST SWAP2 POP POP SWAP2 SWAP1 POP JUMP JUMPDEST PUSH1 0x60 PUSH1 0x0 DUP3 SUB PUSH2 0x2251 JUMPI PUSH1 0x40 MLOAD DUP1 PUSH1 0x40 ADD PUSH1 0x40 MSTORE DUP1 PUSH1 0x1 DUP2 MSTORE PUSH1 0x20 ADD PUSH32 0x3000000000000000000000000000000000000000000000000000000000000000 DUP2 MSTORE POP SWAP1 POP PUSH2 0x2365 JUMP JUMPDEST PUSH1 0x0 DUP3 SWAP1 POP PUSH1 0x0 JUMPDEST PUSH1 0x0 DUP3 EQ PUSH2 0x2283 JUMPI DUP1 DUP1 PUSH2 0x226C SWAP1 PUSH2 0x3E5E JUMP JUMPDEST SWAP2 POP POP PUSH1 0xA DUP3 PUSH2 0x227C SWAP2 SWAP1 PUSH2 0x42A5 JUMP JUMPDEST SWAP2 POP PUSH2 0x2259 JUMP JUMPDEST PUSH1 0x0 DUP2 PUSH8 0xFFFFFFFFFFFFFFFF DUP2 GT ISZERO PUSH2 0x229F JUMPI PUSH2 0x229E PUSH2 0x2C49 JUMP JUMPDEST JUMPDEST PUSH1 0x40 MLOAD SWAP1 DUP1 DUP3 MSTORE DUP1 PUSH1 0x1F ADD PUSH1 0x1F NOT AND PUSH1 0x20 ADD DUP3 ADD PUSH1 0x40 MSTORE DUP1 ISZERO PUSH2 0x22D1 JUMPI DUP2 PUSH1 0x20 ADD PUSH1 0x1 DUP3 MUL DUP1 CALLDATASIZE DUP4 CALLDATACOPY DUP1 DUP3 ADD SWAP2 POP POP SWAP1 POP JUMPDEST POP SWAP1 POP JUMPDEST PUSH1 0x0 DUP6 EQ PUSH2 0x235E JUMPI PUSH1 0x1 DUP3 PUSH2 0x22EA SWAP2 SWAP1 PUSH2 0x405C JUMP JUMPDEST SWAP2 POP PUSH1 0xA DUP6 PUSH2 0x22F9 SWAP2 SWAP1 PUSH2 0x42D6 JUMP JUMPDEST PUSH1 0x30 PUSH2 0x2305 SWAP2 SWAP1 PUSH2 0x4090 JUMP JUMPDEST PUSH1 0xF8 SHL DUP2 DUP4 DUP2 MLOAD DUP2 LT PUSH2 0x231B JUMPI PUSH2 0x231A PUSH2 0x3E00 JUMP JUMPDEST JUMPDEST PUSH1 0x20 ADD ADD SWAP1 PUSH31 0xFFFFFFFFFFFFFFFFFFFFFFFFFFFFFFFFFFFFFFFFFFFFFFFFFFFFFFFFFFFFFF NOT AND SWAP1 DUP2 PUSH1 0x0 BYTE SWAP1 MSTORE8 POP PUSH1 0xA DUP6 PUSH2 0x2357 SWAP2 SWAP1 PUSH2 0x42A5 JUMP JUMPDEST SWAP5 POP PUSH2 0x22D5 JUMP JUMPDEST DUP1 SWAP4 POP POP POP POP JUMPDEST SWAP2 SWAP1 POP JUMP JUMPDEST PUSH1 0x60 PUSH1 0x0 DUP3 MLOAD SWAP1 POP PUSH1 0x0 DUP2 SUB PUSH2 0x2392 JUMPI PUSH1 0x40 MLOAD DUP1 PUSH1 0x20 ADD PUSH1 0x40 MSTORE DUP1 PUSH1 0x0 DUP2 MSTORE POP SWAP2 POP POP PUSH2 0x24FC JUMP JUMPDEST PUSH1 0x0 PUSH1 0x3 PUSH1 0x2 DUP4 PUSH2 0x23A3 SWAP2 SWAP1 PUSH2 0x4090 JUMP JUMPDEST PUSH2 0x23AD SWAP2 SWAP1 PUSH2 0x42A5 JUMP JUMPDEST PUSH1 0x4 PUSH2 0x23B9 SWAP2 SWAP1 PUSH2 0x4307 JUMP JUMPDEST SWAP1 POP PUSH1 0x0 PUSH1 0x20 DUP3 PUSH2 0x23CA SWAP2 SWAP1 PUSH2 0x4090 JUMP JUMPDEST PUSH8 0xFFFFFFFFFFFFFFFF DUP2 GT ISZERO PUSH2 0x23E3 JUMPI PUSH2 0x23E2 PUSH2 0x2C49 JUMP JUMPDEST JUMPDEST PUSH1 0x40 MLOAD SWAP1 DUP1 DUP3 MSTORE DUP1 PUSH1 0x1F ADD PUSH1 0x1F NOT AND PUSH1 0x20 ADD DUP3 ADD PUSH1 0x40 MSTORE DUP1 ISZERO PUSH2 0x2415 JUMPI DUP2 PUSH1 0x20 ADD PUSH1 0x1 DUP3 MUL DUP1 CALLDATASIZE DUP4 CALLDATACOPY DUP1 DUP3 ADD SWAP2 POP POP SWAP1 POP JUMPDEST POP SWAP1 POP PUSH1 0x0 PUSH1 0x40 MLOAD DUP1 PUSH1 0x60 ADD PUSH1 0x40 MSTORE DUP1 PUSH1 0x40 DUP2 MSTORE PUSH1 0x20 ADD PUSH2 0x45AF PUSH1 0x40 SWAP2 CODECOPY SWAP1 POP PUSH1 0x1 DUP2 ADD PUSH1 0x20 DUP4 ADD PUSH1 0x0 JUMPDEST DUP7 DUP2 LT ISZERO PUSH2 0x24B9 JUMPI PUSH1 0x3 DUP2 ADD SWAP1 POP PUSH3 0xFFFFFF DUP2 DUP11 ADD MLOAD AND PUSH1 0x3F DUP2 PUSH1 0x12 SHR AND DUP5 ADD MLOAD DUP1 PUSH1 0x8 SHL SWAP1 POP PUSH1 0xFF PUSH1 0x3F DUP4 PUSH1 0xC SHR AND DUP7 ADD MLOAD AND DUP2 ADD SWAP1 POP DUP1 PUSH1 0x8 SHL SWAP1 POP PUSH1 0xFF PUSH1 0x3F DUP4 PUSH1 0x6 SHR AND DUP7 ADD MLOAD AND DUP2 ADD SWAP1 POP DUP1 PUSH1 0x8 SHL SWAP1 POP PUSH1 0xFF PUSH1 0x3F DUP4 AND DUP7 ADD MLOAD AND DUP2 ADD SWAP1 POP DUP1 PUSH1 0xE0 SHL SWAP1 POP DUP1 DUP5 MSTORE PUSH1 0x4 DUP5 ADD SWAP4 POP POP POP PUSH2 0x2440 JUMP JUMPDEST POP PUSH1 0x3 DUP7 MOD PUSH1 0x1 DUP2 EQ PUSH2 0x24D3 JUMPI PUSH1 0x2 DUP2 EQ PUSH2 0x24E3 JUMPI PUSH2 0x24EE JUMP JUMPDEST PUSH2 0x3D3D PUSH1 0xF0 SHL PUSH1 0x2 DUP4 SUB MSTORE PUSH2 0x24EE JUMP JUMPDEST PUSH1 0x3D PUSH1 0xF8 SHL PUSH1 0x1 DUP4 SUB MSTORE JUMPDEST POP DUP5 DUP5 MSTORE POP POP DUP2 SWAP5 POP POP POP POP POP JUMPDEST SWAP2 SWAP1 POP JUMP JUMPDEST PUSH2 0x251B DUP3 DUP3 PUSH1 0x40 MLOAD DUP1 PUSH1 0x20 ADD PUSH1 0x40 MSTORE DUP1 PUSH1 0x0 DUP2 MSTORE POP PUSH2 0x2733 JUMP JUMPDEST POP POP JUMP JUMPDEST PUSH2 0x2528 DUP3 PUSH2 0x1950 JUMP JUMPDEST PUSH2 0x2567 JUMPI PUSH1 0x40 MLOAD PUSH32 0x8C379A000000000000000000000000000000000000000000000000000000000 DUP2 MSTORE PUSH1 0x4 ADD PUSH2 0x255E SWAP1 PUSH2 0x43D3 JUMP JUMPDEST PUSH1 0x40 MLOAD DUP1 SWAP2 SUB SWAP1 REVERT JUMPDEST DUP1 PUSH1 0x6 PUSH1 0x0 DUP5 DUP2 MSTORE PUSH1 0x20 ADD SWAP1 DUP2 MSTORE PUSH1 0x20 ADD PUSH1 0x0 KECCAK256 SWAP1 DUP2 PUSH2 0x2587 SWAP2 SWAP1 PUSH2 0x3896 JUMP JUMPDEST POP POP POP JUMP JUMPDEST PUSH1 0x1 DUP2 PUSH1 0x0 ADD PUSH1 0x0 DUP3 DUP3 SLOAD ADD SWAP3 POP POP DUP2 SWAP1 SSTORE POP POP JUMP JUMPDEST POP POP POP JUMP JUMPDEST POP POP POP JUMP JUMPDEST PUSH1 0x0 PUSH2 0x25CD DUP5 PUSH20 0xFFFFFFFFFFFFFFFFFFFFFFFFFFFFFFFFFFFFFFFF AND PUSH2 0x278E JUMP JUMPDEST ISZERO PUSH2 0x2726 JUMPI DUP4 PUSH20 0xFFFFFFFFFFFFFFFFFFFFFFFFFFFFFFFFFFFFFFFF AND PUSH4 0x150B7A02 PUSH2 0x25F6 PUSH2 0x19BC JUMP JUMPDEST DUP8 DUP7 DUP7 PUSH1 0x40 MLOAD DUP6 PUSH4 0xFFFFFFFF AND PUSH1 0xE0 SHL DUP2 MSTORE PUSH1 0x4 ADD PUSH2 0x2618 SWAP5 SWAP4 SWAP3 SWAP2 SWAP1 PUSH2 0x4448 JUMP JUMPDEST PUSH1 0x20 PUSH1 0x40 MLOAD DUP1 DUP4 SUB DUP2 PUSH1 0x0 DUP8 GAS CALL SWAP3 POP POP POP DUP1 ISZERO PUSH2 0x2654 JUMPI POP PUSH1 0x40 MLOAD RETURNDATASIZE PUSH1 0x1F NOT PUSH1 0x1F DUP3 ADD AND DUP3 ADD DUP1 PUSH1 0x40 MSTORE POP DUP2 ADD SWAP1 PUSH2 0x2651 SWAP2 SWAP1 PUSH2 0x44A9 JUMP JUMPDEST PUSH1 0x1 JUMPDEST PUSH2 0x26D6 JUMPI RETURNDATASIZE DUP1 PUSH1 0x0 DUP2 EQ PUSH2 0x2684 JUMPI PUSH1 0x40 MLOAD SWAP2 POP PUSH1 0x1F NOT PUSH1 0x3F RETURNDATASIZE ADD AND DUP3 ADD PUSH1 0x40 MSTORE RETURNDATASIZE DUP3 MSTORE RETURNDATASIZE PUSH1 0x0 PUSH1 0x20 DUP5 ADD RETURNDATACOPY PUSH2 0x2689 JUMP JUMPDEST PUSH1 0x60 SWAP2 POP JUMPDEST POP PUSH1 0x0 DUP2 MLOAD SUB PUSH2 0x26CE JUMPI PUSH1 0x40 MLOAD PUSH32 0x8C379A000000000000000000000000000000000000000000000000000000000 DUP2 MSTORE PUSH1 0x4 ADD PUSH2 0x26C5 SWAP1 PUSH2 0x41C4 JUMP JUMPDEST PUSH1 0x40 MLOAD DUP1 SWAP2 SUB SWAP1 REVERT JUMPDEST DUP1 MLOAD DUP2 PUSH1 0x20 ADD REVERT JUMPDEST PUSH4 0x150B7A02 PUSH1 0xE0 SHL PUSH28 0xFFFFFFFFFFFFFFFFFFFFFFFFFFFFFFFFFFFFFFFFFFFFFFFFFFFFFFFF NOT AND DUP2 PUSH28 0xFFFFFFFFFFFFFFFFFFFFFFFFFFFFFFFFFFFFFFFFFFFFFFFFFFFFFFFF NOT AND EQ SWAP2 POP POP PUSH2 0x272B JUMP JUMPDEST PUSH1 0x1 SWAP1 POP JUMPDEST SWAP5 SWAP4 POP POP POP POP JUMP JUMPDEST PUSH2 0x273D DUP4 DUP4 PUSH2 0x27B1 JUMP JUMPDEST PUSH2 0x274A PUSH1 0x0 DUP5 DUP5 DUP5 PUSH2 0x25AC JUMP JUMPDEST PUSH2 0x2789 JUMPI PUSH1 0x40 MLOAD PUSH32 0x8C379A000000000000000000000000000000000000000000000000000000000 DUP2 MSTORE PUSH1 0x4 ADD PUSH2 0x2780 SWAP1 PUSH2 0x41C4 JUMP JUMPDEST PUSH1 0x40 MLOAD DUP1 SWAP2 SUB SWAP1 REVERT JUMPDEST POP POP POP JUMP JUMPDEST PUSH1 0x0 DUP1 DUP3 PUSH20 0xFFFFFFFFFFFFFFFFFFFFFFFFFFFFFFFFFFFFFFFF AND EXTCODESIZE GT SWAP1 POP SWAP2 SWAP1 POP JUMP JUMPDEST PUSH1 0x0 PUSH20 0xFFFFFFFFFFFFFFFFFFFFFFFFFFFFFFFFFFFFFFFF AND DUP3 PUSH20 0xFFFFFFFFFFFFFFFFFFFFFFFFFFFFFFFFFFFFFFFF AND SUB PUSH2 0x2820 JUMPI PUSH1 0x40 MLOAD PUSH32 0x8C379A000000000000000000000000000000000000000000000000000000000 DUP2 MSTORE PUSH1 0x4 ADD PUSH2 0x2817 SWAP1 PUSH2 0x4522 JUMP JUMPDEST PUSH1 0x40 MLOAD DUP1 SWAP2 SUB SWAP1 REVERT JUMPDEST PUSH2 0x2829 DUP2 PUSH2 0x1950 JUMP JUMPDEST ISZERO PUSH2 0x2869 JUMPI PUSH1 0x40 MLOAD PUSH32 0x8C379A000000000000000000000000000000000000000000000000000000000 DUP2 MSTORE PUSH1 0x4 ADD PUSH2 0x2860 SWAP1 PUSH2 0x458E JUMP JUMPDEST PUSH1 0x40 MLOAD DUP1 SWAP2 SUB SWAP1 REVERT JUMPDEST PUSH2 0x2875 PUSH1 0x0 DUP4 DUP4 PUSH2 0x25A2 JUMP JUMPDEST PUSH1 0x1 PUSH1 0x3 PUSH1 0x0 DUP5 PUSH20 0xFFFFFFFFFFFFFFFFFFFFFFFFFFFFFFFFFFFFFFFF AND PUSH20 0xFFFFFFFFFFFFFFFFFFFFFFFFFFFFFFFFFFFFFFFF AND DUP2 MSTORE PUSH1 0x20 ADD SWAP1 DUP2 MSTORE PUSH1 0x20 ADD PUSH1 0x0 KECCAK256 PUSH1 0x0 DUP3 DUP3 SLOAD PUSH2 0x28C5 SWAP2 SWAP1 PUSH2 0x4090 JUMP JUMPDEST SWAP3 POP POP DUP2 SWAP1 SSTORE POP DUP2 PUSH1 0x2 PUSH1 0x0 DUP4 DUP2 MSTORE PUSH1 0x20 ADD SWAP1 DUP2 MSTORE PUSH1 0x20 ADD PUSH1 0x0 KECCAK256 PUSH1 0x0 PUSH2 0x100 EXP DUP2 SLOAD DUP2 PUSH20 0xFFFFFFFFFFFFFFFFFFFFFFFFFFFFFFFFFFFFFFFF MUL NOT AND SWAP1 DUP4 PUSH20 0xFFFFFFFFFFFFFFFFFFFFFFFFFFFFFFFFFFFFFFFF AND MUL OR SWAP1 SSTORE POP DUP1 DUP3 PUSH20 0xFFFFFFFFFFFFFFFFFFFFFFFFFFFFFFFFFFFFFFFF AND PUSH1 0x0 PUSH20 0xFFFFFFFFFFFFFFFFFFFFFFFFFFFFFFFFFFFFFFFF AND PUSH32 0xDDF252AD1BE2C89B69C2B068FC378DAA952BA7F163C4A11628F55A4DF523B3EF PUSH1 0x40 MLOAD PUSH1 0x40 MLOAD DUP1 SWAP2 SUB SWAP1 LOG4 PUSH2 0x2986 PUSH1 0x0 DUP4 DUP4 PUSH2 0x25A7 JUMP JUMPDEST POP POP JUMP JUMPDEST PUSH1 0x0 PUSH1 0x40 MLOAD SWAP1 POP SWAP1 JUMP JUMPDEST PUSH1 0x0 DUP1 REVERT JUMPDEST PUSH1 0x0 DUP1 REVERT JUMPDEST PUSH1 0x0 PUSH32 0xFFFFFFFF00000000000000000000000000000000000000000000000000000000 DUP3 AND SWAP1 POP SWAP2 SWAP1 POP JUMP JUMPDEST PUSH2 0x29D3 DUP2 PUSH2 0x299E JUMP JUMPDEST DUP2 EQ PUSH2 0x29DE JUMPI PUSH1 0x0 DUP1 REVERT JUMPDEST POP JUMP JUMPDEST PUSH1 0x0 DUP2 CALLDATALOAD SWAP1 POP PUSH2 0x29F0 DUP2 PUSH2 0x29CA JUMP JUMPDEST SWAP3 SWAP2 POP POP JUMP JUMPDEST PUSH1 0x0 PUSH1 0x20 DUP3 DUP5 SUB SLT ISZERO PUSH2 0x2A0C JUMPI PUSH2 0x2A0B PUSH2 0x2994 JUMP JUMPDEST JUMPDEST PUSH1 0x0 PUSH2 0x2A1A DUP5 DUP3 DUP6 ADD PUSH2 0x29E1 JUMP JUMPDEST SWAP2 POP POP SWAP3 SWAP2 POP POP JUMP JUMPDEST PUSH1 0x0 DUP2 ISZERO ISZERO SWAP1 POP SWAP2 SWAP1 POP JUMP JUMPDEST PUSH2 0x2A38 DUP2 PUSH2 0x2A23 JUMP JUMPDEST DUP3 MSTORE POP POP JUMP JUMPDEST PUSH1 0x0 PUSH1 0x20 DUP3 ADD SWAP1 POP PUSH2 0x2A53 PUSH1 0x0 DUP4 ADD DUP5 PUSH2 0x2A2F JUMP JUMPDEST SWAP3 SWAP2 POP POP JUMP JUMPDEST PUSH1 0x0 DUP2 MLOAD SWAP1 POP SWAP2 SWAP1 POP JUMP JUMPDEST PUSH1 0x0 DUP3 DUP3 MSTORE PUSH1 0x20 DUP3 ADD SWAP1 POP SWAP3 SWAP2 POP POP JUMP JUMPDEST PUSH1 0x0 JUMPDEST DUP4 DUP2 LT ISZERO PUSH2 0x2A93 JUMPI DUP1 DUP3 ADD MLOAD DUP2 DUP5 ADD MSTORE PUSH1 0x20 DUP2 ADD SWAP1 POP PUSH2 0x2A78 JUMP JUMPDEST DUP4 DUP2 GT ISZERO PUSH2 0x2AA2 JUMPI PUSH1 0x0 DUP5 DUP5 ADD MSTORE JUMPDEST POP POP POP POP JUMP JUMPDEST PUSH1 0x0 PUSH1 0x1F NOT PUSH1 0x1F DUP4 ADD AND SWAP1 POP SWAP2 SWAP1 POP JUMP JUMPDEST PUSH1 0x0 PUSH2 0x2AC4 DUP3 PUSH2 0x2A59 JUMP JUMPDEST PUSH2 0x2ACE DUP2 DUP6 PUSH2 0x2A64 JUMP JUMPDEST SWAP4 POP PUSH2 0x2ADE DUP2 DUP6 PUSH1 0x20 DUP7 ADD PUSH2 0x2A75 JUMP JUMPDEST PUSH2 0x2AE7 DUP2 PUSH2 0x2AA8 JUMP JUMPDEST DUP5 ADD SWAP2 POP POP SWAP3 SWAP2 POP POP JUMP JUMPDEST PUSH1 0x0 PUSH1 0x20 DUP3 ADD SWAP1 POP DUP2 DUP2 SUB PUSH1 0x0 DUP4 ADD MSTORE PUSH2 0x2B0C DUP2 DUP5 PUSH2 0x2AB9 JUMP JUMPDEST SWAP1 POP SWAP3 SWAP2 POP POP JUMP JUMPDEST PUSH1 0x0 DUP2 SWAP1 POP SWAP2 SWAP1 POP JUMP JUMPDEST PUSH2 0x2B27 DUP2 PUSH2 0x2B14 JUMP JUMPDEST DUP2 EQ PUSH2 0x2B32 JUMPI PUSH1 0x0 DUP1 REVERT JUMPDEST POP JUMP JUMPDEST PUSH1 0x0 DUP2 CALLDATALOAD SWAP1 POP PUSH2 0x2B44 DUP2 PUSH2 0x2B1E JUMP JUMPDEST SWAP3 SWAP2 POP POP JUMP JUMPDEST PUSH1 0x0 PUSH1 0x20 DUP3 DUP5 SUB SLT ISZERO PUSH2 0x2B60 JUMPI PUSH2 0x2B5F PUSH2 0x2994 JUMP JUMPDEST JUMPDEST PUSH1 0x0 PUSH2 0x2B6E DUP5 DUP3 DUP6 ADD PUSH2 0x2B35 JUMP JUMPDEST SWAP2 POP POP SWAP3 SWAP2 POP POP JUMP JUMPDEST PUSH1 0x0 PUSH20 0xFFFFFFFFFFFFFFFFFFFFFFFFFFFFFFFFFFFFFFFF DUP3 AND SWAP1 POP SWAP2 SWAP1 POP JUMP JUMPDEST PUSH1 0x0 PUSH2 0x2BA2 DUP3 PUSH2 0x2B77 JUMP JUMPDEST SWAP1 POP SWAP2 SWAP1 POP JUMP JUMPDEST PUSH2 0x2BB2 DUP2 PUSH2 0x2B97 JUMP JUMPDEST DUP3 MSTORE POP POP JUMP JUMPDEST PUSH1 0x0 PUSH1 0x20 DUP3 ADD SWAP1 POP PUSH2 0x2BCD PUSH1 0x0 DUP4 ADD DUP5 PUSH2 0x2BA9 JUMP JUMPDEST SWAP3 SWAP2 POP POP JUMP JUMPDEST PUSH2 0x2BDC DUP2 PUSH2 0x2B97 JUMP JUMPDEST DUP2 EQ PUSH2 0x2BE7 JUMPI PUSH1 0x0 DUP1 REVERT JUMPDEST POP JUMP JUMPDEST PUSH1 0x0 DUP2 CALLDATALOAD SWAP1 POP PUSH2 0x2BF9 DUP2 PUSH2 0x2BD3 JUMP JUMPDEST SWAP3 SWAP2 POP POP JUMP JUMPDEST PUSH1 0x0 DUP1 PUSH1 0x40 DUP4 DUP6 SUB SLT ISZERO PUSH2 0x2C16 JUMPI PUSH2 0x2C15 PUSH2 0x2994 JUMP JUMPDEST JUMPDEST PUSH1 0x0 PUSH2 0x2C24 DUP6 DUP3 DUP7 ADD PUSH2 0x2BEA JUMP JUMPDEST SWAP3 POP POP PUSH1 0x20 PUSH2 0x2C35 DUP6 DUP3 DUP7 ADD PUSH2 0x2B35 JUMP JUMPDEST SWAP2 POP POP SWAP3 POP SWAP3 SWAP1 POP JUMP JUMPDEST PUSH1 0x0 DUP1 REVERT JUMPDEST PUSH1 0x0 DUP1 REVERT JUMPDEST PUSH32 0x4E487B7100000000000000000000000000000000000000000000000000000000 PUSH1 0x0 MSTORE PUSH1 0x41 PUSH1 0x4 MSTORE PUSH1 0x24 PUSH1 0x0 REVERT JUMPDEST PUSH2 0x2C81 DUP3 PUSH2 0x2AA8 JUMP JUMPDEST DUP2 ADD DUP2 DUP2 LT PUSH8 0xFFFFFFFFFFFFFFFF DUP3 GT OR ISZERO PUSH2 0x2CA0 JUMPI PUSH2 0x2C9F PUSH2 0x2C49 JUMP JUMPDEST JUMPDEST DUP1 PUSH1 0x40 MSTORE POP POP POP JUMP JUMPDEST PUSH1 0x0 PUSH2 0x2CB3 PUSH2 0x298A JUMP JUMPDEST SWAP1 POP PUSH2 0x2CBF DUP3 DUP3 PUSH2 0x2C78 JUMP JUMPDEST SWAP2 SWAP1 POP JUMP JUMPDEST PUSH1 0x0 PUSH8 0xFFFFFFFFFFFFFFFF DUP3 GT ISZERO PUSH2 0x2CDF JUMPI PUSH2 0x2CDE PUSH2 0x2C49 JUMP JUMPDEST JUMPDEST PUSH2 0x2CE8 DUP3 PUSH2 0x2AA8 JUMP JUMPDEST SWAP1 POP PUSH1 0x20 DUP2 ADD SWAP1 POP SWAP2 SWAP1 POP JUMP JUMPDEST DUP3 DUP2 DUP4 CALLDATACOPY PUSH1 0x0 DUP4 DUP4 ADD MSTORE POP POP POP JUMP JUMPDEST PUSH1 0x0 PUSH2 0x2D17 PUSH2 0x2D12 DUP5 PUSH2 0x2CC4 JUMP JUMPDEST PUSH2 0x2CA9 JUMP JUMPDEST SWAP1 POP DUP3 DUP2 MSTORE PUSH1 0x20 DUP2 ADD DUP5 DUP5 DUP5 ADD GT ISZERO PUSH2 0x2D33 JUMPI PUSH2 0x2D32 PUSH2 0x2C44 JUMP JUMPDEST JUMPDEST PUSH2 0x2D3E DUP5 DUP3 DUP6 PUSH2 0x2CF5 JUMP JUMPDEST POP SWAP4 SWAP3 POP POP POP JUMP JUMPDEST PUSH1 0x0 DUP3 PUSH1 0x1F DUP4 ADD SLT PUSH2 0x2D5B JUMPI PUSH2 0x2D5A PUSH2 0x2C3F JUMP JUMPDEST JUMPDEST DUP2 CALLDATALOAD PUSH2 0x2D6B DUP5 DUP3 PUSH1 0x20 DUP7 ADD PUSH2 0x2D04 JUMP JUMPDEST SWAP2 POP POP SWAP3 SWAP2 POP POP JUMP JUMPDEST PUSH1 0x0 PUSH1 0x20 DUP3 DUP5 SUB SLT ISZERO PUSH2 0x2D8A JUMPI PUSH2 0x2D89 PUSH2 0x2994 JUMP JUMPDEST JUMPDEST PUSH1 0x0 DUP3 ADD CALLDATALOAD PUSH8 0xFFFFFFFFFFFFFFFF DUP2 GT ISZERO PUSH2 0x2DA8 JUMPI PUSH2 0x2DA7 PUSH2 0x2999 JUMP JUMPDEST JUMPDEST PUSH2 0x2DB4 DUP5 DUP3 DUP6 ADD PUSH2 0x2D46 JUMP JUMPDEST SWAP2 POP POP SWAP3 SWAP2 POP POP JUMP JUMPDEST PUSH1 0x0 DUP1 PUSH1 0x0 PUSH1 0x60 DUP5 DUP7 SUB SLT ISZERO PUSH2 0x2DD6 JUMPI PUSH2 0x2DD5 PUSH2 0x2994 JUMP JUMPDEST JUMPDEST PUSH1 0x0 PUSH2 0x2DE4 DUP7 DUP3 DUP8 ADD PUSH2 0x2BEA JUMP JUMPDEST SWAP4 POP POP PUSH1 0x20 PUSH2 0x2DF5 DUP7 DUP3 DUP8 ADD PUSH2 0x2BEA JUMP JUMPDEST SWAP3 POP POP PUSH1 0x40 PUSH2 0x2E06 DUP7 DUP3 DUP8 ADD PUSH2 0x2B35 JUMP JUMPDEST SWAP2 POP POP SWAP3 POP SWAP3 POP SWAP3 JUMP JUMPDEST PUSH1 0x0 PUSH1 0x20 DUP3 DUP5 SUB SLT ISZERO PUSH2 0x2E26 JUMPI PUSH2 0x2E25 PUSH2 0x2994 JUMP JUMPDEST JUMPDEST PUSH1 0x0 PUSH2 0x2E34 DUP5 DUP3 DUP6 ADD PUSH2 0x2BEA JUMP JUMPDEST SWAP2 POP POP SWAP3 SWAP2 POP POP JUMP JUMPDEST PUSH2 0x2E46 DUP2 PUSH2 0x2B14 JUMP JUMPDEST DUP3 MSTORE POP POP JUMP JUMPDEST PUSH1 0x0 PUSH1 0x20 DUP3 ADD SWAP1 POP PUSH2 0x2E61 PUSH1 0x0 DUP4 ADD DUP5 PUSH2 0x2E3D JUMP JUMPDEST SWAP3 SWAP2 POP POP JUMP JUMPDEST PUSH1 0x0 PUSH2 0x2E72 DUP3 PUSH2 0x2B77 JUMP JUMPDEST SWAP1 POP SWAP2 SWAP1 POP JUMP JUMPDEST PUSH2 0x2E82 DUP2 PUSH2 0x2E67 JUMP JUMPDEST DUP3 MSTORE POP POP JUMP JUMPDEST PUSH1 0x0 PUSH1 0x20 DUP3 ADD SWAP1 POP PUSH2 0x2E9D PUSH1 0x0 DUP4 ADD DUP5 PUSH2 0x2E79 JUMP JUMPDEST SWAP3 SWAP2 POP POP JUMP JUMPDEST PUSH2 0x2EAC DUP2 PUSH2 0x2A23 JUMP JUMPDEST DUP2 EQ PUSH2 0x2EB7 JUMPI PUSH1 0x0 DUP1 REVERT JUMPDEST POP JUMP JUMPDEST PUSH1 0x0 DUP2 CALLDATALOAD SWAP1 POP PUSH2 0x2EC9 DUP2 PUSH2 0x2EA3 JUMP JUMPDEST SWAP3 SWAP2 POP POP JUMP JUMPDEST PUSH1 0x0 DUP1 PUSH1 0x40 DUP4 DUP6 SUB SLT ISZERO PUSH2 0x2EE6 JUMPI PUSH2 0x2EE5 PUSH2 0x2994 JUMP JUMPDEST JUMPDEST PUSH1 0x0 PUSH2 0x2EF4 DUP6 DUP3 DUP7 ADD PUSH2 0x2BEA JUMP JUMPDEST SWAP3 POP POP PUSH1 0x20 PUSH2 0x2F05 DUP6 DUP3 DUP7 ADD PUSH2 0x2EBA JUMP JUMPDEST SWAP2 POP POP SWAP3 POP SWAP3 SWAP1 POP JUMP JUMPDEST PUSH1 0x0 PUSH8 0xFFFFFFFFFFFFFFFF DUP3 GT ISZERO PUSH2 0x2F2A JUMPI PUSH2 0x2F29 PUSH2 0x2C49 JUMP JUMPDEST JUMPDEST PUSH2 0x2F33 DUP3 PUSH2 0x2AA8 JUMP JUMPDEST SWAP1 POP PUSH1 0x20 DUP2 ADD SWAP1 POP SWAP2 SWAP1 POP JUMP JUMPDEST PUSH1 0x0 PUSH2 0x2F53 PUSH2 0x2F4E DUP5 PUSH2 0x2F0F JUMP JUMPDEST PUSH2 0x2CA9 JUMP JUMPDEST SWAP1 POP DUP3 DUP2 MSTORE PUSH1 0x20 DUP2 ADD DUP5 DUP5 DUP5 ADD GT ISZERO PUSH2 0x2F6F JUMPI PUSH2 0x2F6E PUSH2 0x2C44 JUMP JUMPDEST JUMPDEST PUSH2 0x2F7A DUP5 DUP3 DUP6 PUSH2 0x2CF5 JUMP JUMPDEST POP SWAP4 SWAP3 POP POP POP JUMP JUMPDEST PUSH1 0x0 DUP3 PUSH1 0x1F DUP4 ADD SLT PUSH2 0x2F97 JUMPI PUSH2 0x2F96 PUSH2 0x2C3F JUMP JUMPDEST JUMPDEST DUP2 CALLDATALOAD PUSH2 0x2FA7 DUP5 DUP3 PUSH1 0x20 DUP7 ADD PUSH2 0x2F40 JUMP JUMPDEST SWAP2 POP POP SWAP3 SWAP2 POP POP JUMP JUMPDEST PUSH1 0x0 DUP1 PUSH1 0x0 DUP1 PUSH1 0x80 DUP6 DUP8 SUB SLT ISZERO PUSH2 0x2FCA JUMPI PUSH2 0x2FC9 PUSH2 0x2994 JUMP JUMPDEST JUMPDEST PUSH1 0x0 PUSH2 0x2FD8 DUP8 DUP3 DUP9 ADD PUSH2 0x2BEA JUMP JUMPDEST SWAP5 POP POP PUSH1 0x20 PUSH2 0x2FE9 DUP8 DUP3 DUP9 ADD PUSH2 0x2BEA JUMP JUMPDEST SWAP4 POP POP PUSH1 0x40 PUSH2 0x2FFA DUP8 DUP3 DUP9 ADD PUSH2 0x2B35 JUMP JUMPDEST SWAP3 POP POP PUSH1 0x60 DUP6 ADD CALLDATALOAD PUSH8 0xFFFFFFFFFFFFFFFF DUP2 GT ISZERO PUSH2 0x301B JUMPI PUSH2 0x301A PUSH2 0x2999 JUMP JUMPDEST JUMPDEST PUSH2 0x3027 DUP8 DUP3 DUP9 ADD PUSH2 0x2F82 JUMP JUMPDEST SWAP2 POP POP SWAP3 SWAP6 SWAP2 SWAP5 POP SWAP3 POP JUMP JUMPDEST PUSH1 0x0 DUP1 PUSH1 0x40 DUP4 DUP6 SUB SLT ISZERO PUSH2 0x304A JUMPI PUSH2 0x3049 PUSH2 0x2994 JUMP JUMPDEST JUMPDEST PUSH1 0x0 DUP4 ADD CALLDATALOAD PUSH8 0xFFFFFFFFFFFFFFFF DUP2 GT ISZERO PUSH2 0x3068 JUMPI PUSH2 0x3067 PUSH2 0x2999 JUMP JUMPDEST JUMPDEST PUSH2 0x3074 DUP6 DUP3 DUP7 ADD PUSH2 0x2D46 JUMP JUMPDEST SWAP3 POP POP PUSH1 0x20 DUP4 ADD CALLDATALOAD PUSH8 0xFFFFFFFFFFFFFFFF DUP2 GT ISZERO PUSH2 0x3095 JUMPI PUSH2 0x3094 PUSH2 0x2999 JUMP JUMPDEST JUMPDEST PUSH2 0x30A1 DUP6 DUP3 DUP7 ADD PUSH2 0x2D46 JUMP JUMPDEST SWAP2 POP POP SWAP3 POP SWAP3 SWAP1 POP JUMP JUMPDEST PUSH1 0x0 DUP1 PUSH1 0x40 DUP4 DUP6 SUB SLT ISZERO PUSH2 0x30C2 JUMPI PUSH2 0x30C1 PUSH2 0x2994 JUMP JUMPDEST JUMPDEST PUSH1 0x0 PUSH2 0x30D0 DUP6 DUP3 DUP7 ADD PUSH2 0x2BEA JUMP JUMPDEST SWAP3 POP POP PUSH1 0x20 PUSH2 0x30E1 DUP6 DUP3 DUP7 ADD PUSH2 0x2BEA JUMP JUMPDEST SWAP2 POP POP SWAP3 POP SWAP3 SWAP1 POP JUMP JUMPDEST PUSH1 0x0 DUP2 MLOAD SWAP1 POP SWAP2 SWAP1 POP JUMP JUMPDEST PUSH1 0x0 DUP3 DUP3 MSTORE PUSH1 0x20 DUP3 ADD SWAP1 POP SWAP3 SWAP2 POP POP JUMP JUMPDEST PUSH1 0x0 DUP2 SWAP1 POP PUSH1 0x20 DUP3 ADD SWAP1 POP SWAP2 SWAP1 POP JUMP JUMPDEST PUSH1 0x0 DUP3 DUP3 MSTORE PUSH1 0x20 DUP3 ADD SWAP1 POP SWAP3 SWAP2 POP POP JUMP JUMPDEST PUSH1 0x0 PUSH2 0x3133 DUP3 PUSH2 0x2A59 JUMP JUMPDEST PUSH2 0x313D DUP2 DUP6 PUSH2 0x3117 JUMP JUMPDEST SWAP4 POP PUSH2 0x314D DUP2 DUP6 PUSH1 0x20 DUP7 ADD PUSH2 0x2A75 JUMP JUMPDEST PUSH2 0x3156 DUP2 PUSH2 0x2AA8 JUMP JUMPDEST DUP5 ADD SWAP2 POP POP SWAP3 SWAP2 POP POP JUMP JUMPDEST PUSH1 0x0 PUSH2 0x316D DUP4 DUP4 PUSH2 0x3128 JUMP JUMPDEST SWAP1 POP SWAP3 SWAP2 POP POP JUMP JUMPDEST PUSH1 0x0 PUSH1 0x20 DUP3 ADD SWAP1 POP SWAP2 SWAP1 POP JUMP JUMPDEST PUSH1 0x0 PUSH2 0x318D DUP3 PUSH2 0x30EB JUMP JUMPDEST PUSH2 0x3197 DUP2 DUP6 PUSH2 0x30F6 JUMP JUMPDEST SWAP4 POP DUP4 PUSH1 0x20 DUP3 MUL DUP6 ADD PUSH2 0x31A9 DUP6 PUSH2 0x3107 JUMP JUMPDEST DUP1 PUSH1 0x0 JUMPDEST DUP6 DUP2 LT ISZERO PUSH2 0x31E5 JUMPI DUP5 DUP5 SUB DUP10 MSTORE DUP2 MLOAD PUSH2 0x31C6 DUP6 DUP3 PUSH2 0x3161 JUMP JUMPDEST SWAP5 POP PUSH2 0x31D1 DUP4 PUSH2 0x3175 JUMP JUMPDEST SWAP3 POP PUSH1 0x20 DUP11 ADD SWAP10 POP POP PUSH1 0x1 DUP2 ADD SWAP1 POP PUSH2 0x31AD JUMP JUMPDEST POP DUP3 SWAP8 POP DUP8 SWAP6 POP POP POP POP POP POP SWAP3 SWAP2 POP POP JUMP JUMPDEST PUSH1 0x0 PUSH1 0x20 DUP3 ADD SWAP1 POP DUP2 DUP2 SUB PUSH1 0x0 DUP4 ADD MSTORE PUSH2 0x3211 DUP2 DUP5 PUSH2 0x3182 JUMP JUMPDEST SWAP1 POP SWAP3 SWAP2 POP POP JUMP JUMPDEST PUSH32 0x4E487B7100000000000000000000000000000000000000000000000000000000 PUSH1 0x0 MSTORE PUSH1 0x22 PUSH1 0x4 MSTORE PUSH1 0x24 PUSH1 0x0 REVERT JUMPDEST PUSH1 0x0 PUSH1 0x2 DUP3 DIV SWAP1 POP PUSH1 0x1 DUP3 AND DUP1 PUSH2 0x3260 JUMPI PUSH1 0x7F DUP3 AND SWAP2 POP JUMPDEST PUSH1 0x20 DUP3 LT DUP2 SUB PUSH2 0x3273 JUMPI PUSH2 0x3272 PUSH2 0x3219 JUMP JUMPDEST JUMPDEST POP SWAP2 SWAP1 POP JUMP JUMPDEST PUSH32 0x4552433732313A20617070726F76656420717565727920666F72206E6F6E6578 PUSH1 0x0 DUP3 ADD MSTORE PUSH32 0x697374656E7420746F6B656E0000000000000000000000000000000000000000 PUSH1 0x20 DUP3 ADD MSTORE POP JUMP JUMPDEST PUSH1 0x0 PUSH2 0x32D5 PUSH1 0x2C DUP4 PUSH2 0x2A64 JUMP JUMPDEST SWAP2 POP PUSH2 0x32E0 DUP3 PUSH2 0x3279 JUMP JUMPDEST PUSH1 0x40 DUP3 ADD SWAP1 POP SWAP2 SWAP1 POP JUMP JUMPDEST PUSH1 0x0 PUSH1 0x20 DUP3 ADD SWAP1 POP DUP2 DUP2 SUB PUSH1 0x0 DUP4 ADD MSTORE PUSH2 0x3304 DUP2 PUSH2 0x32C8 JUMP JUMPDEST SWAP1 POP SWAP2 SWAP1 POP JUMP JUMPDEST PUSH32 0x4552433732313A20617070726F76616C20746F2063757272656E74206F776E65 PUSH1 0x0 DUP3 ADD MSTORE PUSH32 0x7200000000000000000000000000000000000000000000000000000000000000 PUSH1 0x20 DUP3 ADD MSTORE POP JUMP JUMPDEST PUSH1 0x0 PUSH2 0x3367 PUSH1 0x21 DUP4 PUSH2 0x2A64 JUMP JUMPDEST SWAP2 POP PUSH2 0x3372 DUP3 PUSH2 0x330B JUMP JUMPDEST PUSH1 0x40 DUP3 ADD SWAP1 POP SWAP2 SWAP1 POP JUMP JUMPDEST PUSH1 0x0 PUSH1 0x20 DUP3 ADD SWAP1 POP DUP2 DUP2 SUB PUSH1 0x0 DUP4 ADD MSTORE PUSH2 0x3396 DUP2 PUSH2 0x335A JUMP JUMPDEST SWAP1 POP SWAP2 SWAP1 POP JUMP JUMPDEST PUSH32 0x4552433732313A20617070726F76652063616C6C6572206973206E6F74206F77 PUSH1 0x0 DUP3 ADD MSTORE PUSH32 0x6E6572206E6F7220617070726F76656420666F7220616C6C0000000000000000 PUSH1 0x20 DUP3 ADD MSTORE POP JUMP JUMPDEST PUSH1 0x0 PUSH2 0x33F9 PUSH1 0x38 DUP4 PUSH2 0x2A64 JUMP JUMPDEST SWAP2 POP PUSH2 0x3404 DUP3 PUSH2 0x339D JUMP JUMPDEST PUSH1 0x40 DUP3 ADD SWAP1 POP SWAP2 SWAP1 POP JUMP JUMPDEST PUSH1 0x0 PUSH1 0x20 DUP3 ADD SWAP1 POP DUP2 DUP2 SUB PUSH1 0x0 DUP4 ADD MSTORE PUSH2 0x3428 DUP2 PUSH2 0x33EC JUMP JUMPDEST SWAP1 POP SWAP2 SWAP1 POP JUMP JUMPDEST PUSH1 0x0 DUP2 SWAP1 POP SWAP3 SWAP2 POP POP JUMP JUMPDEST PUSH1 0x0 PUSH2 0x3445 DUP3 PUSH2 0x2A59 JUMP JUMPDEST PUSH2 0x344F DUP2 DUP6 PUSH2 0x342F JUMP JUMPDEST SWAP4 POP PUSH2 0x345F DUP2 DUP6 PUSH1 0x20 DUP7 ADD PUSH2 0x2A75 JUMP JUMPDEST DUP1 DUP5 ADD SWAP2 POP POP SWAP3 SWAP2 POP POP JUMP JUMPDEST PUSH1 0x0 PUSH2 0x3477 DUP3 DUP5 PUSH2 0x343A JUMP JUMPDEST SWAP2 POP DUP2 SWAP1 POP SWAP3 SWAP2 POP POP JUMP JUMPDEST PUSH32 0x4552433732313A207472616E736665722063616C6C6572206973206E6F74206F PUSH1 0x0 DUP3 ADD MSTORE PUSH32 0x776E6572206E6F7220617070726F766564000000000000000000000000000000 PUSH1 0x20 DUP3 ADD MSTORE POP JUMP JUMPDEST PUSH1 0x0 PUSH2 0x34DE PUSH1 0x31 DUP4 PUSH2 0x2A64 JUMP JUMPDEST SWAP2 POP PUSH2 0x34E9 DUP3 PUSH2 0x3482 JUMP JUMPDEST PUSH1 0x40 DUP3 ADD SWAP1 POP SWAP2 SWAP1 POP JUMP JUMPDEST PUSH1 0x0 PUSH1 0x20 DUP3 ADD SWAP1 POP DUP2 DUP2 SUB PUSH1 0x0 DUP4 ADD MSTORE PUSH2 0x350D DUP2 PUSH2 0x34D1 JUMP JUMPDEST SWAP1 POP SWAP2 SWAP1 POP JUMP JUMPDEST PUSH1 0x0 DUP2 SWAP1 POP SWAP3 SWAP2 POP POP JUMP JUMPDEST POP JUMP JUMPDEST PUSH1 0x0 PUSH2 0x352F PUSH1 0x0 DUP4 PUSH2 0x3514 JUMP JUMPDEST SWAP2 POP PUSH2 0x353A DUP3 PUSH2 0x351F JUMP JUMPDEST PUSH1 0x0 DUP3 ADD SWAP1 POP SWAP2 SWAP1 POP JUMP JUMPDEST PUSH1 0x0 PUSH2 0x3550 DUP3 PUSH2 0x3522 JUMP JUMPDEST SWAP2 POP DUP2 SWAP1 POP SWAP2 SWAP1 POP JUMP JUMPDEST PUSH32 0x4661696C656420746F207769746864726177204D617469630000000000000000 PUSH1 0x0 DUP3 ADD MSTORE POP JUMP JUMPDEST PUSH1 0x0 PUSH2 0x3590 PUSH1 0x18 DUP4 PUSH2 0x2A64 JUMP JUMPDEST SWAP2 POP PUSH2 0x359B DUP3 PUSH2 0x355A JUMP JUMPDEST PUSH1 0x20 DUP3 ADD SWAP1 POP SWAP2 SWAP1 POP JUMP JUMPDEST PUSH1 0x0 PUSH1 0x20 DUP3 ADD SWAP1 POP DUP2 DUP2 SUB PUSH1 0x0 DUP4 ADD MSTORE PUSH2 0x35BF DUP2 PUSH2 0x3583 JUMP JUMPDEST SWAP1 POP SWAP2 SWAP1 POP JUMP JUMPDEST PUSH32 0x4552433732313A206F776E657220717565727920666F72206E6F6E6578697374 PUSH1 0x0 DUP3 ADD MSTORE PUSH32 0x656E7420746F6B656E0000000000000000000000000000000000000000000000 PUSH1 0x20 DUP3 ADD MSTORE POP JUMP JUMPDEST PUSH1 0x0 PUSH2 0x3622 PUSH1 0x29 DUP4 PUSH2 0x2A64 JUMP JUMPDEST SWAP2 POP PUSH2 0x362D DUP3 PUSH2 0x35C6 JUMP JUMPDEST PUSH1 0x40 DUP3 ADD SWAP1 POP SWAP2 SWAP1 POP JUMP JUMPDEST PUSH1 0x0 PUSH1 0x20 DUP3 ADD SWAP1 POP DUP2 DUP2 SUB PUSH1 0x0 DUP4 ADD MSTORE PUSH2 0x3651 DUP2 PUSH2 0x3615 JUMP JUMPDEST SWAP1 POP SWAP2 SWAP1 POP JUMP JUMPDEST PUSH32 0x4552433732313A2062616C616E636520717565727920666F7220746865207A65 PUSH1 0x0 DUP3 ADD MSTORE PUSH32 0x726F206164647265737300000000000000000000000000000000000000000000 PUSH1 0x20 DUP3 ADD MSTORE POP JUMP JUMPDEST PUSH1 0x0 PUSH2 0x36B4 PUSH1 0x2A DUP4 PUSH2 0x2A64 JUMP JUMPDEST SWAP2 POP PUSH2 0x36BF DUP3 PUSH2 0x3658 JUMP JUMPDEST PUSH1 0x40 DUP3 ADD SWAP1 POP SWAP2 SWAP1 POP JUMP JUMPDEST PUSH1 0x0 PUSH1 0x20 DUP3 ADD SWAP1 POP DUP2 DUP2 SUB PUSH1 0x0 DUP4 ADD MSTORE PUSH2 0x36E3 DUP2 PUSH2 0x36A7 JUMP JUMPDEST SWAP1 POP SWAP2 SWAP1 POP JUMP JUMPDEST PUSH1 0x0 DUP2 SWAP1 POP DUP2 PUSH1 0x0 MSTORE PUSH1 0x20 PUSH1 0x0 KECCAK256 SWAP1 POP SWAP2 SWAP1 POP JUMP JUMPDEST PUSH1 0x0 PUSH1 0x20 PUSH1 0x1F DUP4 ADD DIV SWAP1 POP SWAP2 SWAP1 POP JUMP JUMPDEST PUSH1 0x0 DUP3 DUP3 SHL SWAP1 POP SWAP3 SWAP2 POP POP JUMP JUMPDEST PUSH1 0x0 PUSH1 0x8 DUP4 MUL PUSH2 0x374C PUSH32 0xFFFFFFFFFFFFFFFFFFFFFFFFFFFFFFFFFFFFFFFFFFFFFFFFFFFFFFFFFFFFFFFF DUP3 PUSH2 0x370F JUMP JUMPDEST PUSH2 0x3756 DUP7 DUP4 PUSH2 0x370F JUMP JUMPDEST SWAP6 POP DUP1 NOT DUP5 AND SWAP4 POP DUP1 DUP7 AND DUP5 OR SWAP3 POP POP POP SWAP4 SWAP3 POP POP POP JUMP JUMPDEST PUSH1 0x0 DUP2 SWAP1 POP SWAP2 SWAP1 POP JUMP JUMPDEST PUSH1 0x0 PUSH2 0x3793 PUSH2 0x378E PUSH2 0x3789 DUP5 PUSH2 0x2B14 JUMP JUMPDEST PUSH2 0x376E JUMP JUMPDEST PUSH2 0x2B14 JUMP JUMPDEST SWAP1 POP SWAP2 SWAP1 POP JUMP JUMPDEST PUSH1 0x0 DUP2 SWAP1 POP SWAP2 SWAP1 POP JUMP JUMPDEST PUSH2 0x37AD DUP4 PUSH2 0x3778 JUMP JUMPDEST PUSH2 0x37C1 PUSH2 0x37B9 DUP3 PUSH2 0x379A JUMP JUMPDEST DUP5 DUP5 SLOAD PUSH2 0x371C JUMP JUMPDEST DUP3 SSTORE POP POP POP POP JUMP JUMPDEST PUSH1 0x0 SWAP1 JUMP JUMPDEST PUSH2 0x37D6 PUSH2 0x37C9 JUMP JUMPDEST PUSH2 0x37E1 DUP2 DUP5 DUP5 PUSH2 0x37A4 JUMP JUMPDEST POP POP POP JUMP JUMPDEST JUMPDEST DUP2 DUP2 LT ISZERO PUSH2 0x3805 JUMPI PUSH2 0x37FA PUSH1 0x0 DUP3 PUSH2 0x37CE JUMP JUMPDEST PUSH1 0x1 DUP2 ADD SWAP1 POP PUSH2 0x37E7 JUMP JUMPDEST POP POP JUMP JUMPDEST PUSH1 0x1F DUP3 GT ISZERO PUSH2 0x384A JUMPI PUSH2 0x381B DUP2 PUSH2 0x36EA JUMP JUMPDEST PUSH2 0x3824 DUP5 PUSH2 0x36FF JUMP JUMPDEST DUP2 ADD PUSH1 0x20 DUP6 LT ISZERO PUSH2 0x3833 JUMPI DUP2 SWAP1 POP JUMPDEST PUSH2 0x3847 PUSH2 0x383F DUP6 PUSH2 0x36FF JUMP JUMPDEST DUP4 ADD DUP3 PUSH2 0x37E6 JUMP JUMPDEST POP POP JUMPDEST POP POP POP JUMP JUMPDEST PUSH1 0x0 DUP3 DUP3 SHR SWAP1 POP SWAP3 SWAP2 POP POP JUMP JUMPDEST PUSH1 0x0 PUSH2 0x386D PUSH1 0x0 NOT DUP5 PUSH1 0x8 MUL PUSH2 0x384F JUMP JUMPDEST NOT DUP1 DUP4 AND SWAP2 POP POP SWAP3 SWAP2 POP POP JUMP JUMPDEST PUSH1 0x0 PUSH2 0x3886 DUP4 DUP4 PUSH2 0x385C JUMP JUMPDEST SWAP2 POP DUP3 PUSH1 0x2 MUL DUP3 OR SWAP1 POP SWAP3 SWAP2 POP POP JUMP JUMPDEST PUSH2 0x389F DUP3 PUSH2 0x2A59 JUMP JUMPDEST PUSH8 0xFFFFFFFFFFFFFFFF DUP2 GT ISZERO PUSH2 0x38B8 JUMPI PUSH2 0x38B7 PUSH2 0x2C49 JUMP JUMPDEST JUMPDEST PUSH2 0x38C2 DUP3 SLOAD PUSH2 0x3248 JUMP JUMPDEST PUSH2 0x38CD DUP3 DUP3 DUP6 PUSH2 0x3809 JUMP JUMPDEST PUSH1 0x0 PUSH1 0x20 SWAP1 POP PUSH1 0x1F DUP4 GT PUSH1 0x1 DUP2 EQ PUSH2 0x3900 JUMPI PUSH1 0x0 DUP5 ISZERO PUSH2 0x38EE JUMPI DUP3 DUP8 ADD MLOAD SWAP1 POP JUMPDEST PUSH2 0x38F8 DUP6 DUP3 PUSH2 0x387A JUMP JUMPDEST DUP7 SSTORE POP PUSH2 0x3960 JUMP JUMPDEST PUSH1 0x1F NOT DUP5 AND PUSH2 0x390E DUP7 PUSH2 0x36EA JUMP JUMPDEST PUSH1 0x0 JUMPDEST DUP3 DUP2 LT ISZERO PUSH2 0x3936 JUMPI DUP5 DUP10 ADD MLOAD DUP3 SSTORE PUSH1 0x1 DUP3 ADD SWAP2 POP PUSH1 0x20 DUP6 ADD SWAP5 POP PUSH1 0x20 DUP2 ADD SWAP1 POP PUSH2 0x3911 JUMP JUMPDEST DUP7 DUP4 LT ISZERO PUSH2 0x3953 JUMPI DUP5 DUP10 ADD MLOAD PUSH2 0x394F PUSH1 0x1F DUP10 AND DUP3 PUSH2 0x385C JUMP JUMPDEST DUP4 SSTORE POP JUMPDEST PUSH1 0x1 PUSH1 0x2 DUP9 MUL ADD DUP9 SSTORE POP POP POP JUMPDEST POP POP POP POP POP POP JUMP JUMPDEST PUSH32 0x45524337323155524953746F726167653A2055524920717565727920666F7220 PUSH1 0x0 DUP3 ADD MSTORE PUSH32 0x6E6F6E6578697374656E7420746F6B656E000000000000000000000000000000 PUSH1 0x20 DUP3 ADD MSTORE POP JUMP JUMPDEST PUSH1 0x0 PUSH2 0x39C4 PUSH1 0x31 DUP4 PUSH2 0x2A64 JUMP JUMPDEST SWAP2 POP PUSH2 0x39CF DUP3 PUSH2 0x3968 JUMP JUMPDEST PUSH1 0x40 DUP3 ADD SWAP1 POP SWAP2 SWAP1 POP JUMP JUMPDEST PUSH1 0x0 PUSH1 0x20 DUP3 ADD SWAP1 POP DUP2 DUP2 SUB PUSH1 0x0 DUP4 ADD MSTORE PUSH2 0x39F3 DUP2 PUSH2 0x39B7 JUMP JUMPDEST SWAP1 POP SWAP2 SWAP1 POP JUMP JUMPDEST PUSH1 0x0 PUSH2 0x3A06 DUP3 DUP6 PUSH2 0x343A JUMP JUMPDEST SWAP2 POP PUSH2 0x3A12 DUP3 DUP5 PUSH2 0x343A JUMP JUMPDEST SWAP2 POP DUP2 SWAP1 POP SWAP4 SWAP3 POP POP POP JUMP JUMPDEST PUSH32 0x4E6F7420656E6F756768204D6174696320706169640000000000000000000000 PUSH1 0x0 DUP3 ADD MSTORE POP JUMP JUMPDEST PUSH1 0x0 PUSH2 0x3A54 PUSH1 0x15 DUP4 PUSH2 0x2A64 JUMP JUMPDEST SWAP2 POP PUSH2 0x3A5F DUP3 PUSH2 0x3A1E JUMP JUMPDEST PUSH1 0x20 DUP3 ADD SWAP1 POP SWAP2 SWAP1 POP JUMP JUMPDEST PUSH1 0x0 PUSH1 0x20 DUP3 ADD SWAP1 POP DUP2 DUP2 SUB PUSH1 0x0 DUP4 ADD MSTORE PUSH2 0x3A83 DUP2 PUSH2 0x3A47 JUMP JUMPDEST SWAP1 POP SWAP2 SWAP1 POP JUMP JUMPDEST PUSH32 0x2E00000000000000000000000000000000000000000000000000000000000000 PUSH1 0x0 DUP3 ADD MSTORE POP JUMP JUMPDEST PUSH1 0x0 PUSH2 0x3AC0 PUSH1 0x1 DUP4 PUSH2 0x342F JUMP JUMPDEST SWAP2 POP PUSH2 0x3ACB DUP3 PUSH2 0x3A8A JUMP JUMPDEST PUSH1 0x1 DUP3 ADD SWAP1 POP SWAP2 SWAP1 POP JUMP JUMPDEST PUSH1 0x0 DUP2 SLOAD PUSH2 0x3AE3 DUP2 PUSH2 0x3248 JUMP JUMPDEST PUSH2 0x3AED DUP2 DUP7 PUSH2 0x342F JUMP JUMPDEST SWAP5 POP PUSH1 0x1 DUP3 AND PUSH1 0x0 DUP2 EQ PUSH2 0x3B08 JUMPI PUSH1 0x1 DUP2 EQ PUSH2 0x3B1D JUMPI PUSH2 0x3B50 JUMP JUMPDEST PUSH1 0xFF NOT DUP4 AND DUP7 MSTORE DUP2 ISZERO ISZERO DUP3 MUL DUP7 ADD SWAP4 POP PUSH2 0x3B50 JUMP JUMPDEST PUSH2 0x3B26 DUP6 PUSH2 0x36EA JUMP JUMPDEST PUSH1 0x0 JUMPDEST DUP4 DUP2 LT ISZERO PUSH2 0x3B48 JUMPI DUP2 SLOAD DUP2 DUP10 ADD MSTORE PUSH1 0x1 DUP3 ADD SWAP2 POP PUSH1 0x20 DUP2 ADD SWAP1 POP PUSH2 0x3B29 JUMP JUMPDEST DUP4 DUP9 ADD SWAP6 POP POP POP JUMPDEST POP POP POP SWAP3 SWAP2 POP POP JUMP JUMPDEST PUSH1 0x0 PUSH2 0x3B65 DUP3 DUP6 PUSH2 0x343A JUMP JUMPDEST SWAP2 POP PUSH2 0x3B70 DUP3 PUSH2 0x3AB3 JUMP JUMPDEST SWAP2 POP PUSH2 0x3B7C DUP3 DUP5 PUSH2 0x3AD6 JUMP JUMPDEST SWAP2 POP DUP2 SWAP1 POP SWAP4 SWAP3 POP POP POP JUMP JUMPDEST PUSH1 0x0 PUSH2 0x3B94 DUP3 DUP7 PUSH2 0x3AD6 JUMP JUMPDEST SWAP2 POP PUSH2 0x3BA0 DUP3 DUP6 PUSH2 0x343A JUMP JUMPDEST SWAP2 POP PUSH2 0x3BAC DUP3 DUP5 PUSH2 0x3AD6 JUMP JUMPDEST SWAP2 POP DUP2 SWAP1 POP SWAP5 SWAP4 POP POP POP POP JUMP JUMPDEST PUSH32 0x7B226E616D65223A202200000000000000000000000000000000000000000000 PUSH1 0x0 DUP3 ADD MSTORE POP JUMP JUMPDEST PUSH1 0x0 PUSH2 0x3BEF PUSH1 0xA DUP4 PUSH2 0x342F JUMP JUMPDEST SWAP2 POP PUSH2 0x3BFA DUP3 PUSH2 0x3BB9 JUMP JUMPDEST PUSH1 0xA DUP3 ADD SWAP1 POP SWAP2 SWAP1 POP JUMP JUMPDEST PUSH32 0x222C20226465736372697074696F6E223A20224120646F6D61696E206F6E2074 PUSH1 0x0 DUP3 ADD MSTORE PUSH32 0x68652044616D6E204E616D652053657276696365222C2022696D616765223A20 PUSH1 0x20 DUP3 ADD MSTORE PUSH32 0x22646174613A696D6167652F7376672B786D6C3B6261736536342C0000000000 PUSH1 0x40 DUP3 ADD MSTORE POP JUMP JUMPDEST PUSH1 0x0 PUSH2 0x3C87 PUSH1 0x5B DUP4 PUSH2 0x342F JUMP JUMPDEST SWAP2 POP PUSH2 0x3C92 DUP3 PUSH2 0x3C05 JUMP JUMPDEST PUSH1 0x5B DUP3 ADD SWAP1 POP SWAP2 SWAP1 POP JUMP JUMPDEST PUSH32 0x222C226C656E677468223A220000000000000000000000000000000000000000 PUSH1 0x0 DUP3 ADD MSTORE POP JUMP JUMPDEST PUSH1 0x0 PUSH2 0x3CD3 PUSH1 0xC DUP4 PUSH2 0x342F JUMP JUMPDEST SWAP2 POP PUSH2 0x3CDE DUP3 PUSH2 0x3C9D JUMP JUMPDEST PUSH1 0xC DUP3 ADD SWAP1 POP SWAP2 SWAP1 POP JUMP JUMPDEST PUSH32 0x227D000000000000000000000000000000000000000000000000000000000000 PUSH1 0x0 DUP3 ADD MSTORE POP JUMP JUMPDEST PUSH1 0x0 PUSH2 0x3D1F PUSH1 0x2 DUP4 PUSH2 0x342F JUMP JUMPDEST SWAP2 POP PUSH2 0x3D2A DUP3 PUSH2 0x3CE9 JUMP JUMPDEST PUSH1 0x2 DUP3 ADD SWAP1 POP SWAP2 SWAP1 POP JUMP JUMPDEST PUSH1 0x0 PUSH2 0x3D40 DUP3 PUSH2 0x3BE2 JUMP JUMPDEST SWAP2 POP PUSH2 0x3D4C DUP3 DUP7 PUSH2 0x343A JUMP JUMPDEST SWAP2 POP PUSH2 0x3D57 DUP3 PUSH2 0x3C7A JUMP JUMPDEST SWAP2 POP PUSH2 0x3D63 DUP3 DUP6 PUSH2 0x343A JUMP JUMPDEST SWAP2 POP PUSH2 0x3D6E DUP3 PUSH2 0x3CC6 JUMP JUMPDEST SWAP2 POP PUSH2 0x3D7A DUP3 DUP5 PUSH2 0x343A JUMP JUMPDEST SWAP2 POP PUSH2 0x3D85 DUP3 PUSH2 0x3D12 JUMP JUMPDEST SWAP2 POP DUP2 SWAP1 POP SWAP5 SWAP4 POP POP POP POP JUMP JUMPDEST PUSH32 0x646174613A6170706C69636174696F6E2F6A736F6E3B6261736536342C000000 PUSH1 0x0 DUP3 ADD MSTORE POP JUMP JUMPDEST PUSH1 0x0 PUSH2 0x3DC8 PUSH1 0x1D DUP4 PUSH2 0x342F JUMP JUMPDEST SWAP2 POP PUSH2 0x3DD3 DUP3 PUSH2 0x3D92 JUMP JUMPDEST PUSH1 0x1D DUP3 ADD SWAP1 POP SWAP2 SWAP1 POP JUMP JUMPDEST PUSH1 0x0 PUSH2 0x3DE9 DUP3 PUSH2 0x3DBB JUMP JUMPDEST SWAP2 POP PUSH2 0x3DF5 DUP3 DUP5 PUSH2 0x343A JUMP JUMPDEST SWAP2 POP DUP2 SWAP1 POP SWAP3 SWAP2 POP POP JUMP JUMPDEST PUSH32 0x4E487B7100000000000000000000000000000000000000000000000000000000 PUSH1 0x0 MSTORE PUSH1 0x32 PUSH1 0x4 MSTORE PUSH1 0x24 PUSH1 0x0 REVERT JUMPDEST PUSH32 0x4E487B7100000000000000000000000000000000000000000000000000000000 PUSH1 0x0 MSTORE PUSH1 0x11 PUSH1 0x4 MSTORE PUSH1 0x24 PUSH1 0x0 REVERT JUMPDEST PUSH1 0x0 PUSH2 0x3E69 DUP3 PUSH2 0x2B14 JUMP JUMPDEST SWAP2 POP PUSH32 0xFFFFFFFFFFFFFFFFFFFFFFFFFFFFFFFFFFFFFFFFFFFFFFFFFFFFFFFFFFFFFFFF DUP3 SUB PUSH2 0x3E9B JUMPI PUSH2 0x3E9A PUSH2 0x3E2F JUMP JUMPDEST JUMPDEST PUSH1 0x1 DUP3 ADD SWAP1 POP SWAP2 SWAP1 POP JUMP JUMPDEST PUSH32 0x4552433732313A206F70657261746F7220717565727920666F72206E6F6E6578 PUSH1 0x0 DUP3 ADD MSTORE PUSH32 0x697374656E7420746F6B656E0000000000000000000000000000000000000000 PUSH1 0x20 DUP3 ADD MSTORE POP JUMP JUMPDEST PUSH1 0x0 PUSH2 0x3F02 PUSH1 0x2C DUP4 PUSH2 0x2A64 JUMP JUMPDEST SWAP2 POP PUSH2 0x3F0D DUP3 PUSH2 0x3EA6 JUMP JUMPDEST PUSH1 0x40 DUP3 ADD SWAP1 POP SWAP2 SWAP1 POP JUMP JUMPDEST PUSH1 0x0 PUSH1 0x20 DUP3 ADD SWAP1 POP DUP2 DUP2 SUB PUSH1 0x0 DUP4 ADD MSTORE PUSH2 0x3F31 DUP2 PUSH2 0x3EF5 JUMP JUMPDEST SWAP1 POP SWAP2 SWAP1 POP JUMP JUMPDEST PUSH32 0x4552433732313A207472616E736665722066726F6D20696E636F727265637420 PUSH1 0x0 DUP3 ADD MSTORE PUSH32 0x6F776E6572000000000000000000000000000000000000000000000000000000 PUSH1 0x20 DUP3 ADD MSTORE POP JUMP JUMPDEST PUSH1 0x0 PUSH2 0x3F94 PUSH1 0x25 DUP4 PUSH2 0x2A64 JUMP JUMPDEST SWAP2 POP PUSH2 0x3F9F DUP3 PUSH2 0x3F38 JUMP JUMPDEST PUSH1 0x40 DUP3 ADD SWAP1 POP SWAP2 SWAP1 POP JUMP JUMPDEST PUSH1 0x0 PUSH1 0x20 DUP3 ADD SWAP1 POP DUP2 DUP2 SUB PUSH1 0x0 DUP4 ADD MSTORE PUSH2 0x3FC3 DUP2 PUSH2 0x3F87 JUMP JUMPDEST SWAP1 POP SWAP2 SWAP1 POP JUMP JUMPDEST PUSH32 0x4552433732313A207472616E7366657220746F20746865207A65726F20616464 PUSH1 0x0 DUP3 ADD MSTORE PUSH32 0x7265737300000000000000000000000000000000000000000000000000000000 PUSH1 0x20 DUP3 ADD MSTORE POP JUMP JUMPDEST PUSH1 0x0 PUSH2 0x4026 PUSH1 0x24 DUP4 PUSH2 0x2A64 JUMP JUMPDEST SWAP2 POP PUSH2 0x4031 DUP3 PUSH2 0x3FCA JUMP JUMPDEST PUSH1 0x40 DUP3 ADD SWAP1 POP SWAP2 SWAP1 POP JUMP JUMPDEST PUSH1 0x0 PUSH1 0x20 DUP3 ADD SWAP1 POP DUP2 DUP2 SUB PUSH1 0x0 DUP4 ADD MSTORE PUSH2 0x4055 DUP2 PUSH2 0x4019 JUMP JUMPDEST SWAP1 POP SWAP2 SWAP1 POP JUMP JUMPDEST PUSH1 0x0 PUSH2 0x4067 DUP3 PUSH2 0x2B14 JUMP JUMPDEST SWAP2 POP PUSH2 0x4072 DUP4 PUSH2 0x2B14 JUMP JUMPDEST SWAP3 POP DUP3 DUP3 LT ISZERO PUSH2 0x4085 JUMPI PUSH2 0x4084 PUSH2 0x3E2F JUMP JUMPDEST JUMPDEST DUP3 DUP3 SUB SWAP1 POP SWAP3 SWAP2 POP POP JUMP JUMPDEST PUSH1 0x0 PUSH2 0x409B DUP3 PUSH2 0x2B14 JUMP JUMPDEST SWAP2 POP PUSH2 0x40A6 DUP4 PUSH2 0x2B14 JUMP JUMPDEST SWAP3 POP DUP3 PUSH32 0xFFFFFFFFFFFFFFFFFFFFFFFFFFFFFFFFFFFFFFFFFFFFFFFFFFFFFFFFFFFFFFFF SUB DUP3 GT ISZERO PUSH2 0x40DB JUMPI PUSH2 0x40DA PUSH2 0x3E2F JUMP JUMPDEST JUMPDEST DUP3 DUP3 ADD SWAP1 POP SWAP3 SWAP2 POP POP JUMP JUMPDEST PUSH32 0x4552433732313A20617070726F766520746F2063616C6C657200000000000000 PUSH1 0x0 DUP3 ADD MSTORE POP JUMP JUMPDEST PUSH1 0x0 PUSH2 0x411C PUSH1 0x19 DUP4 PUSH2 0x2A64 JUMP JUMPDEST SWAP2 POP PUSH2 0x4127 DUP3 PUSH2 0x40E6 JUMP JUMPDEST PUSH1 0x20 DUP3 ADD SWAP1 POP SWAP2 SWAP1 POP JUMP JUMPDEST PUSH1 0x0 PUSH1 0x20 DUP3 ADD SWAP1 POP DUP2 DUP2 SUB PUSH1 0x0 DUP4 ADD MSTORE PUSH2 0x414B DUP2 PUSH2 0x410F JUMP JUMPDEST SWAP1 POP SWAP2 SWAP1 POP JUMP JUMPDEST PUSH32 0x4552433732313A207472616E7366657220746F206E6F6E204552433732315265 PUSH1 0x0 DUP3 ADD MSTORE PUSH32 0x63656976657220696D706C656D656E7465720000000000000000000000000000 PUSH1 0x20 DUP3 ADD MSTORE POP JUMP JUMPDEST PUSH1 0x0 PUSH2 0x41AE PUSH1 0x32 DUP4 PUSH2 0x2A64 JUMP JUMPDEST SWAP2 POP PUSH2 0x41B9 DUP3 PUSH2 0x4152 JUMP JUMPDEST PUSH1 0x40 DUP3 ADD SWAP1 POP SWAP2 SWAP1 POP JUMP JUMPDEST PUSH1 0x0 PUSH1 0x20 DUP3 ADD SWAP1 POP DUP2 DUP2 SUB PUSH1 0x0 DUP4 ADD MSTORE PUSH2 0x41DD DUP2 PUSH2 0x41A1 JUMP JUMPDEST SWAP1 POP SWAP2 SWAP1 POP JUMP JUMPDEST PUSH32 0x4552433732314D657461646174613A2055524920717565727920666F72206E6F PUSH1 0x0 DUP3 ADD MSTORE PUSH32 0x6E6578697374656E7420746F6B656E0000000000000000000000000000000000 PUSH1 0x20 DUP3 ADD MSTORE POP JUMP JUMPDEST PUSH1 0x0 PUSH2 0x4240 PUSH1 0x2F DUP4 PUSH2 0x2A64 JUMP JUMPDEST SWAP2 POP PUSH2 0x424B DUP3 PUSH2 0x41E4 JUMP JUMPDEST PUSH1 0x40 DUP3 ADD SWAP1 POP SWAP2 SWAP1 POP JUMP JUMPDEST PUSH1 0x0 PUSH1 0x20 DUP3 ADD SWAP1 POP DUP2 DUP2 SUB PUSH1 0x0 DUP4 ADD MSTORE PUSH2 0x426F DUP2 PUSH2 0x4233 JUMP JUMPDEST SWAP1 POP SWAP2 SWAP1 POP JUMP JUMPDEST PUSH32 0x4E487B7100000000000000000000000000000000000000000000000000000000 PUSH1 0x0 MSTORE PUSH1 0x12 PUSH1 0x4 MSTORE PUSH1 0x24 PUSH1 0x0 REVERT JUMPDEST PUSH1 0x0 PUSH2 0x42B0 DUP3 PUSH2 0x2B14 JUMP JUMPDEST SWAP2 POP PUSH2 0x42BB DUP4 PUSH2 0x2B14 JUMP JUMPDEST SWAP3 POP DUP3 PUSH2 0x42CB JUMPI PUSH2 0x42CA PUSH2 0x4276 JUMP JUMPDEST JUMPDEST DUP3 DUP3 DIV SWAP1 POP SWAP3 SWAP2 POP POP JUMP JUMPDEST PUSH1 0x0 PUSH2 0x42E1 DUP3 PUSH2 0x2B14 JUMP JUMPDEST SWAP2 POP PUSH2 0x42EC DUP4 PUSH2 0x2B14 JUMP JUMPDEST SWAP3 POP DUP3 PUSH2 0x42FC JUMPI PUSH2 0x42FB PUSH2 0x4276 JUMP JUMPDEST JUMPDEST DUP3 DUP3 MOD SWAP1 POP SWAP3 SWAP2 POP POP JUMP JUMPDEST PUSH1 0x0 PUSH2 0x4312 DUP3 PUSH2 0x2B14 JUMP JUMPDEST SWAP2 POP PUSH2 0x431D DUP4 PUSH2 0x2B14 JUMP JUMPDEST SWAP3 POP DUP2 PUSH32 0xFFFFFFFFFFFFFFFFFFFFFFFFFFFFFFFFFFFFFFFFFFFFFFFFFFFFFFFFFFFFFFFF DIV DUP4 GT DUP3 ISZERO ISZERO AND ISZERO PUSH2 0x4356 JUMPI PUSH2 0x4355 PUSH2 0x3E2F JUMP JUMPDEST JUMPDEST DUP3 DUP3 MUL SWAP1 POP SWAP3 SWAP2 POP POP JUMP JUMPDEST PUSH32 0x45524337323155524953746F726167653A2055524920736574206F66206E6F6E PUSH1 0x0 DUP3 ADD MSTORE PUSH32 0x6578697374656E7420746F6B656E000000000000000000000000000000000000 PUSH1 0x20 DUP3 ADD MSTORE POP JUMP JUMPDEST PUSH1 0x0 PUSH2 0x43BD PUSH1 0x2E DUP4 PUSH2 0x2A64 JUMP JUMPDEST SWAP2 POP PUSH2 0x43C8 DUP3 PUSH2 0x4361 JUMP JUMPDEST PUSH1 0x40 DUP3 ADD SWAP1 POP SWAP2 SWAP1 POP JUMP JUMPDEST PUSH1 0x0 PUSH1 0x20 DUP3 ADD SWAP1 POP DUP2 DUP2 SUB PUSH1 0x0 DUP4 ADD MSTORE PUSH2 0x43EC DUP2 PUSH2 0x43B0 JUMP JUMPDEST SWAP1 POP SWAP2 SWAP1 POP JUMP JUMPDEST PUSH1 0x0 DUP2 MLOAD SWAP1 POP SWAP2 SWAP1 POP JUMP JUMPDEST PUSH1 0x0 DUP3 DUP3 MSTORE PUSH1 0x20 DUP3 ADD SWAP1 POP SWAP3 SWAP2 POP POP JUMP JUMPDEST PUSH1 0x0 PUSH2 0x441A DUP3 PUSH2 0x43F3 JUMP JUMPDEST PUSH2 0x4424 DUP2 DUP6 PUSH2 0x43FE JUMP JUMPDEST SWAP4 POP PUSH2 0x4434 DUP2 DUP6 PUSH1 0x20 DUP7 ADD PUSH2 0x2A75 JUMP JUMPDEST PUSH2 0x443D DUP2 PUSH2 0x2AA8 JUMP JUMPDEST DUP5 ADD SWAP2 POP POP SWAP3 SWAP2 POP POP JUMP JUMPDEST PUSH1 0x0 PUSH1 0x80 DUP3 ADD SWAP1 POP PUSH2 0x445D PUSH1 0x0 DUP4 ADD DUP8 PUSH2 0x2BA9 JUMP JUMPDEST PUSH2 0x446A PUSH1 0x20 DUP4 ADD DUP7 PUSH2 0x2BA9 JUMP JUMPDEST PUSH2 0x4477 PUSH1 0x40 DUP4 ADD DUP6 PUSH2 0x2E3D JUMP JUMPDEST DUP2 DUP2 SUB PUSH1 0x60 DUP4 ADD MSTORE PUSH2 0x4489 DUP2 DUP5 PUSH2 0x440F JUMP JUMPDEST SWAP1 POP SWAP6 SWAP5 POP POP POP POP POP JUMP JUMPDEST PUSH1 0x0 DUP2 MLOAD SWAP1 POP PUSH2 0x44A3 DUP2 PUSH2 0x29CA JUMP JUMPDEST SWAP3 SWAP2 POP POP JUMP JUMPDEST PUSH1 0x0 PUSH1 0x20 DUP3 DUP5 SUB SLT ISZERO PUSH2 0x44BF JUMPI PUSH2 0x44BE PUSH2 0x2994 JUMP JUMPDEST JUMPDEST PUSH1 0x0 PUSH2 0x44CD DUP5 DUP3 DUP6 ADD PUSH2 0x4494 JUMP JUMPDEST SWAP2 POP POP SWAP3 SWAP2 POP POP JUMP JUMPDEST PUSH32 0x4552433732313A206D696E7420746F20746865207A65726F2061646472657373 PUSH1 0x0 DUP3 ADD MSTORE POP JUMP JUMPDEST PUSH1 0x0 PUSH2 0x450C PUSH1 0x20 DUP4 PUSH2 0x2A64 JUMP JUMPDEST SWAP2 POP PUSH2 0x4517 DUP3 PUSH2 0x44D6 JUMP JUMPDEST PUSH1 0x20 DUP3 ADD SWAP1 POP SWAP2 SWAP1 POP JUMP JUMPDEST PUSH1 0x0 PUSH1 0x20 DUP3 ADD SWAP1 POP DUP2 DUP2 SUB PUSH1 0x0 DUP4 ADD MSTORE PUSH2 0x453B DUP2 PUSH2 0x44FF JUMP JUMPDEST SWAP1 POP SWAP2 SWAP1 POP JUMP JUMPDEST PUSH32 0x4552433732313A20746F6B656E20616C7265616479206D696E74656400000000 PUSH1 0x0 DUP3 ADD MSTORE POP JUMP JUMPDEST PUSH1 0x0 PUSH2 0x4578 PUSH1 0x1C DUP4 PUSH2 0x2A64 JUMP JUMPDEST SWAP2 POP PUSH2 0x4583 DUP3 PUSH2 0x4542 JUMP JUMPDEST PUSH1 0x20 DUP3 ADD SWAP1 POP SWAP2 SWAP1 POP JUMP JUMPDEST PUSH1 0x0 PUSH1 0x20 DUP3 ADD SWAP1 POP DUP2 DUP2 SUB PUSH1 0x0 DUP4 ADD MSTORE PUSH2 0x45A7 DUP2 PUSH2 0x456B JUMP JUMPDEST SWAP1 POP SWAP2 SWAP1 POP JUMP INVALID COINBASE TIMESTAMP NUMBER DIFFICULTY GASLIMIT CHAINID SELFBALANCE BASEFEE 0x49 0x4A 0x4B 0x4C 0x4D 0x4E 0x4F POP MLOAD MSTORE MSTORE8 SLOAD SSTORE JUMP JUMPI PC MSIZE GAS PUSH2 0x6263 PUSH5 0x6566676869 PUSH11 0x6B6C6D6E6F707172737475 PUSH23 0x7778797A303132333435363738392B2FA2646970667358 0x22 SLT KECCAK256 DELEGATECALL CALL 0xB3 0xE9 NOT DUP7 PUSH16 0x140E304333F87B5263811FD16E8CC650 PUSH12 0xD908C25A164C294764736F6C PUSH4 0x4300080F STOP CALLER EXTCODECOPY PUSH20 0x766720786D6C6E733D22687474703A2F2F777777 0x2E PUSH24 0x332E6F72672F323030302F737667222077696474683D2232 CALLDATACOPY ADDRESS 0x22 KECCAK256 PUSH9 0x65696768743D223237 ADDRESS 0x22 KECCAK256 PUSH7 0x696C6C3D226E6F PUSH15 0x65223E3C706174682066696C6C3D22 PUSH22 0x726C282361292220643D224D30203068323730763237 ADDRESS BASEFEE ADDRESS PUSH27 0x222F3E3C646566733E3C66696C7465722069643D22622220636F6C PUSH16 0x722D696E746572706F6C6174696F6E2D PUSH7 0x696C746572733D 0x22 PUSH20 0x524742222066696C746572556E6974733D227573 PUSH6 0x725370616365 0x4F PUSH15 0x55736522206865696768743D223237 ADDRESS 0x22 KECCAK256 PUSH24 0x696474683D22323730223E3C666544726F70536861646F77 KECCAK256 PUSH5 0x783D223022 KECCAK256 PUSH5 0x793D223122 KECCAK256 PUSH20 0x7464446576696174696F6E3D22322220666C6F6F PUSH5 0x2D6F706163 PUSH10 0x74793D222E3232352220 PUSH24 0x696474683D223230302522206865696768743D2232303025 0x22 0x2F RETURNDATACOPY EXTCODECOPY 0x2F PUSH7 0x696C7465723E3C 0x2F PUSH5 0x6566733E3C PUSH17 0x617468207374796C653D2266696C6C3A23 PUSH6 0x363463336322 KECCAK256 PUSH5 0x3D224D342E CALLDATASIZE CALLVALUE CALLDATALOAD KECCAK256 CALLVALUE CALLDATALOAD 0x2E CALLDATALOAD CALLDATACOPY CALLDATACOPY PUSH2 0x3235 0x2E CODECOPY CODESIZE CALLDATASIZE KECCAK256 ORIGIN CALLDATALOAD 0x2E CODECOPY CODESIZE CALLDATASIZE KECCAK256 ADDRESS KECCAK256 ADDRESS KECCAK256 BALANCE 0x2D 0x2E ADDRESS ORIGIN CODECOPY 0x2D BALANCE 0x2E BALANCE CALLDATALOAD CALLVALUE PUSH4 0x302D3133 0x2E CODECOPY CODECOPY CALLDATACOPY KECCAK256 BALANCE BALANCE 0x2E CALLER CODESIZE CALLDATACOPY 0x2D ORIGIN CALLDATALOAD 0x2E CALLER CODESIZE CALLDATALOAD KECCAK256 ORIGIN CALLDATALOAD 0x2E CALLER CODESIZE CALLDATALOAD 0x2D ORIGIN CALLDATALOAD 0x2E CALLER CODESIZE CALLDATALOAD PUSH20 0x32352E3338352031312E3338372032352E333835 KECCAK256 ORIGIN CALLDATALOAD 0x2E CALLER CODESIZE CALLDATALOAD PUSH4 0x30202E33 CODESIZE CALLDATACOPY 0x2D 0x2E ADDRESS BALANCE ORIGIN 0x2E CALLDATACOPY CALLDATACOPY BALANCE 0x2D 0x2E ADDRESS ORIGIN CODECOPY KECCAK256 BALANCE 0x2E BALANCE CALLDATALOAD CALLVALUE PUSH9 0x342E363136632E3031 ORIGIN 0x2D 0x2E CALLER CODESIZE CALLVALUE 0x2E ADDRESS ORIGIN CALLDATACOPY 0x2D 0x2E CALLDATACOPY CALLDATASIZE CALLDATACOPY 0x2E ADDRESS ORIGIN CALLDATACOPY 0x2D BALANCE 0x2E BALANCE CALLDATALOAD CALLVALUE KECCAK256 ADDRESS 0x2D BALANCE CALLDATASIZE 0x2E CALLDATALOAD CALLDATASIZE CODECOPY 0x2D BALANCE CALLER 0x2E CALLVALUE CALLER BALANCE 0x2D CALLER ADDRESS 0x2D CALLER ADDRESS 0x2D CALLER ADDRESS PUSH20 0x2D33302031332E3433312D33302033306330202E CALLER CODESIZE CALLDATACOPY 0x2E ADDRESS BALANCE CALLDATALOAD 0x2E CALLDATACOPY CALLDATACOPY 0x2E ADDRESS ORIGIN CODECOPY KECCAK256 BALANCE 0x2E BALANCE CALLDATALOAD CALLVALUE PUSH9 0x342E3631367A222F3E EXTCODECOPY PUSH17 0x617468207374796C653D2266696C6C3A23 PUSH7 0x30633431392220 PUSH5 0x3D224D392E ORIGIN CODESIZE CODECOPY KECCAK256 CALLVALUE CALLDATALOAD 0x2E CALLDATALOAD CALLDATACOPY CALLDATACOPY PUSH4 0x2D2E3032 BALANCE 0x2D 0x2E CALLER CODESIZE CALLVALUE 0x2D 0x2E ADDRESS CALLDATALOAD CODESIZE 0x2D 0x2E CALLDATACOPY CALLDATASIZE CALLVALUE 0x2D 0x2E ADDRESS CALLDATALOAD CODESIZE 0x2D BALANCE 0x2E BALANCE CALLDATALOAD CALLVALUE KECCAK256 ADDRESS 0x2D BALANCE BALANCE 0x2E CALLVALUE CALLDATALOAD ORIGIN KECCAK256 CODECOPY 0x2E CALLER BALANCE CALLDATACOPY 0x2D ORIGIN ADDRESS 0x2E CALLDATACOPY CALLDATASIZE CODECOPY KECCAK256 ORIGIN ADDRESS 0x2E CALLDATACOPY CALLDATASIZE CODECOPY 0x2D ORIGIN ADDRESS 0x2E CALLDATACOPY CALLDATASIZE CODECOPY PUSH20 0x32302E37363920392E3331382032302E37363920 ORIGIN ADDRESS 0x2E CALLDATACOPY CALLDATASIZE CODECOPY PUSH4 0x30202E33 CODESIZE CODECOPY 0x2D 0x2E ADDRESS CALLER CALLDATACOPY 0x2E CALLDATACOPY CALLDATACOPY 0x2D 0x2E ADDRESS CALLDATALOAD CODESIZE KECCAK256 BALANCE 0x2E BALANCE CALLDATALOAD CALLVALUE PUSH9 0x342E363435632E3031 CALLDATACOPY 0x2D 0x2E CALLER CODESIZE CALLER 0x2E ADDRESS ORIGIN CODECOPY 0x2D 0x2E CALLDATACOPY CALLDATASIZE CALLDATACOPY 0x2E ADDRESS ORIGIN CODECOPY 0x2D BALANCE 0x2E BALANCE CALLDATALOAD CALLVALUE KECCAK256 ADDRESS 0x2D BALANCE CALLER 0x2E CODECOPY CODECOPY CALLDATACOPY 0x2D BALANCE BALANCE 0x2E CALLER CODESIZE CALLDATACOPY 0x2D ORIGIN CALLDATALOAD 0x2E CALLER CODESIZE CALLDATALOAD 0x2D ORIGIN CALLDATALOAD 0x2E CALLER CODESIZE CALLDATALOAD 0x2D ORIGIN CALLDATALOAD 0x2E CALLER CODESIZE CALLDATALOAD MSTORE8 CALLVALUE 0x2E CALLDATASIZE BALANCE CALLDATALOAD KECCAK256 CALLER ADDRESS 0x2E CALLVALUE ORIGIN CALLDATASIZE KECCAK256 CALLVALUE 0x2E CALLDATASIZE BALANCE CALLDATALOAD KECCAK256 CALLVALUE CALLVALUE 0x2E CALLVALUE ORIGIN CALLER PUSH4 0x30202E33 CODESIZE CALLDATACOPY 0x2E ADDRESS BALANCE ORIGIN 0x2E CALLDATACOPY CALLDATACOPY BALANCE 0x2E ADDRESS ORIGIN CODECOPY KECCAK256 BALANCE 0x2E BALANCE CALLDATALOAD CALLVALUE PUSH9 0x342E3634357A222F3E EXTCODECOPY PUSH17 0x617468207374796C653D2266696C6C3A23 CALLDATACOPY BALANCE PUSH4 0x32383522 KECCAK256 PUSH5 0x3D224D3133 0x2E CODECOPY ADDRESS CALLDATALOAD KECCAK256 CALLVALUE CALLDATALOAD 0x2E CALLDATALOAD CALLDATACOPY CALLDATACOPY PUSH4 0x2D2E3032 CALLDATACOPY 0x2D 0x2E CALLER CODESIZE CALLER 0x2D 0x2E ADDRESS CALLDATALOAD CODESIZE 0x2D 0x2E CALLDATACOPY CALLDATASIZE CALLVALUE 0x2D 0x2E ADDRESS CALLDATALOAD CODESIZE 0x2D BALANCE 0x2E BALANCE CALLDATALOAD CALLVALUE KECCAK256 ADDRESS 0x2D CODESIZE 0x2E CODECOPY ADDRESS CALLDATACOPY KECCAK256 CALLDATACOPY 0x2E ORIGIN CALLVALUE CALLDATASIZE 0x2D BALANCE CALLDATASIZE 0x2E BALANCE CALLDATALOAD CALLVALUE KECCAK256 BALANCE CALLDATASIZE 0x2E BALANCE CALLDATALOAD CALLVALUE 0x2D BALANCE CALLDATASIZE 0x2E BALANCE CALLDATALOAD CALLVALUE PUSH20 0x31362E31353420372E3234362031362E31353420 BALANCE CALLDATASIZE 0x2E BALANCE CALLDATALOAD CALLVALUE PUSH4 0x30202E33 CODESIZE CODECOPY 0x2D 0x2E ADDRESS CALLER BALANCE 0x2E CALLDATACOPY CALLDATACOPY BALANCE 0x2D 0x2E ADDRESS CALLDATALOAD CODESIZE KECCAK256 BALANCE 0x2E BALANCE CALLDATALOAD CALLVALUE PUSH9 0x342E363135632E3032 BALANCE 0x2D 0x2E CALLER CODESIZE CALLVALUE 0x2E ADDRESS CALLDATALOAD CODESIZE 0x2D 0x2E CALLDATACOPY CALLDATASIZE CALLVALUE 0x2E ADDRESS CALLDATALOAD CODESIZE 0x2D BALANCE 0x2E BALANCE CALLDATALOAD CALLVALUE KECCAK256 ADDRESS 0x2D BALANCE BALANCE 0x2E CALLVALUE CALLDATALOAD ORIGIN 0x2D CODECOPY 0x2E CALLER BALANCE CALLDATACOPY 0x2D ORIGIN ADDRESS 0x2E CALLDATACOPY CALLDATASIZE CODECOPY 0x2D ORIGIN ADDRESS 0x2E CALLDATACOPY CALLDATASIZE CODECOPY 0x2D ORIGIN ADDRESS 0x2E CALLDATACOPY CALLDATASIZE CODECOPY PUSH20 0x2D32302E373720392E3331372D32302E37372032 ADDRESS 0x2E CALLDATACOPY CALLDATASIZE CODECOPY PUSH4 0x30202E33 CODESIZE CODECOPY 0x2E ADDRESS CALLER CALLDATACOPY 0x2E CALLDATACOPY CALLDATACOPY 0x2E ADDRESS CALLDATALOAD CODESIZE KECCAK256 BALANCE 0x2E BALANCE CALLDATALOAD CALLVALUE PUSH9 0x342E3631367A222F3E EXTCODECOPY PUSH17 0x617468207374796C653D2266696C6C3A23 ADDRESS ADDRESS CODECOPY CALLDATASIZE PUSH6 0x362220643D22 0x4D BALANCE CODESIZE 0x2E CALLDATALOAD ORIGIN KECCAK256 CALLVALUE CALLDATALOAD 0x2E CALLDATALOAD CALLDATACOPY CALLDATACOPY PUSH2 0x3131 0x2E CALLDATALOAD CODESIZE KECCAK256 BALANCE BALANCE 0x2E CALLDATALOAD CODESIZE KECCAK256 ADDRESS KECCAK256 ADDRESS KECCAK256 BALANCE 0x2D 0x2E ADDRESS CALLDATALOAD CODESIZE 0x2D BALANCE 0x2E BALANCE CALLDATALOAD CALLVALUE PUSH4 0x302D362E CALLER CALLDATASIZE ORIGIN KECCAK256 CALLDATALOAD 0x2E BALANCE CALLDATACOPY CALLDATASIZE 0x2D BALANCE BALANCE 0x2E CALLDATALOAD CALLER CODESIZE KECCAK256 BALANCE BALANCE 0x2E CALLDATALOAD CALLER CODESIZE 0x2D BALANCE BALANCE 0x2E CALLDATALOAD CALLER CODESIZE PUSH20 0x31312E35333820352E3137372031312E35333820 BALANCE BALANCE 0x2E CALLDATALOAD CALLER CODESIZE PUSH4 0x30202E33 CODESIZE CODECOPY 0x2D 0x2E ADDRESS ORIGIN BALANCE 0x2E CALLDATACOPY CALLDATACOPY CALLVALUE 0x2D 0x2E ADDRESS CALLDATALOAD CODESIZE KECCAK256 BALANCE 0x2E BALANCE CALLDATALOAD CALLVALUE PUSH9 0x342E363135632E3032 CALLDATACOPY 0x2D 0x2E CALLER CODESIZE CALLER 0x2E ADDRESS CALLDATALOAD CODESIZE 0x2D 0x2E CALLDATACOPY CALLDATASIZE CALLVALUE 0x2E ADDRESS CALLDATALOAD CODESIZE 0x2D BALANCE 0x2E BALANCE CALLDATALOAD CALLVALUE KECCAK256 ADDRESS 0x2D CODESIZE 0x2E CODECOPY ADDRESS CALLDATACOPY 0x2D CALLDATACOPY 0x2E ORIGIN CALLVALUE CALLDATASIZE 0x2D BALANCE CALLDATASIZE 0x2E BALANCE CALLDATALOAD CALLVALUE 0x2D BALANCE CALLDATASIZE 0x2E BALANCE CALLDATALOAD CALLVALUE 0x2D BALANCE CALLDATASIZE 0x2E BALANCE CALLDATALOAD CALLVALUE PUSH20 0x2D31362E31353420372E3234362D31362E313534 KECCAK256 BALANCE CALLDATASIZE 0x2E BALANCE CALLDATALOAD CALLVALUE PUSH4 0x30202E33 CODESIZE CODECOPY 0x2E ADDRESS CALLER BALANCE 0x2E CALLDATACOPY CALLDATACOPY BALANCE 0x2E ADDRESS CALLDATALOAD CODESIZE KECCAK256 BALANCE 0x2E BALANCE CALLDATALOAD CALLVALUE PUSH9 0x342E3631377A222F3E EXTCODECOPY PUSH17 0x617468207374796C653D2266696C6C3A23 CALLDATALOAD CALLVALUE CALLDATASIZE PUSH2 0x3739 0x22 KECCAK256 PUSH5 0x3D224D3233 0x2E BALANCE CODESIZE BALANCE KECCAK256 CALLVALUE CALLDATALOAD 0x2E CALLDATALOAD CALLDATACOPY CALLDATACOPY PUSH2 0x362E CODESIZE CALLDATALOAD CODECOPY KECCAK256 CALLDATASIZE 0x2E CODESIZE CALLDATALOAD CODECOPY KECCAK256 ADDRESS KECCAK256 ADDRESS KECCAK256 BALANCE 0x2D 0x2E BALANCE ADDRESS CALLVALUE 0x2D BALANCE 0x2E BALANCE CALLDATALOAD CALLVALUE PUSH4 0x302D332E CODESIZE BALANCE CODESIZE KECCAK256 CALLER 0x2E BALANCE ADDRESS CALLDATALOAD 0x2D CALLDATASIZE 0x2E CODECOPY ORIGIN CALLER KECCAK256 CALLDATASIZE 0x2E CODECOPY ORIGIN CALLER 0x2D CALLDATASIZE 0x2E CODECOPY ORIGIN CALLER PUSH20 0x362E39323320332E31303520362E39323320362E CODECOPY ORIGIN CALLER PUSH4 0x30202E33 CODECOPY CALLVALUE 0x2D 0x2E ADDRESS CALLVALUE BALANCE 0x2E CALLDATACOPY CALLDATACOPY CODESIZE 0x2D 0x2E BALANCE ADDRESS CALLVALUE KECCAK256 BALANCE 0x2E BALANCE CALLDATALOAD CALLVALUE PUSH9 0x342E363631632E3033 CODESIZE 0x2D 0x2E CALLER CODESIZE 0x2E ADDRESS CALLDATALOAD CODESIZE 0x2D 0x2E CALLDATACOPY CALLDATASIZE CALLVALUE 0x2E ADDRESS CALLDATALOAD CODESIZE 0x2D BALANCE 0x2E BALANCE CALLDATALOAD CALLVALUE KECCAK256 ADDRESS 0x2D CALLDATASIZE 0x2E CALLER CALLDATASIZE ORIGIN 0x2D CALLDATALOAD 0x2E BALANCE CALLDATACOPY CALLDATASIZE 0x2D BALANCE BALANCE 0x2E CALLDATALOAD CALLER CODESIZE 0x2D BALANCE BALANCE 0x2E CALLDATALOAD CALLER CODESIZE 0x2D BALANCE BALANCE 0x2E CALLDATALOAD CALLER CODESIZE PUSH20 0x2D31312E35333820352E3137372D31312E353338 KECCAK256 BALANCE BALANCE 0x2E CALLDATALOAD CALLER CODESIZE PUSH4 0x30202E33 CODESIZE CODECOPY 0x2E ADDRESS ORIGIN BALANCE 0x2E CALLDATACOPY CALLDATACOPY CALLVALUE 0x2E ADDRESS CALLDATALOAD CODESIZE KECCAK256 BALANCE 0x2E BALANCE CALLDATALOAD CALLVALUE PUSH9 0x342E3636317A222F3E EXTCODECOPY PUSH5 0x6566733E3C PUSH13 0x696E6561724772616469656E74 KECCAK256 PUSH10 0x643D2261222078313D22 ADDRESS 0x22 KECCAK256 PUSH26 0x313D2230222078323D22323730222079323D2232373022206772 PUSH2 0x6469 PUSH6 0x6E74556E6974 PUSH20 0x3D227573657253706163654F6E557365223E3C73 PUSH21 0x6F702073746F702D636F6C6F723D22236362356565 PUSH6 0x222F3E3C7374 PUSH16 0x70206F66667365743D2231222073746F PUSH17 0x2D636F6C6F723D22233063643765342220 PUSH20 0x746F702D6F7061636974793D222E3939222F3E3C 0x2F PUSH13 0x696E6561724772616469656E74 RETURNDATACOPY EXTCODECOPY 0x2F PUSH5 0x6566733E3C PUSH21 0x65787420783D2233322E352220793D223233312220 PUSH7 0x6F6E742D73697A PUSH6 0x3D2232372220 PUSH7 0x696C6C3D222366 PUSH7 0x66222066696C74 PUSH6 0x723D2275726C 0x28 0x23 PUSH3 0x292220 PUSH7 0x6F6E742D66616D PUSH10 0x6C793D22506C7573204A PUSH2 0x6B61 PUSH19 0x74612053616E732C44656A6156752053616E73 0x2C 0x4E PUSH16 0x746F20436F6C6F7220456D6F6A692C41 PUSH17 0x706C6520436F6C6F7220456D6F6A692C73 PUSH2 0x6E73 0x2D PUSH20 0x657269662220666F6E742D7765696768743D2262 PUSH16 0x6C64223E000000000000000000000000 "
		},
		"gasEstimates": {
			"creation": {
				"codeDepositCost": "3591200",
				"executionCost": "infinite",
				"totalCost": "infinite"
			},
			"external": {
				"approve(address,uint256)": "infinite",
				"balanceOf(address)": "2987",
				"domains(string)": "infinite",
				"getAddress(string)": "infinite",
				"getAllNames()": "infinite",
				"getApproved(uint256)": "5251",
				"getCounter()": "2532",
				"getRecord(string)": "infinite",
				"isApprovedForAll(address,address)": "infinite",
				"isOwner()": "2586",
				"name()": "infinite",
				"names(uint256)": "infinite",
				"owner()": "2582",
				"ownerOf(uint256)": "3063",
				"price(string)": "infinite",
				"records(string)": "infinite",
				"register(string)": "infinite",
				"safeTransferFrom(address,address,uint256)": "infinite",
				"safeTransferFrom(address,address,uint256,bytes)": "infinite",
				"setApprovalForAll(address,bool)": "infinite",
				"setRecord(string,string)": "infinite",
				"supportsInterface(bytes4)": "820",
				"symbol()": "infinite",
				"tld()": "infinite",
				"tokenURI(uint256)": "infinite",
				"transferFrom(address,address,uint256)": "infinite",
				"valid(string)": "infinite",
				"withdraw()": "infinite"
			}
		},
		"methodIdentifiers": {
			"approve(address,uint256)": "095ea7b3",
			"balanceOf(address)": "70a08231",
			"domains(string)": "26449235",
			"getAddress(string)": "bf40fac1",
			"getAllNames()": "fb825e5f",
			"getApproved(uint256)": "081812fc",
			"getCounter()": "8ada066e",
			"getRecord(string)": "11dd8845",
			"isApprovedForAll(address,address)": "e985e9c5",
			"isOwner()": "8f32d59b",
			"name()": "06fdde03",
			"names(uint256)": "4622ab03",
			"owner()": "8da5cb5b",
			"ownerOf(uint256)": "6352211e",
			"price(string)": "fe2c6198",
			"records(string)": "541e771d",
			"register(string)": "f2c298be",
			"safeTransferFrom(address,address,uint256)": "42842e0e",
			"safeTransferFrom(address,address,uint256,bytes)": "b88d4fde",
			"setApprovalForAll(address,bool)": "a22cb465",
			"setRecord(string,string)": "c1880a98",
			"supportsInterface(bytes4)": "01ffc9a7",
			"symbol()": "95d89b41",
			"tld()": "2d551432",
			"tokenURI(uint256)": "c87b56dd",
			"transferFrom(address,address,uint256)": "23b872dd",
			"valid(string)": "9791c097",
			"withdraw()": "3ccfd60b"
		}
	},
	"abi": [
		{
			"inputs": [
				{
					"internalType": "string",
					"name": "_tld",
					"type": "string"
				}
			],
			"stateMutability": "payable",
			"type": "constructor"
		},
		{
			"inputs": [],
			"name": "AlreadyRegistered",
			"type": "error"
		},
		{
			"inputs": [
				{
					"internalType": "string",
					"name": "name",
					"type": "string"
				}
			],
			"name": "InvalidName",
			"type": "error"
		},
		{
			"inputs": [],
			"name": "Unauthorized",
			"type": "error"
		},
		{
			"anonymous": false,
			"inputs": [
				{
					"indexed": true,
					"internalType": "address",
					"name": "owner",
					"type": "address"
				},
				{
					"indexed": true,
					"internalType": "address",
					"name": "approved",
					"type": "address"
				},
				{
					"indexed": true,
					"internalType": "uint256",
					"name": "tokenId",
					"type": "uint256"
				}
			],
			"name": "Approval",
			"type": "event"
		},
		{
			"anonymous": false,
			"inputs": [
				{
					"indexed": true,
					"internalType": "address",
					"name": "owner",
					"type": "address"
				},
				{
					"indexed": true,
					"internalType": "address",
					"name": "operator",
					"type": "address"
				},
				{
					"indexed": false,
					"internalType": "bool",
					"name": "approved",
					"type": "bool"
				}
			],
			"name": "ApprovalForAll",
			"type": "event"
		},
		{
			"anonymous": false,
			"inputs": [
				{
					"indexed": true,
					"internalType": "address",
					"name": "from",
					"type": "address"
				},
				{
					"indexed": true,
					"internalType": "address",
					"name": "to",
					"type": "address"
				},
				{
					"indexed": true,
					"internalType": "uint256",
					"name": "tokenId",
					"type": "uint256"
				}
			],
			"name": "Transfer",
			"type": "event"
		},
		{
			"inputs": [
				{
					"internalType": "address",
					"name": "to",
					"type": "address"
				},
				{
					"internalType": "uint256",
					"name": "tokenId",
					"type": "uint256"
				}
			],
			"name": "approve",
			"outputs": [],
			"stateMutability": "nonpayable",
			"type": "function"
		},
		{
			"inputs": [
				{
					"internalType": "address",
					"name": "owner",
					"type": "address"
				}
			],
			"name": "balanceOf",
			"outputs": [
				{
					"internalType": "uint256",
					"name": "",
					"type": "uint256"
				}
			],
			"stateMutability": "view",
			"type": "function"
		},
		{
			"inputs": [
				{
					"internalType": "string",
					"name": "",
					"type": "string"
				}
			],
			"name": "domains",
			"outputs": [
				{
					"internalType": "address",
					"name": "",
					"type": "address"
				}
			],
			"stateMutability": "view",
			"type": "function"
		},
		{
			"inputs": [
				{
					"internalType": "string",
					"name": "name",
					"type": "string"
				}
			],
			"name": "getAddress",
			"outputs": [
				{
					"internalType": "address",
					"name": "",
					"type": "address"
				}
			],
			"stateMutability": "view",
			"type": "function"
		},
		{
			"inputs": [],
			"name": "getAllNames",
			"outputs": [
				{
					"internalType": "string[]",
					"name": "",
					"type": "string[]"
				}
			],
			"stateMutability": "view",
			"type": "function"
		},
		{
			"inputs": [
				{
					"internalType": "uint256",
					"name": "tokenId",
					"type": "uint256"
				}
			],
			"name": "getApproved",
			"outputs": [
				{
					"internalType": "address",
					"name": "",
					"type": "address"
				}
			],
			"stateMutability": "view",
			"type": "function"
		},
		{
			"inputs": [],
			"name": "getCounter",
			"outputs": [
				{
					"internalType": "uint256",
					"name": "",
					"type": "uint256"
				}
			],
			"stateMutability": "view",
			"type": "function"
		},
		{
			"inputs": [
				{
					"internalType": "string",
					"name": "name",
					"type": "string"
				}
			],
			"name": "getRecord",
			"outputs": [
				{
					"internalType": "string",
					"name": "",
					"type": "string"
				}
			],
			"stateMutability": "view",
			"type": "function"
		},
		{
			"inputs": [
				{
					"internalType": "address",
					"name": "owner",
					"type": "address"
				},
				{
					"internalType": "address",
					"name": "operator",
					"type": "address"
				}
			],
			"name": "isApprovedForAll",
			"outputs": [
				{
					"internalType": "bool",
					"name": "",
					"type": "bool"
				}
			],
			"stateMutability": "view",
			"type": "function"
		},
		{
			"inputs": [],
			"name": "isOwner",
			"outputs": [
				{
					"internalType": "bool",
					"name": "",
					"type": "bool"
				}
			],
			"stateMutability": "view",
			"type": "function"
		},
		{
			"inputs": [],
			"name": "name",
			"outputs": [
				{
					"internalType": "string",
					"name": "",
					"type": "string"
				}
			],
			"stateMutability": "view",
			"type": "function"
		},
		{
			"inputs": [
				{
					"internalType": "uint256",
					"name": "",
					"type": "uint256"
				}
			],
			"name": "names",
			"outputs": [
				{
					"internalType": "string",
					"name": "",
					"type": "string"
				}
			],
			"stateMutability": "view",
			"type": "function"
		},
		{
			"inputs": [],
			"name": "owner",
			"outputs": [
				{
					"internalType": "address payable",
					"name": "",
					"type": "address"
				}
			],
			"stateMutability": "view",
			"type": "function"
		},
		{
			"inputs": [
				{
					"internalType": "uint256",
					"name": "tokenId",
					"type": "uint256"
				}
			],
			"name": "ownerOf",
			"outputs": [
				{
					"internalType": "address",
					"name": "",
					"type": "address"
				}
			],
			"stateMutability": "view",
			"type": "function"
		},
		{
			"inputs": [
				{
					"internalType": "string",
					"name": "name",
					"type": "string"
				}
			],
			"name": "price",
			"outputs": [
				{
					"internalType": "uint256",
					"name": "",
					"type": "uint256"
				}
			],
			"stateMutability": "pure",
			"type": "function"
		},
		{
			"inputs": [
				{
					"internalType": "string",
					"name": "",
					"type": "string"
				}
			],
			"name": "records",
			"outputs": [
				{
					"internalType": "string",
					"name": "",
					"type": "string"
				}
			],
			"stateMutability": "view",
			"type": "function"
		},
		{
			"inputs": [
				{
					"internalType": "string",
					"name": "name",
					"type": "string"
				}
			],
			"name": "register",
			"outputs": [],
			"stateMutability": "payable",
			"type": "function"
		},
		{
			"inputs": [
				{
					"internalType": "address",
					"name": "from",
					"type": "address"
				},
				{
					"internalType": "address",
					"name": "to",
					"type": "address"
				},
				{
					"internalType": "uint256",
					"name": "tokenId",
					"type": "uint256"
				}
			],
			"name": "safeTransferFrom",
			"outputs": [],
			"stateMutability": "nonpayable",
			"type": "function"
		},
		{
			"inputs": [
				{
					"internalType": "address",
					"name": "from",
					"type": "address"
				},
				{
					"internalType": "address",
					"name": "to",
					"type": "address"
				},
				{
					"internalType": "uint256",
					"name": "tokenId",
					"type": "uint256"
				},
				{
					"internalType": "bytes",
					"name": "_data",
					"type": "bytes"
				}
			],
			"name": "safeTransferFrom",
			"outputs": [],
			"stateMutability": "nonpayable",
			"type": "function"
		},
		{
			"inputs": [
				{
					"internalType": "address",
					"name": "operator",
					"type": "address"
				},
				{
					"internalType": "bool",
					"name": "approved",
					"type": "bool"
				}
			],
			"name": "setApprovalForAll",
			"outputs": [],
			"stateMutability": "nonpayable",
			"type": "function"
		},
		{
			"inputs": [
				{
					"internalType": "string",
					"name": "name",
					"type": "string"
				},
				{
					"internalType": "string",
					"name": "record",
					"type": "string"
				}
			],
			"name": "setRecord",
			"outputs": [],
			"stateMutability": "nonpayable",
			"type": "function"
		},
		{
			"inputs": [
				{
					"internalType": "bytes4",
					"name": "interfaceId",
					"type": "bytes4"
				}
			],
			"name": "supportsInterface",
			"outputs": [
				{
					"internalType": "bool",
					"name": "",
					"type": "bool"
				}
			],
			"stateMutability": "view",
			"type": "function"
		},
		{
			"inputs": [],
			"name": "symbol",
			"outputs": [
				{
					"internalType": "string",
					"name": "",
					"type": "string"
				}
			],
			"stateMutability": "view",
			"type": "function"
		},
		{
			"inputs": [],
			"name": "tld",
			"outputs": [
				{
					"internalType": "string",
					"name": "",
					"type": "string"
				}
			],
			"stateMutability": "view",
			"type": "function"
		},
		{
			"inputs": [
				{
					"internalType": "uint256",
					"name": "tokenId",
					"type": "uint256"
				}
			],
			"name": "tokenURI",
			"outputs": [
				{
					"internalType": "string",
					"name": "",
					"type": "string"
				}
			],
			"stateMutability": "view",
			"type": "function"
		},
		{
			"inputs": [
				{
					"internalType": "address",
					"name": "from",
					"type": "address"
				},
				{
					"internalType": "address",
					"name": "to",
					"type": "address"
				},
				{
					"internalType": "uint256",
					"name": "tokenId",
					"type": "uint256"
				}
			],
			"name": "transferFrom",
			"outputs": [],
			"stateMutability": "nonpayable",
			"type": "function"
		},
		{
			"inputs": [
				{
					"internalType": "string",
					"name": "name",
					"type": "string"
				}
			],
			"name": "valid",
			"outputs": [
				{
					"internalType": "bool",
					"name": "",
					"type": "bool"
				}
			],
			"stateMutability": "pure",
			"type": "function"
		},
		{
			"inputs": [],
			"name": "withdraw",
			"outputs": [],
			"stateMutability": "nonpayable",
			"type": "function"
		}
	]
}